:100000000C94A7000C94C4000C94C4000C942F040E
:100010000C94C4000C94C4000C9419040C94C400F7
:100020000C94C4000C94D7010C94C4000C94C4002C
:100030000C94C4000C94C4000C94C4000C94C40030
:100040000C94C4000C94C4000C94C4000C94C40020
:100050000C9450010C9496010C94C4000C94C400B0
:100060000C94C4000C94C4000C94C4000C94C40000
:100070000C94C4000C94C4000C94C4000A0945728A
:10008000726F723A20496E76616C696420496E74B1
:1000900065727570740A000A6D61696E3A20696E46
:1000A00069743A095B646F6E655D0A0A000A7469D7
:1000B0006D6572733A20696E69743A095B646F6E9C
:1000C000655D000A74696D6572733A20696E6974C2
:1000D0003A09737461727400095B646F6E655D0048
:1000E0000A74696D6572733A20696E69743A207496
:1000F000696D65723200095B646F6E655D000A743C
:10010000696D6572733A20696E69743A2074696D1D
:1001100065723100095B646F6E655D000A74696D1C
:100120006572733A20696E69743A2074696D6572FC
:1001300030005761726E696E673A20656D70747930
:1001400020717565756520706F702E0A000011248E
:100150001FBECFEFD8E0DEBFCDBF11E0A0E0B1E021
:10016000E0E9FEE002C005900D92AC31B107D9F78D
:1001700011E0ACE1B1E001C01D92A33BB107E1F792
:100180000E943C010C9446070C94D10080E090E062
:1001900020E80FB6F89420936100809361000FBEB1
:1001A00008951F920F920FB60F9211248F939F9371
:1001B0008CE790E09F938F938091B1019091B20171
:1001C0009F938F930E9445040F900F900F900F9074
:1001D0009F918F910F900FBE0F901F901895EF92E7
:1001E000FF920F931F93CF93DF93C7E0D0E091E08E
:1001F000E92EF12C082F10E0C7010C2E02C0880F49
:10020000991F0A94E2F7802391230C2E02C0959542
:1002100087950A94E2F7C0960E94890421978FEF90
:10022000CF3FD80749F7DF91CF911F910F91FF90F2
:10023000EF900895E4E6F0E08081876F808380E0AE
:1002400090E020E80FB6F89420936100809361005D
:100250000FBE85B7806885BF0E9468010E94390380
:100260000E94F90387E990E09F938F930E946204B4
:1002700078940F900F9008950E941A01FFCF1F935A
:10028000182F8A3019F48DE00E943F018091C00040
:1002900085FFFCCF1093C60080E090E01F91089589
:1002A0001F920F920FB60F9211248F939F938091FC
:1002B000C60080931C018A3221F48DE191E00E94F6
:1002C00074039F918F910F900FBE0F901F90189500
:1002D000E4E6F0E080818D7F80838DE191E00E94F3
:1002E000740389E190E09093C5008093C400E0EC32
:1002F000F0E080818F7D808380818D7F808386E0A8
:100300008093C200E1ECF0E088E180838081806826
:10031000808380E091E09093B0018093AF018EE004
:1003200091E09093B2018093B10108951F920F92D2
:100330000FB60F9211248F939F9380913F018823D2
:1003400031F08DE191E00E94BC038093C600809162
:100350003F01882329F48091C1008F7D8093C100E3
:100360009F918F910F900FBE0F901F9018951F9324
:10037000182F8A3019F48DE00E94B7018DE191E0C9
:100380000E94B4038823D1F78091C1008F7D8093B0
:10039000C100612F8DE191E00E9479038091C1003D
:1003A00080628093C10080E090E01F9108951F92C9
:1003B0000F920FB60F9211242F938F939F938091DA
:1003C000880090918900805F9F4F28F01092410132
:1003D000109240010CC08091880090918900409754
:1003E00030F481E090E0909341018093400180914E
:1003F000400190914101019731F4809188009091E2
:100400008900409605C080918800909189004097AE
:10041000909389008093880080918A0090918B004E
:10042000805F9F4F28F010924301109242010CC050
:1004300080918A0090918B00409730F481E090E0A9
:100440009093430180934201809142019091430136
:10045000019731F480918A0090918B00409605C0FD
:1004600080918A0090918B00409790938B008093AD
:100470008A009F918F912F910F900FBE0F901F9028
:10048000189580EE90E09F938F938091B1019091A9
:10049000B2019F938F930E944504E4E6F0E08081CF
:1004A0008F7B8083A1EBB0E08C91887F8C93E0EB15
:1004B000F0E080818F708083808182608083808182
:1004C0008E7F80838C91877F8C9382E080937000F5
:1004D0001092B2001092B4008DE78093B3008C911B
:1004E00084608C938C918C7F8C9388ED90E09F93AB
:1004F0008F938091B1019091B2019F938F930E944D
:1005000045048DB79EB708960FB6F8949EBF0FBEF0
:100510008DBF08958EEF90E09F938F938091B101EE
:100520009091B2019F938F930E944504E4E6F0E01E
:100530008081877F8083E1E8F0E08081887F80830D
:100540008AB180638AB9A0E8B0E08C91806A8C930C
:100550008C918F7A8C93808180628083808180618E
:1005600080838081877F80838C918C7F8C932FB751
:10057000F8948FEF9FEF90938700809386002FBFB2
:100580008FB7F89410928500109284008FBF8FB7B8
:10059000F89410928900109288008FBF8FB7F8945A
:1005A00010928B0010928A008FBF10926F00E1E8CA
:1005B000F0E080818160808386EF90E09F938F934D
:1005C0008091B1019091B2019F938F930E94450455
:1005D0008DB79EB708960FB6F8949EBF0FBE8DBF1D
:1005E00008958CE191E09F938F938091B101909158
:1005F000B2019F938F930E944504E4E6F0E080816E
:100600008F7D8083E1E8F0E08081887F808384B102
:10061000886184B984B5806A84BD84B58F7A84BDCD
:1006200085B5877F85BD84B58D7F84BD84B58160A8
:1006300084BD16BC17BC18BC10926E0085B58460D2
:1006400085BD85B58C7F85BD84E191E09F938F93B7
:100650008091B1019091B2019F938F930E944504C4
:100660008DB79EB708960FB6F8949EBF0FBE8DBF8C
:10067000089583EC90E09F938F938091B1019091C6
:10068000B2019F938F930E9445040E94F1020E9441
:100690008A020E9441028FEF9FEF9093890080931E
:1006A000880010928B0010928A0081E090E0909375
:1006B00041018093400110924301109242018DEA62
:1006C00090E09F938F938091B1019091B2019F939D
:1006D0008F930E9445048DB79EB708960FB6F89485
:1006E0009EBF0FBE8DBF0895FC0110A211A212A2E1
:1006F0000895DC01FC0182A1803210F08FEF089593
:10070000FD0181A1E80FF11D6083FD0181A190E051
:1007100001968F71907081A382A18F5F82A380E088
:100720000895EF92FF920F931F93CF93DF937C0175
:10073000042FEB0110E001C01F5F101730F4699126
:10074000C7010E9479031816BCF3DF91CF911F9166
:100750000F91FF90EF900895FC0182A190E0882313
:1007600009F491E0892F0895FC0182A190E0803284
:1007700008F091E0892F0895CF93DF93DC01EC011D
:100780008AA1882351F482E391E09F938F930E9482
:100790006204EFEF0F900F900FC0FD0180A1E80FF2
:1007A000F11DE081ED0188A190E001968F719070BC
:1007B00088A38AA181508AA38E2FDF91CF910895BB
:1007C000EF92FF920F931F93CF93DF937C01042F3F
:1007D000EB0110E005C0C7010E94BC0389931F5FB5
:1007E0001017C8F3DF91CF911F910F91FF90EF90F9
:1007F0000895E9E6F0E080818062808380818F7EC9
:100800008083EA9AEDE6F0E08081806E8083E8E6FE
:10081000F0E080818460808384B1897F84B985B170
:10082000866085B987B18F7187B988B1806E88B9C4
:1008300008951F920F920FB60F9211248F939F93DA
:10084000369B02C0379904C08AE090E00E94890478
:100850009F918F910F900FBE0F901F9018951F9230
:100860000F920FB60F9211248F939F93199B02C082
:1008700080E301C081E390E00E9489049F918F9101
:100880000F900FBE0F901F901895A0E0B0E0EBE422
:10089000F4E00C941D070F8118859E01255F3F4FE2
:1008A000F801838188608383A90169857A85C801FD
:1008B0000E949004F8012381277F23832096E4E09F
:1008C0000C943907A0E0B0E0E8E6F4E00C941F07D0
:1008D0009E012B5F3F4FF901619171919F01A091A2
:1008E000AF01B091B001FD01838188608383A901CC
:1008F0008091AF019091B0010E949004E091AF010E
:10090000F091B0012381277F23832096E2E00C94AD
:100910003B076091AF017091B0010E948506089578
:10092000ABE0B0E0E6E9F4E00C940F073C012B01EA
:100930005A01FC0117821682838181FD03C06FEF8B
:100940007FEFC8C19AE0892E1E010894211C311C3A
:10095000F3012381F20123FD859123FF81912F0172
:10096000882309F4B4C1853239F423FD859123FF2E
:1009700081912F01853229F4B30190E00E94850610
:10098000E7CF982FDD24CC249924FFE1FD15D0F08A
:100990009B3269F09C3228F4903259F0933291F4F2
:1009A0000EC09D3249F0903369F441E024C052E01A
:1009B000D52A84E0D82A28C098E0D92A25C0E0E1C9
:1009C000DE2A22C0D7FC29C0892F80538A3070F4D8
:1009D000D6FE05C0989C902C1124980E15C0C89C7A
:1009E000C02C1124C80EF0E2DF2A0EC09E3229F47A
:1009F000D6FC6DC140E4D42A07C09C3619F450E8F7
:100A0000D52A02C0983649F4F20123FD959123FFBF
:100A100091912F01992309F0B8CF892F8554833004
:100A200018F08052833038F444E050E0A40EB51E34
:100A30005FE359830FC0933631F0933779F09335E4
:100A400009F056C020C0F5018081898342E050E062
:100A5000A40EB51E710101E010E012C0F501E080A6
:100A6000F180D6FC03C06FEF7FEF02C0692D70E00C
:100A700042E050E0A40EB51EC7010E947A068C0128
:100A80005FE7D52214C0F501E080F180D6FC03C0F9
:100A90006FEF7FEF02C0692D70E042E050E0A40EDE
:100AA000B51EC7010E946F068C0150E8D52AD3FEFF
:100AB00007C01AC0B30180E290E00E948506CA9484
:100AC0008C2D90E008171907A8F30EC0F701D7FC8A
:100AD0008591D7FE81917F01B30190E00E94850648
:100AE000C110CA94015010400115110579F7ECC0EE
:100AF000943611F0993671F5D7FE08C0F501E08003
:100B0000F1800281138144E050E00AC0F501808148
:100B100091817C010027F7FC0095102F42E050E006
:100B2000A40EB51E5FE6D52217FF0AC010950095EA
:100B3000F094E094E11CF11C011D111D80E8D82AFD
:100B40002AE030E0A101C801B7010E94B106F82EE9
:100B5000F21840C0953729F41D2D1F7E2AE030E0A1
:100B60001DC01D2D197F9F3661F0903720F49835F8
:100B700009F0ADC00FC0903739F0983709F0A7C021
:100B800004C028E030E00AC0106114FD146020E1C8
:100B900030E004C014FD166020E132E017FF08C009
:100BA000F501608171818281938144E050E008C049
:100BB000F50180819181BC0180E090E042E050E04D
:100BC000A40EB51EA1010E94B106F82EF2188FE7FF
:100BD000D82ED122D6FE0BC05EEFD522F91438F400
:100BE000D4FE07C0D2FC05C08FEED82202C01F2D54
:100BF00001C0192DD4FE0DC0FE01EF0DF11D808145
:100C0000803319F499EED92208C01F5FD2FE05C0C7
:100C100003C08D2D867809F01F5F0D2DD3FC14C005
:100C2000D0FE0FC01C1510F09F2C0BC09F2C9C0CED
:100C3000911A1C2D06C0B30180E290E00E94850647
:100C40001F5F1C15C0F304C01C1510F4C11A01C0AD
:100C5000CC2404FF10C0B30180E390E00E9485061D
:100C600002FF1EC001FD03C088E790E002C088E5D6
:100C700090E0B3010CC0802F867891F001FF02C094
:100C80008BE201C080E2D7FC8DE2B30190E00E94CC
:100C9000850606C0B30180E390E00E9485069A9421
:100CA000F914C0F3FA94F101EF0DF11DB301808145
:100CB00090E00E948506FF20A9F706C0B30180E2FC
:100CC00090E00E948506CA94CC20C1F741CEF30182
:100CD00066817781CB012B96E2E10C942B07FC0116
:100CE0000590615070400110D8F7809590958E0F57
:100CF0009F1F0895FC016150704001900110D8F7CA
:100D0000809590958E0F9F1F08950F931F93CF93FB
:100D1000DF938C01EB018B8181FF1BC082FF0DC033
:100D20002E813F818C819D812817390764F4E881E9
:100D3000F9810193F983E88306C0E885F985802F5E
:100D40000995892B31F48E819F8101969F838E8333
:100D500002C00FEF1FEFC801DF91CF911F910F91DC
:100D60000895FA01AA27283051F1203181F1E89441
:100D70006F936E7F6E5F7F4F8F4F9F4FAF4FB1E08E
:100D80003ED0B4E03CD0670F781F891F9A1FA11D89
:100D9000680F791F8A1F911DA11D6A0F711D811D8A
:100DA000911DA11D20D009F468943F912AE0269F4F
:100DB00011243019305D3193DEF6CF010895462FAE
:100DC0004770405D4193B3E00FD0C9F7F6CF462F8F
:100DD0004F70405D4A3318F0495D31FD40524193F8
:100DE00002D0A9F7EACFB4E0A695979587957795B5
:100DF0006795BA95C9F700976105710508959B013C
:100E0000AC010A2E06945795479537952795BA95C4
:100E1000C9F7620F731F841F951FA01D08952F929D
:100E20003F924F925F926F927F928F929F92AF927A
:100E3000BF92CF92DF92EF92FF920F931F93CF93C7
:100E4000DF93CDB7DEB7CA1BDB0B0FB6F894DEBF5E
:100E50000FBECDBF09942A88398848885F846E8484
:100E60007D848C849B84AA84B984C884DF80EE80CE
:100E7000FD800C811B81AA81B981CE0FD11D0FB6D7
:100E8000F894DEBF0FBECDBFED010895F894FFCFFB
:100E90000000000200000000B70100000000000098
:0C0EA0000002000000003F010000000004
:00000001FF
