:100000000C942E000C944B000C944B000C944B0061
:100010000C944B000C949C020C944B000C944B00E1
:100020000C944B000C944B000C944B000C944B0024
:100030000C944B000C944B000C944B000C944B0014
:100040000C944B000C944B000C944B000C94180136
:100050000C944B000C944B000C944B0011241FBECD
:10006000CFEFD4E0DEBFCDBF11E0A0E0B1E0E0E72C
:10007000FCE002C005900D92A03AB107D9F711E05B
:10008000A0EAB1E001C01D92AD3BB107E1F70E94CB
:10009000AA000C9436060C94000080E090E020E862
:1000A0000FB6F89420936100809361000FBE08950D
:1000B000EF92FF920F931F93CF93DF93C7E0D0E0AF
:1000C00091E0E92EF12C082F10E0C7010C2E02C0A0
:1000D000880F991F0A94E2F7802391230C2E02C007
:1000E000959587950A94E2F7C0960E94440321975C
:1000F0008FEFCF3FD80749F7DF91CF911F910F9135
:10010000FF90EF900895F894ECE6F0E080818F770F
:100110008083E4E6F0E08081806180838081846078
:10012000808380E090E020E80FB6F894209361008F
:10013000809361000FBE0E940D020E9499020E94EE
:1001400067018AB18A6A8AB9789480E091E00E9456
:100150004B030895DF92EF92FF920F931F93CF937B
:10016000DF930E94830084B18C6084B981E00E9497
:10017000060381E00E94DD0285B18C6085B93CE018
:10018000D32E2CE1E22E21E0F22E04E211E0C8ECA5
:10019000D0E08091A0019091A10101969093A101DE
:1001A0008093A00180FF03C085B18D2585B98CE0C7
:1001B00091E00E944B03FF92EF920E942F0385B1C2
:1001C0000E9458008AE090E00E9444031F930F931E
:1001D0000E942F038BB10E9458008AE090E00E9499
:1001E000440388E59BE10F900F900F900F90FE0164
:1001F0003197F1F70197D9F7CCCF57FB97F90895CD
:10020000682F660F692F661F20E030E06F3F11F006
:1002100021E030E0C9010895ACE7B0E09C91E1E64F
:10022000F1E0E80FF11D907E8081982B9C9308955A
:100230001F920F920FB60F9211242F933F934F935B
:100240008F939F93AF93BF93EF93FF934091780069
:10025000309179002091AE01222311F4E3E002C035
:10026000E22FE150F0E0EE0FFF1FDF01AA55BE4F75
:10027000932F80E0840F911D8D939C93E155FE4F49
:1002800080819181019691838083822F8F5F8093FB
:10029000AE01843010F01092AE0180917C00E091AC
:1002A000AE01F0E0EF59FE4F807E9081892B809364
:1002B0007C00FF91EF91BF91AF919F918F914F91F2
:1002C0003F912F910F900FBE0F901F901895EF92B6
:1002D000FF920F931F938CE291E00E944B03E4E6A0
:1002E000F0E080818E7F80839CE7E92EF12CF7017E
:1002F00080818064808380818F7780830AE710E02B
:10030000F8018081886A80838081887F866080830D
:10031000EBE7F0E08081806880838081887F808344
:10032000EEE7F0E08081806F808383B7817F826019
:1003300083BF89E391E00E944B03F7019081809194
:10034000AE01E1E6F1E0E80FF11D907E8081982B8F
:10035000F7019083F8018081806480831F910F9161
:10036000FF90EF9008950F931F938091A6019091B5
:10037000A7019F938F931F921F9203E511E01F9394
:100380000F930E942F038091A8019091A9019F9340
:100390008F9381E090E09F938F931F930F930E9420
:1003A0002F038091AA019091AB019F938F9382E0DC
:1003B00090E09F938F931F930F930E942F03809140
:1003C000AC019091AD019F938F9383E090E09F9358
:1003D0008F931F930F930E942F038AE090E00E9457
:1003E00044038DB79EB748960FB6F8949EBF0FBED4
:1003F0008DBF1F910F9108951F93182F8A3019F404
:100400008DE00E94FC018091C00085FFFCCF10931D
:10041000C60080E090E01F910895E4E6F0E080815E
:100420008D7F808389E190E09093C5008093C40024
:10043000E0ECF0E080818D7F808388E18093C100D3
:1004400086E08093C20085E691E09093BA018093A4
:10045000B9010895809170008C7F80937000809125
:10046000B6008F7E8093B6008091B600886080933E
:10047000B6001092B2008091B0008F778093B000E8
:100480008091B000877B8093B0008091B0008F7C1A
:100490008093B0008091B00085608093B00080911F
:1004A000B0008D7F8093B0008091B60082FDFCCFBC
:1004B0008091B60081FDFCCF8091B60080FDFCCF1D
:1004C000809170008160809370000895E0E8F0E012
:1004D0008081806C808380818063808380818C7F39
:1004E0008083E1E8F0E080818062808380818061A8
:1004F00080838081877F80838081806880832FB71D
:10050000F8948FEF9FEF90938700809386002FBF22
:10051000E1E8F0E08081897F808380818160808351
:10052000EFE6F0E08081887D808384B1806684B9C5
:1005300008950E942A0208951F920F920FB60F92FB
:1005400011248F939F938091A2019091A301019612
:100550009093A3018093A2019F938F9383E791E0EF
:100560009F938F930E942F030F900F900F900F90E7
:100570009F918F910F900FBE0F901F901895F89438
:1005800020918800309189007894C9010895F894E9
:1005900020918A0030918B007894C9010895F894D5
:1005A000909389008093880078940895F8949093AC
:1005B0008B0080938A0078940895982F823019F4E4
:1005C0005D985F9A0FC0813019F45D9A5F980AC0F8
:1005D000833019F48BB18F7504C0843029F48BB14A
:1005E000806A8BB99093A4018091A40190E09F93BD
:1005F0008F938CE791E09F938F930E942F030F902E
:100600000F900F900F908091A4010895982F823041
:1006100019F459985B9A0FC0813019F4599A5B9874
:100620000AC0833019F48BB1857F04C0843029F46B
:100630008BB18A608BB99093A5018091A50190E060
:100640009F938F938EE891E09F938F930E942F0347
:100650000F900F900F900F908091A5010895A0E04A
:10066000B0E0E5E3F3E00C940F06FE0135966191EE
:100670007191AF018091B9019091BA010E948003FC
:100680002096E2E00C942B066091B9017091BA01BA
:100690000E94750508950F931F93CF93DF938C01EC
:1006A000E091B901F091BA01838181FF21C0C0E0DE
:1006B000D0E00DC0E091B901F091BA0120853185FB
:1006C000BF01F9010995892B11F0CFEFDFEFF80198
:1006D00081918F01882371F7E091B901F091BA01FE
:1006E00020853185BF018AE0F9010995892B11F038
:1006F000CFEFDFEFCE01DF91CF911F910F910895E2
:10070000ABE0B0E0E6E8F3E00C94FF053C012B0120
:100710005A01FC0117821682838181FD03C06FEFAD
:100720007FEFC8C19AE0892E1E010894211C311C5C
:10073000F3012381F20123FD859123FF81912F0194
:10074000882309F4B4C1853239F423FD859123FF50
:1007500081912F01853229F4B30190E00E94750543
:10076000E7CF982FDD24CC249924FFE1FD15D0F0AC
:100770009B3269F09C3228F4903259F0933291F414
:100780000EC09D3249F0903369F441E024C052E03C
:10079000D52A84E0D82A28C098E0D92A25C0E0E1EB
:1007A000DE2A22C0D7FC29C0892F80538A3070F4FA
:1007B000D6FE05C0989C902C1124980E15C0C89C9C
:1007C000C02C1124C80EF0E2DF2A0EC09E3229F49C
:1007D000D6FC6DC140E4D42A07C09C3619F450E819
:1007E000D52A02C0983649F4F20123FD959123FFE2
:1007F00091912F01992309F0B8CF892F8554833027
:1008000018F08052833038F444E050E0A40EB51E56
:100810005FE359830FC0933631F0933779F0933506
:1008200009F056C020C0F5018081898342E050E084
:10083000A40EB51E710101E010E012C0F501E080C8
:10084000F180D6FC03C06FEF7FEF02C0692D70E02E
:1008500042E050E0A40EB51EC7010E946A058C015B
:100860005FE7D52214C0F501E080F180D6FC03C01B
:100870006FEF7FEF02C0692D70E042E050E0A40E00
:10088000B51EC7010E945F058C0150E8D52AD3FE32
:1008900007C01AC0B30180E290E00E947505CA94B7
:1008A0008C2D90E008171907A8F30EC0F701D7FCAC
:1008B0008591D7FE81917F01B30190E00E9475057B
:1008C000C110CA94015010400115110579F7ECC010
:1008D000943611F0993671F5D7FE08C0F501E08025
:1008E000F1800281138144E050E00AC0F50180816B
:1008F00091817C010027F7FC0095102F42E050E029
:10090000A40EB51E5FE6D52217FF0AC0109500950C
:10091000F094E094E11CF11C011D111D80E8D82A1F
:100920002AE030E0A101C801B7010E94A105F82E1C
:10093000F21840C0953729F41D2D1F7E2AE030E0C3
:100940001DC01D2D197F9F3661F0903720F498351A
:1009500009F0ADC00FC0903739F0983709F0A7C043
:1009600004C028E030E00AC0106114FD146020E1EA
:1009700030E004C014FD166020E132E017FF08C02B
:10098000F501608171818281938144E050E008C06B
:10099000F50180819181BC0180E090E042E050E06F
:1009A000A40EB51EA1010E94A105F82EF2188FE732
:1009B000D82ED122D6FE0BC05EEFD522F91438F422
:1009C000D4FE07C0D2FC05C08FEED82202C01F2D76
:1009D00001C0192DD4FE0DC0FE01EF0DF11D808167
:1009E000803319F499EED92208C01F5FD2FE05C0EA
:1009F00003C08D2D867809F01F5F0D2DD3FC14C028
:100A0000D0FE0FC01C1510F09F2C0BC09F2C9C0C0F
:100A1000911A1C2D06C0B30180E290E00E9475057A
:100A20001F5F1C15C0F304C01C1510F4C11A01C0CF
:100A3000CC2404FF10C0B30180E390E00E94750550
:100A400002FF1EC001FD03C088E790E002C088E5F8
:100A500090E0B3010CC0802F867891F001FF02C0B6
:100A60008BE201C080E2D7FC8DE2B30190E00E94EE
:100A7000750506C0B30180E390E00E9475059A9465
:100A8000F914C0F3FA94F101EF0DF11DB301808167
:100A900090E00E947505FF20A9F706C0B30180E22F
:100AA00090E00E947505CA94CC20C1F741CEF301B5
:100AB00066817781CB012B96E2E10C941B06FC0149
:100AC0000590615070400110D8F7809590958E0F79
:100AD0009F1F0895FC016150704001900110D8F7EC
:100AE000809590958E0F9F1F08950F931F93CF931E
:100AF000DF938C01EB018B8181FF1BC082FF0DC056
:100B00002E813F818C819D812817390764F4E8810B
:100B1000F9810193F983E88306C0E885F985802F80
:100B20000995892B31F48E819F8101969F838E8355
:100B300002C00FEF1FEFC801DF91CF911F910F91FE
:100B40000895FA01AA27283051F1203181F1E89463
:100B50006F936E7F6E5F7F4F8F4F9F4FAF4FB1E0B0
:100B60003ED0B4E03CD0670F781F891F9A1FA11DAB
:100B7000680F791F8A1F911DA11D6A0F711D811DAC
:100B8000911DA11D20D009F468943F912AE0269F71
:100B900011243019305D3193DEF6CF010895462FD0
:100BA0004770405D4193B3E00FD0C9F7F6CF462FB1
:100BB0004F70405D4A3318F0495D31FD405241931A
:100BC00002D0A9F7EACFB4E0A695979587957795D7
:100BD0006795BA95C9F700976105710508959B015E
:100BE000AC010A2E06945795479537952795BA95E7
:100BF000C9F7620F731F841F951FA01D08952F92C0
:100C00003F924F925F926F927F928F929F92AF929C
:100C1000BF92CF92DF92EF92FF920F931F93CF93E9
:100C2000DF93CDB7DEB7CA1BDB0B0FB6F894DEBF80
:100C30000FBECDBF09942A88398848885F846E84A6
:100C40007D848C849B84AA84B984C884DF80EE80F0
:100C5000FD800C811B81AA81B981CE0FD11D0FB6F9
:100C6000F894DEBF0FBECDBFED010895F894FFCF1D
:100C7000696E69743A20646F6E650A002020202036
:100C8000202020373635343332313000504F525423
:100C9000423A2000504F5254443A20006164633A73
:100CA00020696E69742E2E2E006164633A2073658C
:100CB00074757020636F6E76657274696F6E732ED3
:100CC0002E2E00205B202564203A202564205D2004
:100CD00000040605070000000200000000FC0100FF
:100CE00000000009543A202564730A006D6F746F88
:100CF000722072206D6F64653A2025640A006D6F62
:100D0000746F72204C206D6F64653A2025640A0070
:00000001FF
