:100000000C943E000C945B000C945B000C945B0021
:100010000C945B000C945B000C945B000C945B00F4
:100020000C945B000C94E0000C945B000C945B005F
:100030000C945B000C945B000C945B000C945B00D4
:100040000C945B000C945B000C945B000C945B00C4
:100050000C945B000C945B000C945B000C945B00B4
:100060000C945B000C945B000C945B000C945B00A4
:100070000C945B000C945B000C945B0011241FBE7D
:10008000CFEFD4E0DEBFCDBF11E0A0E0B1E0ECEBFC
:10009000F3E002C005900D92A831B107D9F711E045
:1000A000A8E1B1E001C01D92A032B107E1F70E94C2
:1000B00079000C94DC010C94000083E090E020E8CF
:1000C0000FB6F89420936100809361000FBE0895ED
:1000D0000E94A100EAE8F0E0118210828081918103
:1000E00090938900809388000E9477010E94BE004F
:1000F0000895CF93DF930E94680081B1836081B936
:10010000C0E5D3EC8091880090918900019721F49B
:1001100080E091E00E94A701CE010197F1F7F2CFB4
:100120001F93182F8A3019F48DE00E94900080915F
:10013000C00085FFFCCF1093C60080E090E01F91C7
:100140000895E4E6F0E080818D7F808382E390E093
:100150009093C5008093C400E0ECF0E080818D7F37
:10016000808388E18093C10086E08093C20088E0AC
:1001700091E090931D0180931C010895E0EBF0E065
:1001800080818F70808380818260808380818E7F78
:100190008083E1EBF0E08081877F808380818460D1
:1001A000808380818C7F80839FB7F8948DE78093D4
:1001B000B3009FBFE0E7F0E0808182608083089514
:1001C0001F920F920FB60F9211242F938F939F932C
:1001D00080911901882369F1982F9F5F90931901ED
:1001E0009F3190F080911601813071F410921901C5
:1001F0008091880090918900019790938900809365
:1002000088001092160139C09630B8F1809116011D
:10021000882399F5109219018091880090918900A6
:100220000196909389008093880081E08093160165
:1002300024C080918800909189008F5F9F4F31F09A
:100240008091880090918900892B21F481E080932E
:10025000190113C080911601813031F4809188001A
:1002600090918900019605C0809188009091890045
:1002700001979093890080938800809118018823CA
:10028000A1F08F5F80931801863048F11092180119
:1002900080918A0090918B00019690938B008093BF
:1002A0008A0081E0809316011AC080918A009091A3
:1002B0008B008F5F9F4F31F080918A0090918B006F
:1002C000892B21F481E08093180109C080918A0074
:1002D00090918B00019790938B0080938A009F915F
:1002E0008F912F910F900FBE0F901F901895E0E8FF
:1002F000F0E08081806A808380818C7A8083E1E86D
:10030000F0E0808180628083808180618083808151
:10031000877F80838081806880832FB7F8948FEFF8
:100320009FEF90938700809386002FBFEFE6F0E069
:100330008081887D8083E1E8F0E08081897F80830F
:1003400080818160808384B1806384B908950F9334
:100350001F93CF93DF938C01E0911C01F0911D015D
:10036000838181FF21C0C0E0D0E00DC0E0911C017D
:10037000F0911D0120853185BF01F9010995892B77
:1003800011F0CFEFDFEFF80181918F01882371F732
:10039000E0911C01F0911D0120853185BF018AE0AB
:1003A000F9010995892B11F0CFEFDFEFCE01DF9135
:0C03B000CF911F910F910895F894FFCF9A
:1003BC00596F7520426574000000000200000000B7
:0803CC00900000000000010098
:00000001FF
