:100000000C9499000C94B6000C94B6000C94B600B5
:100010000C94B6000C94B6000C94B6000C94B60088
:100020000C94B6000C94E8010C94B6000C94B60045
:100030000C94B6000C94B6000C94B6000C94B60068
:100040000C94B6000C94B6000C94B6000C94B60058
:100050000C9467010C94A7010C94B6000C94B600A4
:100060000C94B6000C94B6000C94B6000C94B60038
:100070000C94B6000C94B6000C94B6000A6D61693D
:100080006E3A20696E69743A095B646F6E655D0A49
:100090000A000A74696D6572733A20696E69743A70
:1000A000095B646F6E655D000A74696D6572733A11
:1000B00020696E69743A09737461727400095B6433
:1000C0006F6E655D000A74696D6572733A20696EC2
:1000D00069743A2074696D65723200095B646F6EF1
:1000E000655D000A74696D6572733A20696E6974A2
:1000F0003A2074696D65723100095B646F6E655DED
:10010000000A74696D6572733A20696E69743A20E9
:1001100074696D657230005761726E696E673A205E
:10012000656D70747920717565756520706F702EBE
:100130000A0011241FBECFEFD4E0DEBFCDBF11E017
:10014000A0E0B1E0EAE8FDE002C005900D92A03524
:10015000B107D9F711E0A0E5B1E001C01D92AE37BB
:10016000B107E1F70E9419010C94C3060C94C30077
:1001700080E090E020E80FB6F8942093610080932F
:1001800061000FBE08951F920F920FB60F921124B7
:100190000F900FBE0F901F901895EF92FF920F9344
:1001A0001F93CF93DF93C7E0D0E091E0E92EF12CCD
:1001B000082F10E0C7010C2E02C0880F991F0A9467
:1001C000E2F7802391230C2E02C0959587950A941F
:1001D000E2F7C0960E94060421978FEFCF3FD80721
:1001E00049F7DF91CF911F910F91FF90EF90089504
:1001F00084B1886184B9E4E6F0E08081876F808310
:1002000080E090E020E80FB6F8942093610080939E
:1002100061000FBE85B7806885BF0E947F018CE7B3
:1002200090E09F938F930E94DF0378940F900F903C
:1002300008950F931F93CF93DF930E94F80000E07F
:1002400011E0C8ECD0E0E3B163B126B146B186B1AC
:1002500090E08074907056E0969587955A95E1F7F6
:100260009F938F93441F4427441F50E05F934F9305
:1002700030E02072307045E0369527954A95E1F7D9
:100280003F932F9370E064707070769567957695C4
:1002900067957F936F93F0E0E270F070F695E795C5
:1002A000FF93EF931F930F930E94CA0388EE93E08E
:1002B0002DB73EB7245F3F4F0FB6F8943EBF0FBE39
:1002C0002DBFFE013197F1F70197D9F7BCCF1F92EF
:1002D0000F920FB60F9211248F939F938091C600B7
:1002E000809350018A3221F481E591E00E94450318
:1002F0009F918F910F900FBE0F901F901895E4E67D
:10030000F0E080818D7F808381E591E00E9445034C
:1003100089E190E09093C5008093C400E0ECF0E0A8
:1003200080818F7D808380818D7F808386E0809334
:10033000C200E1ECF0E088E1808380818068808306
:1003400081E491E090937B0180937A0108951F925C
:100350000F920FB60F9211248F939F938091730188
:10036000882331F081E591E00E948D038093C600DF
:1003700080917301882329F48091C1008F7D80933F
:10038000C1009F918F910F900FBE0F901F901895F5
:100390001F93182F8A3019F48DE00E94C80181E55F
:1003A00091E00E9485038823D1F78091C1008F7D61
:1003B0008093C100612F81E591E00E944A03809102
:1003C000C10080628093C10080E090E01F91089599
:1003D0001F920F920FB60F9211242F938F939F931A
:1003E0008091880090918900805F9F4F28F0109243
:1003F0007501109274010CC0809188009091890061
:10040000409730F481E090E09093750180937401FF
:100410008091740190917501019731F48091880069
:1004200090918900409605C0809188009091890044
:100430004097909389008093880080918A009091E2
:100440008B00805F9F4F28F0109277011092760109
:100450000CC080918A0090918B00409730F481E02D
:1004600090E090937701809376018091760190914E
:100470007701019731F480918A0090918B0040962A
:1004800005C080918A0090918B00409790938B00DB
:1004900080938A009F918F912F910F900FBE0F90A4
:1004A0001F90189585EC90E09F938F930E94DF0337
:1004B000E4E6F0E080818F7B8083A1EBB0E08C915B
:1004C000887F8C93E0EBF0E080818F708083808167
:1004D0008260808380818E7F80838C91877F8C93E4
:1004E00082E0809370001092B2001092B4008DE709
:1004F0008093B3008C9184608C938C918C7F8C93CF
:100500008DEB90E09F938F930E94DF030F900F90ED
:100510000F900F90089583EE90E09F938F930E9429
:10052000DF03E4E6F0E08081877F8083E1E8F0E0AC
:100530008081887F80838AB180638AB9A0E8B0E037
:100540008C91806A8C938C918F7A8C93808180625D
:1005500080838081806180838081877F80838C918C
:100560008C7F8C932FB7F8948FEF9FEF9093870039
:10057000809386002FBF8FB7F89410928500109259
:1005800084008FBF8FB7F894109289001092880072
:100590008FBF8FB7F89410928B0010928A008FBF94
:1005A00010926F00E1E8F0E08081816080838BED44
:1005B00090E09F938F930E94DF030F900F900F9016
:1005C0000F90089581E091E09F938F930E94DF0345
:1005D000E4E6F0E080818F7D8083E1E8F0E08081D7
:1005E000887F808384B1886184B984B5806A84BD42
:1005F00084B58F7A84BD85B5877F85BD84B58D7FB1
:1006000084BD84B5816084BD16BC17BC18BC109233
:100610006E0085B5846085BD85B58C7F85BD89EF0D
:1006200090E09F938F930E94DF030F900F900F90A5
:100630000F90089588EA90E09F938F930E94DF03C4
:100640000E94E2020E948B020E9452028FEF9FEFF3
:10065000909389008093880010928B0010928A00FA
:1006600081E090E09093750180937401109277017E
:100670001092760182E990E09F938F930E94DF03AE
:100680000F900F900F900F900895FC0110A211A2EF
:1006900012A20895DC01FC0182A1803210F08FEFDC
:1006A0000895FD0181A1E80FF11D6083FD0181A185
:1006B00090E001968F71907081A382A18F5F82A3D9
:1006C00080E00895EF92FF920F931F93CF93DF93F3
:1006D0007C01042FEB0110E001C01F5F101730F404
:1006E0006991C7010E944A031816BCF3DF91CF91AC
:1006F0001F910F91FF90EF900895FC0182A190E06F
:10070000882309F491E0892F0895FC0182A190E0EB
:10071000803208F091E0892F0895CF93DF93DC01B8
:10072000EC018AA1882351F487E191E09F938F9394
:100730000E94DF03EFEF0F900F900FC0FD0180A12B
:10074000E80FF11DE081ED0188A190E001968F7125
:10075000907088A38AA181508AA38E2FDF91CF91B8
:100760000895EF92FF920F931F93CF93DF937C0135
:10077000042FEB0110E005C0C7010E948D0389938F
:100780001F5F1017C8F3DF91CF911F910F91FF905A
:10079000EF900895A0E0B0E0E0EDF3E00C949C064B
:1007A000FE01359661917191AF0180917A0190912E
:1007B0007B010E940D042096E2E00C94B806A0E0B4
:1007C000B0E0E5EEF3E00C949C069E012B5F3F4FFA
:1007D000F901619171919F01A0917A01B0917B0122
:1007E000FD01838188608383A90180917A019091C2
:1007F0007B010E940D04E0917A01F0917B0123813D
:10080000277F23832096E2E00C94B80660917A015A
:1008100070917B010E9402060895ABE0B0E0E3E135
:10082000F4E00C948C063C012B015A01FC01178268
:100830001682838181FD03C06FEF7FEFC8C19AE00C
:10084000892E1E010894211C311CF3012381F20121
:1008500023FD859123FF81912F01882309F4B4C1E1
:10086000853239F423FD859123FF81912F01853253
:1008700029F4B30190E00E940206E7CF982FDD240F
:10088000CC249924FFE1FD15D0F09B3269F09C3215
:1008900028F4903259F0933291F40EC09D3249F011
:1008A000903369F441E024C052E0D52A84E0D82A8C
:1008B00028C098E0D92A25C0E0E1DE2A22C0D7FC72
:1008C00029C0892F80538A3070F4D6FE05C0989CC9
:1008D000902C1124980E15C0C89CC02C1124C80E51
:1008E000F0E2DF2A0EC09E3229F4D6FC6DC140E44E
:1008F000D42A07C09C3619F450E8D52A02C098368D
:1009000049F4F20123FD959123FF91912F01992341
:1009100009F0B8CF892F8554833018F08052833086
:1009200038F444E050E0A40EB51E5FE359830FC0D5
:10093000933631F0933779F0933509F056C020C0E3
:10094000F5018081898342E050E0A40EB51E71015B
:1009500001E010E012C0F501E080F180D6FC03C098
:100960006FEF7FEF02C0692D70E042E050E0A40E0F
:10097000B51EC7010E94F7058C015FE7D52214C0A0
:10098000F501E080F180D6FC03C06FEF7FEF02C07D
:10099000692D70E042E050E0A40EB51EC7010E9430
:1009A000EC058C0150E8D52AD3FE07C01AC0B3016C
:1009B00080E290E00E940206CA948C2D90E0081715
:1009C0001907A8F30EC0F701D7FC8591D7FE8191D6
:1009D0007F01B30190E00E940206C110CA94015049
:1009E00010400115110579F7ECC0943611F09936D5
:1009F00071F5D7FE08C0F501E080F1800281138116
:100A000044E050E00AC0F501808191817C0100271B
:100A1000F7FC0095102F42E050E0A40EB51E5FE6F3
:100A2000D52217FF0AC010950095F094E094E11CC0
:100A3000F11C011D111D80E8D82A2AE030E0A10137
:100A4000C801B7010E942E06F82EF21840C0953753
:100A500029F41D2D1F7E2AE030E01DC01D2D197FB9
:100A60009F3661F0903720F4983509F0ADC00FC083
:100A7000903739F0983709F0A7C004C028E030E07B
:100A80000AC0106114FD146020E130E004C014FDC0
:100A9000166020E132E017FF08C0F5016081718126
:100AA0008281938144E050E008C0F501808191810A
:100AB000BC0180E090E042E050E0A40EB51EA10130
:100AC0000E942E06F82EF2188FE7D82ED122D6FEDD
:100AD0000BC05EEFD522F91438F4D4FE07C0D2FC67
:100AE00005C08FEED82202C01F2D01C0192DD4FEE3
:100AF0000DC0FE01EF0DF11D8081803319F499EED8
:100B0000D92208C01F5FD2FE05C003C08D2D867894
:100B100009F01F5F0D2DD3FC14C0D0FE0FC01C15B3
:100B200010F09F2C0BC09F2C9C0C911A1C2D06C002
:100B3000B30180E290E00E9402061F5F1C15C0F323
:100B400004C01C1510F4C11A01C0CC2404FF10C04D
:100B5000B30180E390E00E94020602FF1EC001FD87
:100B600003C088E790E002C088E590E0B3010CC0C4
:100B7000802F867891F001FF02C08BE201C080E2F5
:100B8000D7FC8DE2B30190E00E94020606C0B301DB
:100B900080E390E00E9402069A94F914C0F3FA945C
:100BA000F101EF0DF11DB301808190E00E9402067A
:100BB000FF20A9F706C0B30180E290E00E94020680
:100BC000CA94CC20C1F741CEF30166817781CB0175
:100BD0002B96E2E10C94A806FC0105906150704050
:100BE0000110D8F7809590958E0F9F1F0895FC01F6
:100BF0006150704001900110D8F7809590958E0F4C
:100C00009F1F08950F931F93CF93DF938C01EB01E8
:100C10008B8181FF1BC082FF0DC02E813F818C81A3
:100C20009D812817390764F4E881F9810193F983DC
:100C3000E88306C0E885F985802F0995892B31F472
:100C40008E819F8101969F838E8302C00FEF1FEFDD
:100C5000C801DF91CF911F910F910895FA01AA2742
:100C6000283051F1203181F1E8946F936E7F6E5FEF
:100C70007F4F8F4F9F4FAF4FB1E03ED0B4E03CD09D
:100C8000670F781F891F9A1FA11D680F791F8A1F80
:100C9000911DA11D6A0F711D811D911DA11D20D0E7
:100CA00009F468943F912AE0269F11243019305DA1
:100CB0003193DEF6CF010895462F4770405D419392
:100CC000B3E00FD0C9F7F6CF462F4F70405D4A33DF
:100CD00018F0495D31FD4052419302D0A9F7EACFA7
:100CE000B4E0A6959795879577956795BA95C9F7D6
:100CF00000976105710508959B01AC010A2E0694C9
:100D00005795479537952795BA95C9F7620F731F81
:100D1000841F951FA01D08952F923F924F925F92BE
:100D20006F927F928F929F92AF92BF92CF92DF92FB
:100D3000EF92FF920F931F93CF93DF93CDB7DEB760
:100D4000CA1BDB0B0FB6F894DEBF0FBECDBF0994F4
:100D50002A88398848885F846E847D848C849B844B
:100D6000AA84B984C884DF80EE80FD800C811B8159
:100D7000AA81B981CE0FD11D0FB6F894DEBF0FBE88
:0A0D8000CDBFED010895F894FFCFF8
:100D8A000A444154413A2025643B20434C4B3A20C3
:100D9A0025643B204D4F54494F4E3A2025643B2051
:100DAA0046524F4E54204445544543543A202564F4
:100DBA003B20454E44204445544543543A2025643B
:100DCA00000000000200000000C80100000000004E
:00000001FF
