:100000000C943E000C945B000C945B000C945B0021
:100010000C945B000C945B000C945B000C945B00F4
:100020000C945B000C94D7000C945B000C945B0068
:100030000C945B000C945B000C945B000C945B00D4
:100040000C945B000C945B000C945B000C945B00C4
:100050000C945B000C945B000C945B000C945B00B4
:100060000C945B000C945B000C945B000C945B00A4
:100070000C945B000C945B000C945B0011241FBE7D
:10008000CFEFD4E0DEBFCDBF11E0A0E0B1E0E8E407
:10009000F3E002C005900D92A631B107D9F711E047
:1000A000A6E1B1E001C01D92AF31B107E1F70E94B6
:1000B00077000C94A2010C94000083E090E020E80B
:1000C0000FB6F89420936100809361000FBE0895ED
:1000D0000E949800EAE8F0E011821082808191810C
:1000E00090938900809388000E943D0108950E94AA
:1000F000680081B1836081B9809188009091890006
:100100000197D1F780E091E00E946D01F5CF1F9338
:10011000182F8A3019F48DE00E9487008091C0006A
:1001200085FFFCCF1093C60080E090E01F910895FA
:10013000E4E6F0E080818D7F80838CE090E0909316
:10014000C5008093C400E0ECF0E080818260808391
:1001500088E18093C10086E08093C20088E091E04E
:1001600090931C0180931B010895E0EBF0E08081E7
:100170008F70808380818260808380818E7F808386
:10018000E1EBF0E08081877F8083808187608083DE
:100190009FB7F8948EE48093B3008FEF8093B40000
:1001A0009FBFE0E7F0E080818260808308951F9226
:1001B0000F920FB60F9211242F938F939F938091DC
:1001C0001801882369F08F5F809318018F3110F137
:1001D000109218018091880090918900019716C0B3
:1001E00080918800909189008F5F9F4F31F08091BE
:1001F000880090918900892B21F481E08093180177
:1002000009C080918800909189000196909389009F
:100210008093880080911701882369F08F5F809315
:100220001701863010F11092170180918A00909189
:100230008B00019616C080918A0090918B008F5F91
:100240009F4F31F080918A0090918B00892B21F48F
:1002500081E08093170109C080918A0090918B0002
:10026000019790938B0080938A009F918F912F919B
:100270000F900FBE0F901F901895E0E8F0E080817E
:10028000806A808380818C7A8083E1E8F0E08081DD
:10029000806280838081806180838081877F80838A
:1002A0008081806880832FB7F8948FEF9FEF9093C1
:1002B0008700809386002FBFEFE6F0E08081887D85
:1002C0008083E1E8F0E08081897F808380818160A4
:1002D000808384B1806384B908950F931F93CF9373
:1002E000DF938C01E0911B01F0911C01838181FF60
:1002F00021C0C0E0D0E00DC0E0911B01F0911C01D5
:1003000020853185BF01F9010995892B11F0CFEFC7
:10031000DFEFF80181918F01882371F7E0911B01D4
:10032000F0911C0120853185BF018AE0F901099512
:10033000892B11F0CFEFDFEFCE01DF91CF911F912D
:080340000F910895F894FFCF1E
:10034800596F75204265740000000002000000002B
:0603580087000000000018
:00000001FF
