:100000000C9499000C94B6000C94B6000C94B600B5
:100010000C94B6000C94B6000C94B6000C94B60088
:100020000C94B6000C9447010C94B6000C94B600E6
:100030000C94B6000C94B6000C94B6000C94B60068
:100040000C94B6000C94B6000C94B6000C94B60058
:100050000C94B6000C94B6000C94B6000C94B60048
:100060000C94B6000C94B6000C94B6000C94B60038
:100070000C94B6000C94B6000C94B6000A094572B4
:10008000726F723A20496E76616C696420496E74B1
:100090006572757074000A6D61696E3A20696E69E7
:1000A000743A095B646F6E655D0A0A000A74696DD3
:1000B0006572733A20696E69743A095B646F6E65A4
:1000C0005D000A74696D6572733A20696E69743AED
:1000D00009737461727400095B646F6E655D000A78
:1000E00074696D6572733A20696E69743A20746937
:1000F0006D65723200095B646F6E655D000A74693C
:100100006D6572733A20696E69743A2074696D6521
:10011000723100095B646F6E655D000A74696D651C
:1001200072733A20696E69743A2074696D65723031
:10013000000011241FBECFEFD4E0DEBFCDBF11E021
:10014000A0E0B1E0E4E0FBE002C005900D92A03138
:10015000B107D9F711E0A0E1B1E001C01D92AA31C9
:10016000B107E1F70E9405010C9480050C94C300CF
:1001700080E090E020E80FB6F8942093610080932F
:1001800061000FBE08951F920F920FB60F921124B7
:100190002F933F934F935F936F937F938F939F938F
:1001A000AF93BF93EF93FF938CE790E09F938F9370
:1001B0000E94A4020F900F90FF91EF91BF91AF9119
:1001C0009F918F917F916F915F914F913F912F916F
:1001D0000F900FBE0F901F90189580E090E020E8E0
:1001E0000FB6F89420936100809361000FBE0E94C7
:1001F0002A010E94870286E990E09F938F930E94D4
:10020000A40278940F900F9008950E94ED0081B1A0
:10021000836081B9109A119828EC30E080B1836036
:1002200080B988E795E0F9013197F1F70197D9F79F
:10023000F5CF1F93182F8A3019F48DE00E94190111
:100240008091C00085FFFCCF1093C60080E090E055
:100250001F910895E4E6F0E080818D7F808389E13D
:1002600090E09093C5008093C400E0ECF0E08081C2
:100270008D7F808388E18093C10086E08093C200F7
:1002800080E091E0909317018093160108951F92EA
:100290000F920FB60F9211242F938F939F9387B5D0
:1002A0008F3F29F410920F0110920E0109C087B5FB
:1002B000882331F481E090E090930F0180930E0148
:1002C00080910E0190910F01019719F487B58F5F0E
:1002D00002C087B5815087BD8091880090918900C8
:1002E0008F5F9F4F29F410921301109212010CC0DE
:1002F0008091880090918900892B31F481E090E011
:100300009093130180931201809112019091130137
:10031000019731F48091880090918900409605C042
:1003200080918800909189004097909389008093F4
:10033000880080918A0090918B008F5F9F4F29F4F5
:1003400010921101109210010CC080918A009091BE
:100350008B00892B31F481E090E090931101809320
:1003600010018091100190911101019731F4809159
:100370008A0090918B00409605C080918A009091F0
:100380008B00409790938B0080938A009F918F9170
:100390002F910F900FBE0F901F9018958FED90E04A
:1003A0009F938F930E94A402A1EBB0E08C91887F71
:1003B0008C93E0EBF0E080818F708083808182609D
:1003C000808380818E7F80838C91877F8C9382E075
:1003D000809370001092B2001092B4008DE7809369
:1003E000B3008C9184608C938C918C7F8C9387ED7F
:1003F00090E09F938F930E94A4020F900F900F9014
:100400000F9008958DEF90E09F938F930E94A40228
:10041000E1E8F0E08081887F80838AB180638AB9D7
:10042000A0E8B0E08C91806A8C938C918F7A8C9349
:100430008081806280838081806180838081877FEA
:1004400080838C918C7F8C932FB7F8948FEF9FEFE4
:1004500090938700809386002FBF8FB7F8941092F7
:100460008500109284008FBF8FB7F8941092890096
:10047000109288008FBF8FB7F89410928B00109263
:100480008A008FBF10926F00E1E8F0E08081816008
:10049000808385EF90E09F938F930E94A4020F903A
:1004A0000F900F900F9008958BE191E09F938F93A1
:1004B0000E94A402E1E8F0E08081887F808384B11B
:1004C000886184B984B5806A84BD84B58F7A84BD1F
:1004D00085B5877F85BD84B58D7F84BD84B58160FA
:1004E00084BD16BC17BC18BC10926E0085B5846024
:1004F00085BD85B58C7F85BD83E191E09F938F930A
:100500000E94A4020F900F900F900F90089582EC1C
:1005100090E09F938F930E94A4020E9454020E9435
:1005200002020E94CE018FEF9AE090938B0080939D
:100530008A008CEA90E09F938F930E94A4020F9010
:100540000F900F900F900895A0E0B0E0EAEAF2E07B
:100550000C945905FE01359661917191A091160197
:10056000B091170113968C911397886013968C9312
:10057000AF0180911601909117010E94CA02E0918B
:100580001601F09117012381277F23832096E2E053
:100590000C947505ABE0B0E0E0EDF2E00C94490599
:1005A0003C012B015A01FC0117821682838181FDD7
:1005B00003C06FEF7FEFC8C19AE0892E1E01089437
:1005C000211C311CF3012381F20123FD859123FFBE
:1005D00081912F01882309F4B4C1853239F423FDB8
:1005E000859123FF81912F01853229F4B30190E099
:1005F0000E94BF04E7CF982FDD24CC249924FFE18B
:10060000FD15D0F09B3269F09C3228F4903259F0FD
:10061000933291F40EC09D3249F0903369F441E079
:1006200024C052E0D52A84E0D82A28C098E0D92AEC
:1006300025C0E0E1DE2A22C0D7FC29C0892F8053E3
:100640008A3070F4D6FE05C0989C902C1124980E28
:1006500015C0C89CC02C1124C80EF0E2DF2A0EC0C1
:100660009E3229F4D6FC6DC140E4D42A07C09C36E2
:1006700019F450E8D52A02C0983649F4F20123FD56
:10068000959123FF91912F01992309F0B8CF892FDC
:100690008554833018F08052833038F444E050E0C1
:1006A000A40EB51E5FE359830FC0933631F0933724
:1006B00079F0933509F056C020C0F5018081898317
:1006C00042E050E0A40EB51E710101E010E012C03E
:1006D000F501E080F180D6FC03C06FEF7FEF02C030
:1006E000692D70E042E050E0A40EB51EC7010E94E3
:1006F000B4048C015FE7D52214C0F501E080F180DD
:10070000D6FC03C06FEF7FEF02C0692D70E042E0BE
:1007100050E0A40EB51EC7010E94A9048C0150E848
:10072000D52AD3FE07C01AC0B30180E290E00E9430
:10073000BF04CA948C2D90E008171907A8F30EC0C7
:10074000F701D7FC8591D7FE81917F01B30190E03D
:100750000E94BF04C110CA94015010400115110538
:1007600079F7ECC0943611F0993671F5D7FE08C0D0
:10077000F501E080F1800281138144E050E00AC07D
:10078000F501808191817C010027F7FC0095102FF5
:1007900042E050E0A40EB51E5FE6D52217FF0AC066
:1007A00010950095F094E094E11CF11C011D111DC1
:1007B00080E8D82A2AE030E0A101C801B7010E94F0
:1007C000EB04F82EF21840C0953729F41D2D1F7E3A
:1007D0002AE030E01DC01D2D197F9F3661F0903753
:1007E00020F4983509F0ADC00FC0903739F0983734
:1007F00009F0A7C004C028E030E00AC0106114FD71
:10080000146020E130E004C014FD166020E132E005
:1008100017FF08C0F501608171818281938144E0F6
:1008200050E008C0F50180819181BC0180E090E03A
:1008300042E050E0A40EB51EA1010E94EB04F82E88
:10084000F2188FE7D82ED122D6FE0BC05EEFD5224C
:10085000F91438F4D4FE07C0D2FC05C08FEED822BC
:1008600002C01F2D01C0192DD4FE0DC0FE01EF0DD9
:10087000F11D8081803319F499EED92208C01F5FE1
:10088000D2FE05C003C08D2D867809F01F5F0D2DA7
:10089000D3FC14C0D0FE0FC01C1510F09F2C0BC051
:1008A0009F2C9C0C911A1C2D06C0B30180E290E095
:1008B0000E94BF041F5F1C15C0F304C01C1510F478
:1008C000C11A01C0CC2404FF10C0B30180E390E042
:1008D0000E94BF0402FF1EC001FD03C088E790E034
:1008E00002C088E590E0B3010CC0802F867891F0BB
:1008F00001FF02C08BE201C080E2D7FC8DE2B301B0
:1009000090E00E94BF0406C0B30180E390E00E9423
:10091000BF049A94F914C0F3FA94F101EF0DF11D9C
:10092000B301808190E00E94BF04FF20A9F706C0B8
:10093000B30180E290E00E94BF04CA94CC20C1F7CA
:1009400041CEF30166817781CB012B96E2E10C94D5
:100950006505FC010590615070400110D8F7809545
:1009600090958E0F9F1F0895FC016150704001907B
:100970000110D8F7809590958E0F9F1F08950F93C3
:100980001F93CF93DF938C01EB018B8181FF1BC001
:1009900082FF0DC02E813F818C819D8128173907F0
:1009A00064F4E881F9810193F983E88306C0E8855E
:1009B000F985802F0995892B31F48E819F810196CD
:1009C0009F838E8302C00FEF1FEFC801DF91CF918D
:1009D0001F910F910895FA01AA27283051F1203173
:1009E00081F1E8946F936E7F6E5F7F4F8F4F9F4FC3
:1009F000AF4FB1E03ED0B4E03CD0670F781F891F05
:100A00009A1FA11D680F791F8A1F911DA11D6A0FD2
:100A1000711D811D911DA11D20D009F468943F9185
:100A20002AE0269F11243019305D3193DEF6CF0184
:100A30000895462F4770405D4193B3E00FD0C9F74A
:100A4000F6CF462F4F70405D4A3318F0495D31FDB7
:100A50004052419302D0A9F7EACFB4E0A69597950A
:100A6000879577956795BA95C9F7009761057105E0
:100A700008959B01AC010A2E06945795479537952A
:100A80002795BA95C9F7620F731F841F951FA01D84
:100A900008952F923F924F925F926F927F928F9222
:100AA0009F92AF92BF92CF92DF92EF92FF920F93FD
:100AB0001F93CF93DF93CDB7DEB7CA1BDB0B0FB607
:100AC000F894DEBF0FBECDBF09942A8839884888C4
:100AD0005F846E847D848C849B84AA84B984C8845A
:100AE000DF80EE80FD800C811B81AA81B981CE0F51
:100AF000D11D0FB6F894DEBF0FBECDBFED01089536
:040B0000F894FFCF97
:100B040000000002000000001901000000000100C4
:00000001FF
