:100000000C949D000C94BA000C94BA000C94BA00A5
:100010000C94BA000C94BA000C94BA000C94BA0078
:100020000C94BA000C94CB010C94BA000C94BA0056
:100030000C94BA000C942A020C94BA000C94BA00E6
:100040000C94BA000C94BA000C94BA000C94BA0048
:100050000C94BA000C94BA000C94BA000C94BA0038
:100060000C94BA000C94BA000C94BA000C94BA0028
:100070000C94BA000C94BA000C94BA000A094572A8
:10008000726F723A20496E76616C696420496E74B1
:100090006572757074000A6D61696E3A20696E69E7
:1000A000743A095B646F6E655D0A0A000A74696DD3
:1000B0006572733A20696E69743A095B646F6E65A4
:1000C0005D000A74696D6572733A20696E69743AED
:1000D00009737461727400095B646F6E655D000A78
:1000E00074696D6572733A20696E69743A20746937
:1000F0006D657232000A0957494E20310A00095BCA
:10010000646F6E655D000A74696D6572733A20698B
:100110006E69743A2074696D65723100095B646FB1
:100120006E655D000A74696D6572733A20696E6967
:10013000743A2074696D6572300011241FBECFEFD0
:10014000D4E0DEBFCDBF11E0A0E0B1E0E8EFFBE01E
:1001500002C005900D92A035B107D9F711E0A0E5D6
:10016000B1E001C01D92AA35B107E1F70E94090173
:100170000C94FA050C94C70080E090E020E80FB6DC
:10018000F89420936100809361000FBE08951F9240
:100190000F920FB60F9211242F933F934F935F93BB
:1001A0006F937F938F939F93AF93BF93EF93FF933F
:1001B0008CE790E09F938F930E941E030F900F9007
:1001C000FF91EF91BF91AF919F918F917F916F912F
:1001D0005F914F913F912F910F900FBE0F901F9005
:1001E000189580E090E020E80FB6F8942093610025
:1001F000809361000FBE0E94AE010E94DA0286E980
:1002000090E09F938F930E941E0378940F900F901D
:100210000895AF92BF92CF92DF92EF92FF920F9329
:100220001F93CF93DF930E94F10081B1836081B966
:10023000109A119820E0A22E21E0B22E9DE0C92E46
:1002400091E0D92E8BE1E82E81E0F82E0DE211E04D
:10025000C8ECD0E080B1836080B980918400909137
:1002600085009F938F93BF92AF920E940903809164
:10027000B20090E09F938F93DF92CF920E94090388
:1002800080915001909151012DB73EB7285F3F4FAB
:100290000FB6F8943EBF0FBE2DBF8130910511F40B
:1002A00085E505C0892B11F08FE301C084E420911E
:1002B000880030918900992787FD90959F938F93AF
:1002C0003F932F93FF92EF920E9409038091520176
:1002D000909153012DB73EB72A5F3F4F0FB6F89468
:1002E0003EBF0FBE2DBF8130910511F485E505C0DD
:1002F000892B11F08FE301C084E420918A003091B2
:100300008B00992787FD90959F938F933F932F9311
:100310001F930F930E94090388E795E02DB73EB71E
:100320002A5F3F4F0FB6F8943EBF0FBE2DBFFE01B0
:100330003197F1F70197D9F78DCF1F93182F8A3096
:1003400019F48DE00E949D018091C00085FFFCCFD3
:100350001093C60080E090E01F910895E4E6F0E07D
:1003600080818D7F808389E190E09093C5008093A8
:10037000C400E0ECF0E080818D7F808388E1809391
:10038000C10086E08093C20080E491E09093570121
:100390008093560108951F920F920FB60F92112469
:1003A0008F939F9387B58F3F29F410924F0110923E
:1003B0004E0109C087B5882331F481E090E0909325
:1003C0004F0180934E0180914E0190914F01019712
:1003D00019F487B58F5F02C087B5815087BD9F91A3
:1003E0008F910F900FBE0F901F9018958FED90E09A
:1003F0009F938F930E941E03A1EBB0E08C91887FA6
:100400008C93E0EBF0E080818F708083808182604C
:10041000808380818E7F80838C91877F8C9382E024
:10042000809370001092B2001092B4008DE7809318
:10043000B3008C9184608C938C918C7F8C9387ED2E
:1004400090E09F938F930E941E030F900F900F9048
:100450000F9008951F920F920FB60F9211242F93B1
:100460003F934F935F936F937F938F939F93AF933C
:10047000BF93EF93FF9385EF90E09F938F930E943C
:100480001E030F900F90FF91EF91BF91AF919F913D
:100490008F917F916F915F914F913F912F910F902D
:1004A0000FBE0F901F90189586E091E09F938F9359
:1004B0000E941E03E1E8F0E08081887F808384B1A0
:1004C000806384B9A0E8B0E08C91806A8C938C91B1
:1004D0008F7A8C9380818062808380818061808329
:1004E0008081877F80838C918C7F8C932FB7F89449
:1004F0008FEF9FEF90938700809386002FBF8FB779
:10050000F89410928500109284008FBF8FB7F894F2
:1005100010928900109288008FBF8FB7F8941092C4
:100520008B0010928A008FBF82E080936F00E1E819
:10053000F0E08081816080838EEF90E09F938F93C5
:100540000E941E030F900F900F900F90089584E269
:1005500091E09F938F930E941E03E1E8F0E0808179
:10056000887F808384B1886184B984B5806A84BDC2
:1005700084B58F7A84BD85B5877F85BD84B58D7F31
:1005800084BD84B5816084BD16BC17BC18BC1092B4
:100590006E0085B5846085BD85B58C7F85BD8CE199
:1005A00091E09F938F930E941E030F900F900F90E6
:1005B0000F90089582EC90E09F938F930E941E030A
:1005C0000E94A7020E9454020E94F6018FEF9FE052
:1005D000909389008093880090938B0080938A0089
:1005E00081E090E0909351018093500190935301EA
:1005F0008093520181E287BD8FEF88BD8CEA90E045
:100600009F938F930E941E030F900F900F900F9057
:100610000895A0E0B0E0EFE0F3E00C94D305FE0114
:10062000359661917191AF0180915601909157017A
:100630000E9444032096E2E00C94EF05A0E0B0E0B5
:10064000E4E2F3E00C94D305FE01359661917191DB
:10065000A0915601B091570113968C911397886021
:1006600013968C93AF0180915601909157010E948F
:100670004403E0915601F09157012381277F2383A2
:100680002096E2E00C94EF05ABE0B0E0EAE4F3E0A2
:100690000C94C3053C012B015A01FC011782168200
:1006A000838181FD03C06FEF7FEFC8C19AE0892E7F
:1006B0001E010894211C311CF3012381F20123FD4A
:1006C000859123FF81912F01882309F4B4C18532DC
:1006D00039F423FD859123FF81912F01853229F47F
:1006E000B30190E00E943905E7CF982FDD24CC2498
:1006F0009924FFE1FD15D0F09B3269F09C3228F47B
:10070000903259F0933291F40EC09D3249F09033FB
:1007100069F441E024C052E0D52A84E0D82A28C0F8
:1007200098E0D92A25C0E0E1DE2A22C0D7FC29C002
:10073000892F80538A3070F4D6FE05C0989C902C87
:100740001124980E15C0C89CC02C1124C80EF0E2CC
:10075000DF2A0EC09E3229F4D6FC6DC140E4D42AB3
:1007600007C09C3619F450E8D52A02C0983649F4DF
:10077000F20123FD959123FF91912F01992309F017
:10078000B8CF892F8554833018F08052833038F4E5
:1007900044E050E0A40EB51E5FE359830FC09336CA
:1007A00031F0933779F0933509F056C020C0F50148
:1007B0008081898342E050E0A40EB51E710101E002
:1007C00010E012C0F501E080F180D6FC03C06FEFAD
:1007D0007FEF02C0692D70E042E050E0A40EB51E2C
:1007E000C7010E942E058C015FE7D52214C0F501D8
:1007F000E080F180D6FC03C06FEF7FEF02C0692D6F
:1008000070E042E050E0A40EB51EC7010E9423052F
:100810008C0150E8D52AD3FE07C01AC0B30180E28C
:1008200090E00E943905CA948C2D90E008171907B2
:10083000A8F30EC0F701D7FC8591D7FE81917F0107
:10084000B30190E00E943905C110CA9401501040D4
:100850000115110579F7ECC0943611F0993671F550
:10086000D7FE08C0F501E080F1800281138144E0E9
:1008700050E00AC0F501808191817C010027F7FCDE
:100880000095102F42E050E0A40EB51E5FE6D52281
:1008900017FF0AC010950095F094E094E11CF11C3C
:1008A000011D111D80E8D82A2AE030E0A101C8010D
:1008B000B7010E946505F82EF21840C0953729F45B
:1008C0001D2D1F7E2AE030E01DC01D2D197F9F3693
:1008D00061F0903720F4983509F0ADC00FC0903723
:1008E00039F0983709F0A7C004C028E030E00AC00A
:1008F000106114FD146020E130E004C014FD1660A6
:1009000020E132E017FF08C0F5016081718182812A
:10091000938144E050E008C0F50180819181BC01E1
:1009200080E090E042E050E0A40EB51EA1010E94DC
:100930006505F82EF2188FE7D82ED122D6FE0BC00F
:100940005EEFD522F91438F4D4FE07C0D2FC05C0FE
:100950008FEED82202C01F2D01C0192DD4FE0DC06C
:10096000FE01EF0DF11D8081803319F499EED9223B
:1009700008C01F5FD2FE05C003C08D2D867809F028
:100980001F5F0D2DD3FC14C0D0FE0FC01C1510F03E
:100990009F2C0BC09F2C9C0C911A1C2D06C0B301E0
:1009A00080E290E00E9439051F5F1C15C0F304C06F
:1009B0001C1510F4C11A01C0CC2404FF10C0B301EF
:1009C00080E390E00E94390502FF1EC001FD03C0D4
:1009D00088E790E002C088E590E0B3010CC0802F6A
:1009E000867891F001FF02C08BE201C080E2D7FC63
:1009F0008DE2B30190E00E94390506C0B30180E3A7
:100A000090E00E9439059A94F914C0F3FA94F10128
:100A1000EF0DF11DB301808190E00E943905FF20A8
:100A2000A9F706C0B30180E290E00E943905CA949C
:100A3000CC20C1F741CEF30166817781CB012B96A3
:100A4000E2E10C94DF05FC0105906150704001105B
:100A5000D8F7809590958E0F9F1F0895FC016150E7
:100A6000704001900110D8F7809590958E0F9F1FD0
:100A700008950F931F93CF93DF938C01EB018B812C
:100A800081FF1BC082FF0DC02E813F818C819D8123
:100A90002817390764F4E881F9810193F983E88321
:100AA00006C0E885F985802F0995892B31F48E8160
:100AB0009F8101969F838E8302C00FEF1FEFC801B5
:100AC000DF91CF911F910F910895FA01AA27283045
:100AD00051F1203181F1E8946F936E7F6E5F7F4F0B
:100AE0008F4F9F4FAF4FB1E03ED0B4E03CD0670F87
:100AF000781F891F9A1FA11D680F791F8A1F911DDA
:100B0000A11D6A0F711D811D911DA11D20D009F429
:100B100068943F912AE0269F11243019305D31936B
:100B2000DEF6CF010895462F4770405D4193B3E054
:100B30000FD0C9F7F6CF462F4F70405D4A3318F0FB
:100B4000495D31FD4052419302D0A9F7EACFB4E0AC
:100B5000A6959795879577956795BA95C9F7009764
:100B60006105710508959B01AC010A2E0694579505
:100B7000479537952795BA95C9F7620F731F841F5C
:100B8000951FA01D08952F923F924F925F926F92F2
:100B90007F928F929F92AF92BF92CF92DF92EF920D
:100BA000FF920F931F93CF93DF93CDB7DEB7CA1B8E
:100BB000DB0B0FB6F894DEBF0FBECDBF09942A88B9
:100BC000398848885F846E847D848C849B84AA8461
:100BD000B984C884DF80EE80FD800C811B81AA81EE
:100BE000B981CE0FD11D0FB6F894DEBF0FBECDBFB9
:080BF000ED010895F894FFCF18
:100BF80054434E54313A20307825780A0054434EF5
:100C080054323A20307825780A0A004C45445F412E
:100C18003A20307825782C2025633B0A004C45443F
:100C28005F423A20307825782C2025633B0A0A0059
:100C380000000002000000009D010000000001000B
:00000001FF
