:100000000C9458010C9475010C94C1010C949F033D
:100010000C9475010C94E3070C946E070C947A070A
:100020000C948D070C945F070C9475010C9475016A
:100030000C9475010C9475010C9475010C94750168
:100040000C9475010C9475010C9475010C94450485
:100050000C9475010C9475010C9475010A0A496E93
:1000600076616C696420496E7465727570742045A0
:100070006E61626C65640A000A496E69743A2044D4
:100080006F6E650A0A000A5B64656275675D2050E1
:10009000423F2052656C6561736564000A5B64656C
:1000A0006275675D2050453F2052656C65617365E0
:1000B00064000A43757272656E74204D6F6465202A
:1000C00028462F57293D202564000A437572726522
:1000D0006E74204D6F64652028542F5729203D20D1
:1000E000256400095B646F6E655D000A6164633AB4
:1000F00020696E69743A20736574757020636F6E41
:1001000076657274696F6E73000A6164633A206980
:100110006E6974000A5B64656275675D2057617281
:100120006E696E673A20756E696D706C696D656E8B
:100130007465642066756E6374696F6E20616463B4
:100140005F63616C6962726174655F73746F72651D
:100150002063616C6C6564000A5B64656275675D51
:1001600020414443204F4646534554533A20000A09
:100170005B64656275675D2046495845442041448B
:10018000433A20000A5B64656275675D2020205257
:100190004157204144433A20000A75736172743A12
:1001A00020696E697420757361727430095B646FC5
:1001B0006E655D000A74696D6572733A20696E69D7
:1001C000743A095B646F6E655D000A74696D6572EF
:1001D000733A20696E69743A2073746172742E00E8
:1001E000095B646F6E655D000A74696D6572733AD0
:1001F00020696E69743A2074696D657231000A4D28
:100200006F64653A20256400095B646F6E655D006C
:100210000A74696D6572733A20696E69743A207464
:10022000696D657232000A5B6572726F725D204D96
:100230006F746F723A20496E76616C6964204D6FFD
:10024000746F72204E756D6265723A202564205B72
:1002500025735D000A5B6572726F725D204D6F746D
:100260006F723A20496E76616C6964204D6F746FCD
:1002700072204E756D6265723A202564205B25738D
:100280005D000A5B6572726F725D204D6F746F72F4
:100290003A20496E76616C6964204D6F746F7220EC
:1002A0004E756D6265723A202564205B25735D0092
:1002B00011241FBECFEFD4E0DEBFCDBF11E0A0E020
:1002C000B1E0E6E4FAE102C005900D92A036B10774
:1002D000D9F712E0A0E6B1E001C01D92AC30B10741
:1002E000E1F70E9480020C94210D0C94970180E0AC
:1002F00090E020E80FB6F8942093610080936100AD
:100300000FBE089584B18F7284B98DB1837F8DB98A
:1003100085B1806D85B98EB18C608EB980EC8DBB56
:1003200080ED80936C008CE080936B0008951F92A9
:100330000F920FB60F9211242F933F934F935F9319
:100340006F937F938F939F93AF93BF93EF93FF939D
:100350008CE590E09F938F930E94170A0F900F9067
:10036000FF91EF91BF91AF919F918F917F916F918D
:100370005F914F913F912F910F900FBE0F901F9063
:1003800018951F920F920FB60F9211242F933F933F
:100390004F935F936F937F938F939F93AF93BF938D
:1003A000CF93DF93EF93FF938CB18095C82FD0E06C
:1003B000CE018C709070892BE1F1C2FF1BC080913F
:1003C000F301882319F01092F30105C081E08093B6
:1003D00005028093F3018091F30190E09F938F9346
:1003E0008AEC90E09F938F930E94170A0F900F90D2
:1003F0000F900F90C3FF25C08091F301882319F05F
:100400001092F30106C081E08093050282E08093A0
:10041000F3018091F30190E09F938F9382EB90E042
:100420009F938F930E94170A0F900F900F900F9039
:1004300008C08CE990E09F938F930E94170A0F9059
:100440000F90FF91EF91DF91CF91BF91AF919F916D
:100450008F917F916F915F914F913F912F910F906D
:100460000FBE0F901F901895F894E4E6F0E080819D
:100470008061808380818460808380E090E020E8D8
:100480000FB6F89420936100809361000FBE84B191
:100490008F7284B98DB1837F8DB985B1806D85B937
:1004A0008EB18C608EB980EC8DBB80ED80936C003A
:1004B0008CE080936B000E9436070E9499040E9492
:1004C00065088AB18A6A8AB960E080E090E10E949A
:1004D000AE0861E080E090E10E94AE0860E081E05B
:1004E0000E946C0961E081E00E946C09789488E7C1
:1004F00090E09F938F930E94170A0F900F9008959A
:100500002F923F924F925F926F927F928F929F9223
:10051000AF92BF92CF92DF92EF92FF920F931F9311
:10052000CF93DF930E9434021092F30181E0809315
:10053000050260E080E090E10E94AE0861E080E0AA
:1005400090E10E94AE085BE1452E51E0552E212C32
:1005500043E0342E30E1632E37E2732E20E0822E0A
:1005600021E0922E90EAA92E9FE0B92E83E2C82EB8
:1005700081E0D82E8091F301823009F0A4C08091EF
:100580000502882351F00E94D6089F928F920E9404
:10059000020A109205020F900F9080E00E94E1087D
:1005A0008C0181E00E94E1087C011F930F9323E1FD
:1005B00031E03F932F930E94020AFF92EF925F92E5
:1005C0004F920E94020A0E94D60580E00E94150404
:1005D0008C0181E00E9415047C0182E00E941504D8
:1005E000EC0183E00E9415042DB73EB7285F3F4F12
:1005F0000FB6F8943EBF0FBE2DBFE016F10650F4C3
:10060000C017D10738F48017910720F460E080E02C
:1006100090E115C00817190730F4E816F90618F428
:10062000C817D907D0F00C171D0770F4EC16FD069B
:1006300058F48C179D0740F460E080E094E00E943D
:100640000D0910922A0118C00E151F05A8F4CE1529
:10065000DF0550F48E159F0538F461E080E090E1ED
:100660000E940D0981E006C08C179D0728F40E94A6
:10067000D60882E080932A0160912A0180912B01A3
:10068000681719F01092620105C0809162018F5FB6
:100690008093620160932B018091620190E0829DC2
:1006A0009001839D300D929D300D112480E2213008
:1006B000380710F020E030E2C9010E940D09C301A3
:1006C0000197F1F757CF813009F054CF809105029F
:1006D000882351F060E081E00E946C0961E081E0D4
:1006E0000E946C091092050260E080916001909177
:1006F00061010E94AE0861E080916001909161010A
:100700000E94AE08C5010197F1F7809160019091B8
:100710006101882351F49F938F93DF92CF920E94BF
:10072000020A0F900F900F900F90809160019091AE
:100730006101019690936101809360011BCF1F922C
:100740000F920FB60F9211241F932F933F934F9345
:100750005F936F937F938F939F93AF93BF93EF9329
:10076000FF9393B19095192F892F807DB9F097FF52
:1007700006C00E9410050E948B050E94D60514FF3A
:1007800004C00E948B050E94D60516FF0FC00E9470
:1007900026040E948B050E94D60508C086E890E0DA
:1007A0009F938F930E94170A0F900F90FF91EF91E4
:1007B000BF91AF919F918F917F916F915F914F9179
:1007C0003F912F911F910F900FBE0F901F90189582
:1007D000EF92FF920F931F93CF93DF93C7E0D0E088
:1007E00061E0E62EF12C082F10E0C7010C2E02C0AC
:1007F000880F991F0A94E2F7802391230C2E02C0E0
:10080000959587950A94E2F7C0960E943D0A219734
:100810008FEFCF3FD80749F7DF91CF911F910F910D
:10082000FF90EF900895862F0895E82FF0E0EE0FE7
:10083000FF1FDF01A551BE4FEC50FE4F20813181DB
:100840008D919C91280F391FC90108951092F501CF
:100850001092F4011092F7011092F6011092F90132
:100860001092F8011092FB011092FA0110926401AB
:100870000895ACE7B0E09C91EAE3F1E0E80FF11DE8
:10088000907E8081982B9C9308951F920F920FB6B3
:100890000F9211242F933F934F938F939F93AF9376
:1008A000BF93EF93FF93409178003091790080914E
:1008B00063018F5F809363012091FC01222311F477
:1008C000E3E002C0E22FE150F0E0EE0FFF1FDF0196
:1008D000A551BE4F932F80E0840F911D8D939C9363
:1008E000E350FE4F80819181019691838083822F16
:1008F0008F5F8093FC01843010F01092FC01809196
:100900007C00E091FC01F0E0E65CFE4F807E90818F
:10091000892B80937C00FF91EF91BF91AF919F91C4
:100920008F914F913F912F910F900FBE0F901F907D
:100930001895EF92FF920F931F9389E091E09F9398
:100940008F930E94170AE4E6F0E080818E7F808317
:100950000CE710E0F80180818064808380818F77CC
:1009600080832AE7E22EF12CF7018081886A808358
:100970008081887F86608083EBE7F0E080818068FB
:1009800080838081887F8083EEE7F0E08081806FC4
:10099000808383B7817F826083BF8BEE90E09F93DB
:1009A0008F930E94170A2091FC01F8018081AAE32D
:1009B000B1E0FD01E20FF11D807E9081892BF801ED
:1009C0008083F70180818064808380E090E00197DC
:1009D000F1F72F5F2093FC01F8018081A20FB11D78
:1009E000807E9C91892B808383EE90E09F938F93F0
:1009F0000E94170A8DB79EB706960FB6F8949EBF51
:100A00000FBE8DBF1F910F91FF90EF90089584E16D
:100A100091E09F938F930E94170A0F900F90089573
:100A2000CF92DF92EF92FF920F931F93DF93CF93BA
:100A3000CDB7DEB760970FB6F894DEBF0FBECDBF5F
:100A4000DE011996EBEEF1E088E001900D92815005
:100A5000E1F749855A8520E030E08E010F5F1F4F96
:100A6000BE01675F7F4FD801A20FB31FFB01E20FEA
:100A7000F31F80819181FA01E81BF90BED93FC9340
:100A80002E5F3F4F2830310571F7809164019E0140
:100A90002F5F3F4F882349F4A4EFB1E0F90188E0CC
:100AA00001900D928150E1F722C0E4EFF1E079016D
:100AB000082F10E068010894C11CD11C808191812D
:100AC0009C01029FC001039F900D129F900D112465
:100AD000D7012D913D917D01820F931FB6010E9498
:100AE000C30C61937193B1E0EC3FFB0739F7809140
:100AF00064018F5F8093640160960FB6F894DEBF47
:100B00000FBECDBFCF91DF911F910F91FF90EF905E
:100B1000DF90CF9008950F931F9388E591E09F9306
:100B20008F930E94170A8091F4019091F5019F9391
:100B30008F931F921F920CE211E01F930F930E945C
:100B4000020A8091F6019091F7019F938F9381E0C3
:100B500090E09F938F931F930F930E94020A8091BE
:100B6000F8019091F9019F938F9382E090E09F9319
:100B70008F931F930F930E94020A8091FA01909124
:100B8000FB019F938F9383E090E09F938F931F933C
:100B90000F930E94020A8DB79EB74A960FB6F8943B
:100BA0009EBF0FBE8DBF1F910F910895CF92DF9210
:100BB000EF92FF920F931F93CF93DF9384E891E01E
:100BC0009F938F930E94170A8091EB019091EC0103
:100BD0009F938F931F921F920CE211E01F930F932C
:100BE0000E94020A8091ED019091EE019F938F93F4
:100BF00081E090E09F938F931F930F930E94020ACE
:100C00008091EF019091F0019F938F9382E090E0AB
:100C10009F938F931F930F930E94020A8091F1017B
:100C20009091F2019F938F9383E090E09F938F9335
:100C30001F930F930E94020A8FE691E09F938F9378
:100C40000E94170A4BEEC42E41E0D42E34EFE32E5F
:100C500031E0F32EC0E0D0E08DB79EB74C960FB6D2
:100C6000F8949EBF0FBE8DBFF701819191917F01D6
:100C7000F601219131916F01820F931F9F938F9302
:100C8000DF93CF931F930F930E94020A21968DB793
:100C90009EB706960FB6F8949EBF0FBE8DBFC430A8
:100CA000D10511F7DF91CF911F910F91FF90EF9038
:100CB000DF90CF9008951F93182F8A3019F48DE09C
:100CC0000E945B068091C00085FFFCCF1093C60098
:100CD00080E090E01F910895EF92FF920F931F9391
:100CE000CF93DF937C018091650190916601892B00
:100CF00009F0A0C007E611E08091C00087FFFCCF9B
:100D00008091C00084FF03C02EEF3FEFA7C0809109
:100D1000C00083FDA1C09091C6009D3011F09A30B3
:100D200069F48AE0F8018083B7010E945B0687E6D8
:100D300091E090936601809365017CC0993009F43D
:100D400090E2892F80528F3510F0903A78F0F1E0E0
:100D5000053E1F0719F4B70187E005C0F80191931C
:100D60008F01B701892F0E945B06C6CF923139F1FE
:100D7000933138F4933009F46FC0983009F0BCCF48
:100D800009C0973109F44BC09F3721F0953109F024
:100D9000B3CF32C0F1E007361F0709F008F4ACCF3B
:100DA000B70188E00E945B06B70180E20E945B0603
:100DB000B70188E00E945B06015010409DCFB7014B
:100DC0008DE00E945B06C7E6D1E004C0B7018991BF
:100DD0000E945B06C017D107C8F38ECFB70188E029
:100DE0000E945B06B70180E20E945B06B70188E0C3
:100DF0000E945B060150104081E00736180709F099
:100E000068F77ACFB70188E00E945B06B70180E2FD
:100E10000E945B06B70188E00E945B068E01E1E05C
:100E200007361E0709F008F467CFE8018A9180327F
:100E300049F762CFE0916501F09166018191F093ED
:100E40006601E09365018A3021F4109266011092E8
:100E50006501282F30E002C02FEF3FEFC901DF917D
:100E6000CF911F910F91FF90EF900895E4E6F0E08D
:100E700080818D7F808389E190E09093C50080938D
:100E8000C400E0ECF0E080818D7F808388E1809376
:100E9000C10086E08093C2008EE391E09093070248
:100EA00080930602909309028093080289E991E0F9
:100EB0009F938F930E94170A0F900F9008951F928F
:100EC0000F920FB60F9211248F9381E08093E80167
:100ED0008F910F900FBE0F901F9018951F920F9239
:100EE0000FB60F9211241092E8010F900FBE0F90D1
:100EF0001F9018951F920F920FB60F9211248F9387
:100F00008091E801813011F42A9801C02A9A8F91CA
:100F10000F900FBE0F901F9018951F920F920FB653
:100F20000F9211248F938091E801813011F42B9856
:100F300001C02B9A8F910F900FBE0F901F901895A4
:100F400088EE91E09F938F930E94170AE0E8F0E00B
:100F500080818F70808380818260808380818D7F9B
:100F60008083E1E8F0E0808180628083808180611D
:100F700080838081877F80838081806880832FB792
:100F8000F8948FEF9FEF90938700809386002FBF98
:100F9000E1E8F0E08081897F8083808181608083C7
:100FA000EFE6F0E080818762808384B18C6084B951
:100FB00080EE91E09F938F930E94170A0F900F90FD
:100FC0000F900F9008951F920F920FB60F92112459
:100FD0002F933F934F935F936F937F938F939F9341
:100FE000AF93BF93EF93FF938091E6019091E70158
:100FF00001969093E7018093E6018091F3018823A5
:1010000061F41F921F928EEF91E09F938F930E9445
:10101000170A0F900F900F900F90FF91EF91BF91D3
:10102000AF919F918F917F916F915F914F913F9180
:101030002F910F900FBE0F901F90189580E192E0B6
:101040009F938F930E94170A809170008C7F8093EA
:1010500070008091B6008F7E8093B6008091B600BC
:1010600088608093B6001092B2008091B0008F77B4
:101070008093B0008091B000877B8093B000809116
:10108000B0008F7C8093B0008091B0008560809329
:10109000B0008091B0008D7F8093B0000F900F90D2
:1010A0008091B60082FDFCCF8091B60081FDFCCF1F
:1010B0008091B60080FDFCCF88E092E09F938F93F3
:1010C0000E94170A0F900F9008958AEC91E09F9369
:1010D0008F930E94170A0E94A0070E941E0884EBAB
:1010E00091E09F938F930E94170A0F900F900F909B
:1010F0000F900895FC0120813181421B530B46174C
:10110000570748F4240F351F31832083CB01841BFC
:10111000950BAC0106C0260F371F3183208340E0BA
:1011200050E0CA010895FC01CB0120813181B90151
:10113000641B750B6817790748F4261B370B31833E
:1011400020839C01261B370BB90106C0281B390BD5
:101150003183208360E070E0CB010895662331F491
:10116000F894909389008093880007C0613039F427
:10117000F89490938B0080938A007894089587E286
:1011800090E09F938F93862F90E09F938F9384E5B9
:1011900092E09F938F930E94170A8DB79EB7069691
:1011A0000FB6F8949EBF0FBE8DBF089560E080E03B
:1011B00090E60E94AE0861E080E090E60E94AE08F2
:1011C0000895282F882331F4F894209188003091D5
:1011D000890007C0813039F4F89420918A00309159
:1011E0008B00789418C087E190E09F938F93822FB3
:1011F00090E09F938F9382E892E09F938F930E9459
:10120000170A20E030E08DB79EB706960FB6F89427
:101210009EBF0FBE8DBFC9010895DF92EF92FF926E
:101220000F931F93CF93DF937C01D62E81E00E9412
:10123000E1088C0180E00E94E108EC0181E0D81611
:10124000E9F480E090E68C1B9D0B8E159F0530F431
:101250009701281B390BC0E0D0E604C0CE0DDF1D7E
:1012600020E030E0C801805090418217930718F4C5
:1012700000E010E121C0021B130B1EC0DD20E1F4D1
:1012800080E090E6801B910B8E159F0530F497014E
:10129000281B390B00E010E604C00E0D1F1D20E0D6
:1012A00030E0CE01805090418217930718F4C0E0DF
:1012B000D0E102C0C21BD30B61E0C8010E94AE089E
:1012C00060E0CE010E94AE08DF91CF911F910F9197
:1012D000FF90EF90DF900895CF93DF93782F6623F0
:1012E000B9F0613029F455E0E7E0CAEED1E014C06E
:1012F00089E390E09F938F93862F90E09F938F9345
:1013000086E292E09F938F930E94170A87E06EC057
:1013100051E0E3E0C9EED1E07230A1F44BB121E03D
:1013200030E0C90102C0880F991F5A95E2F78095F5
:1013300084238BB98BB102C0220F331FEA95E2F7E9
:10134000822B29C07130A1F44BB181E090E09C0167
:1013500002C0220F331F5A95E2F7422B4BB92BB133
:1013600002C0880F991FEA95E2F78095822313C087
:10137000733099F44BB121E030E0C90102C0880F0D
:10138000991FEA95E2F702C0220F331F5A95E2F740
:10139000822B809584238BB914C0743099F48BB15F
:1013A00021E030E0D90102C0AA0FBB1F5A95E2F735
:1013B000AD0102C0220F331FEA95E2F7422B482B02
:1013C0004BB97883662311F022E501C02CE48881B3
:1013D00090E09F938F93822F90E09F938F938CE464
:1013E00091E09F938F930E94020A88812DB73EB7A8
:1013F0002A5F3F4F0FB6F8943EBF0FBE2DBFDF915F
:10140000CF910895A0E0B0E0E8E0FAE00C94FA0C87
:10141000FE01359661917191AF0180910802909122
:1014200009020E94440A2096E2E00C94160DA0E006
:10143000B0E0EDE1FAE00C94FA0CFE013596619112
:101440007191A0910802B091090213968C911397A3
:10145000886013968C93AF018091080290910902E5
:101460000E94440AE0910802F09109022381277F3B
:1014700023832096E2E00C94160D6091080270918F
:1014800009020E94390C0895ABE0B0E0EAE4FAE00A
:101490000C94EA0C3C012B015A01FC0117821682C4
:1014A000838181FD03C06FEF7FEFC8C19AE0892E71
:1014B0001E010894211C311CF3012381F20123FD3C
:1014C000859123FF81912F01882309F4B4C18532CE
:1014D00039F423FD859123FF81912F01853229F471
:1014E000B30190E00E94390CE7CF982FDD24CC2483
:1014F0009924FFE1FD15D0F09B3269F09C3228F46D
:10150000903259F0933291F40EC09D3249F09033ED
:1015100069F441E024C052E0D52A84E0D82A28C0EA
:1015200098E0D92A25C0E0E1DE2A22C0D7FC29C0F4
:10153000892F80538A3070F4D6FE05C0989C902C79
:101540001124980E15C0C89CC02C1124C80EF0E2BE
:10155000DF2A0EC09E3229F4D6FC6DC140E4D42AA5
:1015600007C09C3619F450E8D52A02C0983649F4D1
:10157000F20123FD959123FF91912F01992309F009
:10158000B8CF892F8554833018F08052833038F4D7
:1015900044E050E0A40EB51E5FE359830FC09336BC
:1015A00031F0933779F0933509F056C020C0F5013A
:1015B0008081898342E050E0A40EB51E710101E0F4
:1015C00010E012C0F501E080F180D6FC03C06FEF9F
:1015D0007FEF02C0692D70E042E050E0A40EB51E1E
:1015E000C7010E942E0C8C015FE7D52214C0F501C3
:1015F000E080F180D6FC03C06FEF7FEF02C0692D61
:1016000070E042E050E0A40EB51EC7010E94230C1A
:101610008C0150E8D52AD3FE07C01AC0B30180E27E
:1016200090E00E94390CCA948C2D90E0081719079D
:10163000A8F30EC0F701D7FC8591D7FE81917F01F9
:10164000B30190E00E94390CC110CA9401501040BF
:101650000115110579F7ECC0943611F0993671F542
:10166000D7FE08C0F501E080F1800281138144E0DB
:1016700050E00AC0F501808191817C010027F7FCD0
:101680000095102F42E050E0A40EB51E5FE6D52273
:1016900017FF0AC010950095F094E094E11CF11C2E
:1016A000011D111D80E8D82A2AE030E0A101C801FF
:1016B000B7010E94650CF82EF21840C0953729F446
:1016C0001D2D1F7E2AE030E01DC01D2D197F9F3685
:1016D00061F0903720F4983509F0ADC00FC0903715
:1016E00039F0983709F0A7C004C028E030E00AC0FC
:1016F000106114FD146020E130E004C014FD166098
:1017000020E132E017FF08C0F5016081718182811C
:10171000938144E050E008C0F50180819181BC01D3
:1017200080E090E042E050E0A40EB51EA1010E94CE
:10173000650CF82EF2188FE7D82ED122D6FE0BC0FA
:101740005EEFD522F91438F4D4FE07C0D2FC05C0F0
:101750008FEED82202C01F2D01C0192DD4FE0DC05E
:10176000FE01EF0DF11D8081803319F499EED9222D
:1017700008C01F5FD2FE05C003C08D2D867809F01A
:101780001F5F0D2DD3FC14C0D0FE0FC01C1510F030
:101790009F2C0BC09F2C9C0C911A1C2D06C0B301D2
:1017A00080E290E00E94390C1F5F1C15C0F304C05A
:1017B0001C1510F4C11A01C0CC2404FF10C0B301E1
:1017C00080E390E00E94390C02FF1EC001FD03C0BF
:1017D00088E790E002C088E590E0B3010CC0802F5C
:1017E000867891F001FF02C08BE201C080E2D7FC55
:1017F0008DE2B30190E00E94390C06C0B30180E392
:1018000090E00E94390C9A94F914C0F3FA94F10113
:10181000EF0DF11DB301808190E00E94390CFF2093
:10182000A9F706C0B30180E290E00E94390CCA9487
:10183000CC20C1F741CEF30166817781CB012B9695
:10184000E2E10C94060DFC0105906150704001101E
:10185000D8F7809590958E0F9F1F0895FC016150D9
:10186000704001900110D8F7809590958E0F9F1FC2
:1018700008950F931F93CF93DF938C01EB018B811E
:1018800081FF1BC082FF0DC02E813F818C819D8115
:101890002817390764F4E881F9810193F983E88313
:1018A00006C0E885F985802F0995892B31F48E8152
:1018B0009F8101969F838E8302C00FEF1FEFC801A7
:1018C000DF91CF911F910F910895FA01AA27283037
:1018D00051F1203181F1E8946F936E7F6E5F7F4FFD
:1018E0008F4F9F4FAF4FB1E03ED0B4E03CD0670F79
:1018F000781F891F9A1FA11D680F791F8A1F911DCC
:10190000A11D6A0F711D811D911DA11D20D009F41B
:1019100068943F912AE0269F11243019305D31935D
:10192000DEF6CF010895462F4770405D4193B3E046
:101930000FD0C9F7F6CF462F4F70405D4A3318F0ED
:10194000495D31FD4052419302D0A9F7EACFB4E09E
:10195000A6959795879577956795BA95C9F7009756
:101960006105710508959B01AC010A2E06945795F7
:10197000479537952795BA95C9F7620F731F841F4E
:10198000951FA01D089597FB092E07260AD077FD05
:1019900004D00CD006D000201AF4709561957F4FCA
:1019A0000895F6F7909581959F4F0895AA1BBB1B4C
:1019B00051E107C0AA1FBB1FA617B70710F0A61B4F
:1019C000B70B881F991F5A95A9F780959095BC0170
:1019D000CD0108952F923F924F925F926F927F9226
:1019E0008F929F92AF92BF92CF92DF92EF92FF922F
:1019F0000F931F93CF93DF93CDB7DEB7CA1BDB0BDB
:101A00000FB6F894DEBF0FBECDBF09942A8839887F
:101A100048885F846E847D848C849B84AA84B98486
:101A2000C884DF80EE80FD800C811B81AA81B98192
:101A3000CE0FD11D0FB6F894DEBF0FBECDBFED01A6
:061A40000895F894FFCFA9
:101A46000A496E697469616C697A652053706565C7
:101A5600642E000A4D4C3A202558000A4D523A2071
:101A66002558000A73703D2578000202205B202568
:101A760064203A202564205D200004060507000046
:101A86000003000000005B066C0600000A4D6F7440
:101A96006F723A202563206D6F64653A20256400D5
:00000001FF
