:100000000C94AC010C94C9010C9416020C949E0241
:100010000C94C9010C94A6080C94D3070C94DF0728
:100020000C94F2070C94C4070C94C9010C94C901F8
:100030000C94C9010C94C9010C94C9010C94C90118
:100040000C94C9010C94C9010C94C9010C94AF041F
:100050000C94C9010C94C9010C94C9010A0A496E97
:1000600076616C696420496E7465727570742045A0
:100070006E61626C65640A000A496E76616C69643F
:10008000204D6F64652E000A50494E45203A2000ED
:100090000A50494E42203A20000A504F5254443AE6
:1000A00020000A504F5254423A20000A20202020BB
:1000B0002020203736353433323130000A50494E53
:1000C00045203A20000A50494E42203A20000A506A
:1000D0004F5254443A20000A504F5254423A2000A2
:1000E0000A2020202020202037363534333231308A
:1000F000000A5768617420285B545D6573742F5B38
:10010000465D6F6C6C6F77293A20000A496E6974FE
:100110003A20446F6E650A0A000A5B64656275677F
:100120005D2050423F2052656C6561736564000A32
:100130005B64656275675D205570000A5B6465628B
:1001400075675D20496E000A5B64656275675D20B6
:10015000446F776E20000A5B64656275675D2050AE
:10016000453F2052656C6561736564000A5B646598
:100170006275675D205269676874000A5B64656236
:1001800075675D204C65667400095B646F6E655D24
:10019000000A6164633A20696E69743A2073657479
:1001A000757020636F6E76657274696F6E73000A86
:1001B0006164633A20696E6974000A5B6465627504
:1001C000675D205761726E696E673A20756E696D62
:1001D000706C696D656E7465642066756E637469B4
:1001E0006F6E206164635F63616C696272617465E4
:1001F0005F73746F72652063616C6C6564000A5B89
:1002000064656275675D20414443204F464653450F
:1002100054533A20000A5B64656275675D20464965
:10022000584544204144433A20000A5B64656275A6
:10023000675D202020524157204144433A20000A64
:1002400075736172743A20696E6974207573617296
:100250007430095B646F6E655D000A74696D657268
:10026000733A20696E69743A095B646F6E655D006C
:100270000A74696D6572733A20696E69743A207305
:10028000746172742E00095B646F6E655D000A74A0
:10029000696D6572733A20696E69743A2074696D8C
:1002A00065723100095B646F6E655D000A74696D8B
:1002B0006572733A20696E69743A2074696D65726B
:1002C00032000A5B6572726F725D204D6F746F72DF
:1002D0003A20496E76616C6964204D6F746F7220AC
:1002E0004E756D6265723A202564205B25735D0052
:1002F0000A5B6572726F725D204D6F746F723A2087
:10030000496E76616C6964204D6F746F72204E7512
:100310006D6265723A202564205B25735D000A5B7F
:100320006572726F725D204D6F746F723A20496E04
:1003300076616C6964204D6F746F72204E756D62CA
:1003400065723A202564205B25735D006364696EE5
:100350006F70737578585B0011241FBECFEFD4E027
:10036000DEBFCDBF11E0A0E0B1E0EEE6F0E202C0FA
:1003700005900D92AC35B107D9F712E0ACE5B1E0CC
:1003800001C01D92A230B107E1F70E9428030C942E
:1003900035100C94EC0180E090E020E80FB6F89462
:1003A00020936100809361000FBE089584B18F7225
:1003B00084B98DB1837F8DB985B1806D85B98EB1DA
:1003C0008C608EB980EC8DBB80ED80936C008CE0EE
:1003D00080936B00089508951F920F920FB60F92AD
:1003E00011242F933F934F935F936F937F938F933A
:1003F0009F93AF93BF93EF93FF938CE590E09F9310
:100400008F930E940F0A0F900F90FF91EF91BF9171
:10041000AF919F918F917F916F915F914F913F919C
:100420002F910F900FBE0F901F9018951F920F9253
:100430000FB60F9211242F933F934F935F936F93B7
:100440007F938F939F93AF93BF93CF93DF93EF935C
:10045000FF938CB18095C82FD0E0CE018C70907046
:10046000892B79F0C2FF08C08BE791E09F938F93AF
:100470000E940F0A0F900F90C3FF0BC08CE691E013
:1004800002C086E591E09F938F930E940F0A0F9020
:100490000F90FF91EF91DF91CF91BF91AF919F911D
:1004A0008F917F916F915F914F913F912F910F901D
:1004B0000FBE0F901F901895F894E4E6F0E080814D
:1004C0008061808380818460808380E090E020E888
:1004D0000FB6F89420936100809361000FBE84B141
:1004E0008F7284B98DB1837F8DB985B1806D85B9E7
:1004F0008EB18C608EB980EC8DBB80ED80936C00EA
:100500008CE080936B000E949B070E94FE040E9477
:1005100091088AB18A6A8AB960E081E00E94640920
:1005200061E081E00E94640978948BE091E09F9300
:100530008F930E940F0A0F900F9008951F920F92B1
:100540000FB60F9211241F932F933F934F935F93F6
:100550006F937F938F939F93AF93BF93EF93FF938B
:1005600093B19095192F892F807D69F197FF0EC067
:1005700087E491E09F938F930E940F0A0E94750574
:100580000E94F0050E943B060F900F9014FF0CC0D4
:100590008BE391E09F938F930E940F0A0E94F005D6
:1005A0000E943B060F900F9016FF15C08FE291E05E
:1005B0009F938F930E940F0A0E9490040E94F0055F
:1005C0000E943B0606C089E191E09F938F930E94B1
:1005D0000F0A0F900F90FF91EF91BF91AF919F91F4
:1005E0008F917F916F915F914F913F912F911F91CB
:1005F0000F900FBE0F901F901895EF92FF920F93E0
:100600001F93CF93DF93C7E0D0E091E0E92EF12C68
:10061000082F10E0C7010C2E02C0880F991F0A9402
:10062000E2F7802391230C2E02C0959587950A94BA
:10063000E2F7C0960E94350A21978FEFCF3FD80787
:1006400049F7DF91CF911F910F91FF90EF9008959F
:100650002F923F924F925F926F927F928F929F92D2
:10066000AF92BF92CF92DF92EF92FF920F931F93C0
:10067000DF93CF930F92CDB7DEB70E945C0260E0AC
:1006800080E090E00E94DD0861E080E090E00E9460
:10069000DD0891EFA92E90E0B92E6E010894C11CDF
:1006A000D11C80E0E82E81E0F82E08E710E0BF9230
:1006B000AF920E940F0ADF92CF92FF92EF920E94B8
:1006C0003C0A89812DB73EB72A5F3F4F0FB6F89499
:1006D0003EBF0FBE2DBF863409F064C003E0802EFC
:1006E00001E0902E1BE0A12E11E0B12EB8ECCB2E34
:1006F000D12C80E00E9410098C0181E00E94100939
:100700007C011F930F939F928F920E94FA09FF9290
:10071000EF92BF92AF920E94FA090E943B0680E0DE
:100720000E947F048C0181E00E947F047C01EE0C1A
:10073000FF1CEE0CFF1CE80EF91EE00EF11E83E01C
:100740000E947F048C0182E00E947F049C01220FA2
:10075000331F220F331F280F391F200F311F8DB772
:100760009EB708960FB6F8949EBF0FBE8DBF2E158C
:100770003F0528F484E690E00E944D090AC0E21685
:10078000F30628F484E690E00E943C0902C00E942F
:10079000050988E59BE1F6013197F1F7019709F426
:1007A000A8CFF9CF843509F0A1C060E081E00E94B4
:1007B000640961E081E00E946409E5EC2E2EE0E02E
:1007C0003E2E7CEB472E70E0572E08EC10E06BEAD3
:1007D000662E60E0762E52EA852E50E0952E49E98D
:1007E000A42E40E0B42E30E9C32E30E0D32E27E80B
:1007F000E22E20E0F22E60E080E09FE00E94DD0823
:1008000061E080EF90E00E94DD0820EE30E03F9351
:100810002F930E940F0A87ED90E09F938F930E9481
:100820000F0A85B10E94FD022EEC30E03F932F931A
:100830000E940F0A8BB10E94FD023F922F920E94EC
:100840000F0A83B10E94FD025F924F920E940F0A2D
:100850008CB10E94FD0288E59BE12DB73EB7265F73
:100860003F4F0FB6F8943EBF0FBE2DBFF801319732
:10087000F1F70197D9F760E08FEF9FEF0E94DD0855
:1008800061E08FEF9FEF0E94DD087F926F920E94E0
:100890000F0A9F928F920E940F0A85B10E94FD025B
:1008A000BF92AF920E940F0A8BB10E94FD02DF92AD
:1008B000CF920E940F0A83B10E94FD02FF92EF9235
:1008C0000E940F0A8CB10E94FD0288E59BE12DB7C2
:1008D0003EB7265F3F4F0FB6F8943EBF0FBE2DBF09
:1008E000F8013197F1F70197D9F785CF1F930F934F
:1008F0000E940F0A0F900F90DACE862F0895E82FEE
:10090000F0E0EE0FFF1FDF01AD51BE4FE551FE4F8E
:10091000208131818D919C91280F391FC901089543
:100920001092EC011092EB011092EE011092ED0189
:100930001092F0011092EF011092F2011092F10169
:1009400010925C010895ACE7B0E09C91E1E2F1E027
:10095000E80FF11D907E8081982B9C9308951F9243
:100960000F920FB60F9211242F933F934F938F93B3
:100970009F93AF93BF93EF93FF9340917800309193
:1009800079002091F301222311F4E3E002C0E22F69
:10099000E150F0E0EE0FFF1FDF01AD51BE4F932F8E
:1009A00080E0840F911D8D939C93EC50FE4F8081CD
:1009B0009181019691838083822F8F5F8093F301D1
:1009C000843010F01092F30180917C00E091F301EB
:1009D000F0E0EF5DFE4F807E9081892B80937C005C
:1009E000FF91EF91BF91AF919F918F914F913F9167
:1009F0002F910F900FBE0F901F901895EF92FF92BE
:100A00000F931F938FEA91E09F938F930E940F0A99
:100A1000E4E6F0E080818E7F80830CE710E0F8014F
:100A200080818064808380818F7780832AE7E22EB3
:100A3000F12CF7018081886A80838081887F8660BD
:100A40008083EBE7F0E08081806880838081887F0D
:100A50008083EEE7F0E08081806F808383B7817FC1
:100A6000826083BF81E991E09F938F930E940F0A78
:100A70002091F301F8018081A1E2B1E0FD01E20FD4
:100A8000F11D807E9081892BF8018083F7018081A0
:100A90008064808380E090E00197F1F72F5F2093DE
:100AA000F301F8018081A20FB11D807E9C91892BFA
:100AB000808389E891E09F938F930E940F0A8DB7FE
:100AC0009EB706960FB6F8949EBF0FBE8DBF1F91BE
:100AD0000F91FF90EF9008958AEB91E09F938F9391
:100AE0000E940F0A0F900F900895CF92DF92EF921D
:100AF000FF920F931F93DF93CF93CDB7DEB760972D
:100B00000FB6F894DEBF0FBECDBFDE011996E3EE3F
:100B1000F1E088E001900D928150E1F749855A8516
:100B200020E030E08E010F5F1F4FBE01675F7F4FF7
:100B3000D801A20FB31FFB01E20FF31F8081918147
:100B4000FA01E81BF90BED93FC932E5F3F4F283021
:100B5000310571F780915C019E012F5F3F4F882323
:100B600049F4ABEEB1E0F90188E001900D928150BB
:100B7000E1F722C0EBEEF1E07901082F10E0680107
:100B80000894C11CD11C808191819C01029FC001ED
:100B9000039F900D129F900D1124D7012D913D912F
:100BA0007D01820F931FB6010E94CC0F6193719358
:100BB000B1E0E33FFB0739F780915C018F5F8093E1
:100BC0005C0160960FB6F894DEBF0FBECDBFCF912B
:100BD000DF911F910F91FF90EF90DF90CF900895DC
:100BE0000F931F938EEF91E09F938F930E940F0AB4
:100BF0008091EB019091EC019F938F931F921F9234
:100C000003E111E01F930F930E94FA098091ED0117
:100C10009091EE019F938F9381E090E09F938F934B
:100C20001F930F930E94FA098091EF019091F001B8
:100C30009F938F9382E090E09F938F931F930F93E6
:100C40000E94FA098091F1019091F2019F938F9394
:100C500083E090E09F938F931F930F930E94FA0974
:100C60008DB79EB74A960FB6F8949EBF0FBE8DBF44
:100C70001F910F910895CF92DF92EF92FF920F9301
:100C80001F93CF93DF938AE292E09F938F930E940A
:100C90000F0A8091E3019091E4019F938F931F923B
:100CA0001F9203E111E01F930F930E94FA098091B4
:100CB000E5019091E6019F938F9381E090E09F93EF
:100CC0008F931F930F930E94FA098091E7019091EF
:100CD000E8019F938F9382E090E09F938F931F93FF
:100CE0000F930E94FA098091E9019091EA019F9384
:100CF0008F9383E090E09F938F931F930F930E94B5
:100D0000FA0985E192E09F938F930E940F0A43EEC8
:100D1000C42E41E0D42E3BEEE32E31E0F32EC0E0B2
:100D2000D0E08DB79EB74C960FB6F8949EBF0FBE1D
:100D30008DBFF701819191917F01F6012191319150
:100D40006F01820F931F9F938F93DF93CF931F9316
:100D50000F930E94FA0921968DB79EB706960FB69B
:100D6000F8949EBF0FBE8DBFC430D10511F7DF913F
:100D7000CF911F910F91FF90EF90DF90CF9008954A
:100D80001F93182F8A3019F48DE00E94C0068091BD
:100D9000C00085FFFCCF1093C60080E090E01F915B
:100DA0000895EF92FF920F931F93CF93DF937C01EF
:100DB00080915D0190915E01892B09F0A0C00FE543
:100DC00011E08091C00087FFFCCF8091C00084FFBC
:100DD00003C02EEF3FEFA7C08091C00083FDA1C0EC
:100DE0009091C6009D3011F09A3069F48AE0F801C4
:100DF0008083B7010E94C0068FE591E090935E0169
:100E000080935D017CC0993009F490E2892F805273
:100E10008F3510F0903A78F0F1E00D3D1F0719F48E
:100E2000B70187E005C0F80191938F01B701892FC1
:100E30000E94C006C6CF923139F1933138F4933015
:100E400009F46FC0983009F0BCCF09C0973109F49C
:100E50004BC09F3721F0953109F0B3CF32C0F1E09C
:100E60000F351F0709F008F4ACCFB70188E00E94E6
:100E7000C006B70180E20E94C006B70188E00E9468
:100E8000C006015010409DCFB7018DE00E94C00602
:100E9000CFE5D1E004C0B70189910E94C006C01718
:100EA000D107C8F38ECFB70188E00E94C006B70112
:100EB00080E20E94C006B70188E00E94C00601508F
:100EC000104081E00F35180709F068F77ACFB701B5
:100ED00088E00E94C006B70180E20E94C006B70108
:100EE00088E00E94C0068E01E1E00F351E0709F080
:100EF00008F467CFE8018A91803249F762CFE09128
:100F00005D01F0915E018191F0935E01E0935D01DE
:100F10008A3021F410925E0110925D01282F30E09A
:100F200002C02FEF3FEFC901DF91CF911F910F91C9
:100F3000FF90EF900895E4E6F0E080818D7F80835C
:100F400089E190E09093C5008093C400E0ECF0E06C
:100F500080818D7F808388E18093C10086E08093CB
:100F6000C20085E291E09093FD018093FC01909393
:100F7000FF018093FE018FE392E09F938F930E9485
:100F80000F0A0F900F9008951F920F920FB60F92B5
:100F900011248F9381E08093E0018F910F900FBE19
:100FA0000F901F9018951F920F920FB60F92112459
:100FB0001092E0010F900FBE0F901F9018951F9296
:100FC0000F920FB60F9211248F938091E001882326
:100FD00011F42A9801C02A9A8F910F900FBE0F909A
:100FE0001F9018951F920F920FB60F9211248F9396
:100FF0008091E001882311F42B9801C02B9A8F91E6
:101000000F900FBE0F901F9018958EE892E09F935F
:101010008F930E940F0AE0E8F0E080818F70808358
:1010200080818C7F8083E1E8F0E080818062808332
:101030008081806180838081877F808380818068D8
:1010400080832FB7F8948FEF9FEF90938700809362
:1010500086002FBFE1E8F0E08081897F8083808176
:1010600081608083EFE6F0E08081887D808384B1B9
:101070008C6084B986E892E09F938F930E940F0A58
:101080000F900F900F900F9008958CEA92E09F932D
:101090008F930E940F0A809170008C7F8093700064
:1010A0008091B6008F7E8093B6008091B6008860F4
:1010B0008093B6001092B2008091B0008F77809339
:1010C000B0008091B000877B8093B0008091B00029
:1010D0008F7C8093B0008091B00085608093B000D9
:1010E0008091B0008D7F8093B0000F900F90809121
:1010F000B60082FDFCCF8091B60081FDFCCF8091CF
:10110000B60080FDFCCF80917000816080937000FC
:1011100084EA92E09F938F930E940F0A0F900F90A2
:10112000089580E792E09F938F930E940F0A0E9498
:1011300005080E9445088AE592E09F938F930E94DC
:101140000F0A0F900F900F900F9008951F920F921B
:101150000FB60F9211242F933F934F935F936F938A
:101160007F938F939F93AF93BF93EF93FF93809160
:10117000DE019091DF0101969093DF018093DE0103
:101180009F938F9383E391E09F938F930E94FA093B
:101190000F900F900F900F90FF91EF91BF91AF9133
:1011A0009F918F917F916F915F914F913F912F917F
:1011B0000F900FBE0F901F901895662331F4F8948E
:1011C000909389008093880007C0613039F4F894C7
:1011D00090938B0080938A007894089586E290E043
:1011E0009F938F93862F90E09F938F9380EF92E051
:1011F0009F938F930E940F0A8DB79EB706960FB6E6
:10120000F8949EBF0FBE8DBF089560E08FEF9FEFF3
:101210000E94DD0861E08FEF9FEF0E94DD080895D6
:10122000282F882331F4F894209188003091890088
:1012300007C0813039F4F89420918A0030918B00F6
:10124000789418C086E190E09F938F93822F90E06E
:101250009F938F938EE193E09F938F930E940F0A49
:1012600020E030E08DB79EB706960FB6F8949EBF8B
:101270000FBE8DBFC90108950F931F938C0180E0AD
:101280000E94100981E00E94100961E0800F911F07
:101290000E94DD081F910F910895EF92FF920F9326
:1012A0001F937C0180E00E9410098C0181E00E9464
:1012B000100960E0C701800F911F0E94DD081F9197
:1012C0000F91FF90EF900895CF93DF93782F6623CF
:1012D000B9F0613029F455E0E7E0C2EED1E014C086
:1012E00088E390E09F938F93862F90E09F938F9356
:1012F00082EC92E09F938F930E940F0A87E06EC06A
:1013000051E0E3E0C1EED1E07230A1F44BB121E055
:1013100030E0C90102C0880F991F5A95E2F7809505
:1013200084238BB98BB102C0220F331FEA95E2F7F9
:10133000822B29C07130A1F44BB181E090E09C0177
:1013400002C0220F331F5A95E2F7422B4BB92BB143
:1013500002C0880F991FEA95E2F78095822313C097
:10136000733099F44BB121E030E0C90102C0880F1D
:10137000991FEA95E2F702C0220F331F5A95E2F750
:10138000822B809584238BB914C0743099F48BB16F
:1013900021E030E0D90102C0AA0FBB1F5A95E2F745
:1013A000AD0102C0220F331FEA95E2F7422B482B12
:1013B0004BB97883662319F02DE331E002C023E4B2
:1013C00031E0888190E09F938F933F932F9388E43F
:1013D00091E09F938F930E94FA0988812DB73EB7C1
:1013E0002A5F3F4F0FB6F8943EBF0FBE2DBFDF916F
:1013F000CF910895A0E0B0E0E0E0FAE00C940E1088
:10140000FE01359661917191AF018091FE0190913D
:10141000FF010E94510A2096E2E00C942A10A0E0FD
:10142000B0E0E5E1FAE00C940E10FE013596619112
:101430007191A091FE01B091FF0113968C911397C9
:10144000886013968C93AF018091FE019091FF010B
:101450000E94510AE091FE01F091FF012381277F54
:1014600023832096E2E00C942A106091FE01709193
:10147000FF010E94280F0895A0E0B0E0E2E4FAE046
:101480000C940E10FE01359661917191AF0180911F
:10149000FC019091FD010E94B40D2096E2E00C94B5
:1014A0002A10ABE0B0E0E7E5FAE00C94FE0F3C0157
:1014B0002B015A01FC0117821682838181FD03C032
:1014C0006FEF7FEFC8C19AE0892E1E010894211C9E
:1014D000311CF3012381F20123FD859123FF8191CA
:1014E0002F01882309F4B4C1853239F423FD859195
:1014F00023FF81912F01853229F4B30190E00E94EE
:10150000280FE7CF982FDD24CC249924FFE1FD1587
:10151000D0F09B3269F09C3228F4903259F093322B
:1015200091F40EC09D3249F0903369F441E024C03B
:1015300052E0D52A84E0D82A28C098E0D92A25C0CC
:10154000E0E1DE2A22C0D7FC29C0892F80538A30EF
:1015500070F4D6FE05C0989C902C1124980E15C0EE
:10156000C89CC02C1124C80EF0E2DF2A0EC09E32A7
:1015700029F4D6FC6DC140E4D42A07C09C3619F486
:1015800050E8D52A02C0983649F4F20123FD95911E
:1015900023FF91912F01992309F0B8CF892F85540A
:1015A000833018F08052833038F444E050E0A40EC9
:1015B000B51E5FE359830FC0933631F0933779F04E
:1015C000933509F056C020C0F5018081898342E03F
:1015D00050E0A40EB51E710101E010E012C0F5014B
:1015E000E080F180D6FC03C06FEF7FEF02C0692D71
:1015F00070E042E050E0A40EB51EC7010E94DB0E71
:101600008C015FE7D52214C0F501E080F180D6FCA3
:1016100003C06FEF7FEF02C0692D70E042E050E041
:10162000A40EB51EC7010E94D00E8C0150E8D52A29
:10163000D3FE07C01AC0B30180E290E00E94280FD9
:10164000CA948C2D90E008171907A8F30EC0F70173
:10165000D7FC8591D7FE81917F01B30190E00E9474
:10166000280FC110CA94015010400115110579F7D7
:10167000ECC0943611F0993671F5D7FE08C0F5012B
:10168000E080F1800281138144E050E00AC0F5015E
:10169000808191817C010027F7FC0095102F42E0AA
:1016A00050E0A40EB51E5FE6D52217FF0AC01095C4
:1016B0000095F094E094E11CF11C011D111D80E8DF
:1016C000D82A2AE030E0A101C801B7010E946E0FBC
:1016D000F82EF21840C0953729F41D2D1F7E2AE000
:1016E00030E01DC01D2D197F9F3661F0903720F42A
:1016F000983509F0ADC00FC0903739F0983709F030
:10170000A7C004C028E030E00AC0106114FD1460D6
:1017100020E130E004C014FD166020E132E017FF44
:1017200008C0F501608171818281938144E050E0BD
:1017300008C0F50180819181BC0180E090E042E029
:1017400050E0A40EB51EA1010E946E0FF82EF218F3
:101750008FE7D82ED122D6FE0BC05EEFD522F9142A
:1017600038F4D4FE07C0D2FC05C08FEED82202C0E8
:101770001F2D01C0192DD4FE0DC0FE01EF0DF11D6E
:101780008081803319F499EED92208C01F5FD2FE00
:1017900005C003C08D2D867809F01F5F0D2DD3FC89
:1017A00014C0D0FE0FC01C1510F09F2C0BC09F2C36
:1017B0009C0C911A1C2D06C0B30180E290E00E949F
:1017C000280F1F5F1C15C0F304C01C1510F4C11AAC
:1017D00001C0CC2404FF10C0B30180E390E00E945C
:1017E000280F02FF1EC001FD03C088E790E002C081
:1017F00088E590E0B3010CC0802F867891F001FF5E
:1018000002C08BE201C080E2D7FC8DE2B30190E020
:101810000E94280F06C0B30180E390E00E94280FC9
:101820009A94F914C0F3FA94F101EF0DF11DB3018C
:10183000808190E00E94280FFF20A9F706C0B30125
:1018400080E290E00E94280FCA94CC20C1F741CEDC
:10185000F30166817781CB012B96E2E10C941A109B
:10186000FC0120FD08C023FD05C022FF02C07383D8
:101870006283518340830895EF92FF920F931F93E9
:1018800044FF02C033E011C046FF02C034E00DC087
:10189000DB01FC01AA0FBB1FEE1FFF1F1094D1F745
:1018A0006A0F7B1F8E1F9F1F31E0660F771F881FF7
:1018B000991F3150D1F77B018C01E20EF11C011D03
:1018C000111DA8019701B701CA011F910F91FF9047
:1018D000EF9008950F931F93CF93DF938C01C8016E
:1018E0000E94E60EEC0197FD08C00E94F30F892BC1
:1018F000B1F7B801CE010E94540FCE01DF91CF9114
:101900001F910F910895A0E0B0E0E9E8FCE00C948D
:101910000610EC01C62E5A01122F0E94E60EAC01F1
:101920008B3219F08D3251F41068CA9409F46DC0ED
:10193000CE010E94E60EAC0197FD67C06DEFD62E7A
:10194000D1228D2D807301F54033F1F4CA9409F44E
:1019500047C0CE010E94E60EAC0197FD41C082E077
:10196000D82A483711F0483559F480E4D82ACA9467
:10197000B9F1CE010E94E60EAC0199232CF430C0DF
:10198000D6FC02C080E1D82AEE24FF248701242F50
:101990002053283088F0D4FC09C02A3068F0D6FEE5
:1019A00005C02F7D822F8151863028F0BE01CA01EB
:1019B0000E94540F12C027504D2DC801B7010E943C
:1019C0003C0C7B018C0182E0D82ACA9461F0CE01E4
:1019D0000E94E60EAC0197FFDACFD1FC04C015C01F
:1019E000EE24FF248701D7FE08C010950095F094DF
:1019F000E094E11CF11C011D111D2D2DB801A70162
:101A0000C5010E94300C81E001C080E0CDB7DEB797
:101A1000EAE00C942210A0E2B0E0E1E1FDE00C94D9
:101A200002106C01A62E8A017901FE01319680E236
:101A3000DF011D928A95E9F770E030E060E040E058
:101A400050E04F01A1E0B0E0F6018381F70183FD92
:101A5000259183FF21917F01222309F47EC02E3539
:101A600019F44115510569F1872F90E08417950706
:101A700044F42D3551F12D3221F4332329F431E092
:101A800021C0332309F4622F322F832F8695869548
:101A90008695F401E80FF11D832F87703D0102C088
:101AA000660C771C8A95E2F7208126292083361759
:101AB00011F430E007C0361710F43F5FE6CF315025
:101AC000E4CF71E04F5F5F4FBFCF332319F08E81BA
:101AD00080628E83772359F0FE0131969E012F5D3F
:101AE0003F4F808180958193E217F307D1F7BB24A4
:101AF000B3944E010894811C911CC6010E94E60E0D
:101B0000AC0197FD22C0869586958695F401E80F75
:101B1000F11D808190E09A012770307002C0959588
:101B200087952A95E2F780FD05C0B601CA010E949B
:101B3000540F0BC00115110519F0D8014D938D01FB
:101B4000AA94BB24AA20C9F602C0BB2031F4011517
:101B5000110529F0F801108202C0EE24FF24C7010C
:101B6000A096EEE00C941E10A0E0B0E0EAEBFDE0E1
:101B70000C9402105C016B013A01FC011782168281
:101B80008824EAC0812F90E00E94F30F892B21F076
:101B9000C5010E946A0CE0C0153249F4F601F3FC5D
:101BA0006591F3FE61916F01653269F415E2C5013B
:101BB0000E94E60E97FDDCC0181709F4CDC0B501F0
:101BC0000E94540FDAC06A3219F0162F00E006C0E6
:101BD000F3FC1591F3FE11916F0101E099240FC000
:101BE0000260692D70E080E090E040E20E943C0CD1
:101BF000962EF601F3FC1591F3FE11916F01212F42
:101C000020532A3068F301FD03C099249A9403C03D
:101C1000992009F4B2C0183621F01C3699F4F60167
:101C20000BC0F601F3FC6591F3FE6191683619F083
:101C30006F01162F07C008600460F3FC1591F3FED6
:101C400011916F01112309F498C0612F70E08CE4A9
:101C500093E00E94C50E892B09F48FC0802F00FFEE
:101C600003C0EE24FF2407C0F301E080F18022E0EE
:101C700030E0620E731E1E3651F4F5014681578125
:101C800060E070E0202FC7010E94300C65C0133661
:101C900091F481FD02C099249394C5010E94E60E3F
:101CA00097FD66C0E114F10419F0F70181937F01FB
:101CB0009A9499F74FC01B3559F49601A701692DE5
:101CC000C5010E940B0D6C01009709F043C03DC097
:101CD000C5010E946A0C97FD4BC01F3659F11037A1
:101CE00028F4143629F1193639F527C0133719F0BD
:101CF000153711F51DC0C5010E94E60EEC0197FDD8
:101D000011C00E94F30F892B29F0B501CE010E946A
:101D1000540F08C0E114F10419F0F701C1937F01D9
:101D20009A9449F7E114F104A9F0F701108212C066
:101D3000006203C0006101C00064202FA701692D6B
:101D4000C5010E94830C882329F4F50183818073E7
:101D500079F413C000FF8394F501F380F601F3FCDE
:101D60001591F3FE11916F01112309F00BCF05C0FE
:101D7000882019F42FEF3FEF02C0282D30E0C90171
:101D8000CDB7DEB7EEE00C941E10FC0105900616F0
:101D900021F00020D9F7C00108953197CF010895AF
:101DA000FC010590615070400110D8F78095909526
:101DB0008E0F9F1F0895FC0161507040019001102B
:101DC000D8F7809590958E0F9F1F0895CF93DF933E
:101DD000EC014B8140FF1AC046FF0AC04F7B4B838A
:101DE0008E819F8101969F838E838A81282F2BC0AD
:101DF00042FF13C0E881F9818081282F332727FD16
:101E000030952115310529F440624B832FEF3FEFC8
:101E10001BC03196F983E88311C0EA85FB85CE01AA
:101E200009959C0197FF0AC09B812F5F3F4F11F0DE
:101E300080E201C080E1892B8B83E8CF8E819F8176
:101E400001969F838E8330E0C901DF91CF91089581
:101E50000F931F93CF93DF938C01EB018B8181FF55
:101E60001BC082FF0DC02E813F818C819D81281770
:101E7000390764F4E881F9810193F983E88306C0A6
:101E8000E885F985802F0995892B31F48E819F8112
:101E900001969F838E8302C00FEF1FEFC801DF9171
:101EA000CF911F910F9108959C01FB01838180FFC9
:101EB00011C086FD0FC09FEF2F3F390759F02283D5
:101EC00080648F7D83838681978101979783868342
:101ED00030E002C02FEF3FEFC9010895FA01AA27B1
:101EE000283051F1203181F1E8946F936E7F6E5F5D
:101EF0007F4F8F4F9F4FAF4FB1E03ED0B4E03CD00B
:101F0000670F781F891F9A1FA11D680F791F8A1FED
:101F1000911DA11D6A0F711D811D911DA11D20D054
:101F200009F468943F912AE0269F11243019305D0E
:101F30003193DEF6CF010895462F4770405D4193FF
:101F4000B3E00FD0C9F7F6CF462F4F70405D4A334C
:101F500018F0495D31FD4052419302D0A9F7EACF14
:101F6000B4E0A6959795879577956795BA95C9F743
:101F700000976105710508959B01AC010A2E069436
:101F80005795479537952795BA95C9F7620F731FEF
:101F9000841F951FA01D089597FB092E07260AD0C0
:101FA00077FD04D00CD006D000201AF4709561950E
:101FB0007F4F0895F6F7909581959F4F0895AA1B3E
:101FC000BB1B51E107C0AA1FBB1FA617B70710F024
:101FD000A61BB70B881F991F5A95A9F78095909556
:101FE000BC01CD010895911106C0803219F08950CD
:101FF0008550D0F708959927882708952F923F920A
:102000004F925F926F927F928F929F92AF92BF9208
:10201000CF92DF92EF92FF920F931F93CF93DF93B4
:10202000CDB7DEB7CA1BDB0B0FB6F894DEBF0FBE11
:10203000CDBF09942A88398848885F846E847D845E
:102040008C849B84AA84B984C884DF80EE80FD8060
:102050000C811B81AA81B981CE0FD11D0FB6F894D6
:0E206000DEBF0FBECDBFED010895F894FFCF97
:10206E002563000A4D4C3A202558000A4D523A205D
:10207E00255800205B202564203A202564205D2011
:10208E0000040605070000000300000000C006D192
:10209E000600000A09543A202564730A0052696743
:1020AE006874004C656674000A4D6F746F723A2046
:0C20BE002573206D6F64653A20256400D6
:00000001FF
