:100000000C94C5000C94E2000C94E2000C94E20005
:100010000C94E2000C945B050C9488040C949404FA
:100020000C94A7040C9479040C94E2000C94E20064
:100030000C94E2000C94E2000C94E2000C94E200B8
:100040000C94E2000C94E2000C94E2000C946F0219
:100050000C94E2000C94E2000C94E2000A496E76E3
:10006000616C6964204D6F64652E0A0050494E45ED
:10007000203A200050494E42203A2000504F52541E
:10008000443A2000504F5254423A20002020202071
:1000900020202037363534333231300A005768613A
:1000A0007420285B545D6573742F5B465D6F6C6CC8
:1000B0006F77293A20003A20496E69743A20446FDC
:1000C0006E650A0A0020205B646F6E655D0A000A97
:1000D0006164633A20736574757020636F6E766532
:1000E0007274696F6E732E2E2E20006164633A2045
:1000F000696E69742E2E2E0075736172743A2069D0
:100100006E6974207573617274302E2E2E205B64BC
:100110006F6E655D0A0074696D6572733A20696E71
:1001200069742020202020095B646F6E655D007477
:10013000696D6572733A20696E69742E2E2E0009FE
:100140005B646F6E655D0A0074696D65723A207458
:10015000696D65723120696E69742E2E2E00095BFF
:10016000646F6E655D0A0074696D65723A2074692A
:100170006D65723220696E69742E2E2E006364697B
:100180006E6F70737578585B000011241FBECFEF3F
:10019000D4E0DEBFCDBF11E0A0E0B1E0E6EAF8E1D7
:1001A00002C005900D92A036B107D9F712E0A0E683
:1001B000B1E001C01D92A530B107E1F70E945801DE
:1001C0000C94510C0C94000080E090E020E80FB6F5
:1001D000F89420936100809361000FBE089584B16C
:1001E0008F7284B98DB1837F8DB90895EF92FF929C
:1001F0000F931F93CF93DF93C7E0D0E091E0E92EF8
:10020000F12C082F10E0C7010C2E02C0880F991F97
:100210000A94E2F7802391230C2E02C095958795CE
:100220000A94E2F7C0960E94780621978FEFCF3F9D
:10023000D80749F7DF91CF911F910F91FF90EF9071
:100240000895F894ECE6F0E080818F778083E4E60F
:10025000F0E080818061808380818460808380E0A1
:1002600090E020E80FB6F89420936100809361003D
:100270000FBE0E94500484B18F7284B98DB1837F08
:100280008DB90E94BE020E9446058AB18A6A8AB967
:1002900081E00E94140681E00E94EB05789486EBD1
:1002A00090E09F938F930E9452060F900F900895B5
:1002B0006F927F928F929F92AF92BF92CF92DF9276
:1002C000EF92FF920F931F93DF93CF930F92CDB7CF
:1002D000DEB70E94210180E090E00E94A20580E04C
:1002E00090E00E94A9050DE9A02E00E0B02E6E015D
:1002F0000894C11CD11C10E0E12E11E0F12E0CE598
:1003000010E0BF92AF920E945206DF92CF92FF920E
:10031000EF920E947F0689812DB73EB72A5F3F4F3B
:100320000FB6F8943EBF0FBE2DBF863409F064C0EF
:10033000B3E08B2EB1E09B2EABE0AA2EA1E0BA2E4B
:10034000F8ECCF2ED12C0E9492058C010E949A05C8
:100350007C011F930F939F928F920E943D06FF9204
:10036000EF92BF92AF920E943D060E942C038091B3
:10037000E8019091E901AC01440F551F440F551F4E
:10038000480F591F8091E6019091E701480F591FCE
:100390008091EA019091EB019C01220F331F220F03
:1003A000331F280F391F8091EC019091ED01280F28
:1003B000391F8DB79EB708960FB6F8949EBF0FBE33
:1003C0008DBF2417350728F484E690E00E94B0051D
:1003D0000AC04217530728F484E690E00E94C5053E
:1003E00002C00E94DA0588E59BE1F6013197F1F73A
:1003F000019709F4A8CFF9CF843509F05DC081E0F9
:100400000E94140681E00E94EB056CE8662E60E015
:10041000762E54E8852E50E0952E4CE7A42E40E031
:10042000B42E34E7C32E30E0D32E2CE6E22E20E0AB
:10043000F22E08EC10E07F926F920E9452069F927B
:100440008F920E94520685B10E94F6008AE090E0E9
:100450000E947806BF92AF920E9452068BB10E9412
:10046000F6008AE090E00E947806DF92CF920E9428
:10047000520683B10E94F6008AE090E00E9478065E
:10048000FF92EF920E9452068CB10E94F6008AE021
:1004900090E00E94780688E59BE12DB73EB7265F85
:1004A0003F4F0FB6F8943EBF0FBE2DBFF8013197F6
:1004B000F1F70197D9F7BFCF1F930F930E94520610
:1004C0000F900F901ECFACE7B0E09C91E1E2F1E01D
:1004D000E80FF11D907E8081982B9C9308951F92C8
:1004E0000F920FB60F9211242F933F934F938F9338
:1004F0009F93AF93BF93EF93FF9340917800309118
:1005000079002091F601222311F4E3E002C0E22FEA
:10051000E150F0E0EE0FFF1FDF01AA51BE4F932F15
:1005200080E0840F911D8D939C93E950FE4F808154
:100530009181019691838083822F8F5F8093F60152
:10054000843010F01092F60180917C00E091F60169
:10055000F0E0EF5DFE4F807E9081892B80937C00E0
:10056000FF91EF91BF91AF919F918F914F913F91EB
:100570002F910F900FBE0F901F901895EF92FF9242
:100580000F931F938BEE90E09F938F930E945206E0
:10059000E4E6F0E080818E7F80830CE710E0F801D4
:1005A00080818064808380818F7780839AE7E92EC1
:1005B000F12CF7018081886A80838081887F866042
:1005C0008083EBE7F0E08081806880838081887F92
:1005D0008083EEE7F0E08081806F808383B7817F46
:1005E000826083BF8FEC90E09F938F930E945206AE
:1005F0002091F601F8018081A1E2B1E0FD01E20F56
:10060000F11D807E9081892BF8018083F701808124
:100610008064808380E090E00197F1F72F5F209362
:10062000F601F8018081A20FB11D807E9C91892B7B
:10063000808385EC90E09F938F930E9452068DB744
:100640009EB706960FB6F8949EBF0FBE8DBF1F9142
:100650000F91FF90EF9008950F931F938091E60103
:100660009091E7019F938F931F921F9203E111E0F6
:100670001F930F930E943D068091E8019091E9013C
:100680009F938F9381E090E09F938F931F930F939D
:100690000E943D068091EA019091EB019F938F9318
:1006A00082E090E09F938F931F930F930E943D06EB
:1006B0008091EC019091ED019F938F9383E090E006
:1006C0009F938F931F930F930E943D068AE090E0C3
:1006D0000E9478068DB79EB748960FB6F8949EBFD5
:1006E0000FBE8DBF1F910F9108951F93182F8A3051
:1006F00019F48DE00E9475038091C00085FFFCCF46
:100700001093C60080E090E01F910895EF92FF9251
:100710000F931F93CF93DF937C01809160019091A1
:100720006101892B09F0A0C002E611E08091C000B0
:1007300087FFFCCF8091C00084FF03C02EEF3FEF06
:10074000A7C08091C00083FDA1C09091C6009D30DC
:1007500011F09A3069F48AE0F8018083B7010E94B1
:10076000750382E691E090936101809360017CC003
:10077000993009F490E2892F80528F3510F0903A29
:1007800078F0F1E0003E1F0719F4B70187E005C0DB
:10079000F80191938F01B701892F0E947503C6CF8D
:1007A000923139F1933138F4933009F46FC09830B5
:1007B00009F0BCCF09C0973109F44BC09F3721F035
:1007C000953109F0B3CF32C0F1E002361F0709F0CE
:1007D00008F4ACCFB70188E00E947503B70180E24E
:1007E0000E947503B70188E00E9475030150104014
:1007F0009DCFB7018DE00E947503C2E6D1E004C031
:10080000B70189910E947503C017D107C8F38ECF35
:10081000B70188E00E947503B70180E20E9475036A
:10082000B70188E00E9475030150104081E0023654
:10083000180709F068F77ACFB70188E00E947503BE
:10084000B70180E20E947503B70188E00E9475033A
:100850008E01E1E002361E0709F008F467CFE801D7
:100860008A91803249F762CFE0916001F091610195
:100870008191F0936101E09360018A3021F410923C
:10088000610110926001282F30E002C02FEF3FEF8E
:10089000C901DF91CF911F910F91FF90EF900895C3
:1008A000E4E6F0E080818D7F808389E190E09093A1
:1008B000C5008093C400E0ECF0E080818D7F8083F0
:1008C00088E18093C10086E08093C20085E291E0D8
:1008D000909300028093FF019093020280930102A3
:1008E00088EF90E09F938F930E9452060F900F9095
:1008F00008951F920F920FB60F9211248F9381E0EB
:100900008093E3018F910F900FBE0F901F90189569
:100910001F920F920FB60F9211241092E3010F90C5
:100920000FBE0F901F9018951F920F920FB60F9247
:1009300011248F938091E301882311F42A9801C038
:100940002A9A8F910F900FBE0F901F9018951F92AB
:100950000F920FB60F9211248F938091E301882399
:1009600011F42B9801C02B9A8F910F900FBE0F900E
:100970001F90189588E491E09F938F930E945206F0
:10098000E0E8F0E080818F70808380818C7F8083BD
:10099000E1E8F0E0808180628083808180618083F3
:1009A0008081877F80838081806880832FB7F894DF
:1009B0008FEF9FEF90938700809386002FBFE1E831
:1009C000F0E08081897F8083808181608083EFE691
:1009D000F0E08081887D808384B18C6084B98FE36E
:1009E00091E09F938F930E9452060F900F900F906B
:1009F0000F90089587E691E09F938F930E9452068F
:100A0000809170008C7F809370008091B6008F7E03
:100A10008093B6008091B60088608093B6001092F3
:100A2000B2008091B0008F778093B0008091B000C9
:100A3000877B8093B0008091B0008F7C8093B00062
:100A40008091B00085608093B0008091B0008D7F70
:100A50008093B0000F900F908091B60082FDFCCF84
:100A60008091B60081FDFCCF8091B60080FDFCCF67
:100A7000809170008160809370008EE591E09F937B
:100A80008F930E9452060F900F9008958FE291E08D
:100A90009F938F930E9452060E94BA040E94FA0408
:100AA00086E191E09F938F930E9452060F900F90E2
:100AB0000F900F9008951F920F920FB60F9211246E
:100AC0002F933F934F935F936F937F938F939F9356
:100AD000AF93BF93EF93FF938091E1019091E20177
:100AE00001969093E2018093E1019F938F9383E3BA
:100AF00091E09F938F930E943D060F900F900F906F
:100B00000F90FF91EF91BF91AF919F918F917F9146
:100B10006F915F914F913F912F910F900FBE0F906A
:100B20001F901895F894209188003091890078944E
:100B3000C9010895F89420918A0030918B0078942F
:100B4000C9010895F894909389008093880078945F
:100B50000895F89490938B0080938A007894089578
:100B6000F89420918800309189007894F89440910D
:100B70008A0050918B007894280F391FF894309395
:100B800089002093880078940895F8942091880033
:100B9000309189007894F89420918A0030918B00EC
:100BA0007894280F391FF89430938B0020938A0093
:100BB00078940895F8948FEF9FEF90938900809335
:100BC00088007894F8948FEF9FEF90938B00809338
:100BD0008A0078940895982F823019F45D985F9A6E
:100BE0000FC0813019F45D9A5F980AC0833019F400
:100BF0008BB18F7504C0843029F48BB1806A8BB9B6
:100C00009093E4018091E40190E09F938F938CE3B3
:100C100091E09F938F930E943D060F900F900F904D
:100C20000F908091E4010895982F823019F459981B
:100C30005B9A0FC0813019F4599A5B980AC08330CF
:100C400019F48BB1857F04C0843029F48BB18A609C
:100C50008BB99093E5018091E50190E09F938F938C
:100C60008EE491E09F938F930E943D060F900F902A
:100C70000F900F908091E5010895A0E0B0E0E3E4CB
:100C8000F6E00C942A0CFE01359661917191AF014A
:100C900080910102909102020E9494062096E2E067
:100CA0000C94460CA0E0B0E0E8E5F6E00C942A0CC9
:100CB000FE01359661917191A0910102B0910202FD
:100CC00013968C911397886013968C93AF01809143
:100CD0000102909102020E949406E0910102F091BB
:100CE00002022381277F23832096E2E00C94460CA6
:100CF00060910102709102020E946B0B0895A0E0C6
:100D0000B0E0E5E8F6E00C942A0CFE01359661911E
:100D10007191AF018091FF01909100020E94F7094B
:100D20002096E2E00C94460CABE0B0E0EAE9F6E095
:100D30000C941A0C3C012B015A01FC0117821682FB
:100D4000838181FD03C06FEF7FEFC8C19AE0892ED8
:100D50001E010894211C311CF3012381F20123FDA3
:100D6000859123FF81912F01882309F4B4C1853235
:100D700039F423FD859123FF81912F01853229F4D8
:100D8000B30190E00E946B0BE7CF982FDD24CC24B9
:100D90009924FFE1FD15D0F09B3269F09C3228F4D4
:100DA000903259F0933291F40EC09D3249F0903355
:100DB00069F441E024C052E0D52A84E0D82A28C052
:100DC00098E0D92A25C0E0E1DE2A22C0D7FC29C05C
:100DD000892F80538A3070F4D6FE05C0989C902CE1
:100DE0001124980E15C0C89CC02C1124C80EF0E226
:100DF000DF2A0EC09E3229F4D6FC6DC140E4D42A0D
:100E000007C09C3619F450E8D52A02C0983649F438
:100E1000F20123FD959123FF91912F01992309F070
:100E2000B8CF892F8554833018F08052833038F43E
:100E300044E050E0A40EB51E5FE359830FC0933623
:100E400031F0933779F0933509F056C020C0F501A1
:100E50008081898342E050E0A40EB51E710101E05B
:100E600010E012C0F501E080F180D6FC03C06FEF06
:100E70007FEF02C0692D70E042E050E0A40EB51E85
:100E8000C7010E941E0B8C015FE7D52214C0F5013B
:100E9000E080F180D6FC03C06FEF7FEF02C0692DC8
:100EA00070E042E050E0A40EB51EC7010E94130B93
:100EB0008C0150E8D52AD3FE07C01AC0B30180E2E6
:100EC00090E00E946B0BCA948C2D90E008171907D4
:100ED000A8F30EC0F701D7FC8591D7FE81917F0161
:100EE000B30190E00E946B0BC110CA9401501040F6
:100EF0000115110579F7ECC0943611F0993671F5AA
:100F0000D7FE08C0F501E080F1800281138144E042
:100F100050E00AC0F501808191817C010027F7FC37
:100F20000095102F42E050E0A40EB51E5FE6D522DA
:100F300017FF0AC010950095F094E094E11CF11C95
:100F4000011D111D80E8D82A2AE030E0A101C80166
:100F5000B7010E94B10BF82EF21840C0953729F462
:100F60001D2D1F7E2AE030E01DC01D2D197F9F36EC
:100F700061F0903720F4983509F0ADC00FC090377C
:100F800039F0983709F0A7C004C028E030E00AC063
:100F9000106114FD146020E130E004C014FD1660FF
:100FA00020E132E017FF08C0F50160817181828184
:100FB000938144E050E008C0F50180819181BC013B
:100FC00080E090E042E050E0A40EB51EA1010E9436
:100FD000B10BF82EF2188FE7D82ED122D6FE0BC017
:100FE0005EEFD522F91438F4D4FE07C0D2FC05C058
:100FF0008FEED82202C01F2D01C0192DD4FE0DC0C6
:10100000FE01EF0DF11D8081803319F499EED92294
:1010100008C01F5FD2FE05C003C08D2D867809F081
:101020001F5F0D2DD3FC14C0D0FE0FC01C1510F097
:101030009F2C0BC09F2C9C0C911A1C2D06C0B30139
:1010400080E290E00E946B0B1F5F1C15C0F304C090
:101050001C1510F4C11A01C0CC2404FF10C0B30148
:1010600080E390E00E946B0B02FF1EC001FD03C0F5
:1010700088E790E002C088E590E0B3010CC0802FC3
:10108000867891F001FF02C08BE201C080E2D7FCBC
:101090008DE2B30190E00E946B0B06C0B30180E3C8
:1010A00090E00E946B0B9A94F914C0F3FA94F1014A
:1010B000EF0DF11DB301808190E00E946B0BFF20CA
:1010C000A9F706C0B30180E290E00E946B0BCA94BE
:1010D000CC20C1F741CEF30166817781CB012B96FD
:1010E000E2E10C94360CFC0120FD08C023FD05C094
:1010F00022FF02C073836283518340830895EF927D
:10110000FF920F931F9344FF02C033E011C046FFCC
:1011100002C034E00DC0DB01FC01AA0FBB1FEE1FB3
:10112000FF1F1094D1F76A0F7B1F8E1F9F1F31E0A6
:10113000660F771F881F991F3150D1F77B018C01F3
:10114000E20EF11C011D111DA8019701B701CA0192
:101150001F910F91FF90EF9008950F931F93CF93DE
:10116000DF938C01C8010E94290BEC0197FD08C098
:101170000E940F0C892BB1F7B801CE010E94970B8A
:10118000CE01DF91CF911F910F910895A0E0B0E0C3
:10119000ECECF8E00C94220CEC01C62E5A01122F54
:1011A0000E94290BAC018B3219F08D3251F410687A
:1011B000CA9409F46DC0CE010E94290BAC0197FDC1
:1011C00067C06DEFD62ED1228D2D807301F540338F
:1011D000F1F4CA9409F447C0CE010E94290BAC0176
:1011E00097FD41C082E0D82A483711F0483559F4BC
:1011F00080E4D82ACA94B9F1CE010E94290BAC012F
:1012000099232CF430C0D6FC02C080E1D82AEE2409
:10121000FF248701242F2053283088F0D4FC09C0F4
:101220002A3068F0D6FE05C02F7D822F815186308E
:1012300028F0BE01CA010E94970B12C027504D2D05
:10124000C801B7010E947F087B018C0182E0D82A87
:10125000CA9461F0CE010E94290BAC0197FFDACF4E
:10126000D1FC04C015C0EE24FF248701D7FE08C0BE
:1012700010950095F094E094E11CF11C011D111DE6
:101280002D2DB801A701C5010E94730881E001C09E
:1012900080E0CDB7DEB7EAE00C943E0CA0E2B0E00F
:1012A000E4E5F9E00C941E0C6C01A62E8A0179018C
:1012B000FE01319680E2DF011D928A95E9F770E028
:1012C00030E060E040E050E04F01A1E0B0E0F60126
:1012D0008381F70183FD259183FF21917F012223E3
:1012E00009F47EC02E3519F44115510569F1872F97
:1012F00090E08417950744F42D3551F12D3221F4F7
:10130000332329F431E021C0332309F4622F322F33
:10131000832F869586958695F401E80FF11D832F1E
:1013200087703D0102C0660C771C8A95E2F7208128
:1013300026292083361711F430E007C0361710F441
:101340003F5FE6CF3150E4CF71E04F5F5F4FBFCFDB
:10135000332319F08E8180628E83772359F0FE014A
:1013600031969E012F5D3F4F808180958193E217DA
:10137000F307D1F7BB24B3944E010894811C911C50
:10138000C6010E94290BAC0197FD22C08695869567
:101390008695F401E80FF11D808190E09A01277095
:1013A000307002C0959587952A95E2F780FD05C0BB
:1013B000B601CA010E94970B0BC00115110519F067
:1013C000D8014D938D01AA94BB24AA20C9F602C06E
:1013D000BB2031F40115110529F0F801108202C07B
:1013E000EE24FF24C701A096EEE00C943A0CA0E096
:1013F000B0E0EDEFF9E00C941E0C5C016B013A01DA
:10140000FC01178216828824EAC0812F90E00E9496
:101410000F0C892B21F0C5010E94AD08E0C01532E8
:1014200049F4F601F3FC6591F3FE61916F016532B9
:1014300069F415E2C5010E94290B97FDDCC018175D
:1014400009F4CDC0B5010E94970BDAC06A3219F0D9
:10145000162F00E006C0F3FC1591F3FE11916F0109
:1014600001E099240FC00260692D70E080E090E0F7
:1014700040E20E947F08962EF601F3FC1591F3FEE0
:1014800011916F01212F20532A3068F301FD03C011
:1014900099249A9403C0992009F4B2C0183621F017
:1014A0001C3699F4F6010BC0F601F3FC6591F3FECE
:1014B0006191683619F06F01162F07C0086004604B
:1014C000F3FC1591F3FE11916F01112309F498C0FB
:1014D000612F70E08DE791E00E94080B892B09F4E1
:1014E0008FC0802F00FF03C0EE24FF2407C0F3014C
:1014F000E080F18022E030E0620E731E1E3651F46F
:10150000F5014681578160E070E0202FC7010E94FD
:10151000730865C0133691F481FD02C09924939439
:10152000C5010E94290B97FD66C0E114F10419F072
:10153000F70181937F019A9499F74FC01B3559F4B5
:101540009601A701692DC5010E944E096C01009703
:1015500009F043C03DC0C5010E94AD0897FD4BC0D6
:101560001F3659F1103728F4143629F1193639F598
:1015700027C0133719F0153711F51DC0C5010E949A
:10158000290BEC0197FD11C00E940F0C892B29F04B
:10159000B501CE010E94970B08C0E114F10419F0C7
:1015A000F701C1937F019A9449F7E114F104A9F07E
:1015B000F701108212C0006203C0006101C0006424
:1015C000202FA701692DC5010E94C608882329F490
:1015D000F5018381807379F413C000FF8394F501D2
:1015E000F380F601F3FC1591F3FE11916F011123C5
:1015F00009F00BCF05C0882019F42FEF3FEF02C090
:10160000282D30E0C901CDB7DEB7EEE00C943A0CDE
:10161000FC010590061621F00020D9F7C0010895BD
:101620003197CF010895FC01059061507040011081
:10163000D8F7809590958E0F9F1F0895FC016150FB
:10164000704001900110D8F7809590958E0F9F1FE4
:101650000895CF93DF93EC014B8140FF1AC046FF02
:101660000AC04F7B4B838E819F8101969F838E831F
:101670008A81282F2BC042FF13C0E881F981808125
:10168000282F332727FD30952115310529F4406295
:101690004B832FEF3FEF1BC03196F983E88311C0D6
:1016A000EA85FB85CE0109959C0197FF0AC09B81C5
:1016B0002F5F3F4F11F080E201C080E1892B8B83C7
:1016C000E8CF8E819F8101969F838E8330E0C90190
:1016D000DF91CF9108950F931F93CF93DF938C01E8
:1016E000EB018B8181FF1BC082FF0DC02E813F81EA
:1016F0008C819D812817390764F4E881F981019371
:10170000F983E88306C0E885F985802F0995892B40
:1017100031F48E819F8101969F838E8302C00FEFEB
:101720001FEFC801DF91CF911F910F9108959C0188
:10173000FB01838180FF11C086FD0FC09FEF2F3F0B
:10174000390759F0228380648F7D83838681978156
:1017500001979783868330E002C02FEF3FEFC901E6
:101760000895FA01AA27283051F1203181F1E89437
:101770006F936E7F6E5F7F4F8F4F9F4FAF4FB1E084
:101780003ED0B4E03CD0670F781F891F9A1FA11D7F
:10179000680F791F8A1F911DA11D6A0F711D811D80
:1017A000911DA11D20D009F468943F912AE0269F45
:1017B00011243019305D3193DEF6CF010895462FA4
:1017C0004770405D4193B3E00FD0C9F7F6CF462F85
:1017D0004F70405D4A3318F0495D31FD40524193EE
:1017E00002D0A9F7EACFB4E0A695979587957795AB
:1017F0006795BA95C9F700976105710508959B0132
:10180000AC010A2E06945795479537952795BA95BA
:10181000C9F7620F731F841F951FA01D08959111B2
:1018200006C0803219F089508550D0F70895992765
:10183000882708952F923F924F925F926F927F92E6
:101840008F929F92AF92BF92CF92DF92EF92FF92D0
:101850000F931F93CF93DF93CDB7DEB7CA1BDB0B7C
:101860000FB6F894DEBF0FBECDBF09942A88398821
:1018700048885F846E847D848C849B84AA84B98428
:10188000C884DF80EE80FD800C811B81AA81B98134
:10189000CE0FD11D0FB6F894DEBF0FBECDBFED0148
:0618A0000895F894FFCF4B
:1018A6002563004D4C3A2025580A004D523A202512
:1018B600580A00205B202564203A202564205D20FC
:1018C60000040605070000000300000000750386FB
:1018D60003000009543A202564730A006D6F746F83
:1018E600722052206D6F64653A2025640A006D6F80
:1018F600746F72204C206D6F64653A2025640A006F
:00000001FF
