:100000000C944D000C946A000C946A000C946A00E5
:100010000C946A000C946F040C9438040C944404FF
:100020000C9457040C9429040C946A000C946A00F4
:100030000C946A000C946A000C946A000C946A0098
:100040000C946A000C946A000C946A000C94CD0124
:100050000C946A000C946A000C946A00504F52543D
:10006000453A2000504F5254443A2000504F5254C9
:10007000423A20005768617420285B545D657374B0
:100080002F5B465D6F6C6C6F77293A200063646963
:100090006E6F70737578585B000011241FBECFEF30
:1000A000D4E0DEBFCDBF11E0A0E0B1E0ECEEF6E1C0
:1000B00002C005900D92A43BB107D9F712E0A4EB62
:1000C000B1E001C01D92AA32B107E1F70E94DC0045
:1000D0000C94740B0C94000080E090E020E80FB6C4
:1000E000F89420936100809361000FBE089584B15D
:1000F0008F7284B98DB1837F8DB90895EF92FF928D
:100100000F931F93CF93DF93C7E0D0E091E0E92EE8
:10011000F12C082F10E0C7010C2E02C0880F991F88
:100120000A94E2F7802391230C2E02C095958795BF
:100130000A94E2F7C0960E94660521978FEFCF3FA1
:10014000D80749F7DF91CF911F910F91FF90EF9062
:100150000895F894ECE6F0E080818F778083E4E600
:10016000F0E080818061808380818460808380E092
:1001700090E020E80FB6F89420936100809361002E
:100180000FBE0E949C0384B18F7284B98DB1837FAE
:100190008DB90E941C020E946A048AB18A6A8AB9D7
:1001A00081E00E94280581E00E94FF04789480E0AD
:1001B00091E00E946D0508958F929F92AF92BF9239
:1001C000CF92DF92EF92FF920F931F93DF93CF9323
:1001D0000F92CDB7DEB70E94A90080E090E00E94A8
:1001E000B60480E090E00E94BD04B4E7CB2EB0E0FE
:1001F000DB2E7E010894E11CF11C0EE011E0DF9281
:10020000CF920E945105FF92EF921F930F930E948D
:10021000A20589812DB73EB72A5F3F4F0FB6F894EC
:100220003EBF0FBE2DBF863409F064C0A1E18A2E07
:10023000A1E09A2EF9E1AF2EF1E0BF2EE8ECCE2E30
:10024000D12C0E94A6048C010E94AE047C011F9355
:100250000F939F928F920E945105FF92EF92BF924F
:10026000AF920E9451050E94780280910D029091F8
:100270000E02AC01440F551F440F551F480F591F64
:1002800080910B0290910C02480F591F80910F0230
:10029000909110029C01220F331F220F331F280F51
:1002A000391F8091110290911202280F391F8DB7CA
:1002B0009EB708960FB6F8949EBF0FBE8DBF241749
:1002C000350728F484E690E00E94C4040AC042176F
:1002D000530728F484E690E00E94D90402C00E94EB
:1002E000EE0488E59BE1F6013197F1F7019709F4F7
:1002F000A8CFF9CF843509F03FC081E00E942805DE
:1003000081E00E94FF043CE6C32E30E0D32E24E6B9
:10031000E22E20E0F22E0CE510E081E291E00E9456
:100320006D05DF92CF920E94510585B10E947E003B
:100330008AE090E00E946605FF92EF920E945105CC
:100340008BB10E947E008AE090E00E9466051F93B8
:100350000F930E9451058EB10E947E008AE090E0CA
:100360000E9466052DB73EB72A5F3F4F0FB6F8943F
:100370003EBF0FBE2DBFD1CF81E391E00E946D053E
:100380003ECFACE7B0E09C91E5E7F1E0E80FF11D6E
:10039000907E8081982B9C9308951F920F920FB6A8
:1003A0000F9211242F933F934F938F939F93AF936B
:1003B000BF93EF93FF9340917800309179002091A3
:1003C0001B02222311F4E3E002C0E22FE150F0E02F
:1003D000EE0FFF1FDF01A55FBD4F932F80E0840F5D
:1003E000911D8D939C93E45EFD4F808191810196D8
:1003F00091838083822F8F5F80931B02843010F063
:1004000010921B0280917C00E0911B02F0E0EB58FF
:10041000FE4F807E9081892B80937C00FF91EF912D
:10042000BF91AF919F918F914F913F912F910F90DD
:100430000FBE0F901F901895EF92FF920F931F938E
:1004400080E491E00E946D05E4E6F0E080818E7F1B
:1004500080830CE710E0F8018081806480838081D4
:100460008F7780839AE7E92EF12CF7018081886AE3
:1004700080838081887F86608083EBE7F0E08081E5
:10048000806880838081887F8083EEE7F0E08081D0
:10049000806F808383B7817F826083BF8DE491E02A
:1004A0000E946D0520911B02F8018081A5E7B1E053
:1004B000FD01E20FF11D807E9081892BF801808380
:1004C000F70180818064808380E090E00197F1F7FC
:1004D0002F5F20931B02F8018081A20FB11D807E47
:1004E0009C91892B80831F910F91FF90EF9008952D
:1004F0000F931F9380910B0290910C029F938F9307
:100500001F921F9207E611E01F930F930E9451055F
:1005100080910D0290910E029F938F9381E090E065
:100520009F938F931F930F930E94510580910F0209
:10053000909110029F938F9382E090E09F938F930E
:100540001F930F930E945105809111029091120206
:100550009F938F9383E090E09F938F931F930F93CC
:100560000E9451058AE090E00E9466058DB79EB713
:1005700048960FB6F8949EBF0FBE8DBF1F910F9186
:1005800008951F93182F8A3019F48DE00E94C1023C
:100590008091C00085FFFCCF1093C60080E090E002
:1005A0001F910895EF92FF920F931F93CF93DF93C4
:1005B0007C018091B4019091B501892B09F0A0C014
:1005C00006EB11E08091C00087FFFCCF8091C00056
:1005D00084FF03C02EEF3FEFA7C08091C00083FDD2
:1005E000A1C09091C6009D3011F09A3069F48AE064
:1005F000F8018083B7010E94C10286EB91E09093DD
:10060000B5018093B4017CC0993009F490E2892F40
:1006100080528F3510F0903A78F0F2E005301F07E5
:1006200019F4B70187E005C0F80191938F01B70174
:10063000892F0E94C102C6CF923139F1933138F42B
:10064000933009F46FC0983009F0BCCF09C09731DE
:1006500009F44BC09F3721F0953109F0B3CF32C078
:10066000F1E0063B1F0709F008F4ACCFB70188E0C2
:100670000E94C102B70180E20E94C102B70188E076
:100680000E94C102015010409DCFB7018DE00E9431
:10069000C102C6EBD1E004C0B70189910E94C1023A
:1006A000C017D107C8F38ECFB70188E00E94C102FE
:1006B000B70180E20E94C102B70188E00E94C10236
:1006C0000150104081E0063B180709F068F77ACF27
:1006D000B70188E00E94C102B70180E20E94C10216
:1006E000B70188E00E94C1028E01E1E0063B1E07CF
:1006F00009F008F467CFE8018A91803249F762CFA8
:10070000E091B401F091B5018191F093B501E093CE
:10071000B4018A3021F41092B5011092B401282F4F
:1007200030E002C02FEF3FEFC901DF91CF911F9161
:100730000F91FF90EF900895E4E6F0E080818D7FC7
:10074000808389E190E09093C5008093C400E0EC41
:10075000F0E080818D7F808388E18093C10086E016
:100760008093C20089E791E0909325028093240250
:1007700090932702809326020895809170008C7FC9
:10078000809370008091B6008F7E8093B600809138
:10079000B60088608093B6001092B2008091B000DD
:1007A0008F778093B0008091B000877B8093B000FA
:1007B0008091B0008F7C8093B0008091B000856004
:1007C0008093B0008091B0008D7F8093B0008091C5
:1007D000B60082FDFCCF8091B60081FDFCCF8091F8
:1007E000B60080FDFCCF8091700081608093700026
:1007F0000895E0E8F0E080818F70808380818C7FB5
:100800008083E1E8F0E08081806280838081806184
:1008100080838081877F80838081806880832FB7F9
:10082000F8948FEF9FEF90938700809386002FBFFF
:10083000E1E8F0E08081897F80838081816080832E
:10084000EFE6F0E08081887D808384B18C6084B99C
:1008500008951F920F920FB60F9211248F9381E08B
:10086000809308028F910F900FBE0F901F901895E4
:100870001F920F920FB60F921124109208020F9040
:100880000FBE0F901F9018951F920F920FB60F92E8
:1008900011248F9380910802882311F42A9801C0B3
:1008A0002A9A8F910F900FBE0F901F9018951F924C
:1008B0000F920FB60F9211248F9380910802882314
:1008C00011F42B9801C02B9A8F910F900FBE0F90AF
:1008D0001F9018950E94F9030E94BD0308951F926E
:1008E0000F920FB60F9211242F933F934F935F9364
:1008F0006F937F938F939F93AF93BF93EF93FF93E8
:1009000080910602909107020196909307028093CE
:1009100006029F938F9387E891E09F938F930E94A5
:1009200051050F900F900F900F90FF91EF91BF9195
:10093000AF919F918F917F916F915F914F913F9177
:100940002F910F900FBE0F901F901895F894209143
:100950008800309189007894C9010895F894209115
:100960008A0030918B007894C9010895F89490938F
:1009700089008093880078940895F89490938B0070
:1009800080938A0078940895F8942091880030919B
:1009900089007894F89440918A0050918B00789463
:1009A000280F391FF8943093890020938800789499
:1009B0000895F89420918800309189007894F894F3
:1009C00020918A0030918B007894280F391FF89479
:1009D00030938B0020938A0078940895F8948FEFD9
:1009E0009FEF90938900809388007894F8948FEF1C
:1009F0009FEF90938B0080938A0078940895982FAE
:100A0000823019F45D985F9A0FC0813019F45D9AB5
:100A10005F980AC0833019F48BB18F7504C084309D
:100A200029F48BB1806A8BB99093090280910902F5
:100A300090E09F938F9380E991E09F938F930E9422
:100A400051050F900F900F900F908091090208951B
:100A5000982F823019F459985B9A0FC0813019F49D
:100A6000599A5B980AC0833019F48BB1857F04C012
:100A7000843029F48BB18A608BB990930A028091FB
:100A80000A0290E09F938F9382EA91E09F938F9365
:100A90000E9451050F900F900F900F9080910A02C5
:100AA0000895A0E0B0E0E7E5F5E00C944D0BFE0101
:100AB000359661917191AF01809126029091270244
:100AC0000E94B7052096E2E00C94690B6091260223
:100AD000709127020E948E0A08950F931F93CF935F
:100AE000DF938C01E0912602F0912702838181FF40
:100AF00021C0C0E0D0E00DC0E0912602F0912702B5
:100B000020853185BF01F9010995892B11F0CFEFBF
:100B1000DFEFF80181918F01882371F7E0912602C0
:100B2000F091270220853185BF018AE0F9010995FE
:100B3000892B11F0CFEFDFEFCE01DF91CF911F9125
:100B40000F910895A0E0B0E0E8EAF5E00C944D0BB9
:100B5000FE01359661917191AF01809124029091CF
:100B600025020E941A092096E2E00C94690BABE082
:100B7000B0E0EDEBF5E00C943D0B3C012B015A018C
:100B8000FC0117821682838181FD03C06FEF7FEF26
:100B9000C8C19AE0892E1E010894211C311CF30162
:100BA0002381F20123FD859123FF81912F01882369
:100BB00009F4B4C1853239F423FD859123FF819175
:100BC0002F01853229F4B30190E00E948E0AE7CF0D
:100BD000982FDD24CC249924FFE1FD15D0F09B3221
:100BE00069F09C3228F4903259F0933291F40EC09F
:100BF0009D3249F0903369F441E024C052E0D52A97
:100C000084E0D82A28C098E0D92A25C0E0E1DE2A6D
:100C100022C0D7FC29C0892F80538A3070F4D6FEB9
:100C200005C0989C902C1124980E15C0C89CC02C0F
:100C30001124C80EF0E2DF2A0EC09E3229F4D6FC41
:100C40006DC140E4D42A07C09C3619F450E8D52A77
:100C500002C0983649F4F20123FD959123FF91914A
:100C60002F01992309F0B8CF892F8554833018F0CC
:100C70008052833038F444E050E0A40EB51E5FE3A8
:100C800059830FC0933631F0933779F0933509F0DB
:100C900056C020C0F5018081898342E050E0A40E57
:100CA000B51E710101E010E012C0F501E080F18095
:100CB000D6FC03C06FEF7FEF02C0692D70E042E009
:100CC00050E0A40EB51EC7010E94410A8C015FE7E7
:100CD000D52214C0F501E080F180D6FC03C06FEF8F
:100CE0007FEF02C0692D70E042E050E0A40EB51E17
:100CF000C7010E94360A8C0150E8D52AD3FE07C0EE
:100D00001AC0B30180E290E00E948E0ACA948C2D32
:100D100090E008171907A8F30EC0F701D7FC8591DA
:100D2000D7FE81917F01B30190E00E948E0AC1102D
:100D3000CA94015010400115110579F7ECC09436A2
:100D400011F0993671F5D7FE08C0F501E080F18009
:100D50000281138144E050E00AC0F5018081918155
:100D60007C010027F7FC0095102F42E050E0A40E14
:100D7000B51E5FE6D52217FF0AC010950095F094C6
:100D8000E094E11CF11C011D111D80E8D82A2AE025
:100D900030E0A101C801B7010E94D40AF82EF21870
:100DA00040C0953729F41D2D1F7E2AE030E01DC07C
:100DB0001D2D197F9F3661F0903720F4983509F08A
:100DC000ADC00FC0903739F0983709F0A7C004C004
:100DD00028E030E00AC0106114FD146020E130E02A
:100DE00004C014FD166020E132E017FF08C0F501D1
:100DF000608171818281938144E050E008C0F501F7
:100E000080819181BC0180E090E042E050E0A40E3E
:100E1000B51EA1010E94D40AF82EF2188FE7D82E31
:100E2000D122D6FE0BC05EEFD522F91438F4D4FEE1
:100E300007C0D2FC05C08FEED82202C01F2D01C012
:100E4000192DD4FE0DC0FE01EF0DF11D8081803300
:100E500019F499EED92208C01F5FD2FE05C003C065
:100E60008D2D867809F01F5F0D2DD3FC14C0D0FEA8
:100E70000FC01C1510F09F2C0BC09F2C9C0C911ABE
:100E80001C2D06C0B30180E290E00E948E0A1F5F15
:100E90001C15C0F304C01C1510F4C11A01C0CC24E9
:100EA00004FF10C0B30180E390E00E948E0A02FFAD
:100EB0001EC001FD03C088E790E002C088E590E015
:100EC000B3010CC0802F867891F001FF02C08BE245
:100ED00001C080E2D7FC8DE2B30190E00E948E0A4F
:100EE00006C0B30180E390E00E948E0A9A94F91440
:100EF000C0F3FA94F101EF0DF11DB301808190E090
:100F00000E948E0AFF20A9F706C0B30180E290E09C
:100F10000E948E0ACA94CC20C1F741CEF3016681AB
:100F20007781CB012B96E2E10C94590BFC0120FD5B
:100F300008C023FD05C022FF02C073836283518372
:100F400040830895EF92FF920F931F9344FF02C0D6
:100F500033E011C046FF02C034E00DC0DB01FC01EC
:100F6000AA0FBB1FEE1FFF1F1094D1F76A0F7B1F44
:100F70008E1F9F1F31E0660F771F881F991F31500A
:100F8000D1F77B018C01E20EF11C011D111DA8019E
:100F90009701B701CA011F910F91FF90EF9008953B
:100FA0000F931F93CF93DF938C01C8010E944C0ACB
:100FB000EC0197FD08C00E94320B892BB1F7B801F4
:100FC000CE010E94BA0ACE01DF91CF911F910F91FD
:100FD0000895A0E0B0E0EFEEF7E00C94450BEC01D3
:100FE000C62E5A01122F0E944C0AAC018B3219F006
:100FF0008D3251F41068CA9409F46DC0CE010E947C
:101000004C0AAC0197FD67C06DEFD62ED1228D2D15
:10101000807301F54033F1F4CA9409F447C0CE015E
:101020000E944C0AAC0197FD41C082E0D82A4837A3
:1010300011F0483559F480E4D82ACA94B9F1CE01A8
:101040000E944C0AAC0199232CF430C0D6FC02C09B
:1010500080E1D82AEE24FF248701242F2053283052
:1010600088F0D4FC09C02A3068F0D6FE05C02F7D78
:10107000822F8151863028F0BE01CA010E94BA0A2F
:1010800012C027504D2DC801B7010E94A2077B0155
:101090008C0182E0D82ACA9461F0CE010E944C0AE9
:1010A000AC0197FFDACFD1FC04C015C0EE24FF24B9
:1010B0008701D7FE08C010950095F094E094E11CDC
:1010C000F11C011D111D2D2DB801A701C5010E94A4
:1010D000960781E001C080E0CDB7DEB7EAE00C946E
:1010E000610BA0E2B0E0E7E7F8E00C94410B6C0183
:1010F000A62E8A017901FE01319680E2DF011D9260
:101100008A95E9F770E030E060E040E050E04F01A0
:10111000A1E0B0E0F6018381F70183FD259183FF13
:1011200021917F01222309F47EC02E3519F4411547
:10113000510569F1872F90E08417950744F42D3508
:1011400051F12D3221F4332329F431E021C033232E
:1011500009F4622F322F832F869586958695F401A8
:10116000E80FF11D832F87703D0102C0660C771CCC
:101170008A95E2F7208126292083361711F430E082
:1011800007C0361710F43F5FE6CF3150E4CF71E06F
:101190004F5F5F4FBFCF332319F08E8180628E8304
:1011A000772359F0FE0131969E012F5D3F4F8081DC
:1011B00080958193E217F307D1F7BB24B3944E01D6
:1011C0000894811C911CC6010E944C0AAC0197FD39
:1011D00022C0869586958695F401E80FF11D8081E1
:1011E00090E09A012770307002C0959587952A95F6
:1011F000E2F780FD05C0B601CA010E94BA0A0BC021
:101200000115110519F0D8014D938D01AA94BB2445
:10121000AA20C9F602C0BB2031F40115110529F03E
:10122000F801108202C0EE24FF24C701A096EEE070
:101230000C945D0BA0E0B0E0E0E2F9E00C94410B0F
:101240005C016B013A01FC01178216828824EAC016
:10125000812F90E00E94320B892B21F0C5010E9462
:10126000D007E0C0153249F4F601F3FC6591F3FEB6
:1012700061916F01653269F415E2C5010E944C0A63
:1012800097FDDCC0181709F4CDC0B5010E94BA0A59
:10129000DAC06A3219F0162F00E006C0F3FC15918F
:1012A000F3FE11916F0101E099240FC00260692DD6
:1012B00070E080E090E040E20E94A207962EF601E6
:1012C000F3FC1591F3FE11916F01212F20532A3069
:1012D00068F301FD03C099249A9403C0992009F48E
:1012E000B2C0183621F01C3699F4F6010BC0F60195
:1012F000F3FC6591F3FE6191683619F06F01162FCA
:1013000007C008600460F3FC1591F3FE11916F01B2
:10131000112309F498C0612F70E08DE890E00E94DD
:101320002B0A892B09F48FC0802F00FF03C0EE2405
:10133000FF2407C0F301E080F18022E030E0620E7C
:10134000731E1E3651F4F5014681578160E070E04E
:10135000202FC7010E94960765C0133691F481FDC6
:1013600002C099249394C5010E944C0A97FD66C05F
:10137000E114F10419F0F70181937F019A9499F730
:101380004FC01B3559F49601A701692DC5010E9474
:1013900071086C01009709F043C03DC0C5010E946F
:1013A000D00797FD4BC01F3659F1103728F414367B
:1013B00029F1193639F527C0133719F0153711F50A
:1013C0001DC0C5010E944C0AEC0197FD11C00E948E
:1013D000320B892B29F0B501CE010E94BA0A08C050
:1013E000E114F10419F0F701C1937F019A9449F7D0
:1013F000E114F104A9F0F701108212C0006203C0E9
:10140000006101C00064202FA701692DC5010E9461
:10141000E907882329F4F5018381807379F413C0E7
:1014200000FF8394F501F380F601F3FC1591F3FEC0
:1014300011916F01112309F00BCF05C0882019F419
:101440002FEF3FEF02C0282D30E0C901CDB7DEB746
:10145000EEE00C945D0BFC010590061621F00020D7
:10146000D9F7C00108953197CF010895FC01059087
:10147000615070400110D8F7809590958E0F9F1F96
:101480000895FC016150704001900110D8F78095DB
:1014900090958E0F9F1F0895CF93DF93EC014B81A2
:1014A00040FF1AC046FF0AC04F7B4B838E819F814D
:1014B00001969F838E838A81282F2BC042FF13C001
:1014C000E881F9818081282F332727FD3095211568
:1014D000310529F440624B832FEF3FEF1BC031965B
:1014E000F983E88311C0EA85FB85CE0109959C014B
:1014F00097FF0AC09B812F5F3F4F11F080E201C030
:1015000080E1892B8B83E8CF8E819F8101969F8319
:101510008E8330E0C901DF91CF9108950F931F931F
:10152000CF93DF938C01EB018B8181FF1BC082FF86
:101530000DC02E813F818C819D812817390764F46D
:10154000E881F9810193F983E88306C0E885F9858C
:10155000802F0995892B31F48E819F8101969F837D
:101560008E8302C00FEF1FEFC801DF91CF911F9153
:101570000F9108959C01FB01838180FF11C086FDBE
:101580000FC09FEF2F3F390759F0228380648F7D72
:1015900083838681978101979783868330E002C099
:1015A0002FEF3FEFC9010895FA01AA27283051F122
:1015B000203181F1E8946F936E7F6E5F7F4F8F4F84
:1015C0009F4FAF4FB1E03ED0B4E03CD0670F781FE3
:1015D000891F9A1FA11D680F791F8A1F911DA11DC8
:1015E0006A0F711D811D911DA11D20D009F4689401
:1015F0003F912AE0269F11243019305D3193DEF6A9
:10160000CF010895462F4770405D4193B3E00FD05E
:10161000C9F7F6CF462F4F70405D4A3318F0495D49
:1016200031FD4052419302D0A9F7EACFB4E0A6952C
:101630009795879577956795BA95C9F7009761054E
:10164000710508959B01AC010A2E069457954795A4
:1016500037952795BA95C9F7620F731F841F951F99
:10166000A01D0895911106C0803219F0895085504F
:10167000D0F708959927882708952F923F924F9287
:101680005F926F927F928F929F92AF92BF92CF9212
:10169000DF92EF92FF920F931F93CF93DF93CDB71B
:1016A000DEB7CA1BDB0B0FB6F894DEBF0FBECDBF93
:1016B00009942A88398848885F846E847D848C8464
:1016C0009B84AA84B984C884DF80EE80FD800C816D
:1016D0001B81AA81B981CE0FD11D0FB6F894DEBF50
:0C16E0000FBECDBFED010895F894FFCFC0
:1016EC003A20496E69743A20446F6E650A0025638E
:1016FC00004D4C3A2025580A004D523A2025580AE4
:10170C000020202020202020373635343332313051
:10171C00000A496E76616C6964204D6F64652E0019
:10172C006164633A20696E69742E2E2E00616463C5
:10173C003A20736574757020636F6E766572746988
:10174C006F6E732E2E2E00205B202564203A2025F0
:10175C0064205D2000040605070000000300000063
:10176C0000C102D202000009543A202564730A0019
:10177C006D6F746F722052206D6F64653A20256412
:10178C000A006D6F746F72204C206D6F64653A2087
:04179C0025640A00B6
:00000001FF
