:100000000C9458010C9475010C944B020C94020250
:100010000C9475010C94BE060C9449060C9455067C
:100020000C9468060C943A060C9475010C947501B6
:100030000C9475010C9475010C9475010C94750168
:100040000C9475010C9475010C9475010C942003AB
:100050000C9475010C9475010C9475010A0A496E93
:1000600076616C696420496E7465727570742045A0
:100070006E61626C65640A000A496E69743A2044D4
:100080006F6E650A0A000A5B64656275675D2050E1
:10009000423F2052656C6561736564000A5B64656C
:1000A0006275675D2050453F2052656C65617365E0
:1000B00064000A43757272656E74204D6F6465202A
:1000C00028462F57293D202564000A437572726522
:1000D0006E74204D6F64652028542F5729203D20D1
:1000E000256400095B646F6E655D000A6164633AB4
:1000F00020696E69743A20736574757020636F6E41
:1001000076657274696F6E73000A6164633A206980
:100110006E6974000A5B64656275675D2057617281
:100120006E696E673A20756E696D706C696D656E8B
:100130007465642066756E6374696F6E20616463B4
:100140005F63616C6962726174655F73746F72651D
:100150002063616C6C6564000A5B64656275675D51
:1001600020414443204F4646534554533A20000A09
:100170005B64656275675D2046495845442041448B
:10018000433A20000A5B64656275675D2020205257
:100190004157204144433A20000A75736172743A12
:1001A00020696E697420757361727430095B646FC5
:1001B0006E655D000A74696D6572733A20696E69D7
:1001C000743A095B646F6E655D000A74696D6572EF
:1001D000733A20696E69743A2073746172742E00E8
:1001E000095B646F6E655D000A74696D6572733AD0
:1001F00020696E69743A2074696D657231000A4D28
:100200006F64653A20256400095B646F6E655D006C
:100210000A74696D6572733A20696E69743A207464
:10022000696D657232000A5B6572726F725D204D96
:100230006F746F723A20496E76616C6964204D6FFD
:10024000746F72204E756D6265723A202564205B72
:1002500025735D000A5B6572726F725D204D6F746D
:100260006F723A20496E76616C6964204D6F746FCD
:1002700072204E756D6265723A202564205B25738D
:100280005D000A5B6572726F725D204D6F746F72F4
:100290003A20496E76616C6964204D6F746F7220EC
:1002A0004E756D6265723A202564205B25735D0092
:1002B00011241FBECFEFD4E0DEBFCDBF11E0A0E020
:1002C000B1E0EEE3F8E102C005900D92A433B1076E
:1002D000D9F711E0A4E3B1E001C01D92AD3DB10733
:1002E000E1F70E94FA010C941D0C0C94970180E038
:1002F00090E020E80FB6F8942093610080936100AD
:100300000FBE089584B18F7284B98DB1837F8DB98A
:1003100085B1806D85B98EB18C608EB980EC8DBB56
:1003200080ED80936C008CE080936B0008951F92A9
:100330000F920FB60F9211242F933F934F935F9319
:100340006F937F938F939F93AF93BF93EF93FF939D
:100350008CE590E09F938F930E9413090F900F906C
:10036000FF91EF91BF91AF919F918F917F916F918D
:100370005F914F913F912F910F900FBE0F901F9063
:100380001895F894E4E6F0E08081806180838081B4
:100390008460808380E090E020E80FB6F89420939A
:1003A0006100809361000FBE84B18F7284B98DB1FA
:1003B000837F8DB985B1806D85B98EB18C608EB922
:1003C00080EC8DBB80ED80936C008CE080936B00A3
:1003D0000E9411060E9474030E9440070E94E508D3
:1003E000789488E790E09F938F930E9413090F9071
:1003F0000F9008950E94C1011092C40181E0809382
:10040000D601FFCF1F920F920FB60F9211241F93A8
:100410002F933F934F935F936F937F938F939F930C
:10042000AF93BF93EF93FF9393B19095192F892FBB
:10043000807DB9F097FF06C00E94EB030E9466041E
:100440000E94B10414FF04C00E9466040E94B1041B
:1004500016FF0FC00E9401030E9466040E94B104AF
:1004600008C086E890E09F938F930E9413090F9035
:100470000F90FF91EF91BF91AF919F918F917F91DD
:100480006F915F914F913F912F911F910F900FBEF0
:100490000F901F9018951F920F920FB60F92112474
:1004A0002F933F934F935F936F937F938F939F937C
:1004B000AF93BF93CF93DF93EF93FF938CB180956E
:1004C000C82FD0E0CE018C709070892B09F440C009
:1004D000C2FF1DC08091C401882329F01092C4017D
:1004E0000E94D20805C081E08093D6018093C401A8
:1004F0008091C40190E09F938F938AEC90E09F934A
:100500008F930E9413090F900F900F900F90C3FFCD
:1005100027C08091C401882329F01092C4010E9451
:10052000D20806C081E08093D60182E08093C401A6
:100530008091C40190E09F938F9382EB90E09F9312
:100540008F930E9413090F900F900F900F9008C087
:100550008CE990E09F938F930E9413090F900F9066
:10056000FF91EF91DF91CF91BF91AF919F918F91CB
:100570007F916F915F914F913F912F910F900FBE9F
:100580000F901F901895EF92FF920F931F93CF93A8
:10059000DF93C7E0D0E091E0E92EF12C082F10E0C6
:1005A000C7010C2E02C0880F991F0A94E2F780231E
:1005B00091230C2E02C0959587950A94E2F7C09678
:1005C0000E94390921978FEFCF3FD80749F7DF9174
:1005D000CF911F910F91FF90EF900895862F08956E
:1005E000E82FF0E0EE0FFF1FDF01A454BE4FEB53E6
:1005F000FE4F208131818D919C91280F391FC901B7
:1006000008951092C6011092C5011092C80110926F
:10061000C7011092CA011092C9011092CC01109228
:10062000CB01109235010895ACE7B0E09C91EEE06B
:10063000F1E0E80FF11D907E8081982B9C93089546
:100640001F920F920FB60F9211242F933F934F9347
:100650008F939F93AF93BF93EF93FF934091780055
:1006600030917900809134018F5F80933401209123
:10067000CD01222311F4E3E002C0E22FE150F0E0CB
:10068000EE0FFF1FDF01A454BE4F932F80E0840FB5
:10069000911D8D939C93E253FE4F80819181019631
:1006A00091838083822F8F5F8093CD01843010F0FF
:1006B0001092CD0180917C00E091CD01F0E0E25FED
:1006C000FE4F807E9081892B80937C00FF91EF917B
:1006D000BF91AF919F918F914F913F912F910F902B
:1006E0000FBE0F901F901895EF92FF920F931F93DC
:1006F00089E091E09F938F930E941309E4E6F0E074
:1007000080818E7F80830CE710E0F8018081806417
:10071000808380818F7780832AE7E22EF12CF70196
:100720008081886A80838081887F86608083EBE710
:10073000F0E08081806880838081887F8083EEE71D
:10074000F0E08081806F808383B7817F826083BF88
:100750008BEE90E09F938F930E9413092091CD011F
:10076000F8018081AEE0B1E0FD01E20FF11D807E75
:100770009081892BF8018083F701808180648083D8
:1007800080E090E00197F1F72F5F2093CD01F80111
:100790008081A20FB11D807E9C91892B808383EE86
:1007A00090E09F938F930E9413098DB79EB7069692
:1007B0000FB6F8949EBF0FBE8DBF1F910F91FF9093
:1007C000EF90089584E191E09F938F930E94130925
:1007D0000F900F900895CF92DF92EF92FF920F93B8
:1007E0001F93DF93CF93CDB7DEB760970FB6F89422
:1007F000DEBF0FBECDBFDE011996ECEBF1E088E065
:1008000001900D928150E1F749855A8520E030E052
:100810008E010F5F1F4FBE01675F7F4FD801A20F90
:10082000B31FFB01E20FF31F80819181FA01E81BE6
:10083000F90BED93FC932E5F3F4F2830310571F794
:10084000809135019E012F5F3F4F882349F4A5EC2D
:10085000B1E0F90188E001900D928150E1F722C0EA
:10086000E5ECF1E07901082F10E068010894C11C63
:10087000D11C808191819C01029FC001039F900D3A
:10088000129F900D1124D7012D913D917D01820F72
:10089000931FB6010E94BF0B61937193B1E0ED3CD1
:1008A000FB0739F7809135018F5F809335016096A2
:1008B0000FB6F894DEBF0FBECDBFCF91DF911F9171
:1008C0000F91FF90EF90DF90CF9008950F931F93BB
:1008D00088E591E09F938F930E9413098091C50151
:1008E0009091C6019F938F931F921F9200E011E099
:1008F0001F930F930E94FE088091C7019091C80139
:100900009F938F9381E090E09F938F931F930F931A
:100910000E94FE088091C9019091CA019F938F9314
:1009200082E090E09F938F931F930F930E94FE08A5
:100930008091CB019091CC019F938F9383E090E0C5
:100940009F938F931F930F930E94FE088DB79EB7BE
:100950004A960FB6F8949EBF0FBE8DBF1F910F91A0
:100960000895CF92DF92EF92FF920F931F93CF9350
:10097000DF9384E891E09F938F930E941309809105
:10098000BC019091BD019F938F931F921F9200E035
:1009900011E01F930F930E94FE088091BE01909179
:1009A000BF019F938F9381E090E09F938F931F935C
:1009B0000F930E94FE088091C0019091C1019F9306
:1009C0008F9382E090E09F938F931F930F930E94E9
:1009D000FE088091C2019091C3019F938F9383E0A1
:1009E00090E09F938F931F930F930E94FE088FE6D2
:1009F00091E09F938F930E9413094CEBC42E41E02A
:100A0000D42E35ECE32E31E0F32EC0E0D0E08DB7EC
:100A10009EB74C960FB6F8949EBF0FBE8DBFF701E0
:100A2000819191917F01F601219131916F01820FA6
:100A3000931F9F938F93DF93CF931F930F930E94E6
:100A4000FE0821968DB79EB706960FB6F8949EBF06
:100A50000FBE8DBFC430D10511F7DF91CF911F912B
:100A60000F91FF90EF90DF90CF9008951F93182F74
:100A70008A3019F48DE00E9436058091C00085FF10
:100A8000FCCF1093C60080E090E01F910895EF9294
:100A9000FF920F931F93CF93DF937C0180913601D8
:100AA00090913701892B09F0A0C008E311E08091F3
:100AB000C00087FFFCCF8091C00084FF03C02EEFF1
:100AC0003FEFA7C08091C00083FDA1C09091C600F8
:100AD0009D3011F09A3069F48AE0F8018083B70103
:100AE0000E94360588E391E09093370180933601A8
:100AF0007CC0993009F490E2892F80528F3510F034
:100B0000903A78F0F1E0063B1F0719F4B70187E04F
:100B100005C0F80191938F01B701892F0E94360516
:100B2000C6CF923139F1933138F4933009F46FC064
:100B3000983009F0BCCF09C0973109F44BC09F37FA
:100B400021F0953109F0B3CF32C0F1E008331F072F
:100B500009F008F4ACCFB70188E00E943605B70170
:100B600080E20E943605B70188E00E9436050150F8
:100B700010409DCFB7018DE00E943605C8E3D1E05B
:100B800004C0B70189910E943605C017D107C8F388
:100B90008ECFB70188E00E943605B70180E20E943F
:100BA0003605B70188E00E9436050150104081E00B
:100BB0000833180709F068F77ACFB70188E00E9478
:100BC0003605B70180E20E943605B70188E00E9431
:100BD00036058E01E1E008331E0709F008F467CFFF
:100BE000E8018A91803249F762CFE0913601F091B5
:100BF00037018191F0933701E09336018A3021F477
:100C00001092370110923601282F30E002C02FEFEA
:100C10003FEFC901DF91CF911F910F91FF90EF90AE
:100C20000895E4E6F0E080818D7F808389E190E0A3
:100C30009093C5008093C400E0ECF0E080818D7F4C
:100C4000808388E18093C10086E08093C20082E1C6
:100C500091E09093D8018093D7019093DA0180932B
:100C6000D90189E991E09F938F930E9413090F9016
:100C70000F9008951F920F920FB60F9211248F9329
:100C800081E08093B9018F910F900FBE0F901F905C
:100C900018951F920F920FB60F9211241092B9015E
:100CA0000F900FBE0F901F9018951F920F920FB6C6
:100CB0000F9211248F938091B901813011F42A98F9
:100CC00001C02A9A8F910F900FBE0F901F90189518
:100CD0001F920F920FB60F9211248F938091B9013A
:100CE000813011F42B9801C02B9A8F910F900FBE79
:100CF0000F901F90189588EE91E09F938F930E941C
:100D00001309E0E8F0E080818F7080838081826049
:100D1000808380818D7F8083E1E8F0E08081806244
:100D200080838081806180838081877F80838081D0
:100D3000806880832FB7F8948FEF9FEF90938700A0
:100D4000809386002FBFE1E8F0E08081897F808377
:100D5000808181608083EFE6F0E08081876280831C
:100D600084B18C6084B980EE91E09F938F930E9450
:100D700013090F900F900F900F9008951F920F92EC
:100D80000FB60F9211242F933F934F935F936F935E
:100D90007F938F939F93AF93BF93EF93FF93809134
:100DA000B7019091B80101969093B8018093B70173
:100DB0008091C401882361F41F921F928EEF91E00D
:100DC0009F938F930E9413090F900F900F900F9095
:100DD000FF91EF91BF91AF919F918F917F916F9113
:100DE0005F914F913F912F910F900FBE0F901F90E9
:100DF000189580E192E09F938F930E941309809150
:100E000070008C7F809370008091B6008F7E8093FD
:100E1000B6008091B60088608093B6001092B20050
:100E20008091B0008F778093B0008091B000877B75
:100E30008093B0008091B0008F7C8093B00080914F
:100E4000B00085608093B0008091B0008D7F80936A
:100E5000B0000F900F908091B60082FDFCCF809182
:100E6000B60081FDFCCF8091B60080FDFCCF88E00C
:100E700092E09F938F930E9413090F900F90089513
:100E80008AEC91E09F938F930E9413090E947B0646
:100E90000E94F90684EB91E09F938F930E941309BF
:100EA0000F900F900F900F900895FC0120813181D9
:100EB000421B530B4617570748F4240F351F318345
:100EC0002083CB01841B950BAC0106C0260F371F76
:100ED0003183208340E050E0CA010895FC01CB013A
:100EE00020813181B901641B750B6817790748F4BB
:100EF000261B370B318320839C01261B370BB9013E
:100F000006C0281B390B3183208360E070E0CB01E1
:100F10000895662331F4F8949093890080938800B3
:100F200007C0613039F4F89490938B0080938A0065
:100F3000789408958BE290E09F938F93862F90E0B2
:100F40009F938F9384E592E09F938F930E94130960
:100F50008DB79EB706960FB6F8949EBF0FBE8DBF95
:100F60000895282F882331F4F89420918800309137
:100F7000890007C0813039F4F89420918A003091BB
:100F80008B00789418C08BE190E09F938F93822F11
:100F900090E09F938F9382E892E09F938F930E94BB
:100FA000130920E030E08DB79EB706960FB6F8948F
:100FB0009EBF0FBE8DBFC9010895DF92EF92FF92D1
:100FC0000F931F93CF93DF937C01D62E81E00E9475
:100FD000B1078C0180E00E94B107EC0181E0D816D6
:100FE000E9F480E090EC8C1B9D0B8E159F0530F48E
:100FF0009701281B390BC0E0D0EC04C0CE0DDF1DDB
:1010000020E030E0C801805095408217930718F423
:1010100000E015E021C0021B130B1EC0DD20E1F42F
:1010200080E090EC801B910B8E159F0530F49701AA
:10103000281B390B00E010EC04C00E0D1F1D20E032
:1010400030E0CE01805095408217930718F4C0E03D
:10105000D5E002C0C21BD30B61E0C8010E94890722
:1010600060E0CE010E948907DF91CF911F910F911F
:10107000FF90EF90DF900895CF93DF93782F662352
:10108000B9F0613029F455E0E7E0CBEBD1E014C0D2
:101090008DE390E09F938F93862F90E09F938F93A3
:1010A00086E292E09F938F930E94130987E06EC0BF
:1010B00051E0E3E0CAEBD1E07230A1F44BB121E0A2
:1010C00030E0C90102C0880F991F5A95E2F7809558
:1010D00084238BB98BB102C0220F331FEA95E2F74C
:1010E000822B29C07130A1F44BB181E090E09C01CA
:1010F00002C0220F331F5A95E2F7422B4BB92BB196
:1011000002C0880F991FEA95E2F78095822313C0E9
:10111000733099F44BB121E030E0C90102C0880F6F
:10112000991FEA95E2F702C0220F331F5A95E2F7A2
:10113000822B809584238BB914C0743099F48BB1C1
:1011400021E030E0D90102C0AA0FBB1F5A95E2F797
:10115000AD0102C0220F331FEA95E2F7422B482B64
:101160004BB97883662311F022E501C02CE4888115
:1011700090E09F938F93822F90E09F938F9380E2D4
:1011800091E09F938F930E94FE0888812DB73EB710
:101190002A5F3F4F0FB6F8943EBF0FBE2DBFDF91C1
:1011A000CF91089560E083E00E943C0861E083E015
:1011B0000E943C0860E080E095E00E94890761E0C1
:1011C00080E095E00E94890708958AB18A6A8AB909
:1011D0000E94D208089560E080E090EC0E948907A8
:1011E00061E080E090EC0E94890760E081E00E946D
:1011F0003C0861E081E00E943C080895A0E0B0E076
:10120000E4E0F9E00C94F60BFE01359661917191E2
:10121000AF018091D9019091DA010E944009209696
:10122000E2E00C94120CA0E0B0E0E9E1F9E00C94EB
:10123000F60BFE01359661917191A091D901B091A3
:10124000DA0113968C911397886013968C93AF01F3
:101250008091D9019091DA010E944009E091D90171
:10126000F091DA012381277F23832096E2E00C941A
:10127000120C6091D9017091DA010E94350B08952A
:10128000ABE0B0E0E6E4F9E00C94E60B3C012B01A6
:101290005A01FC0117821682838181FD03C06FEF22
:1012A0007FEFC8C19AE0892E1E010894211C311CD1
:1012B000F3012381F20123FD859123FF81912F0109
:1012C000882309F4B4C1853239F423FD859123FFC5
:1012D00081912F01853229F4B30190E00E94350BF2
:1012E000E7CF982FDD24CC249924FFE1FD15D0F021
:1012F0009B3269F09C3228F4903259F0933291F489
:101300000EC09D3249F0903369F441E024C052E0B0
:10131000D52A84E0D82A28C098E0D92A25C0E0E15F
:10132000DE2A22C0D7FC29C0892F80538A3070F46E
:10133000D6FE05C0989C902C1124980E15C0C89C10
:10134000C02C1124C80EF0E2DF2A0EC09E3229F410
:10135000D6FC6DC140E4D42A07C09C3619F450E88D
:10136000D52A02C0983649F4F20123FD959123FF56
:1013700091912F01992309F0B8CF892F855483309B
:1013800018F08052833038F444E050E0A40EB51ECB
:101390005FE359830FC0933631F0933779F093357B
:1013A00009F056C020C0F5018081898342E050E0F9
:1013B000A40EB51E710101E010E012C0F501E0803D
:1013C000F180D6FC03C06FEF7FEF02C0692D70E0A3
:1013D00042E050E0A40EB51EC7010E942A0B8C010A
:1013E0005FE7D52214C0F501E080F180D6FC03C090
:1013F0006FEF7FEF02C0692D70E042E050E0A40E75
:10140000B51EC7010E941F0B8C0150E8D52AD3FEE0
:1014100007C01AC0B30180E290E00E94350BCA9465
:101420008C2D90E008171907A8F30EC0F701D7FC20
:101430008591D7FE81917F01B30190E00E94350B29
:10144000C110CA94015010400115110579F7ECC084
:10145000943611F0993671F5D7FE08C0F501E08099
:10146000F1800281138144E050E00AC0F5018081DF
:1014700091817C010027F7FC0095102F42E050E09D
:10148000A40EB51E5FE6D52217FF0AC01095009581
:10149000F094E094E11CF11C011D111D80E8D82A94
:1014A0002AE030E0A101C801B7010E94610BF82ECB
:1014B000F21840C0953729F41D2D1F7E2AE030E038
:1014C0001DC01D2D197F9F3661F0903720F498358F
:1014D00009F0ADC00FC0903739F0983709F0A7C0B8
:1014E00004C028E030E00AC0106114FD146020E15F
:1014F00030E004C014FD166020E132E017FF08C0A0
:10150000F501608171818281938144E050E008C0DF
:10151000F50180819181BC0180E090E042E050E0E3
:10152000A40EB51EA1010E94610BF82EF2188FE7E0
:10153000D82ED122D6FE0BC05EEFD522F91438F496
:10154000D4FE07C0D2FC05C08FEED82202C01F2DEA
:1015500001C0192DD4FE0DC0FE01EF0DF11D8081DB
:10156000803319F499EED92208C01F5FD2FE05C05E
:1015700003C08D2D867809F01F5F0D2DD3FC14C09C
:10158000D0FE0FC01C1510F09F2C0BC09F2C9C0C84
:10159000911A1C2D06C0B30180E290E00E94350B29
:1015A0001F5F1C15C0F304C01C1510F4C11A01C044
:1015B000CC2404FF10C0B30180E390E00E94350BFF
:1015C00002FF1EC001FD03C088E790E002C088E56D
:1015D00090E0B3010CC0802F867891F001FF02C02B
:1015E0008BE201C080E2D7FC8DE2B30190E00E9463
:1015F000350B06C0B30180E390E00E94350B9A944E
:10160000F914C0F3FA94F101EF0DF11DB3018081DB
:1016100090E00E94350BFF20A9F706C0B30180E2DD
:1016200090E00E94350BCA94CC20C1F741CEF30163
:1016300066817781CB012B96E2E10C94020CFC01D0
:101640000590615070400110D8F7809590958E0FED
:101650009F1F0895FC016150704001900110D8F760
:10166000809590958E0F9F1F08950F931F93CF9392
:10167000DF938C01EB018B8181FF1BC082FF0DC0CA
:101680002E813F818C819D812817390764F4E88180
:10169000F9810193F983E88306C0E885F985802FF5
:1016A0000995892B31F48E819F8101969F838E83CA
:1016B00002C00FEF1FEFC801DF91CF911F910F9173
:1016C0000895FA01AA27283051F1203181F1E894D8
:1016D0006F936E7F6E5F7F4F8F4F9F4FAF4FB1E025
:1016E0003ED0B4E03CD0670F781F891F9A1FA11D20
:1016F000680F791F8A1F911DA11D6A0F711D811D21
:10170000911DA11D20D009F468943F912AE0269FE5
:1017100011243019305D3193DEF6CF010895462F44
:101720004770405D4193B3E00FD0C9F7F6CF462F25
:101730004F70405D4A3318F0495D31FD405241938E
:1017400002D0A9F7EACFB4E0A6959795879577954B
:101750006795BA95C9F700976105710508959B01D2
:10176000AC010A2E06945795479537952795BA955B
:10177000C9F7620F731F841F951FA01D089597FB63
:10178000092E07260AD077FD04D00CD006D0002001
:101790001AF4709561957F4F0895F6F790958195AD
:1017A0009F4F0895AA1BBB1B51E107C0AA1FBB1F77
:1017B000A617B70710F0A61BB70B881F991F5A95DD
:1017C000A9F780959095BC01CD0108952F923F9285
:1017D0004F925F926F927F928F929F92AF92BF9241
:1017E000CF92DF92EF92FF920F931F93CF93DF93ED
:1017F000CDB7DEB7CA1BDB0B0FB6F894DEBF0FBE4A
:10180000CDBF09942A88398848885F846E847D8496
:101810008C849B84AA84B984C884DF80EE80FD8098
:101820000C811B81AA81B981CE0FD11D0FB6F8940E
:0E183000DEBF0FBECDBFED010895F894FFCFCF
:10183E00205B202564203A202564205D20000406CC
:10184E0005070000000300000000360547050000F4
:10185E000A4D6F746F723A202563206D6F64653A7E
:04186E0020256400CD
:00000001FF
