:100000000C9458010C9475010C94C1010C945C0380
:100010000C9475010C94A0070C942B070C943707D3
:100020000C944A070C941C070C9475010C947501F0
:100030000C9475010C9475010C9475010C94750168
:100040000C9475010C9475010C9475010C940204C8
:100050000C9475010C9475010C9475010A0A496E93
:1000600076616C696420496E7465727570742045A0
:100070006E61626C65640A000A496E69743A2044D4
:100080006F6E650A0A000A5B64656275675D2050E1
:10009000423F2052656C6561736564000A5B64656C
:1000A0006275675D2050453F2052656C65617365E0
:1000B00064000A43757272656E74204D6F6465202A
:1000C00028462F57293D202564000A437572726522
:1000D0006E74204D6F64652028542F5729203D20D1
:1000E000256400095B646F6E655D000A6164633AB4
:1000F00020696E69743A20736574757020636F6E41
:1001000076657274696F6E73000A6164633A206980
:100110006E6974000A5B64656275675D2057617281
:100120006E696E673A20756E696D706C696D656E8B
:100130007465642066756E6374696F6E20616463B4
:100140005F63616C6962726174655F73746F72651D
:100150002063616C6C6564000A5B64656275675D51
:1001600020414443204F4646534554533A20000A09
:100170005B64656275675D2046495845442041448B
:10018000433A20000A5B64656275675D2020205257
:100190004157204144433A20000A75736172743A12
:1001A00020696E697420757361727430095B646FC5
:1001B0006E655D000A74696D6572733A20696E69D7
:1001C000743A095B646F6E655D000A74696D6572EF
:1001D000733A20696E69743A2073746172742E00E8
:1001E000095B646F6E655D000A74696D6572733AD0
:1001F00020696E69743A2074696D657231000A4D28
:100200006F64653A20256400095B646F6E655D006C
:100210000A74696D6572733A20696E69743A207464
:10022000696D657232000A5B6572726F725D204D96
:100230006F746F723A20496E76616C6964204D6FFD
:10024000746F72204E756D6265723A202564205B72
:1002500025735D000A5B6572726F725D204D6F746D
:100260006F723A20496E76616C6964204D6F746FCD
:1002700072204E756D6265723A202564205B25738D
:100280005D000A5B6572726F725D204D6F746F72F4
:100290003A20496E76616C6964204D6F746F7220EC
:1002A0004E756D6265723A202564205B25735D0092
:1002B00011241FBECFEFD4E0DEBFCDBF11E0A0E020
:1002C000B1E0E0ECF9E102C005900D92AE35B10766
:1002D000D9F712E0AEE5B1E001C01D92A930B10737
:1002E000E1F70E9480020C94DE0C0C94970180E0F0
:1002F00090E020E80FB6F8942093610080936100AD
:100300000FBE089584B18F7284B98DB1837F8DB98A
:1003100085B1806D85B98EB18C608EB980EC8DBB56
:1003200080ED80936C008CE080936B0008951F92A9
:100330000F920FB60F9211242F933F934F935F9319
:100340006F937F938F939F93AF93BF93EF93FF939D
:100350008CE590E09F938F930E94D4090F900F90AB
:10036000FF91EF91BF91AF919F918F917F916F918D
:100370005F914F913F912F910F900FBE0F901F9063
:1003800018951F920F920FB60F9211242F933F933F
:100390004F935F936F937F938F939F93AF93BF938D
:1003A000CF93DF93EF93FF938CB18095C82FD0E06C
:1003B000CE018C709070892BE1F1C2FF1BC080913F
:1003C000F001882319F01092F00105C081E08093BC
:1003D00002028093F0018091F00190E09F938F934F
:1003E0008AEC90E09F938F930E94D4090F900F9016
:1003F0000F900F90C3FF25C08091F001882319F062
:100400001092F00106C081E08093020282E08093A6
:10041000F0018091F00190E09F938F9382EB90E048
:100420009F938F930E94D4090F900F900F900F907D
:1004300008C08CE990E09F938F930E94D4090F909D
:100440000F90FF91EF91DF91CF91BF91AF919F916D
:100450008F917F916F915F914F913F912F910F906D
:100460000FBE0F901F901895F894E4E6F0E080819D
:100470008061808380818460808380E090E020E8D8
:100480000FB6F89420936100809361000FBE84B191
:100490008F7284B98DB1837F8DB985B1806D85B937
:1004A0008EB18C608EB980EC8DBB80ED80936C003A
:1004B0008CE080936B000E94F3060E9456040E9419
:1004C00022088AB18A6A8AB960E080E095E10E94D8
:1004D0006B0861E080E095E10E946B0860E081E0DC
:1004E0000E94290961E081E00E942909789488E747
:1004F00090E09F938F930E94D4090F900F900895DE
:100500002F923F924F925F926F927F928F929F9223
:10051000AF92BF92CF92DF92EF92FF920F931F9311
:10052000CF93DF930E9434021092F00181E0809318
:10053000020260E080E095E10E946B0861E080E0EB
:1005400095E10E946B08B3E12B2EB1E03B2EABE1AD
:100550004A2EA1E05A2EF0E26F2EFEE47F2EE0E05C
:100560008E2EE1E09E2E70EAA72E7FE0B72E63E28A
:10057000C62E61E0D62E8091F001823009F060C075
:1005800080910202882351F00E9493089F928F92DB
:100590000E94BF09109202020F900F9080E00E940B
:1005A0009E088C0181E00E949E087C011F930F939E
:1005B0003F922F920E94BF09FF92EF925F924F925B
:1005C0000E94BF090E94930580E00E94D2038C0123
:1005D00081E00E94D203EC01CC0FDD1FCC0FDD1FA8
:1005E000C80FD91FC00FD11F83E00E94D2038C0116
:1005F00082E00E94D2039C01220F331F220F331F7F
:10060000280F391F200F311F8DB79EB708960FB6E0
:10061000F8949EBF0FBE8DBF2C173D0710F460E00D
:1006200004C0C217D30730F461E080E092E00E947A
:10063000CA0802C00E949308C3010197F1F79BCF3B
:10064000813009F098CF80910202882351F060E058
:1006500081E00E94290961E081E00E94290910924D
:10066000020260E080915E0190915F010E946B0840
:1006700061E080915E0190915F010E946B08C5016D
:100680000197F1F780915E0190915F01882351F409
:100690009F938F93DF92CF920E94BF090F900F908C
:1006A0000F900F9080915E0190915F010196909361
:1006B0005F0180935E015FCF1F920F920FB60F9282
:1006C00011241F932F933F934F935F936F937F93C7
:1006D0008F939F93AF93BF93EF93FF9393B19095B5
:1006E000192F892F807DB9F097FF06C00E94CD0495
:1006F0000E9448050E94930514FF04C00E9448050B
:100700000E94930516FF0FC00E94E3030E94480554
:100710000E94930508C086E890E09F938F930E9403
:10072000D4090F900F90FF91EF91BF91AF919F91DE
:100730008F917F916F915F914F913F912F911F9179
:100740000F900FBE0F901F901895EF92FF920F938E
:100750001F93CF93DF93C7E0D0E011E0E12EF12C9F
:10076000082F10E0C7010C2E02C0880F991F0A94B1
:10077000E2F7802391230C2E02C0959587950A9469
:10078000E2F7C0960E94FA0921978FEFCF3FD80772
:1007900049F7DF91CF911F910F91FF90EF9008954E
:1007A000862F0895E82FF0E0EE0FFF1FDF01A8511C
:1007B000BE4FEF50FE4F208131818D919C91280FCB
:1007C000391FC90108951092F2011092F10110929F
:1007D000F4011092F3011092F6011092F5011092BB
:1007E000F8011092F701109261010895ACE7B0E0B2
:1007F0009C91E8E3F1E0E80FF11D907E8081982B59
:100800009C9308951F920F920FB60F9211242F936D
:100810003F934F938F939F93AF93BF93EF93FF9328
:100820004091780030917900809160018F5F8093D2
:1008300060012091F901222311F4E3E002C0E22FCC
:10084000E150F0E0EE0FFF1FDF01A851BE4F932FE4
:1008500080E0840F911D8D939C93E650FE4F808124
:100860009181019691838083822F8F5F8093F9011C
:10087000843010F01092F90180917C00E091F90130
:10088000F0E0E85CFE4F807E9081892B80937C00B5
:10089000FF91EF91BF91AF919F918F914F913F91B8
:1008A0002F910F900FBE0F901F901895EF92FF920F
:1008B0000F931F9389E091E09F938F930E94D40937
:1008C000E4E6F0E080818E7F80830CE710E0F801A1
:1008D00080818064808380818F7780832AE7E22E05
:1008E000F12CF7018081886A80838081887F86600F
:1008F0008083EBE7F0E08081806880838081887F5F
:100900008083EEE7F0E08081806F808383B7817F12
:10091000826083BF8BEE90E09F938F930E94D409F7
:100920002091F901F8018081A8E3B1E0FD01E20F17
:10093000F11D807E9081892BF8018083F7018081F1
:100940008064808380E090E00197F1F72F5F20932F
:10095000F901F8018081A20FB11D807E9C91892B45
:10096000808383EE90E09F938F930E94D4098DB78C
:100970009EB706960FB6F8949EBF0FBE8DBF1F910F
:100980000F91FF90EF90089584E191E09F938F93F2
:100990000E94D4090F900F900895CF92DF92EF92AA
:1009A000FF920F931F93DF93CF93CDB7DEB760977E
:1009B0000FB6F894DEBF0FBECDBFDE011996E8EE8C
:1009C000F1E088E001900D928150E1F749855A8568
:1009D00020E030E08E010F5F1F4FBE01675F7F4F49
:1009E000D801A20FB31FFB01E20FF31F8081918199
:1009F000FA01E81BF90BED93FC932E5F3F4F283073
:100A0000310571F7809161019E012F5F3F4F88236F
:100A100049F4A1EFB1E0F90188E001900D92815015
:100A2000E1F722C0E1EFF1E07901082F10E0680161
:100A30000894C11CD11C808191819C01029FC0013E
:100A4000039F900D129F900D1124D7012D913D9180
:100A50007D01820F931FB6010E94800C61937193F8
:100A6000B1E0E93FFB0739F7809161018F5F809327
:100A7000610160960FB6F894DEBF0FBECDBFCF9177
:100A8000DF911F910F91FF90EF90DF90CF9008952D
:100A90000F931F9388E591E09F938F930E94D40951
:100AA0008091F1019091F2019F938F931F921F9279
:100AB0000AE211E01F930F930E94BF098091F30196
:100AC0009091F4019F938F9381E090E09F938F9397
:100AD0001F930F930E94BF098091F5019091F60139
:100AE0009F938F9382E090E09F938F931F930F9338
:100AF0000E94BF098091F7019091F8019F938F9315
:100B000083E090E09F938F931F930F930E94BF0900
:100B10008DB79EB74A960FB6F8949EBF0FBE8DBF95
:100B20001F910F910895CF92DF92EF92FF920F9352
:100B30001F93CF93DF9384E891E09F938F930E945C
:100B4000D4098091E8019091E9019F938F931F92BE
:100B50001F920AE211E01F930F930E94BF09809138
:100B6000EA019091EB019F938F9381E090E09F9336
:100B70008F931F930F930E94BF098091EC01909176
:100B8000ED019F938F9382E090E09F938F931F934B
:100B90000F930E94BF098091EE019091EF019F9306
:100BA0008F9383E090E09F938F931F930F930E9406
:100BB000BF098FE691E09F938F930E94D40948EE7E
:100BC000C42E41E0D42E31EFE32E31E0F32EC0E00D
:100BD000D0E08DB79EB74C960FB6F8949EBF0FBE6F
:100BE0008DBFF701819191917F01F60121913191A2
:100BF0006F01820F931F9F938F93DF93CF931F9368
:100C00000F930E94BF0921968DB79EB706960FB627
:100C1000F8949EBF0FBE8DBFC430D10511F7DF9190
:100C2000CF911F910F91FF90EF90DF90CF9008959B
:100C30001F93182F8A3019F48DE00E9418068091B6
:100C4000C00085FFFCCF1093C60080E090E01F91AC
:100C50000895EF92FF920F931F93CF93DF937C0140
:100C60008091620190916301892B09F0A0C004E694
:100C700011E08091C00087FFFCCF8091C00084FF0D
:100C800003C02EEF3FEFA7C08091C00083FDA1C03D
:100C90009091C6009D3011F09A3069F48AE0F80115
:100CA0008083B7010E94180684E691E09093630167
:100CB000809362017CC0993009F490E2892F8052C0
:100CC0008F3510F0903A78F0F1E0023E1F0719F4EA
:100CD000B70187E005C0F80191938F01B701892F13
:100CE0000E941806C6CF923139F1933138F493300F
:100CF00009F46FC0983009F0BCCF09C0973109F4EE
:100D00004BC09F3721F0953109F0B3CF32C0F1E0ED
:100D100004361F0709F008F4ACCFB70188E00E9441
:100D20001806B70180E20E941806B70188E00E9409
:100D30001806015010409DCFB7018DE00E941806A3
:100D4000C4E6D1E004C0B70189910E941806C0171B
:100D5000D107C8F38ECFB70188E00E941806B7010B
:100D600080E20E941806B70188E00E941806015030
:100D7000104081E00436180709F068F77ACFB70110
:100D800088E00E941806B70180E20E941806B701A9
:100D900088E00E9418068E01E1E004361E0709F083
:100DA00008F467CFE8018A91803249F762CFE09179
:100DB0006201F09163018191F0936301E09362011C
:100DC0008A3021F41092630110926201282F30E0E2
:100DD00002C02FEF3FEFC901DF91CF911F910F911B
:100DE000FF90EF900895E4E6F0E080818D7F8083AE
:100DF00089E190E09093C5008093C400E0ECF0E0BE
:100E000080818D7F808388E18093C10086E080931C
:100E1000C2008CE391E090930402809303029093CC
:100E200006028093050289E991E09F938F930E94C7
:100E3000D4090F900F9008951F920F920FB60F9242
:100E400011248F9381E08093E5018F910F900FBE65
:100E50000F901F9018951F920F920FB60F921124AA
:100E60001092E5010F900FBE0F901F9018951F92E2
:100E70000F920FB60F9211248F938091E50181306C
:100E800011F42A9801C02A9A8F910F900FBE0F90EB
:100E90001F9018951F920F920FB60F9211248F93E7
:100EA0008091E501813011F42B9801C02B9A8F912C
:100EB0000F900FBE0F901F90189588EE91E09F93B2
:100EC0008F930E94D409E0E8F0E080818F708083E6
:100ED00080818260808380818D7F8083E1E8F0E083
:100EE0008081806280838081806180838081877F30
:100EF00080838081806880832FB7F8948FEF9FEF85
:100F000090938700809386002FBFE1E8F0E0808116
:100F1000897F8083808181608083EFE6F0E080813B
:100F20008762808384B18C6084B980EE91E09F9366
:100F30008F930E94D4090F900F900F900F900895F7
:100F40001F920F920FB60F9211242F933F934F933E
:100F50005F936F937F938F939F93AF93BF93EF9321
:100F6000FF938091E3019091E40101969093E40155
:100F70008093E3018091F001882361F41F921F9216
:100F80008EEF91E09F938F930E94D4090F900F9062
:100F90000F900F90FF91EF91BF91AF919F918F9123
:100FA0007F916F915F914F913F912F910F900FBE65
:100FB0000F901F90189580E192E09F938F930E946D
:100FC000D409809170008C7F809370008091B6006E
:100FD0008F7E8093B6008091B60088608093B600C3
:100FE0001092B2008091B0008F778093B000809112
:100FF000B000877B8093B0008091B0008F7C80939D
:10100000B0008091B00085608093B0008091B00006
:101010008D7F8093B0000F900F908091B60082FD7D
:10102000FCCF8091B60081FDFCCF8091B60080FDA1
:10103000FCCF88E092E09F938F930E94D4090F9099
:101040000F9008958AEC91E09F938F930E94D409AA
:101050000E945D070E94DB0784EB91E09F938F93D2
:101060000E94D4090F900F900F900F900895FC01EB
:1010700020813181421B530B4617570748F4240F38
:10108000351F31832083CB01841B950BAC0106C037
:10109000260F371F3183208340E050E0CA010895B6
:1010A000FC01CB0120813181B901641B750B6817EC
:1010B000790748F4261B370B318320839C01261BBC
:1010C000370BB90106C0281B390B3183208360E040
:1010D00070E0CB010895662331F4F8949093890071
:1010E0008093880007C0613039F4F89490938B00A6
:1010F00080938A007894089587E290E09F938F937D
:10110000862F90E09F938F9384E592E09F938F9337
:101110000E94D4098DB79EB706960FB6F8949EBF6D
:101120000FBE8DBF089560E080E090E60E946B08DE
:1011300061E080E090E60E946B080895282F8823E4
:1011400031F4F894209188003091890007C08130F3
:1011500039F4F89420918A0030918B00789418C06B
:1011600087E190E09F938F93822F90E09F938F93DE
:1011700082E892E09F938F930E94D40920E030E0B0
:101180008DB79EB706960FB6F8949EBF0FBE8DBF63
:10119000C9010895DF92EF92FF920F931F93CF93AF
:1011A000DF937C01D62E81E00E949E088C0180E0B6
:1011B0000E949E08EC0181E0D816E9F480E090E6F8
:1011C0008C1B9D0B8E159F0530F49701281B390B46
:1011D000C0E0D0E604C0CE0DDF1D20E030E0C80145
:1011E000805095418217930718F400E015E121C063
:1011F000021B130B1EC0DD20E1F480E090E6801B93
:10120000910B8E159F0530F49701281B390B00E0D8
:1012100010E604C00E0D1F1D20E030E0CE0180500E
:1012200095418217930718F4C0E0D5E102C0C21BB4
:10123000D30B61E0C8010E946B0860E0CE010E9400
:101240006B08DF91CF911F910F91FF90EF90DF908E
:101250000895CF93DF93782F6623B9F0613029F496
:1012600055E0E7E0C7EED1E014C089E390E09F933A
:101270008F93862F90E09F938F9386E292E09F93C7
:101280008F930E94D40987E06EC051E0E3E0C6EE80
:10129000D1E07230A1F44BB121E030E0C90102C0CD
:1012A000880F991F5A95E2F7809584238BB98BB1EB
:1012B00002C0220F331FEA95E2F7822B29C071305A
:1012C000A1F44BB181E090E09C0102C0220F331FDA
:1012D0005A95E2F7422B4BB92BB102C0880F991FE8
:1012E000EA95E2F78095822313C0733099F44BB1ED
:1012F00021E030E0C90102C0880F991FEA95E2F7AA
:1013000002C0220F331F5A95E2F7822B8095842367
:101310008BB914C0743099F48BB121E030E0D9015D
:1013200002C0AA0FBB1F5A95E2F7AD0102C0220FFF
:10133000331FEA95E2F7422B482B4BB9788366239B
:1013400011F022E501C02CE4888190E09F938F93F7
:10135000822F90E09F938F938AE491E09F938F93E5
:101360000E94BF0988812DB73EB72A5F3F4F0FB655
:10137000F8943EBF0FBE2DBFDF91CF910895A0E03E
:10138000B0E0E5ECF9E00C94B70CFE013596619104
:101390007191AF0180910502909106020E94010AAD
:1013A0002096E2E00C94D30CA0E0B0E0EAEDF9E086
:1013B0000C94B70CFE01359661917191A0910502D4
:1013C000B091060213968C911397886013968C93B4
:1013D000AF0180910502909106020E94010AE091FE
:1013E0000502F09106022381277F23832096E2E005
:1013F0000C94D30C60910502709106020E94F60BCA
:101400000895ABE0B0E0E7E0FAE00C94A70C3C01F3
:101410002B015A01FC0117821682838181FD03C0D2
:101420006FEF7FEFC8C19AE0892E1E010894211C3E
:10143000311CF3012381F20123FD859123FF81916A
:101440002F01882309F4B4C1853239F423FD859135
:1014500023FF81912F01853229F4B30190E00E948E
:10146000F60BE7CF982FDD24CC249924FFE1FD155E
:10147000D0F09B3269F09C3228F4903259F09332CC
:1014800091F40EC09D3249F0903369F441E024C0DC
:1014900052E0D52A84E0D82A28C098E0D92A25C06D
:1014A000E0E1DE2A22C0D7FC29C0892F80538A3090
:1014B00070F4D6FE05C0989C902C1124980E15C08F
:1014C000C89CC02C1124C80EF0E2DF2A0EC09E3248
:1014D00029F4D6FC6DC140E4D42A07C09C3619F427
:1014E00050E8D52A02C0983649F4F20123FD9591BF
:1014F00023FF91912F01992309F0B8CF892F8554AB
:10150000833018F08052833038F444E050E0A40E69
:10151000B51E5FE359830FC0933631F0933779F0EE
:10152000933509F056C020C0F5018081898342E0DF
:1015300050E0A40EB51E710101E010E012C0F501EB
:10154000E080F180D6FC03C06FEF7FEF02C0692D11
:1015500070E042E050E0A40EB51EC7010E94EB0B04
:101560008C015FE7D52214C0F501E080F180D6FC44
:1015700003C06FEF7FEF02C0692D70E042E050E0E2
:10158000A40EB51EC7010E94E00B8C0150E8D52ABD
:10159000D3FE07C01AC0B30180E290E00E94F60BB0
:1015A000CA948C2D90E008171907A8F30EC0F70114
:1015B000D7FC8591D7FE81917F01B30190E00E9415
:1015C000F60BC110CA94015010400115110579F7AE
:1015D000ECC0943611F0993671F5D7FE08C0F501CC
:1015E000E080F1800281138144E050E00AC0F501FF
:1015F000808191817C010027F7FC0095102F42E04B
:1016000050E0A40EB51E5FE6D52217FF0AC0109564
:101610000095F094E094E11CF11C011D111D80E87F
:10162000D82A2AE030E0A101C801B7010E94220CAB
:10163000F82EF21840C0953729F41D2D1F7E2AE0A0
:1016400030E01DC01D2D197F9F3661F0903720F4CA
:10165000983509F0ADC00FC0903739F0983709F0D0
:10166000A7C004C028E030E00AC0106114FD146077
:1016700020E130E004C014FD166020E132E017FFE5
:1016800008C0F501608171818281938144E050E05E
:1016900008C0F50180819181BC0180E090E042E0CA
:1016A00050E0A40EB51EA1010E94220CF82EF218E3
:1016B0008FE7D82ED122D6FE0BC05EEFD522F914CB
:1016C00038F4D4FE07C0D2FC05C08FEED82202C089
:1016D0001F2D01C0192DD4FE0DC0FE01EF0DF11D0F
:1016E0008081803319F499EED92208C01F5FD2FEA1
:1016F00005C003C08D2D867809F01F5F0D2DD3FC2A
:1017000014C0D0FE0FC01C1510F09F2C0BC09F2CD6
:101710009C0C911A1C2D06C0B30180E290E00E943F
:10172000F60B1F5F1C15C0F304C01C1510F4C11A82
:1017300001C0CC2404FF10C0B30180E390E00E94FC
:10174000F60B02FF1EC001FD03C088E790E002C057
:1017500088E590E0B3010CC0802F867891F001FFFE
:1017600002C08BE201C080E2D7FC8DE2B30190E0C1
:101770000E94F60B06C0B30180E390E00E94F60BD6
:101780009A94F914C0F3FA94F101EF0DF11DB3012D
:10179000808190E00E94F60BFF20A9F706C0B301FC
:1017A00080E290E00E94F60BCA94CC20C1F741CEB3
:1017B000F30166817781CB012B96E2E10C94C30C97
:1017C000FC010590615070400110D8F7809590950C
:1017D0008E0F9F1F0895FC01615070400190011011
:1017E000D8F7809590958E0F9F1F08950F931F93A4
:1017F000CF93DF938C01EB018B8181FF1BC082FFB4
:101800000DC02E813F818C819D812817390764F49A
:10181000E881F9810193F983E88306C0E885F985B9
:10182000802F0995892B31F48E819F8101969F83AA
:101830008E8302C00FEF1FEFC801DF91CF911F9180
:101840000F910895FA01AA27283051F1203181F132
:10185000E8946F936E7F6E5F7F4F8F4F9F4FAF4FB8
:10186000B1E03ED0B4E03CD0670F781F891F9A1FCB
:10187000A11D680F791F8A1F911DA11D6A0F711D7F
:10188000811D911DA11D20D009F468943F912AE08B
:10189000269F11243019305D3193DEF6CF01089573
:1018A000462F4770405D4193B3E00FD0C9F7F6CFA4
:1018B000462F4F70405D4A3318F0495D31FD40526C
:1018C000419302D0A9F7EACFB4E0A6959795879502
:1018D00077956795BA95C9F70097610571050895E1
:1018E0009B01AC010A2E069457954795379527958D
:1018F000BA95C9F7620F731F841F951FA01D089525
:1019000097FB092E07260AD077FD04D00CD006D00D
:1019100000201AF4709561957F4F0895F6F7909521
:1019200081959F4F0895AA1BBB1B51E107C0AA1FB9
:10193000BB1FA617B70710F0A61BB70B881F991F70
:101940005A95A9F780959095BC01CD0108952F92E5
:101950003F924F925F926F927F928F929F92AF923F
:10196000BF92CF92DF92EF92FF920F931F93CF938C
:10197000DF93CDB7DEB7CA1BDB0B0FB6F894DEBF23
:101980000FBECDBF09942A88398848885F846E8449
:101990007D848C849B84AA84B984C884DF80EE8093
:1019A000FD800C811B81AA81B981CE0FD11D0FB69C
:1019B000F894DEBF0FBECDBFED010895F894FFCFC0
:1019C0000A496E697469616C697A6520537065654E
:1019D000642E000A4D4C3A202558000A4D523A20F8
:1019E0002558000A73703D257800205B202564206F
:1019F0003A202564205D200004060507000000034E
:101A0000000000001806290600000A4D6F746F726E
:0E1A10003A202563206D6F64653A202564003E
:00000001FF
