:100000000C9490010C94AD010C94F9010C94A6038E
:100010000C94AD010C94E2070C9470070C947C07CF
:100020000C948F070C9461070C94AD010C94AD01F6
:100030000C94AD010C94AD010C94AD010C94AD0188
:100040000C94AD010C94AD010C94AD010C944C04D6
:100050000C94AD010C94AD010C94AD010A0A496EEB
:1000600076616C696420496E7465727570742045A0
:100070006E61626C65640A000A4D6F746F72205382
:10008000706565642052206973206E6F7720256447
:10009000000A4D6F746F72205370656564205220A2
:1000A000286D61783D2564293A000A4D6F746F729E
:1000B000205370656564204C206973206E6F772033
:1000C0002564000A4D6F746F72205370656564205B
:1000D0004C20286D61783D2564293A000A496E69F3
:1000E000743A20446F6E650A0A000A5B64656275A3
:1000F000675D2050423F2052656C65617365640006
:100100000A5B64656275675D2050453F2052656CEF
:100110006561736564000A43757272656E74204D83
:100120006F64652028462F57293D202564000A4327
:10013000757272656E74204D6F64652028542F5758
:1001400029203D20256400095B646F6E655D000A0F
:100150006164633A20696E69743A207365747570DE
:1001600020636F6E76657274696F6E73000A6164E6
:10017000633A20696E6974000A5B64656275675D45
:10018000205761726E696E673A20756E696D706C8A
:10019000696D656E7465642066756E6374696F6EF3
:1001A000206164635F63616C6962726174655F732F
:1001B000746F72652063616C6C6564000A5B6465D2
:1001C0006275675D20414443204F46465345545372
:1001D0003A20000A5B64656275675D2046495845B0
:1001E00044204144433A20000A5B64656275675DC0
:1001F000202020524157204144433A20000A757381
:100200006172743A20696E6974207573617274301A
:10021000095B646F6E655D000A74696D6572733A9F
:1002200020696E69743A095B646F6E655D000A74DB
:10023000696D6572733A20696E69743A20737461EE
:1002400072742E00095B646F6E655D000A74696DDF
:100250006572733A20696E69743A2074696D6572CB
:1002600031000A4D6F64653A20256400095B646FB4
:100270006E655D000A74696D6572733A20696E6916
:10028000743A2074696D657232000A5B6572726F30
:10029000725D204D6F746F723A20496E76616C69A1
:1002A00064204D6F746F72204E756D6265723A20D6
:1002B0002564205B25735D000A5B6572726F725D59
:1002C000204D6F746F723A20496E76616C696420BC
:1002D0004D6F746F72204E756D6265723A202564A1
:1002E000205B25735D000A5B6572726F725D204D45
:1002F0006F746F723A20496E76616C6964204D6F3D
:10030000746F72204E756D6265723A202564205BB1
:1003100025735D006364696E6F70737578585B0058
:1003200011241FBECFEFD4E0DEBFCDBF11E0A0E0AF
:10033000B1E0E4E7F0E202C005900D92A836B10703
:10034000D9F712E0A8E6B1E001C01D92A031B107D3
:10035000E1F70E94AE020C9438100C94CF0180E0BB
:1003600090E020E80FB6F89420936100809361003C
:100370000FBE089584B18F7284B98DB1837F8DB91A
:1003800085B1806D85B98EB18C608EB980EC8DBBE6
:1003900080ED80936C008CE080936B0008951F9239
:1003A0000F920FB60F9211242F933F934F935F93A9
:1003B0006F937F938F939F93AF93BF93EF93FF932D
:1003C0008CE590E09F938F930E94120A0F900F90FC
:1003D000FF91EF91BF91AF919F918F917F916F911D
:1003E0005F914F913F912F910F900FBE0F901F90F3
:1003F00018951F920F920FB60F9211242F933F93CF
:100400004F935F936F937F938F939F93AF93BF931C
:10041000CF93DF93EF93FF938CB18095C82FD0E0FB
:10042000CE018C709070892BE1F1C2FF1BC08091CE
:10043000F701882319F01092F70105C081E080933D
:1004400009028093F7018091F70190E09F938F93C9
:100450008EE291E09F938F930E94120A0F900F906B
:100460000F900F90C3FF25C08091F701882319F0EA
:100470001092F70106C081E08093090282E0809328
:10048000F7018091F70190E09F938F9386E191E0CF
:100490009F938F930E94120A0F900F900F900F90CE
:1004A00008C080E091E09F938F930E94120A0F9002
:1004B0000F90FF91EF91DF91CF91BF91AF919F91FD
:1004C0008F917F916F915F914F913F912F910F90FD
:1004D0000FBE0F901F901895F894E4E6F0E080812D
:1004E0008061808380818460808380E090E020E868
:1004F0000FB6F89420936100809361000FBE84B121
:100500008F7284B98DB1837F8DB985B1806D85B9C6
:100510008EB18C608EB980EC8DBB80ED80936C00C9
:100520008CE080936B000E9438070E949B040E941D
:1005300069088AB18A6A8AB960E081E00E94670925
:1005400061E081E00E94670978948CED90E09F93D0
:100550008F930E94120A0F900F9008952F923F924E
:100560004F925F926F927F928F929F92AF92BF92C3
:10057000CF92DF92EF92FF920F931F93DF93CF936F
:1005800000D0CDB7DEB70E946C021092F70181E077
:100590008093090260E080E090E00E94B20861E090
:1005A00080E090E00E94B208AA24AA94BA2C6E01BE
:1005B0000894C11CD11CFAEA2F2EF0E03F2EE1E98D
:1005C0004E2EE0E05E2E76E2672E71E0772E68E731
:1005D000862E60E0962E8091F701823009F06BC084
:1005E00080910902882361F00E94DA0880E091E09E
:1005F0009F938F930E94FD09109209020F900F9014
:1006000080E00E94E5088C0181E00E94E5087C0101
:100610001F930F9383E191E09F938F930E94FD09B5
:10062000FF92EF928BE191E09F938F930E94FD09DF
:100630000E94D80580E00E941C048C0181E00E9489
:100640001C047C01EE0CFF1CEE0CFF1CE80EF91ED6
:10065000E00EF11E83E00E941C048C0182E00E94E7
:100660001C049C01220F331F220F331F280F391F38
:10067000200F311F8DB79EB708960FB6F8949EBF16
:100680000FBE8DBF2E153F0510F46FEF04C0E216AC
:10069000F30630F461E081E090E00E94110902C0AD
:1006A0000E94DA0888E59BE1E8ECF0E03197F1F789
:1006B0000197D1F790CF813009F08DCF60E00E9493
:1006C000670961E081E00E946709BF92AF9283EC05
:1006D00090E09F938F930E94120ADF92CF9283E261
:1006E00091E09F938F930E943F0A60E089819A81F5
:1006F0000E94B20880E00E94E5089F938F933F928A
:100700002F920E94120ABF92AF925F924F920E9464
:10071000120ADF92CF927F926F920E943F0A61E0AD
:1007200089819A810E94B20881E00E94E5089F9326
:100730008F939F928F920E94120A8DB79EB7489610
:100740000FB6F8949EBF0FBE8DBF45CF1F920F927C
:100750000FB60F9211241F932F933F934F935F93E4
:100760006F937F938F939F93AF93BF93EF93FF9379
:1007700093B19095192F892F807DB9F097FF06C00E
:100780000E9412050E948D050E94D80514FF04C026
:100790000E948D050E94D80516FF0FC00E942D04EF
:1007A0000E948D050E94D80508C08AEE90E09F93B4
:1007B0008F930E94120A0F900F90FF91EF91BF91BB
:1007C000AF919F918F917F916F915F914F913F91E9
:1007D0002F911F910F900FBE0F901F901895EF92C1
:1007E000FF920F931F93CF93DF93C7E0D0E0A1E078
:1007F000EA2EF12C082F10E0C7010C2E02C0880F42
:10080000991F0A94E2F7802391230C2E02C095953C
:1008100087950A94E2F7C0960E94380A21978FEFD5
:10082000CF3FD80749F7DF91CF911F910F91FF90EC
:10083000EF900895862F0895E82FF0E0EE0FFF1F48
:10084000DF01A151BE4FE850FE4F208131818D91D3
:100850009C91280F391FC90108951092F901109237
:10086000F8011092FB011092FA011092FD01109212
:10087000FC011092FF011092FE0110926801089590
:10088000ACE7B0E09C91E7E3F1E0E80FF11D907E6A
:100890008081982B9C9308951F920F920FB60F9210
:1008A00011242F933F934F938F939F93AF93BF93B5
:1008B000EF93FF93409178003091790020910002EE
:1008C000222311F4E3E002C0E22FE150F0E0EE0F4A
:1008D000FF1FDF01A151BE4F932F80E0840F911DB8
:1008E0008D939C93EF5FFD4F808191810196918361
:1008F0008083822F8F5F80930002843010F01092EB
:10090000000280917C00E0910002F0E0E95CFE4F83
:10091000807E9081892B80937C00FF91EF91BF9125
:10092000AF919F918F914F913F912F910F900FBE5B
:100930000F901F901895EF92FF920F931F938DE6E3
:1009400091E09F938F930E94120AE4E6F0E0808189
:100950008E7F80830CE710E0F801808180648083C3
:1009600080818F7780832AE7E22EF12CF701808146
:10097000886A80838081887F86608083EBE7F0E0EF
:100980008081806880838081887F8083EEE7F0E0CB
:100990008081806F808383B7817F826083BF8FE493
:1009A00091E09F938F930E94120A20910002F80118
:1009B0008081A7E3B1E0FD01E20FF11D807E90810F
:1009C000892BF8018083F70180818064808380E037
:1009D00090E00197F1F72F5F20930002F8018081EA
:1009E000A20FB11D807E9C91892B808387E491E0CA
:1009F0009F938F930E94120A8DB79EB706960FB6EB
:100A0000F8949EBF0FBE8DBF1F910F91FF90EF9086
:100A1000089588E791E09F938F930E94120A0F90A8
:100A20000F900895CF92DF92EF92FF920F931F9352
:100A3000DF93CF93CDB7DEB760970FB6F894DEBFE4
:100A40000FBECDBFDE011996EFEEF1E088E0019018
:100A50000D928150E1F749855A8520E030E08E0102
:100A60000F5F1F4FBE01675F7F4FD801A20FB31FFB
:100A7000FB01E20FF31F80819181FA01E81BF90B62
:100A8000ED93FC932E5F3F4F2830310571F7809135
:100A900068019E012F5F3F4F882349F4A8EFB1E022
:100AA000F90188E001900D928150E1F722C0E8EF52
:100AB000F1E07901082F10E068010894C11CD11CF5
:100AC000808191819C01029FC001039F900D129F24
:100AD000900D1124D7012D913D917D01820F931F1F
:100AE000B6010E94CF0F61937193B2E0E030FB0733
:100AF00039F7809168018F5F8093680160960FB627
:100B0000F894DEBF0FBECDBFCF91DF911F910F9143
:100B1000FF90EF90DF90CF9008950F931F938CEB91
:100B200091E09F938F930E94120A8091F801909117
:100B3000F9019F938F931F921F9209E211E01F9377
:100B40000F930E94FD098091FA019091FB019F9300
:100B50008F9381E090E09F938F931F930F930E9458
:100B6000FD098091FC019091FD019F938F9382E09C
:100B700090E09F938F931F930F930E94FD098091A4
:100B8000FE019091FF019F938F9383E090E09F93EC
:100B90008F931F930F930E94FD098DB79EB74A96BE
:100BA0000FB6F8949EBF0FBE8DBF1F910F91089591
:100BB000CF92DF92EF92FF920F931F93CF93DF9329
:100BC00088EE91E09F938F930E94120A8091EF012B
:100BD0009091F0019F938F931F921F9209E211E071
:100BE0001F930F930E94FD098091F1019091F201F2
:100BF0009F938F9381E090E09F938F931F930F9328
:100C00000E94FD098091F3019091F4019F938F93CD
:100C100082E090E09F938F931F930F930E94FD09B2
:100C20008091F5019091F6019F938F9383E090E07E
:100C30009F938F931F930F930E94FD0983ED91E083
:100C40009F938F930E94120A4FEEC42E41E0D42E40
:100C500038EFE32E31E0F32EC0E0D0E08DB79EB741
:100C60004C960FB6F8949EBF0FBE8DBFF7018191D1
:100C700091917F01F601219131916F01820F931FB4
:100C80009F938F93DF93CF931F930F930E94FD0940
:100C900021968DB79EB706960FB6F8949EBF0FBEED
:100CA0008DBFC430D10511F7DF91CF911F910F9106
:100CB000FF90EF90DF90CF9008951F93182F8A3008
:100CC00019F48DE00E945D068091C00085FFFCCF85
:100CD0001093C60080E090E01F910895EF92FF927C
:100CE0000F931F93CF93DF937C01809169019091C3
:100CF0006A01892B09F0A0C00BE611E08091C000C9
:100D000087FFFCCF8091C00084FF03C02EEF3FEF30
:100D1000A7C08091C00083FDA1C09091C6009D3006
:100D200011F09A3069F48AE0F8018083B7010E94DB
:100D30005D068BE691E090936A01809369017CC027
:100D4000993009F490E2892F80528F3510F0903A53
:100D500078F0F1E0093E1F0719F4B70187E005C0FC
:100D6000F80191938F01B701892F0E945D06C6CFCC
:100D7000923139F1933138F4933009F46FC09830DF
:100D800009F0BCCF09C0973109F44BC09F3721F05F
:100D9000953109F0B3CF32C0F1E00B361F0709F0EF
:100DA00008F4ACCFB70188E00E945D06B70180E28D
:100DB0000E945D06B70188E00E945D060150104068
:100DC0009DCFB7018DE00E945D06CBE6D1E004C067
:100DD000B70189910E945D06C017D107C8F38ECF75
:100DE000B70188E00E945D06B70180E20E945D06BF
:100DF000B70188E00E945D060150104081E00B368B
:100E0000180709F068F77ACFB70188E00E945D06FD
:100E1000B70180E20E945D06B70188E00E945D068E
:100E20008E01E1E00B361E0709F008F467CFE801F8
:100E30008A91803249F762CFE0916901F0916A01AD
:100E40008191F0936A01E09369018A3021F4109254
:100E50006A0110926901282F30E002C02FEF3FEFA6
:100E6000C901DF91CF911F910F91FF90EF900895ED
:100E7000E4E6F0E080818D7F808389E190E09093CB
:100E8000C5008093C400E0ECF0E080818D7F80831A
:100E900088E18093C10086E08093C2008BE391E0FB
:100EA00090930B0280930A0290930D0280930C02A0
:100EB0008DEF91E09F938F930E94120A0F900F90F5
:100EC00008951F920F920FB60F9211248F9381E015
:100ED0008093EC018F910F900FBE0F901F9018958B
:100EE0001F920F920FB60F9211241092EC010F90E7
:100EF0000FBE0F901F9018951F920F920FB60F9272
:100F000011248F938091EC01882311F42A9801C059
:100F10002A9A8F910F900FBE0F901F9018951F92D5
:100F20000F920FB60F9211248F938091EC018823BA
:100F300011F42B9801C02B9A8F910F900FBE0F9038
:100F40001F9018958CE492E09F938F930E94120A51
:100F5000E0E8F0E080818F70808380818C7F8083E7
:100F6000E1E8F0E08081806280838081806180831D
:100F70008081877F80838081806880832FB7F89409
:100F80008FEF9FEF90938700809386002FBFE1E85B
:100F9000F0E08081897F8083808181608083EFE6BB
:100FA000F0E080818762808384B18C6084B984E4BE
:100FB00092E09F938F930E94120A0F900F900F90D0
:100FC0000F9008951F920F920FB60F9211242F9336
:100FD0003F934F935F936F937F938F939F93AF93C1
:100FE000BF93EF93FF938091EA019091EB010196FB
:100FF0009093EB018093EA018091F701882361F4DB
:101000001F921F9282E692E09F938F930E94120A92
:101010000F900F900F900F90FF91EF91BF91AF91B4
:101020009F918F917F916F915F914F913F912F9100
:101030000F900FBE0F901F90189584E792E09F933A
:101040008F930E94120A809170008C7F80937000B1
:101050008091B6008F7E8093B6008091B600886044
:101060008093B6001092B2008091B0008F77809389
:10107000B0008091B000877B8093B0008091B00079
:101080008F7C8093B0008091B00085608093B00029
:101090008091B0008D7F8093B0000F900F90809171
:1010A000B60082FDFCCF8091B60081FDFCCF80911F
:1010B000B60080FDFCCF809170008160809370004D
:1010C0008CE692E09F938F930E94120A0F900F90EC
:1010D00008958EE292E09F938F930E94120A0E94DD
:1010E000A2070E941D0888E192E09F938F930E94BF
:1010F000120A0F900F900F900F900895FC0120811D
:101100003181421B530B4617570748F4240F351FF4
:1011100031832083CB01841B950BAC0106C0260FC5
:10112000371F3183208340E050E0CA010895FC015D
:10113000CB0120813181B901641B750B68177907D8
:1011400048F4261B370B318320839C01261B370B69
:10115000B90106C0281B390B3183208360E070E0A1
:10116000CB010895662331F4F8949093890080931D
:10117000880007C0613039F4F89490938B00809315
:101180008A007894089587E290E09F938F93862F4A
:1011900090E09F938F9388EB92E09F938F930E94B0
:1011A000120A8DB79EB706960FB6F8949EBF0FBE73
:1011B0008DBF089560E08FEF9FEF0E94B20861E05D
:1011C0008FEF9FEF0E94B2080895282F882331F4F3
:1011D000F894209188003091890007C0813039F45B
:1011E000F89420918A0030918B00789418C087E1A0
:1011F00090E09F938F93822F90E09F938F9386EE42
:1012000092E09F938F930E94120A20E030E08DB706
:101210009EB706960FB6F8949EBF0FBE8DBFC9014C
:101220000895DF92EF92FF920F931F93CF93DF9376
:101230007C01D62E81E00E94E5088C0180E00E94AE
:10124000E508EC0121E0D216C1F4809590958E1549
:101250009F0560F4C80FD91F9701281B390BC901DE
:101260000217130738F400E010E021C0CE0DDF1D97
:1012700080E090E0081B190B1AC0DD20C1F4C80102
:10128000809590958E159F0560F4080F191F9701A2
:10129000281B390BC901C217D30738F4C0E0D0E0CE
:1012A00006C00E0D1F1D80E090E0C81BD90B61E049
:1012B000C8010E94B20860E0CE010E94B208DF912E
:1012C000CF911F910F91FF90EF90DF900895CF93F2
:1012D000DF93782F6623B9F0613029F455E0E7E019
:1012E000CEEED1E014C089E390E09F938F93862FD8
:1012F00090E09F938F938AE892E09F938F930E9450
:10130000120A87E06EC051E0E3E0CDEED1E072302A
:10131000A1F44BB121E030E0C90102C0880F991F50
:101320005A95E2F7809584238BB98BB102C0220FC6
:10133000331FEA95E2F7822B29C07130A1F44BB13B
:1013400081E090E09C0102C0220F331F5A95E2F722
:10135000422B4BB92BB102C0880F991FEA95E2F7D7
:101360008095822313C0733099F44BB121E030E0B3
:10137000C90102C0880F991FEA95E2F702C0220F47
:10138000331F5A95E2F7822B809584238BB914C0C2
:10139000743099F48BB121E030E0D90102C0AA0F7A
:1013A000BB1F5A95E2F7AD0102C0220F331FEA9529
:1013B000E2F7422B482B4BB97883662319F029E4D6
:1013C00031E002C02FE431E0888190E09F938F9359
:1013D0003F932F9384E591E09F938F930E94FD09A3
:1013E00088812DB73EB72A5F3F4F0FB6F8943EBFB6
:1013F0000FBE2DBFDF91CF910895A0E0B0E0E3E0F4
:10140000FAE00C941110FE01359661917191AF01D3
:1014100080910C0290910D020E94540A2096E2E005
:101420000C942D10A0E0B0E0E8E1FAE00C9411106B
:10143000FE01359661917191A0910C02B0910D025F
:1014400013968C911397886013968C93AF018091BB
:101450000C0290910D020E94540AE0910C02F0914E
:101460000D022381277F23832096E2E00C942D1028
:1014700060910C0270910D020E942B0F0895A0E064
:10148000B0E0E5E4FAE00C941110FE0135966191AC
:101490007191AF0180910A0290910B020E94B70DE9
:1014A0002096E2E00C942D10ABE0B0E0EAE5FAE023
:1014B0000C9401103C012B015A01FC011782168289
:1014C000838181FD03C06FEF7FEFC8C19AE0892E51
:1014D0001E010894211C311CF3012381F20123FD1C
:1014E000859123FF81912F01882309F4B4C18532AE
:1014F00039F423FD859123FF81912F01853229F451
:10150000B30190E00E942B0FE7CF982FDD24CC246D
:101510009924FFE1FD15D0F09B3269F09C3228F44C
:10152000903259F0933291F40EC09D3249F09033CD
:1015300069F441E024C052E0D52A84E0D82A28C0CA
:1015400098E0D92A25C0E0E1DE2A22C0D7FC29C0D4
:10155000892F80538A3070F4D6FE05C0989C902C59
:101560001124980E15C0C89CC02C1124C80EF0E29E
:10157000DF2A0EC09E3229F4D6FC6DC140E4D42A85
:1015800007C09C3619F450E8D52A02C0983649F4B1
:10159000F20123FD959123FF91912F01992309F0E9
:1015A000B8CF892F8554833018F08052833038F4B7
:1015B00044E050E0A40EB51E5FE359830FC093369C
:1015C00031F0933779F0933509F056C020C0F5011A
:1015D0008081898342E050E0A40EB51E710101E0D4
:1015E00010E012C0F501E080F180D6FC03C06FEF7F
:1015F0007FEF02C0692D70E042E050E0A40EB51EFE
:10160000C7010E94DE0E8C015FE7D52214C0F501F0
:10161000E080F180D6FC03C06FEF7FEF02C0692D40
:1016200070E042E050E0A40EB51EC7010E94D30E48
:101630008C0150E8D52AD3FE07C01AC0B30180E25E
:1016400090E00E942B0FCA948C2D90E00817190788
:10165000A8F30EC0F701D7FC8591D7FE81917F01D9
:10166000B30190E00E942B0FC110CA9401501040AA
:101670000115110579F7ECC0943611F0993671F522
:10168000D7FE08C0F501E080F1800281138144E0BB
:1016900050E00AC0F501808191817C010027F7FCB0
:1016A0000095102F42E050E0A40EB51E5FE6D52253
:1016B00017FF0AC010950095F094E094E11CF11C0E
:1016C000011D111D80E8D82A2AE030E0A101C801DF
:1016D000B7010E94710FF82EF21840C0953729F417
:1016E0001D2D1F7E2AE030E01DC01D2D197F9F3665
:1016F00061F0903720F4983509F0ADC00FC09037F5
:1017000039F0983709F0A7C004C028E030E00AC0DB
:10171000106114FD146020E130E004C014FD166077
:1017200020E132E017FF08C0F501608171818281FC
:10173000938144E050E008C0F50180819181BC01B3
:1017400080E090E042E050E0A40EB51EA1010E94AE
:10175000710FF82EF2188FE7D82ED122D6FE0BC0CB
:101760005EEFD522F91438F4D4FE07C0D2FC05C0D0
:101770008FEED82202C01F2D01C0192DD4FE0DC03E
:10178000FE01EF0DF11D8081803319F499EED9220D
:1017900008C01F5FD2FE05C003C08D2D867809F0FA
:1017A0001F5F0D2DD3FC14C0D0FE0FC01C1510F010
:1017B0009F2C0BC09F2C9C0C911A1C2D06C0B301B2
:1017C00080E290E00E942B0F1F5F1C15C0F304C045
:1017D0001C1510F4C11A01C0CC2404FF10C0B301C1
:1017E00080E390E00E942B0F02FF1EC001FD03C0AA
:1017F00088E790E002C088E590E0B3010CC0802F3C
:10180000867891F001FF02C08BE201C080E2D7FC34
:101810008DE2B30190E00E942B0F06C0B30180E37C
:1018200090E00E942B0F9A94F914C0F3FA94F101FE
:10183000EF0DF11DB301808190E00E942B0FFF207E
:10184000A9F706C0B30180E290E00E942B0FCA9472
:10185000CC20C1F741CEF30166817781CB012B9675
:10186000E2E10C941D10FC0120FD08C023FD05C021
:1018700022FF02C073836283518340830895EF92F5
:10188000FF920F931F9344FF02C033E011C046FF45
:1018900002C034E00DC0DB01FC01AA0FBB1FEE1F2C
:1018A000FF1F1094D1F76A0F7B1F8E1F9F1F31E01F
:1018B000660F771F881F991F3150D1F77B018C016C
:1018C000E20EF11C011D111DA8019701B701CA010B
:1018D0001F910F91FF90EF9008950F931F93CF9357
:1018E000DF938C01C8010E94E90EEC0197FD08C04E
:1018F0000E94F60F892BB1F7B801CE010E94570F55
:10190000CE01DF91CF911F910F910895A0E0B0E03B
:10191000ECE8FCE00C940910EC01C62E5A01122FE1
:101920000E94E90EAC018B3219F08D3251F410682F
:10193000CA9409F46DC0CE010E94E90EAC0197FD76
:1019400067C06DEFD62ED1228D2D807301F5403307
:10195000F1F4CA9409F447C0CE010E94E90EAC012B
:1019600097FD41C082E0D82A483711F0483559F434
:1019700080E4D82ACA94B9F1CE010E94E90EAC01E4
:1019800099232CF430C0D6FC02C080E1D82AEE2482
:10199000FF248701242F2053283088F0D4FC09C06D
:1019A0002A3068F0D6FE05C02F7D822F8151863007
:1019B00028F0BE01CA010E94570F12C027504D2DBA
:1019C000C801B7010E943F0C7B018C0182E0D82A3C
:1019D000CA9461F0CE010E94E90EAC0197FFDACF04
:1019E000D1FC04C015C0EE24FF248701D7FE08C037
:1019F00010950095F094E094E11CF11C011D111D5F
:101A00002D2DB801A701C5010E94330C81E001C052
:101A100080E0CDB7DEB7EAE00C942510A0E2B0E09C
:101A2000E4E1FDE00C9405106C01A62E8A01790119
:101A3000FE01319680E2DF011D928A95E9F770E0A0
:101A400030E060E040E050E04F01A1E0B0E0F6019E
:101A50008381F70183FD259183FF21917F0122235B
:101A600009F47EC02E3519F44115510569F1872F0F
:101A700090E08417950744F42D3551F12D3221F46F
:101A8000332329F431E021C0332309F4622F322FAC
:101A9000832F869586958695F401E80FF11D832F97
:101AA00087703D0102C0660C771C8A95E2F72081A1
:101AB00026292083361711F430E007C0361710F4BA
:101AC0003F5FE6CF3150E4CF71E04F5F5F4FBFCF54
:101AD000332319F08E8180628E83772359F0FE01C3
:101AE00031969E012F5D3F4F808180958193E21753
:101AF000F307D1F7BB24B3944E010894811C911CC9
:101B0000C6010E94E90EAC0197FD22C0869586951C
:101B10008695F401E80FF11D808190E09A0127700D
:101B2000307002C0959587952A95E2F780FD05C033
:101B3000B601CA010E94570F0BC00115110519F01B
:101B4000D8014D938D01AA94BB24AA20C9F602C0E6
:101B5000BB2031F40115110529F0F801108202C0F3
:101B6000EE24FF24C701A096EEE00C942110A0E023
:101B7000B0E0EDEBFDE00C9405105C016B013A0167
:101B8000FC01178216828824EAC0812F90E00E940F
:101B9000F60F892B21F0C5010E946D0CE0C01532B3
:101BA00049F4F601F3FC6591F3FE61916F01653232
:101BB00069F415E2C5010E94E90E97FDDCC0181713
:101BC00009F4CDC0B5010E94570FDAC06A3219F08E
:101BD000162F00E006C0F3FC1591F3FE11916F0182
:101BE00001E099240FC00260692D70E080E090E070
:101BF00040E20E943F0C962EF601F3FC1591F3FE95
:101C000011916F01212F20532A3068F301FD03C089
:101C100099249A9403C0992009F4B2C0183621F08F
:101C20001C3699F4F6010BC0F601F3FC6591F3FE46
:101C30006191683619F06F01162F07C008600460C3
:101C4000F3FC1591F3FE11916F01112309F498C073
:101C5000612F70E084E193E00E94C80E892B09F4A3
:101C60008FC0802F00FF03C0EE24FF2407C0F301C4
:101C7000E080F18022E030E0620E731E1E3651F4E7
:101C8000F5014681578160E070E0202FC7010E9476
:101C9000330C65C0133691F481FD02C099249394EE
:101CA000C5010E94E90E97FD66C0E114F10419F028
:101CB000F70181937F019A9499F74FC01B3559F42E
:101CC0009601A701692DC5010E940E0D6C010097B8
:101CD00009F043C03DC0C5010E946D0C97FD4BC08B
:101CE0001F3659F1103728F4143629F1193639F511
:101CF00027C0133719F0153711F51DC0C5010E9413
:101D0000E90EEC0197FD11C00E94F60F892B29F016
:101D1000B501CE010E94570F08C0E114F10419F07B
:101D2000F701C1937F019A9449F7E114F104A9F0F6
:101D3000F701108212C0006203C0006101C000649C
:101D4000202FA701692DC5010E94860C882329F444
:101D5000F5018381807379F413C000FF8394F5014A
:101D6000F380F601F3FC1591F3FE11916F0111233D
:101D700009F00BCF05C0882019F42FEF3FEF02C008
:101D8000282D30E0C901CDB7DEB7EEE00C9421106C
:101D9000FC010590061621F00020D9F7C001089536
:101DA0003197CF010895FC010590615070400110FA
:101DB000D8F7809590958E0F9F1F0895FC01615074
:101DC000704001900110D8F7809590958E0F9F1F5D
:101DD0000895CF93DF93EC014B8140FF1AC046FF7B
:101DE0000AC04F7B4B838E819F8101969F838E8398
:101DF0008A81282F2BC042FF13C0E881F98180819E
:101E0000282F332727FD30952115310529F440620D
:101E10004B832FEF3FEF1BC03196F983E88311C04E
:101E2000EA85FB85CE0109959C0197FF0AC09B813D
:101E30002F5F3F4F11F080E201C080E1892B8B833F
:101E4000E8CF8E819F8101969F838E8330E0C90108
:101E5000DF91CF9108950F931F93CF93DF938C0160
:101E6000EB018B8181FF1BC082FF0DC02E813F8162
:101E70008C819D812817390764F4E881F9810193E9
:101E8000F983E88306C0E885F985802F0995892BB9
:101E900031F48E819F8101969F838E8302C00FEF64
:101EA0001FEFC801DF91CF911F910F9108959C0101
:101EB000FB01838180FF11C086FD0FC09FEF2F3F84
:101EC000390759F0228380648F7D838386819781CF
:101ED00001979783868330E002C02FEF3FEFC9015F
:101EE0000895FA01AA27283051F1203181F1E894B0
:101EF0006F936E7F6E5F7F4F8F4F9F4FAF4FB1E0FD
:101F00003ED0B4E03CD0670F781F891F9A1FA11DF7
:101F1000680F791F8A1F911DA11D6A0F711D811DF8
:101F2000911DA11D20D009F468943F912AE0269FBD
:101F300011243019305D3193DEF6CF010895462F1C
:101F40004770405D4193B3E00FD0C9F7F6CF462FFD
:101F50004F70405D4A3318F0495D31FD4052419366
:101F600002D0A9F7EACFB4E0A69597958795779523
:101F70006795BA95C9F700976105710508959B01AA
:101F8000AC010A2E06945795479537952795BA9533
:101F9000C9F7620F731F841F951FA01D089597FB3B
:101FA000092E07260AD077FD04D00CD006D00020D9
:101FB0001AF4709561957F4F0895F6F79095819585
:101FC0009F4F0895AA1BBB1B51E107C0AA1FBB1F4F
:101FD000A617B70710F0A61BB70B881F991F5A95B5
:101FE000A9F780959095BC01CD010895911106C087
:101FF000803219F089508550D0F7089599278827A5
:1020000008952F923F924F925F926F927F928F929C
:102010009F92AF92BF92CF92DF92EF92FF920F9377
:102020001F93CF93DF93CDB7DEB7CA1BDB0B0FB681
:10203000F894DEBF0FBECDBF09942A88398848883E
:102040005F846E847D848C849B84AA84B984C884D4
:10205000DF80EE80FD800C811B81AA81B981CE0FCB
:10206000D11D0FB6F894DEBF0FBECDBFED010895B0
:04207000F894FFCF12
:102074000A496E697469616C697A65205370656593
:10208400642E000A4D4C3A202558000A4D523A203D
:10209400255800256400257800205B202564203A1B
:1020A400202564205D2000040605070000000300CD
:1020B4000000005D066E0600005269676874004CFB
:1020C400656674000A4D6F746F723A202573206D33
:0820D4006F64653A20256400E9
:00000001FF
