:100000000C947F010C949C010C94420A0C94050AF8
:100010000C949C010C9492070C9408070C94140700
:100020000C9427070C94F9060C949C010C949C01E9
:100030000C949C010C949C010C949C010C949C01CC
:100040000C949C010C949C010C949C010C94400316
:100050000C949C010C949C010C949C010A0A496E1E
:1000600076616C696420496E7465727570742045A0
:100070006E61626C65640A000A43757272204D6F8E
:10008000746F72733A204C3A25642025643A52000A
:100090000A5475726E20496E6372656D656E743AAE
:1000A000202564000A4D6178204368616E205B4C16
:1000B000203020312032203320525D3A2025643B0D
:1000C000763D2564000A496E69743A20446F6E6576
:1000D0000A0A00095B646F6E655D000A6164633A39
:1000E00020696E69743A20736574757020636F6E51
:1000F00076657274696F6E73000A6164633A206991
:100100006E6974000A5B64656275675D2057617291
:100110006E696E673A20756E696D706C696D656E9B
:100120007465642066756E6374696F6E20616463C4
:100130005F63616C6962726174655F73746F72652D
:100140002063616C6C6564000A5B64656275675D61
:1001500020414443204F4646534554533A20000A19
:100160005B64656275675D2046495845442041449B
:10017000433A20000A5B64656275675D2020205267
:100180004157204144433A20000A75736172743A22
:1001900020696E697420757361727430095B646FD5
:1001A0006E655D000A74696D6572733A20696E69E7
:1001B000743A095B646F6E655D000A74696D6572FF
:1001C000733A20696E69743A2073746172742E00F8
:1001D000095B646F6E655D000A74696D6572733AE0
:1001E00020696E69743A2074696D657231000A4D38
:1001F0006F64653A20256400095B646F6E655D007D
:100200000A74696D6572733A20696E69743A207474
:10021000696D657232000A5B6572726F725D204DA6
:100220006F746F723A20496E76616C6964204D6F0D
:10023000746F72204E756D6265723A202564205B82
:1002400025735D000A5B6572726F725D204D6F747D
:100250006F723A20496E76616C6964204D6F746FDD
:1002600072204E756D6265723A202564205B25739D
:100270005D000A5B6572726F725D204D6F746F7204
:100280003A20496E76616C6964204D6F746F7220FC
:100290004E756D6265723A202564205B25735D00A2
:1002A0000A5B64656275675D2050423F2052656C51
:1002B0006561736564000A5B64656275675D205003
:1002C000453F2052656C6561736564000A43757231
:1002D00072656E74204D6F64652028462F57293D46
:1002E000202564000A43757272656E74204D6F6438
:1002F000652028542F5729203D2025640000112413
:100300001FBECFEFD4E0DEBFCDBF11E0A0E0B1E073
:10031000E8E2FCE102C005900D92A234B107D9F7E2
:1003200011E0A2E4B1E001C01D92AE3EB107E1F7D9
:100330000E94F3010C94120E0C94A90180E090E04D
:1003400020E80FB6F89420936100809361000FBEFF
:1003500008951F920F920FB60F9211248F939F93BF
:100360008CE590E09F938F938091EC019091ED014B
:100370009F938F930E94D50A0F900F900F900F902C
:100380009F918F910F900FBE0F901F901895F8942A
:10039000E4E6F0E080818F6180831DBA8DB3EBE6E7
:1003A000F0E08083808180936C0080E090E020E822
:1003B0000FB6F89420936100809361000FBE0E94F5
:1003C000EB090E94F6060E94A1030E941D080E94EC
:1003D000D209789485EC90E09F938F930E94070B4D
:1003E0000F900F9008952F923F924F925F926F92CD
:1003F0007F928F929F92BF92CF92DF92EF92FF9265
:100400000F931F93DF93CF93CDB7DEB728970FB627
:10041000F894DEBF0FBECDBF0E94C7011092D40179
:1004200081E08093E6014E010894811C911CE0E973
:100430002E2EE0E03E2E78E7472E70E0572E60EA41
:10044000662E6FE0762E8091D401823009F091C043
:100450008091E701882309F48CC08091E70188230B
:1004600091F31092E7018091E601882321F00E9428
:10047000D8091092E6016401740100E0802F0E9407
:100480002303F701819391937F010F5F0430B1F74C
:1004900054E0F52E80E090E020E0F601008111812B
:1004A0008017910710F08C0101C0F22E2F5F82E0BF
:1004B00090E0C80ED91E243011F0C801EECF0E9482
:1004C00024051F930F938F2D90E09F938F93E4EA61
:1004D000F0E0FF93EF930E94070B4EEFE42EEF0C3A
:1004E0002DB73EB72A5F3F4F0FB6F8943EBF0FBE01
:1004F0002DBF1E1414F4EF2CEA94FF2011F0BF2C32
:10050000BA94BB2011F4BB24BA94EB2DF0E0EE0FAB
:10051000FF1FE80DF91D808161E0F801E81BF1097A
:10052000CF010E94CA088E2D992787FD9095982F9C
:100530008827990F9F938F933F922F920E94070BCA
:1005400080E00E949E088C0181E00E949E089F939B
:100550008F931F930F935F924F920E94070B2DB7BB
:100560003EB7265F3F4F0FB6F8943EBF0FBE2DBF7C
:100570006ACF8091D401813009F065CF8091E60186
:10058000882351F060E081E00E94290961E081E068
:100590000E9429091092E60160E080914201909149
:1005A00043010E94760861E08091420190914301ED
:1005B0000E947608C3010197F1F780914201909162
:1005C0004301019690934301809342013CCFEF9207
:1005D000FF920F931F93CF93DF93C7E0D0E0F1E03A
:1005E000EF2EF12C082F10E0C7010C2E02C0880F4F
:1005F000991F0A94E2F7802391230C2E02C095954F
:1006000087950A94E2F7C0960E942E0B21978FEFF0
:10061000CF3FD80749F7DF91CF911F910F91FF90FE
:10062000EF90089557FB97F90895682F660F692F8B
:10063000661F20E030E06F3F11F021E030E0C9019B
:100640000895862F0895E82FF0E0EE0FFF1FDF01D9
:10065000A453BE4FEB52FE4F208131818D919C916E
:10066000280F391FC9010895ACE7B0E09C91EEE076
:10067000F1E0E80FF11D907E8081982B9C93089506
:100680001F920F920FB60F9211242F933F934F9307
:100690008F939F93AF93BF93EF93FF934091780015
:1006A00030917900209144012F5F20934401809183
:1006B000DD01882311F4E3E003C0E091DD01E150A6
:1006C000F0E0EE0FFF1FDF01A453BE4F932F80E039
:1006D000840F911D8D939C93E252FE4F80819181F6
:1006E0000196918380838091DD018F5F8093DD018E
:1006F0008091DD01843010F01092DD01E091DD0188
:1007000080917C00F0E0E25FFE4F807E9081892B3B
:1007100080937C00822F90E083709070892B19F475
:1007200081E08093E701FF91EF91BF91AF919F919D
:100730008F914F913F912F910F900FBE0F901F906F
:100740001895EF92FF920F931F9389EF90E09F937C
:100750008F938091EC019091ED019F938F930E9474
:10076000D50AE4E6F0E080818E7F80830CE710E01C
:10077000F80180818064808380818F7780832AE77D
:10078000E22EF12CF7018081886A80838081887F46
:1007900086608083EBE7F0E08081806880838081E1
:1007A000887F8083EEE7F0E08081806F808383B76D
:1007B000817F826083BF8BED90E09F938F938091C8
:1007C000EC019091ED019F938F930E94D50A909137
:1007D000DD01F8018081AEE0B1E0FD01E90FF11D1E
:1007E000807E9081892BF8018083F701808180646D
:1007F000808380E090E00197F1F78091DD018F5FC9
:100800008093DD019091DD01F8018081A90FB11D78
:10081000807E9C91892B808383ED90E09F938F93C2
:100820008091EC019091ED019F938F930E94D50AE6
:100830008DB79EB70C960FB6F8949EBF0FBE8DBFB6
:100840001F910F91FF90EF90089584E091E09F93A6
:100850008F938091EC019091ED019F938F930E9473
:10086000D50A0F900F900F900F90089588E0E5ED56
:10087000F1E0DF011D928A95E9F710924501089594
:10088000CF92DF92EF92FF920F931F93DF93CF935C
:10089000CDB7DEB760970FB6F894DEBF0FBECDBF01
:1008A000DE011996ECECF1E088E001900D928150A8
:1008B000E1F749855A8520E030E08E010F5F1F4F38
:1008C000BE01675F7F4FD801A20FB31FFB01E20F8C
:1008D000F31F80819181FA01E81BF90BED93FC93E2
:1008E0002E5F3F4F2830310571F7809145019E0101
:1008F0002F5F3F4F882349F4A5EDB1E0F90188E06F
:1009000001900D928150E1F722C0E5EDF1E079010F
:10091000082F10E068010894C11CD11C80819181CE
:100920009C01029FC001039F900D129F900D112406
:10093000D7012D913D917D01820F931FB6010E9439
:10094000B40D61937193B1E0ED3DFB0739F78091F0
:1009500045018F5F8093450160960FB6F894DEBF26
:100960000FBECDBFCF91DF911F910F91FF90EF9000
:10097000DF90CF9008950F931F9388E491E09F93A9
:100980008F938091EC019091ED019F938F930E9442
:10099000D50A8091D5019091D6019F938F931F9294
:1009A0001F9200E011E01F930F938091EC01909152
:1009B000ED019F938F930E94C20A8091D70190917D
:1009C000D8019F938F9381E090E09F938F931F9323
:1009D0000F938091EC019091ED019F938F930E9472
:1009E000C20A8091D9019091DA019F938F9382E09E
:1009F00090E09F938F931F930F938091EC019091C0
:100A0000ED019F938F930E94C20A8091DB01909128
:100A1000DC019F938F9383E090E09F938F931F93CC
:100A20000F938091EC019091ED019F938F930E9421
:100A3000C20A8DB79EB784960FB6F8949EBF0FBEBC
:100A40008DBF1F910F910895CF92DF92EF92FF9289
:100A50000F931F93CF93DF9384E791E09F938F933E
:100A60008091EC019091ED019F938F930E94D50AA4
:100A70008091CC019091CD019F938F931F921F92F3
:100A800000E011E01F930F938091EC019091ED0134
:100A90009F938F930E94C20A8091CE019091CF01C3
:100AA0009F938F9381E090E09F938F931F930F9379
:100AB0008091EC019091ED019F938F930E94C20A67
:100AC0008091D0019091D1019F938F9382E090E02B
:100AD0009F938F931F930F938091EC019091ED0161
:100AE0009F938F930E94C20A8091D2019091D3016B
:100AF0009F938F9383E090E09F938F931F930F9327
:100B00008091EC019091ED019F938F930E94C20A16
:100B10008DB79EB784960FB6F8949EBF0FBE8DBF5B
:100B20008FE591E09F938F938091EC019091ED017F
:100B30009F938F930E94D50A4CECC42E41E0D42E93
:100B400035EDE32E31E0F32EC0E0D0E00F900F90B2
:100B50000F900F90F701819191917F01F601219102
:100B600031916F01820F931F9F938F93DF93CF93E8
:100B70001F930F938091EC019091ED019F938F93C0
:100B80000E94C20A21968DB79EB708960FB6F894B8
:100B90009EBF0FBE8DBFC430D105E1F6DF91CF916E
:100BA0001F910F91FF90EF90DF90CF9008951F93CA
:100BB000182F8A3019F48DE00E94D7058091C0006B
:100BC00085FFFCCF1093C60080E090E01F91089550
:100BD0001F93182F8A3019F48DE00E94E805809148
:100BE000C00085FFFCCF1093C60080E090E01F910D
:100BF0000895EF92FF920F931F93CF93DF937C01A1
:100C00008091460190914701892B09F0A0C008E42A
:100C100011E08091C00087FFFCCF8091C00084FF6D
:100C200003C02EEF3FEFA7C08091C00083FDA1C09D
:100C30009091C6009D3011F09A3069F48AE0F80175
:100C40008083B7010E94E80588E491E09093470112
:100C5000809346017CC0993009F490E2892F80523C
:100C60008F3510F0903A78F0F1E0063C1F0719F448
:100C7000B70187E005C0F80191938F01B701892F73
:100C80000E94E805C6CF923139F1933138F49330A0
:100C900009F46FC0983009F0BCCF09C0973109F44E
:100CA0004BC09F3721F0953109F0B3CF32C0F1E04E
:100CB00008341F0709F008F4ACCFB70188E00E94A0
:100CC000E805B70180E20E94E805B70188E00E94CC
:100CD000E805015010409DCFB7018DE00E94E80566
:100CE000C8E4D1E004C0B70189910E94E805C017AB
:100CF000D107C8F38ECFB70188E00E94E805B7019D
:100D000080E20E94E805B70188E00E94E8050150F2
:100D1000104081E00834180709F068F77ACFB7016E
:100D200088E00E94E805B70180E20E94E805B7016B
:100D300088E00E94E8058E01E1E008341E0709F012
:100D400008F467CFE8018A91803249F762CFE091D9
:100D50004601F09147018191F0934701E0934601EC
:100D60008A3021F41092470110924601282F30E07A
:100D700002C02FEF3FEFC901DF91CF911F910F917B
:100D8000FF90EF900895E4E6F0E080818D7F80830E
:100D900089E190E09093C5008093C400E0ECF0E01E
:100DA00080818D7F808388E18093C10086E080937D
:100DB000C20082E191E09093E9018093E801909371
:100DC000EB018093EA0120E231E03093ED012093C2
:100DD000EC0189E891E09F938F933F932F930E94BA
:100DE000D50A0F900F900F900F9008950E94C306A0
:100DF00008951F920F920FB60F9211248F9381E0E6
:100E00008093C9018F910F900FBE0F901F9018957E
:100E10001F920F920FB60F9211241092C9010F90DA
:100E20000FBE0F901F9018951F920F920FB60F9242
:100E300011248F938091C901813011F42A9801C047
:100E40002A9A8F910F900FBE0F901F9018951F92A6
:100E50000F920FB60F9211248F938091C9018130A8
:100E600011F42B9801C02B9A8F910F900FBE0F9009
:100E70001F90189588ED91E09F938F938091EC01DE
:100E80009091ED019F938F930E94D50AE4E6F0E0E4
:100E90008081877F8083E0E8F0E080818F708083AD
:100EA00080818260808380818D7F8083E1E8F0E0B3
:100EB0008081806280838081806180838081877F60
:100EC000808380818F7780832FB7F8948FEF9FEF97
:100ED00090938700809386002FBFE1E8F0E0808147
:100EE000897F8083808181608083EFE6F0E080816C
:100EF0008760808384B18C6084B980ED91E09F939A
:100F00008F938091EC019091ED019F938F930E94BC
:100F1000D50A8DB79EB708960FB6F8949EBF0FBE40
:100F20008DBF08951F920F920FB60F9211248F93C9
:100F30009F938091C7019091C80101969093C80139
:100F40008093C7018091D4018823C9F48091D40192
:100F500090E09F938F938EEE91E09F938F9380917B
:100F6000EC019091ED019F938F930E94D50A8DB76C
:100F70009EB706960FB6F8949EBF0FBE8DBF9F9189
:100F80008F910F900FBE0F901F90189580E092E008
:100F90009F938F938091EC019091ED019F938F939C
:100FA0000E94D50A809170008C7F809370008091A0
:100FB000B6008F7E8093B6008091B60088608093E3
:100FC000B6001092B2008091B0008F778093B0008D
:100FD0008091B000877B8093B0008091B0008F7CBF
:100FE0008093B0008091B00085608093B0008091C4
:100FF000B0008D7F8093B0000F900F900F900F90F6
:101000008091B60082FDFCCF8091B60081FDFCCFBF
:101010008091B60080FDFCCF88EF91E09F938F9385
:101020008091EC019091ED019F938F930E94D50ADE
:101030000F900F900F900F9008958AEB91E09F937F
:101040008F938091EC019091ED019F938F930E947B
:10105000D50A0E943A070E94C60784EA91E09F934E
:101060008F938091EC019091ED019F938F930E945B
:10107000D50A8DB79EB708960FB6F8949EBF0FBEDF
:101080008DBF0895FC0120813181421B530B46170F
:10109000570748F4240F351F31832083CB01841B6D
:1010A000950BAC0106C0260F371F3183208340E02B
:1010B00050E0CA010895FC01CB0120813181B901C2
:1010C000641B750B6817790748F4261B370B3183AF
:1010D00020839C01261B370BB90106C0281B390B46
:1010E0003183208360E070E0CB010895662331F402
:1010F000F894909389008093880007C0613039F498
:10110000F89490938B0080938A00789408958BE2F2
:1011100090E09F938F93862F90E09F938F9384E42A
:1011200092E09F938F930E94070B8DB79EB7069610
:101130000FB6F8949EBF0FBE8DBF0895282F882349
:1011400031F4F894209188003091890007C08130F3
:1011500039F4F89420918A0030918B00789418C06B
:101160008BE190E09F938F93822F90E09F938F93DA
:1011700082E792E09F938F930E94070B20E030E07C
:101180008DB79EB706960FB6F8949EBF0FBE8DBF63
:10119000C9010895DF92EF92FF920F931F93CF93AF
:1011A000DF937C01D62E81E00E949E088C0180E0B6
:1011B0000E949E08EC0181E0D816E9F480E090ECF2
:1011C0008C1B9D0B8E159F0530F49701281B390B46
:1011D000C0E0D0EC04C0CE0DDF1D20E030E0C8013F
:1011E000805095408217930718F400E015E021C065
:1011F000021B130B1EC0DD20E1F480E090EC801B8D
:10120000910B8E159F0530F49701281B390B00E0D8
:1012100010EC04C00E0D1F1D20E030E0CE01805008
:1012200095408217930718F4C0E0D5E002C0C21BB6
:10123000D30B61E0C8010E94760860E0CE010E94F5
:101240007608DF91CF911F910F91FF90EF90DF9083
:101250000895CF93DF93782F6623B9F0613029F496
:1012600055E0E7E0CBECD1E014C08DE390E09F9334
:101270008F93862F90E09F938F9386E192E09F93C8
:101280008F930E94070B87E06EC051E0E3E0CAEC49
:10129000D1E07230A1F44BB121E030E0C90102C0CD
:1012A000880F991F5A95E2F7809584238BB98BB1EB
:1012B00002C0220F331FEA95E2F7822B29C071305A
:1012C000A1F44BB181E090E09C0102C0220F331FDA
:1012D0005A95E2F7422B4BB92BB102C0880F991FE8
:1012E000EA95E2F78095822313C0733099F44BB1ED
:1012F00021E030E0C90102C0880F991FEA95E2F7AA
:1013000002C0220F331F5A95E2F7822B8095842367
:101310008BB914C0743099F48BB121E030E0D9015D
:1013200002C0AA0FBB1F5A95E2F7AD0102C0220FFF
:10133000331FEA95E2F7422B482B4BB9788366239B
:1013400011F022E501C02CE4888190E09F938F93F7
:10135000822F90E09F938F938EE291E09F938F93E3
:101360000E94F20A88812DB73EB72A5F3F4F0FB621
:10137000F8943EBF0FBE2DBFDF91CF91089560E07E
:1013800083E00E94290961E083E00E94290960E06E
:1013900080E095E00E94760861E080E095E00E94A0
:1013A000760808958AB18A6A8AB90E94BF090895A9
:1013B00060E080E090EC0E94760861E080E090ECD4
:1013C0000E94760860E081E00E94290961E081E0E6
:1013D0000E942909089584B18F7284B98DB1837FE9
:1013E0008DB985B1806D85B98EB18C608EB98DB3A4
:1013F000806C8DBBECE6F0E08081806D8083EBE655
:10140000F0E080818C60808308951F920F920FB668
:101410000F9211241F938F939F9393B19095192F3F
:10142000892F807DB9F097FF06C00E9440040E947A
:10143000BB040E94240514FF04C00E94BB040E9448
:10144000240516FF17C00E9436040E94BB040E94A8
:10145000240510C080EA92E09F938F938091EC0165
:101460009091ED019F938F930E94D50A0F900F905A
:101470000F900F909F918F911F910F900FBE0F9023
:101480001F9018951F920F920FB60F9211248F93F1
:101490009F93CF93DF938CB18095C82FD0E0CE017E
:1014A0008C709070892B09F454C0C2FF27C08091C2
:1014B000D401882329F01092D4010E94BF0905C0ED
:1014C00081E08093E6018093D4018091D40190E083
:1014D0009F938F9384EE92E09F938F938091EC0182
:1014E0009091ED019F938F930E94D50A8DB79EB77F
:1014F00006960FB6F8949EBF0FBE8DBFC3FF39C0CE
:101500008091D401882329F01092D4010E94BF0950
:1015100006C081E08093E60182E08093D40180914F
:10152000D40190E09F938F938CEC92E09F938F93E4
:101530008091EC019091ED019F938F930E94D50AC9
:101540008DB79EB706960FB6F8949EBF0FBE8DBF9F
:1015500010C086EB92E09F938F938091EC01909165
:10156000ED019F938F930E94D50A0F900F900F90DB
:101570000F90DF91CF919F918F910F900FBE0F90A1
:101580001F901895A0E0B0E0E8ECFAE00C94EB0DA9
:10159000CE010996AC016F8178858D819E810E9474
:1015A000350B2096E2E00C94070EA0E0B0E0EBEDE6
:1015B000FAE00C94E90D0F8118859E01255F3F4FDD
:1015C000F801838188608383A90169857A85C801D0
:1015D0000E94350BF8012381277F23832096E4E0C6
:1015E0000C94050EA0E0B0E0E8EFFAE00C94EB0DEF
:1015F000FE01359661917191AF018091EA01909160
:10160000EB010E94350B2096E2E00C94070EA0E05F
:10161000B0E0EDE0FBE00C94EB0D9E012B5F3F4F43
:10162000F901619171919F01A091EA01B091EB01E3
:10163000FD01838188608383A9018091EA019091F3
:10164000EB010E94350BE091EA01F091EB0123815F
:10165000277F23832096E2E00C94070E6091EA0135
:101660007091EB010E942A0D0895ABE0B0E0EBE32E
:10167000FBE00C94DB0D3C012B015A01FC011782AD
:101680001682838181FD03C06FEF7FEFC8C19AE0AE
:10169000892E1E010894211C311CF3012381F201C3
:1016A00023FD859123FF81912F01882309F4B4C183
:1016B000853239F423FD859123FF81912F018532F5
:1016C00029F4B30190E00E942A0DE7CF982FDD2482
:1016D000CC249924FFE1FD15D0F09B3269F09C32B7
:1016E00028F4903259F0933291F40EC09D3249F0B3
:1016F000903369F441E024C052E0D52A84E0D82A2E
:1017000028C098E0D92A25C0E0E1DE2A22C0D7FC13
:1017100029C0892F80538A3070F4D6FE05C0989C6A
:10172000902C1124980E15C0C89CC02C1124C80EF2
:10173000F0E2DF2A0EC09E3229F4D6FC6DC140E4EF
:10174000D42A07C09C3619F450E8D52A02C098362E
:1017500049F4F20123FD959123FF91912F019923E3
:1017600009F0B8CF892F8554833018F08052833028
:1017700038F444E050E0A40EB51E5FE359830FC077
:10178000933631F0933779F0933509F056C020C085
:10179000F5018081898342E050E0A40EB51E7101FD
:1017A00001E010E012C0F501E080F180D6FC03C03A
:1017B0006FEF7FEF02C0692D70E042E050E0A40EB1
:1017C000B51EC7010E941F0D8C015FE7D52214C012
:1017D000F501E080F180D6FC03C06FEF7FEF02C01F
:1017E000692D70E042E050E0A40EB51EC7010E94D2
:1017F000140D8C0150E8D52AD3FE07C01AC0B301DE
:1018000080E290E00E942A0DCA948C2D90E0081787
:101810001907A8F30EC0F701D7FC8591D7FE819177
:101820007F01B30190E00E942A0DC110CA940150BB
:1018300010400115110579F7ECC0943611F0993676
:1018400071F5D7FE08C0F501E080F18002811381B7
:1018500044E050E00AC0F501808191817C010027BD
:10186000F7FC0095102F42E050E0A40EB51E5FE695
:10187000D52217FF0AC010950095F094E094E11C62
:10188000F11C011D111D80E8D82A2AE030E0A101D9
:10189000C801B7010E94560DF82EF21840C09537C6
:1018A00029F41D2D1F7E2AE030E01DC01D2D197F5B
:1018B0009F3661F0903720F4983509F0ADC00FC025
:1018C000903739F0983709F0A7C004C028E030E01D
:1018D0000AC0106114FD146020E130E004C014FD62
:1018E000166020E132E017FF08C0F50160817181C8
:1018F0008281938144E050E008C0F50180819181AC
:10190000BC0180E090E042E050E0A40EB51EA101D1
:101910000E94560DF82EF2188FE7D82ED122D6FE4F
:101920000BC05EEFD522F91438F4D4FE07C0D2FC08
:1019300005C08FEED82202C01F2D01C0192DD4FE84
:101940000DC0FE01EF0DF11D8081803319F499EE79
:10195000D92208C01F5FD2FE05C003C08D2D867836
:1019600009F01F5F0D2DD3FC14C0D0FE0FC01C1555
:1019700010F09F2C0BC09F2C9C0C911A1C2D06C0A4
:10198000B30180E290E00E942A0D1F5F1C15C0F396
:1019900004C01C1510F4C11A01C0CC2404FF10C0EF
:1019A000B30180E390E00E942A0D02FF1EC001FDFA
:1019B00003C088E790E002C088E590E0B3010CC066
:1019C000802F867891F001FF02C08BE201C080E297
:1019D000D7FC8DE2B30190E00E942A0D06C0B3014E
:1019E00080E390E00E942A0D9A94F914C0F3FA94CF
:1019F000F101EF0DF11DB301808190E00E942A0DED
:101A0000FF20A9F706C0B30180E290E00E942A0DF2
:101A1000CA94CC20C1F741CEF30166817781CB0116
:101A20002B96E2E10C94F70DFC010590615070409B
:101A30000110D8F7809590958E0F9F1F0895FC0197
:101A40006150704001900110D8F7809590958E0FED
:101A50009F1F08950F931F93CF93DF938C01EB018A
:101A60008B8181FF1BC082FF0DC02E813F818C8145
:101A70009D812817390764F4E881F9810193F9837E
:101A8000E88306C0E885F985802F0995892B31F414
:101A90008E819F8101969F838E8302C00FEF1FEF7F
:101AA000C801DF91CF911F910F910895FA01AA27E4
:101AB000283051F1203181F1E8946F936E7F6E5F91
:101AC0007F4F8F4F9F4FAF4FB1E03ED0B4E03CD03F
:101AD000670F781F891F9A1FA11D680F791F8A1F22
:101AE000911DA11D6A0F711D811D911DA11D20D089
:101AF00009F468943F912AE0269F11243019305D43
:101B00003193DEF6CF010895462F4770405D419333
:101B1000B3E00FD0C9F7F6CF462F4F70405D4A3380
:101B200018F0495D31FD4052419302D0A9F7EACF48
:101B3000B4E0A6959795879577956795BA95C9F777
:101B400000976105710508959B01AC010A2E06946A
:101B50005795479537952795BA95C9F7620F731F23
:101B6000841F951FA01D089597FB092E07260AD0F4
:101B700077FD04D00CD006D000201AF47095619542
:101B80007F4F0895F6F7909581959F4F0895AA1B72
:101B9000BB1B51E107C0AA1FBB1FA617B70710F058
:101BA000A61BB70B881F991F5A95A9F7809590958A
:101BB000BC01CD0108952F923F924F925F926F9298
:101BC0007F928F929F92AF92BF92CF92DF92EF92CD
:101BD000FF920F931F93CF93DF93CDB7DEB7CA1B4E
:101BE000DB0B0FB6F894DEBF0FBECDBF09942A8879
:101BF000398848885F846E847D848C849B84AA8421
:101C0000B984C884DF80EE80FD800C811B81AA81AD
:101C1000B981CE0FD11D0FB6F894DEBF0FBECDBF78
:081C2000ED010895F894FFCFD7
:101C2800205B202564203A202564205D20000406DE
:101C380005070000000300000000E805F9050000A2
:101C48000000000200000000D705000000000A4D57
:101C58006F746F723A202563206D6F64653A202592
:021C6800640016
:00000001FF
