:100000000C9458010C9475010C9426090C94E90881
:100010000C9475010C9479060C94EF050C94FB0577
:100020000C940E060C94E0050C9475010C9475016B
:100030000C9475010C9475010C9475010C94750168
:100040000C9475010C9475010C9475010C942D029F
:100050000C9475010C9475010C9475010A0A496E93
:1000600076616C696420496E7465727570742045A0
:100070006E61626C65640A000A496E69743A2044D4
:100080006F6E650A0A00095B646F6E655D000A6148
:1000900064633A20696E69743A20736574757020E0
:1000A000636F6E76657274696F6E73000A61646364
:1000B0003A20696E6974000A5B64656275675D2049
:1000C0005761726E696E673A20756E696D706C6902
:1000D0006D656E7465642066756E6374696F6E20FD
:1000E0006164635F63616C6962726174655F73749C
:1000F0006F72652063616C6C6564000A5B646562A5
:1001000075675D20414443204F4646534554533A5A
:1001100020000A5B64656275675D20464958454466
:10012000204144433A20000A5B64656275675D20A4
:100130002020524157204144433A20000A75736100
:1001400072743A20696E6974207573617274300933
:100150005B646F6E655D000A74696D6572733A2049
:10016000696E69743A095B646F6E655D000A746953
:100170006D6572733A20696E69743A2073746172A6
:10018000742E00095B646F6E655D000A74696D65AD
:1001900072733A20696E69743A2074696D657231C0
:1001A000000A4D6F64653A20256400095B646F6E38
:1001B000655D000A74696D6572733A20696E6974D1
:1001C0003A2074696D657232000A5B6572726F72F3
:1001D0005D204D6F746F723A20496E76616C696470
:1001E000204D6F746F72204E756D6265723A2025D6
:1001F00064205B25735D000A5B6572726F725D201F
:100200004D6F746F723A20496E76616C6964204D4F
:100210006F746F72204E756D6265723A202564208E
:100220005B25735D000A5B6572726F725D204D6FB6
:10023000746F723A20496E76616C6964204D6F74F8
:100240006F72204E756D6265723A202564205B25C1
:10025000735D000A5B64656275675D2050423F20F4
:1002600052656C6561736564000A5B6465627567FD
:100270005D2050453F2052656C6561736564000ADE
:1002800043757272656E74204D6F64652028462F29
:1002900057293D202564000A43757272656E7420EB
:1002A0004D6F64652028542F5729203D2025640078
:1002B00011241FBECFEFD4E0DEBFCDBF11E0A0E020
:1002C000B1E0E0EFF9E102C005900D92A234B10770
:1002D000D9F711E0A2E4B1E001C01D92AC3EB10734
:1002E000E1F70E94CC010C94F60C0C94820180E0A2
:1002F00090E020E80FB6F8942093610080936100AD
:100300000FBE08951F920F920FB60F9211248F9374
:100310009F938CE590E09F938F938091EA01909159
:10032000EB019F938F930E94B9090F900F900F904C
:100330000F909F918F910F900FBE0F901F90189567
:10034000F894E4E6F0E080818F6180831DBA8DB37C
:10035000EBE6F0E08083808180936C0080E090E0A9
:1003600020E80FB6F89420936100809361000FBEDF
:100370000E94CF080E94DD050E948C020E940107A6
:100380000E94B608789488E790E09F938F930E942C
:10039000EB090F900F9008950E94A0011092D201D6
:1003A00081E08093E401FFCFEF92FF920F931F93C0
:1003B000CF93DF93C7E0D0E091E0E92EF12C082F36
:1003C00010E0C7010C2E02C0880F991F0A94E2F7B3
:1003D000802391230C2E02C0959587950A94E2F70D
:1003E000C0960E94120A21978FEFCF3FD80749F796
:1003F000DF91CF911F910F91FF90EF90089557FBE0
:1004000097F90895682F660F692F661F20E030E086
:100410006F3F11F021E030E0C9010895862F089563
:10042000E82FF0E0EE0FFF1FDF01A653BE4FED52A5
:10043000FE4F208131818D919C91280F391FC90178
:100440000895ACE7B0E09C91EEE0F1E0E80FF11D1B
:10045000907E8081982B9C9308951F920F920FB6E7
:100460000F9211242F933F934F935F938F939F93FA
:10047000AF93BF93EF93FF93509178004091790031
:10048000309142013F5F309342012091DB012223F2
:1004900011F4E3E002C0E22FE150F0E0EE0FFF1FA5
:1004A000DF01A653BE4F942F80E0850F911D8D93E1
:1004B0009C93E452FE4F80819181019691838083C9
:1004C000822F8F5F8093DB01843010F01092DB016C
:1004D00090917C00E091DB01F0E0E25FFE4F907EC6
:1004E0008081982B90937C00832F90E08370907094
:1004F000892B19F481E08093E501FF91EF91BF9181
:10050000AF919F918F915F914F913F912F910F905C
:100510000FBE0F901F901895EF92FF920F931F93AD
:100520008CEA90E09F938F938091EA019091EB0188
:100530009F938F930E94B909E4E6F0E080818E7F5B
:1005400080830CE710E0F8018081806480838081E3
:100550008F7780832AE7E22EF12CF7018081886A69
:1005600080838081887F86608083EBE7F0E08081F4
:10057000806880838081887F8083EEE7F0E08081DF
:10058000806F808383B7817F826083BF8EE890E035
:100590009F938F938091EA019091EB019F938F93AA
:1005A0000E94B9092091DB01F8018081AEE0B1E041
:1005B000FD01E20FF11D807E9081892BF80180837F
:1005C000F70180818064808380E090E00197F1F7FB
:1005D0002F5F2093DB01F8018081A20FB11D807E87
:1005E0009C91892B808386E890E09F938F938091E4
:1005F000EA019091EB019F938F930E94B9098DB707
:100600009EB70C960FB6F8949EBF0FBE8DBF1F917C
:100610000F91FF90EF90089587EB90E09F938F9359
:100620008091EA019091EB019F938F930E94B90909
:100630000F900F900F900F90089588E0E3EDF1E098
:10064000DF011D928A95E9F7109243010895CF9238
:10065000DF92EF92FF920F931F93DF93CF93CDB76B
:10066000DEB760970FB6F894DEBF0FBECDBFDE01D8
:100670001996EAECF1E088E001900D928150E1F7E3
:1006800049855A8520E030E08E010F5F1F4FBE0183
:10069000675F7F4FD801A20FB31FFB01E20FF31F6B
:1006A00080819181FA01E81BF90BED93FC932E5F99
:1006B0003F4F2830310571F7809143019E012F5F34
:1006C0003F4F882349F4A3EDB1E0F90188E00190A0
:1006D0000D928150E1F722C0E3EDF1E07901082F9E
:1006E00010E068010894C11CD11C808191819C019B
:1006F000029FC001039F900D129F900D1124D701FE
:100700002D913D917D01820F931FB6010E94980C9F
:1007100061937193B1E0EB3DFB0739F780914301A1
:100720008F5F8093430160960FB6F894DEBF0FBED3
:10073000CDBFCF91DF911F910F91FF90EF90DF9090
:10074000CF9008950F931F938BEF90E09F938F931B
:100750008091EA019091EB019F938F930E94B909D8
:100760008091D3019091D4019F938F931F921F92F8
:1007700000E011E01F930F938091EA019091EB014B
:100780009F938F930E94A6098091D5019091D601E5
:100790009F938F9381E090E09F938F931F930F938C
:1007A0008091EA019091EB019F938F930E94A6099B
:1007B0008091D7019091D8019F938F9382E090E030
:1007C0009F938F931F930F938091EA019091EB0178
:1007D0009F938F930E94A6098091D9019091DA018D
:1007E0009F938F9383E090E09F938F931F930F933A
:1007F0008091EA019091EB019F938F930E94A6094B
:100800008DB79EB784960FB6F8949EBF0FBE8DBF6E
:100810001F910F910895CF92DF92EF92FF920F9365
:100820001F93CF93DF9387E291E09F938F93809103
:10083000EA019091EB019F938F930E94B9098091F7
:10084000CA019091CB019F938F931F921F9200E05A
:1008500011E01F930F938091EA019091EB019F9318
:100860008F930E94A6098091CC019091CD019F9316
:100870008F9381E090E09F938F931F930F938091CC
:10088000EA019091EB019F938F930E94A6098091BA
:10089000CE019091CF019F938F9382E090E09F9340
:1008A0008F931F930F938091EA019091EB019F9397
:1008B0008F930E94A6098091D0019091D1019F93BE
:1008C0008F9383E090E09F938F931F930F9380917A
:1008D000EA019091EB019F938F930E94A6098DB737
:1008E0009EB784960FB6F8949EBF0FBE8DBF82E16F
:1008F00091E09F938F938091EA019091EB019F93F8
:100900008F930E94B9094AECC42E41E0D42E33EDF6
:10091000E32E31E0F32EC0E0D0E00F900F900F9067
:100920000F90F701819191917F01F6012191319111
:100930006F01820F931F9F938F93DF93CF931F932A
:100940000F938091EA019091EB019F938F930E9406
:10095000A60921968DB79EB708960FB6F8949EBF4C
:100960000FBE8DBFC430D105E1F6DF91CF911F914D
:100970000F91FF90EF90DF90CF9008951F93182F65
:100980008A3019F48DE00E94BE048091C00085FF7A
:10099000FCCF1093C60080E090E01F9108951F9354
:1009A000182F8A3019F48DE00E94CF048091C00086
:1009B00085FFFCCF1093C60080E090E01F91089562
:1009C000EF92FF920F931F93CF93DF937C0180915F
:1009D000440190914501892B09F0A0C006E411E083
:1009E0008091C00087FFFCCF8091C00084FF03C0CE
:1009F0002EEF3FEFA7C08091C00083FDA1C0909172
:100A0000C6009D3011F09A3069F48AE0F8018083C5
:100A1000B7010E94CF0486E491E090934501809352
:100A200044017CC0993009F490E2892F80528F35BF
:100A300010F0903A78F0F1E0043C1F0719F4B70188
:100A400087E005C0F80191938F01B701892F0E94BB
:100A5000CF04C6CF923139F1933138F4933009F491
:100A60006FC0983009F0BCCF09C0973109F44BC072
:100A70009F3721F0953109F0B3CF32C0F1E0063451
:100A80001F0709F008F4ACCFB70188E00E94CF043B
:100A9000B70180E20E94CF04B70188E00E94CF0432
:100AA000015010409DCFB7018DE00E94CF04C6E4F5
:100AB000D1E004C0B70189910E94CF04C017D107CB
:100AC000C8F38ECFB70188E00E94CF04B70180E25F
:100AD0000E94CF04B70188E00E94CF04015010406B
:100AE00081E00634180709F068F77ACFB70188E08B
:100AF0000E94CF04B70180E20E94CF04B70188E0D2
:100B00000E94CF048E01E1E006341E0709F008F4CC
:100B100067CFE8018A91803249F762CFE0914401C2
:100B2000F09145018191F0934501E09344018A30B1
:100B300021F41092450110924401282F30E002C0A8
:100B40002FEF3FEFC901DF91CF911F910F91FF90E0
:100B5000EF900895E4E6F0E080818D7F808389E165
:100B600090E09093C5008093C400E0ECF0E08081B9
:100B70008D7F808388E18093C10086E08093C200EE
:100B800082E191E09093E7018093E6019093E9017F
:100B90008093E80120E231E03093EB012093EA01F9
:100BA0008CE391E09F938F933F932F930E94B90919
:100BB0000F900F900F900F9008950E94AA0508952E
:100BC0001F920F920FB60F9211248F9381E08093A2
:100BD000C7018F910F900FBE0F901F9018951F9215
:100BE0000F920FB60F9211241092C7010F900FBEF3
:100BF0000F901F9018951F920F920FB60F9211240D
:100C00008F938091C701813011F42A9801C02A9AEC
:100C10008F910F900FBE0F901F9018951F920F92FB
:100C20000FB60F9211248F938091C701813011F478
:100C30002B9801C02B9A8F910F900FBE0F901F9091
:100C400018958BE891E09F938F938091EA019091A2
:100C5000EB019F938F930E94B909E4E6F0E0808155
:100C6000877F8083E0E8F0E080818F7080838081DF
:100C70008260808380818D7F8083E1E8F0E08081E5
:100C8000806280838081806180838081877F808390
:100C900080818F7780832FB7F8948FEF9FEF9093A9
:100CA0008700809386002FBFE1E8F0E08081897F94
:100CB0008083808181608083EFE6F0E080818760BF
:100CC000808384B18C6084B983E891E09F938F9393
:100CD0008091EA019091EB019F938F930E94B90953
:100CE0008DB79EB708960FB6F8949EBF0FBE8DBF06
:100CF00008951F920F920FB60F9211248F939F9316
:100D00008091C5019091C60101969093C601809390
:100D1000C5018091D2018823B1F41F921F9281EA0C
:100D200091E09F938F938091EA019091EB019F93C3
:100D30008F930E94B9098DB79EB706960FB6F894A7
:100D40009EBF0FBE8DBF9F918F910F900FBE0F90D2
:100D50001F90189583EB91E09F938F938091EA0108
:100D60009091EB019F938F930E94B909809170003D
:100D70008C7F809370008091B6008F7E8093B60048
:100D80008091B60088608093B6001092B200809186
:100D9000B0008F778093B0008091B000877B809304
:100DA000B0008091B0008F7C8093B0008091B00043
:100DB00085608093B0008091B0008D7F8093B000FB
:100DC0000F900F900F900F908091B60082FDFCCF96
:100DD0008091B60081FDFCCF8091B60080FDFCCFF4
:100DE0008BEA91E09F938F938091EA019091EB01C0
:100DF0009F938F930E94B9090F900F900F900F90BF
:100E000008958DE691E09F938F938091EA019091F0
:100E1000EB019F938F930E94B9090E9421060E94C3
:100E2000AA0687E591E09F938F938091EA019091C4
:100E3000EB019F938F930E94B9098DB79EB70896D7
:100E40000FB6F8949EBF0FBE8DBF0895FC012081A0
:100E50003181421B530B4617570748F4240F351FA7
:100E600031832083CB01841B950BAC0106C0260F78
:100E7000371F3183208340E050E0CA010895FC0110
:100E8000CB0120813181B901641B750B681779078B
:100E900048F4261B370B318320839C01261B370B1C
:100EA000B90106C0281B390B3183208360E070E054
:100EB000CB010895662331F4F894909389008093D0
:100EC000880007C0613039F4F89490938B008093C8
:100ED0008A00789408958BE290E09F938F93862FF9
:100EE00090E09F938F9387EF91E09F938F930E9461
:100EF000EB098DB79EB706960FB6F8949EBF0FBE4E
:100F00008DBF0895282F882331F4F894209188000C
:100F10003091890007C0813039F4F89420918A001B
:100F200030918B00789418C08BE190E09F938F9361
:100F3000822F90E09F938F9385E292E09F938F930F
:100F40000E94EB0920E030E08DB79EB706960FB601
:100F5000F8949EBF0FBE8DBFC9010895DF92EF9236
:100F6000FF920F931F93CF93DF937C01D62E81E0E6
:100F70000E9482078C0180E00E948207EC0181E0E0
:100F8000D816E9F480E090EC8C1B9D0B8E159F0524
:100F900030F49701281B390BC0E0D0EC04C0CE0D13
:100FA000DF1D20E030E0C801805095408217930794
:100FB00018F400E015E021C0021B130B1EC0DD2059
:100FC000E1F480E090EC801B910B8E159F0530F4CE
:100FD0009701281B390B00E010EC04C00E0D1F1DFB
:100FE00020E030E0CE01805095408217930718F43E
:100FF000C0E0D5E002C0C21BD30B61E0C8010E9473
:101000005A0760E0CE010E945A07DF91CF911F91ED
:101010000F91FF90EF90DF900895CF93DF93782F9B
:101020006623B9F0613029F455E0E7E0C9ECD1E07E
:1010300014C08DE390E09F938F93862F90E09F9351
:101040008F9389EC91E09F938F930E94EB0987E047
:101050006EC051E0E3E0C8ECD1E07230A1F44BB1D6
:1010600021E030E0C90102C0880F991F5A95E2F7CC
:10107000809584238BB98BB102C0220F331FEA9570
:10108000E2F7822B29C07130A1F44BB181E090E0EE
:101090009C0102C0220F331F5A95E2F7422B4BB935
:1010A0002BB102C0880F991FEA95E2F78095822341
:1010B00013C0733099F44BB121E030E0C90102C094
:1010C000880F991FEA95E2F702C0220F331F5A9545
:1010D000E2F7822B809584238BB914C0743099F485
:1010E0008BB121E030E0D90102C0AA0FBB1F5A9595
:1010F000E2F7AD0102C0220F331FEA95E2F7422B5F
:10110000482B4BB97883662311F022E501C02CE40B
:10111000888190E09F938F93822F90E09F938F938D
:101120008EE291E09F938F930E94D60988812DB71C
:101130003EB72A5F3F4F0FB6F8943EBF0FBE2DBF9C
:10114000DF91CF91089560E083E00E940D0861E097
:1011500083E00E940D0860E080E095E00E945A075D
:1011600061E080E095E00E945A0708958AB18A6A9A
:101170008AB90E94A308089560E080E090EC0E9484
:101180005A0761E080E090EC0E945A0760E081E03D
:101190000E940D0861E081E00E940D08089584B16D
:1011A0008F7284B98DB1837F8DB985B1806D85B91A
:1011B0008EB18C608EB98DB3806C8DBBECE6F0E0A7
:1011C0008081806D8083EBE6F0E080818C6080839D
:1011D00008951F920F920FB60F9211241F938F93B1
:1011E0009F9393B19095192F892F807DB9F097FF28
:1011F00006C00E9427030E94A2030E940B0414FF52
:1012000004C00E94A2030E940B0416FF17C00E9494
:101210001D030E94A2030E940B0410C083E592E00C
:101220009F938F938091EA019091EB019F938F930D
:101230000E94B9090F900F900F900F909F918F917E
:101240001F910F900FBE0F901F9018951F920F9235
:101250000FB60F9211248F939F93CF93DF938CB18E
:101260008095C82FD0E0CE018C709070892B09F446
:1012700054C0C2FF27C08091D201882329F0109268
:10128000D2010E94A30805C081E08093E40180930D
:10129000D2018091D20190E09F938F9387E992E0F1
:1012A0009F938F938091EA019091EB019F938F938D
:1012B0000E94B9098DB79EB706960FB6F8949EBFE7
:1012C0000FBE8DBFC3FF39C08091D201882329F0A2
:1012D0001092D2010E94A30806C081E08093E4012D
:1012E00082E08093D2018091D20190E09F938F930E
:1012F0008FE792E09F938F938091EA019091EB01A9
:101300009F938F930E94B9098DB79EB706960FB62B
:10131000F8949EBF0FBE8DBF10C089E692E09F93E8
:101320008F938091EA019091EB019F938F930E949C
:10133000B9090F900F900F900F90DF91CF919F916F
:101340008F910F900FBE0F901F901895A0E0B0E006
:10135000ECEAF9E00C94CF0CCE010996AC016F8158
:1013600078858D819E810E94190A2096E2E00C9476
:10137000EB0CA0E0B0E0EFEBF9E00C94CD0C0F81AA
:1013800018859E01255F3F4FF80183818860838324
:10139000A90169857A85C8010E94190AF80123818B
:1013A000277F23832096E4E00C94E90CA0E0B0E0D2
:1013B000ECEDF9E00C94CF0CFE0135966191719142
:1013C000AF018091E8019091E9010E94190A2096ED
:1013D000E2E00C94EB0CA0E0B0E0E1EFF9E00C945B
:1013E000CF0C9E012B5F3F4FF901619171919F01DD
:1013F000A091E801B091E901FD01838188608383B8
:10140000A9018091E8019091E9010E94190AE091F7
:10141000E801F091E9012381277F23832096E2E010
:101420000C94EB0C6091E8017091E9010E940E0CA4
:101430000895ABE0B0E0EFE1FAE00C94BF0C3C01A2
:101440002B015A01FC0117821682838181FD03C0A2
:101450006FEF7FEFC8C19AE0892E1E010894211C0E
:10146000311CF3012381F20123FD859123FF81913A
:101470002F01882309F4B4C1853239F423FD859105
:1014800023FF81912F01853229F4B30190E00E945E
:101490000E0CE7CF982FDD24CC249924FFE1FD1515
:1014A000D0F09B3269F09C3228F4903259F093329C
:1014B00091F40EC09D3249F0903369F441E024C0AC
:1014C00052E0D52A84E0D82A28C098E0D92A25C03D
:1014D000E0E1DE2A22C0D7FC29C0892F80538A3060
:1014E00070F4D6FE05C0989C902C1124980E15C05F
:1014F000C89CC02C1124C80EF0E2DF2A0EC09E3218
:1015000029F4D6FC6DC140E4D42A07C09C3619F4F6
:1015100050E8D52A02C0983649F4F20123FD95918E
:1015200023FF91912F01992309F0B8CF892F85547A
:10153000833018F08052833038F444E050E0A40E39
:10154000B51E5FE359830FC0933631F0933779F0BE
:10155000933509F056C020C0F5018081898342E0AF
:1015600050E0A40EB51E710101E010E012C0F501BB
:10157000E080F180D6FC03C06FEF7FEF02C0692DE1
:1015800070E042E050E0A40EB51EC7010E94030CBB
:101590008C015FE7D52214C0F501E080F180D6FC14
:1015A00003C06FEF7FEF02C0692D70E042E050E0B2
:1015B000A40EB51EC7010E94F80B8C0150E8D52A75
:1015C000D3FE07C01AC0B30180E290E00E940E0C67
:1015D000CA948C2D90E008171907A8F30EC0F701E4
:1015E000D7FC8591D7FE81917F01B30190E00E94E5
:1015F0000E0CC110CA94015010400115110579F765
:10160000ECC0943611F0993671F5D7FE08C0F5019B
:10161000E080F1800281138144E050E00AC0F501CE
:10162000808191817C010027F7FC0095102F42E01A
:1016300050E0A40EB51E5FE6D52217FF0AC0109534
:101640000095F094E094E11CF11C011D111D80E84F
:10165000D82A2AE030E0A101C801B7010E943A0C63
:10166000F82EF21840C0953729F41D2D1F7E2AE070
:1016700030E01DC01D2D197F9F3661F0903720F49A
:10168000983509F0ADC00FC0903739F0983709F0A0
:10169000A7C004C028E030E00AC0106114FD146047
:1016A00020E130E004C014FD166020E132E017FFB5
:1016B00008C0F501608171818281938144E050E02E
:1016C00008C0F50180819181BC0180E090E042E09A
:1016D00050E0A40EB51EA1010E943A0CF82EF2189B
:1016E0008FE7D82ED122D6FE0BC05EEFD522F9149B
:1016F00038F4D4FE07C0D2FC05C08FEED82202C059
:101700001F2D01C0192DD4FE0DC0FE01EF0DF11DDE
:101710008081803319F499EED92208C01F5FD2FE70
:1017200005C003C08D2D867809F01F5F0D2DD3FCF9
:1017300014C0D0FE0FC01C1510F09F2C0BC09F2CA6
:101740009C0C911A1C2D06C0B30180E290E00E940F
:101750000E0C1F5F1C15C0F304C01C1510F4C11A39
:1017600001C0CC2404FF10C0B30180E390E00E94CC
:101770000E0C02FF1EC001FD03C088E790E002C00E
:1017800088E590E0B3010CC0802F867891F001FFCE
:1017900002C08BE201C080E2D7FC8DE2B30190E091
:1017A0000E940E0C06C0B30180E390E00E940E0C74
:1017B0009A94F914C0F3FA94F101EF0DF11DB301FD
:1017C000808190E00E940E0CFF20A9F706C0B301B3
:1017D00080E290E00E940E0CCA94CC20C1F741CE6A
:1017E000F30166817781CB012B96E2E10C94DB0C4F
:1017F000FC010590615070400110D8F780959095DC
:101800008E0F9F1F0895FC016150704001900110E0
:10181000D8F7809590958E0F9F1F08950F931F9373
:10182000CF93DF938C01EB018B8181FF1BC082FF83
:101830000DC02E813F818C819D812817390764F46A
:10184000E881F9810193F983E88306C0E885F98589
:10185000802F0995892B31F48E819F8101969F837A
:101860008E8302C00FEF1FEFC801DF91CF911F9150
:101870000F910895FA01AA27283051F1203181F102
:10188000E8946F936E7F6E5F7F4F8F4F9F4FAF4F88
:10189000B1E03ED0B4E03CD0670F781F891F9A1F9B
:1018A000A11D680F791F8A1F911DA11D6A0F711D4F
:1018B000811D911DA11D20D009F468943F912AE05B
:1018C000269F11243019305D3193DEF6CF01089543
:1018D000462F4770405D4193B3E00FD0C9F7F6CF74
:1018E000462F4F70405D4A3318F0495D31FD40523C
:1018F000419302D0A9F7EACFB4E0A69597958795D2
:1019000077956795BA95C9F70097610571050895B0
:101910009B01AC010A2E069457954795379527955C
:10192000BA95C9F7620F731F841F951FA01D0895F4
:1019300097FB092E07260AD077FD04D00CD006D0DD
:1019400000201AF4709561957F4F0895F6F79095F1
:1019500081959F4F0895AA1BBB1B51E107C0AA1F89
:10196000BB1FA617B70710F0A61BB70B881F991F40
:101970005A95A9F780959095BC01CD0108952F92B5
:101980003F924F925F926F927F928F929F92AF920F
:10199000BF92CF92DF92EF92FF920F931F93CF935C
:1019A000DF93CDB7DEB7CA1BDB0B0FB6F894DEBFF3
:1019B0000FBECDBF09942A88398848885F846E8419
:1019C0007D848C849B84AA84B984C884DF80EE8063
:1019D000FD800C811B81AA81B981CE0FD11D0FB66C
:1019E000F894DEBF0FBECDBFED010895F894FFCF90
:1019F000205B202564203A202564205D2000040619
:101A000005070000000300000000CF04E004000010
:101A10000000000200000000BE04000000000A4DAB
:101A20006F746F723A202563206D6F64653A2025CC
:021A3000640050
:00000001FF
