:100000000C944E010C946B010C94B8010C943E02BC
:100010000C946B010C94EA070C9417070C942307BB
:100020000C9436070C9408070C946B010C946B012C
:100030000C946B010C946B010C946B010C946B0190
:100040000C946B010C946B010C946B010C94F303F6
:100050000C946B010C946B010C946B010A0A496EB1
:1000600076616C696420496E7465727570742045A0
:100070006E61626C65640A000A496E76616C69643F
:10008000204D6F64652E000A50494E45203A2000ED
:100090000A50494E42203A20000A504F5254443AE6
:1000A00020000A504F5254423A20000A20202020BB
:1000B0002020203736353433323130000A5768611A
:1000C0007420285B545D6573742F5B465D6F6C6CA8
:1000D0006F77293A20000A3A20496E69743A204421
:1000E0006F6E650A0A000A5B64656275675D205081
:1000F000423F2052656C6561736564000A5B64650C
:100100006275675D205570000A5B64656275675DA6
:1001100020496E000A5B64656275675D20446F77F5
:100120006E20000A5B64656275675D2050453F2064
:1001300052656C6561736564000A5B64656275672E
:100140005D205269676874000A5B64656275675D6B
:10015000204C65667400095B646F6E655D000A6122
:1001600064633A20696E69743A207365747570200F
:10017000636F6E76657274696F6E73000A61646393
:100180003A20696E6974000A5B64656275675D2078
:100190005761726E696E673A20756E696D706C6931
:1001A0006D656E7465642066756E6374696F6E202C
:1001B0006164635F63616C6962726174655F7374CB
:1001C0006F72652063616C6C6564000A5B646562D4
:1001D00075675D20414443204F4646534554533A8A
:1001E00020000A5B64656275675D20464958454496
:1001F000204144433A20000A5B64656275675D20D4
:100200002020524157204144433A20000A7573612F
:1002100072743A20696E6974207573617274300962
:100220005B646F6E655D000A74696D6572733A2078
:10023000696E69743A095B646F6E655D000A746982
:100240006D6572733A20696E69743A2073746172D5
:10025000742E00095B646F6E655D000A74696D65DC
:1002600072733A20696E69743A2074696D657231EF
:1002700000095B646F6E655D000A74696D65727379
:100280003A20696E69743A2074696D657232006350
:1002900064696E6F70737578585B000011241FBE1F
:1002A000CFEFD4E0DEBFCDBF11E0A0E0B1E0E2E1EE
:1002B000FEE102C005900D92A236B107D9F712E017
:1002C000A2E6B1E001C01D92A830B107E1F70E949B
:1002D000C8020C94070F0C948E0180E090E020E897
:1002E0000FB6F89420936100809361000FBE0895CB
:1002F00084B18F7284B98DB1837F8DB985B1806DE2
:1003000085B98EB18C608EB9089580EC8DBB80ED7F
:1003100080936C008CE080936B0008951F920F9285
:100320000FB60F9211242F933F934F935F936F93C8
:100330007F938F939F93AF93BF93EF93FF938CE53E
:1003400090E09F938F930E94E1080F900F90FF9190
:10035000EF91BF91AF919F918F917F916F915F913D
:100360004F913F912F910F900FBE0F901F901895B6
:100370001F920F920FB60F9211242F933F934F931A
:100380005F936F937F938F939F93AF93BF93CF931D
:10039000DF93EF93FF938CB18095C82FD0E0CE010F
:1003A0008C709070892B79F0C2FF08C088E491E0CE
:1003B0009F938F930E94E1080F900F90C3FF0BC093
:1003C00089E391E002C083E291E09F938F930E94C2
:1003D000E1080F900F90FF91EF91DF91CF91BF91C6
:1003E000AF919F918F917F916F915F914F913F91CD
:1003F0002F910F900FBE0F901F901895F894E4E680
:10040000F0E080818061808380818460808380E0EF
:1004100090E020E80FB6F89420936100809361008B
:100420000FBE80EC8DBB80ED80936C008CE08093E0
:100430006B000E94DF0684B18F7284B98DB1837F17
:100440008DB985B1806D85B98EB18C608EB90E94F1
:1004500042040E94D5078AB18A6A8AB981E00E9463
:10046000A30881E00E947A08789486ED90E09F933B
:100470008F930E94E1080F900F9008951F920F92A2
:100480000FB60F9211241F932F933F934F935F93B7
:100490006F937F938F939F93AF93BF93EF93FF934C
:1004A00093B19095192F892F807D69F197FF0EC028
:1004B00084E191E09F938F930E94E1080E94B90428
:1004C0000E9434050E947F050F900F9014FF0CC00E
:1004D00088E091E09F938F930E94E1080E94340589
:1004E0000E947F050F900F9016FF15C08CEF90E0D3
:1004F0009F938F930E94E1080E94D4030E943405C9
:100500000E947F0506C086EE90E09F938F930E9425
:10051000E1080F900F90FF91EF91BF91AF919F91E4
:100520008F917F916F915F914F913F912F911F918B
:100530000F900FBE0F901F901895EF92FF920F93A0
:100540001F93CF93DF93C7E0D0E091E0E92EF12C29
:10055000082F10E0C7010C2E02C0880F991F0A94C3
:10056000E2F7802391230C2E02C0959587950A947B
:10057000E2F7C0960E94070921978FEFCF3FD80777
:1005800049F7DF91CF911F910F91FF90EF90089560
:100590006F927F928F929F92AF92BF92CF92DF9293
:1005A000EF92FF920F931F93DF93CF930F92CDB7EC
:1005B000DEB70E94FE0180E090E00E94310880E0FA
:1005C00090E00E9438080CEBA02E00E0B02E6E01E7
:1005D0000894C11CD11C10E0E12E11E0F12E08E7B7
:1005E00010E0BF92AF920E94E108DF92CF92FF929B
:1005F000EF920E940E0989812DB73EB72A5F3F4FC7
:100600000FB6F8943EBF0FBE2DBF863409F062C00E
:10061000B3E08B2EB1E09B2EABE0AA2EA1E0BA2E68
:10062000F8ECCF2ED12C0E9421088C010E942908C1
:100630007C011F930F939F928F920E94CC08FF9290
:10064000EF92BF92AF920E94CC080E947F0580E09B
:100650000E94C3038C0181E00E94C3037C01EE0C65
:10066000FF1CEE0CFF1CE80EF91EE00EF11E83E0ED
:100670000E94C3038C0182E00E94C3039C01220FED
:10068000331F220F331F280F391F200F311F8DB743
:100690009EB708960FB6F8949EBF0FBE8DBF2E155D
:1006A0003F0528F484E690E00E943F080AC0E21665
:1006B000F30628F484E690E00E94540802C00E94E9
:1006C000690888E59BE1F6013197F1F7019709F494
:1006D000AACFF9CF843509F04DC081E00E94A3086C
:1006E00081E00E947A086BEA662E60E0762E52EA7C
:1006F000852E50E0952E49E9A42E40E0B42E30E935
:10070000C32E30E0D32E27E8E22E20E0F22E08ECB4
:1007100010E07F926F920E94E1089F928F920E9458
:10072000E10885B10E949D02BF92AF920E94E1084C
:100730008BB10E949D02DF92CF920E94E10883B1AB
:100740000E949D02FF92EF920E94E1088CB10E94EC
:100750009D0288E59BE12DB73EB7265F3F4F0FB660
:10076000F8943EBF0FBE2DBFF8013197F1F7019706
:10077000D9F7CFCF1F930F930E94E1080F900F90EE
:1007800030CF862F0895E82FF0E0EE0FFF1FDF0136
:10079000A751BE4FEF50FE4F208131818D919C912A
:1007A000280F391FC90108951092F2011092F1012A
:1007B0001092F4011092F3011092F6011092F501DB
:1007C0001092F8011092F701109262010895ACE7BF
:1007D000B0E09C91E1E2F1E0E80FF11D907E8081B4
:1007E000982B9C9308951F920F920FB60F9211248D
:1007F0002F933F934F938F939F93AF93BF93EF9319
:10080000FF9340917800309179002091F9012223E3
:1008100011F4E3E002C0E22FE150F0E0EE0FFF1F21
:10082000DF01A751BE4F932F80E0840F911D8D9360
:100830009C93E650FE4F8081918101969183808345
:10084000822F8F5F8093F901843010F01092F901AC
:1008500080917C00E091F901F0E0EF5DFE4F807E39
:100860009081892B80937C00FF91EF91BF91AF9194
:100870009F918F914F913F912F910F900FBE0F90AD
:100880001F901895EF92FF920F931F938CE791E0C2
:100890009F938F930E94E108E4E6F0E080818E7FD1
:1008A00080830CE710E0F801808180648083808180
:1008B0008F7780832AE7E22EF12CF7018081886A06
:1008C00080838081887F86608083EBE7F0E0808191
:1008D000806880838081887F8083EEE7F0E080817C
:1008E000806F808383B7817F826083BF8EE591E0D4
:1008F0009F938F930E94E1082091F901F801808174
:10090000A1E2B1E0FD01E20FF11D807E9081892B13
:10091000F8018083F70180818064808380E090E02B
:100920000197F1F72F5F2093F901F8018081A20F61
:10093000B11D807E9C91892B808386E591E09F93F9
:100940008F930E94E1088DB79EB706960FB6F89474
:100950009EBF0FBE8DBF1F910F91FF90EF90089526
:1009600087E891E09F938F930E94E1080F900F908A
:100970000895CF92DF92EF92FF920F931F93DF9330
:10098000CF93CDB7DEB760970FB6F894DEBF0FBE3A
:10099000CDBFDE011996E9EEF1E088E001900D92FD
:1009A0008150E1F749855A8520E030E08E010F5FE4
:1009B0001F4FBE01675F7F4FD801A20FB31FFB011E
:1009C000E20FF31F80819181FA01E81BF90BED938F
:1009D000FC932E5F3F4F2830310571F78091620103
:1009E0009E012F5F3F4F882349F4A1EFB1E0F90149
:1009F00088E001900D928150E1F722C0E1EFF1E033
:100A00007901082F10E068010894C11CD11C808175
:100A100091819C01029FC001039F900D129F900D38
:100A20001124D7012D913D917D01820F931FB601B5
:100A30000E949E0E61937193B1E0E93FFB0739F785
:100A4000809162018F5F8093620160960FB6F89487
:100A5000DEBF0FBECDBFCF91DF911F910F91FF90F1
:100A6000EF90DF90CF9008950F931F938BEC91E060
:100A70009F938F930E94E1088091F1019091F20180
:100A80009F938F931F921F9203E111E01F930F9387
:100A90000E94CC088091F3019091F4019F938F9371
:100AA00081E090E09F938F931F930F930E94CC0857
:100AB0008091F5019091F6019F938F9382E090E0F1
:100AC0009F938F931F930F930E94CC088091F701FF
:100AD0009091F8019F938F9383E090E09F938F9381
:100AE0001F930F930E94CC088DB79EB74A960FB6FE
:100AF000F8949EBF0FBE8DBF1F910F910895CF92A6
:100B0000DF92EF92FF920F931F93CF93DF9387EFC4
:100B100091E09F938F930E94E1088091E901909169
:100B2000EA019F938F931F921F9203E111E01F939D
:100B30000F930E94CC088091EB019091EC019F9360
:100B40008F9381E090E09F938F931F930F930E9468
:100B5000CC088091ED019091EE019F938F9382E0FC
:100B600090E09F938F931F930F930E94CC088091E6
:100B7000EF019091F0019F938F9383E090E09F931A
:100B80008F931F930F930E94CC0882EE91E09F9366
:100B90008F930E94E10849EEC42E41E0D42E31EF3C
:100BA000E32E31E0F32EC0E0D0E08DB79EB74C9637
:100BB0000FB6F8949EBF0FBE8DBFF7018191919142
:100BC0007F01F601219131916F01820F931F9F9355
:100BD0008F93DF93CF931F930F930E94CC0821969E
:100BE0008DB79EB706960FB6F8949EBF0FBE8DBF09
:100BF000C430D10511F7DF91CF911F910F91FF9074
:100C0000EF90DF90CF9008951F93182F8A3019F43A
:100C10008DE00E9404068091C00085FFFCCF1093F8
:100C2000C60080E090E01F910895EF92FF920F932D
:100C30001F93CF93DF937C018091630190916401B6
:100C4000892B09F0A0C005E611E08091C00087FF64
:100C5000FCCF8091C00084FF03C02EEF3FEFA7C000
:100C60008091C00083FDA1C09091C6009D3011F01D
:100C70009A3069F48AE0F8018083B7010E94040683
:100C800085E691E090936401809363017CC0993084
:100C900009F490E2892F80528F3510F0903A78F065
:100CA000F1E0033E1F0719F4B70187E005C0F80122
:100CB00091938F01B701892F0E940406C6CF92310C
:100CC00039F1933138F4933009F46FC0983009F05A
:100CD000BCCF09C0973109F44BC09F3721F0953143
:100CE00009F0B3CF32C0F1E005361F0709F008F470
:100CF000ACCFB70188E00E940406B70180E20E94F1
:100D00000406B70188E00E940406015010409DCF00
:100D1000B7018DE00E940406C5E6D1E004C0B7012A
:100D200089910E940406C017D107C8F38ECFB7017E
:100D300088E00E940406B70180E20E940406B70121
:100D400088E00E9404060150104081E00536180733
:100D500009F068F77ACFB70188E00E940406B7016E
:100D600080E20E940406B70188E00E9404068E011A
:100D7000E1E005361E0709F008F467CFE8018A9123
:100D8000803249F762CFE0916301F0916401819173
:100D9000F0936401E09363018A3021F410926401BE
:100DA00010926301282F30E002C02FEF3FEFC901FE
:100DB000DF91CF911F910F91FF90EF900895E4E69E
:100DC000F0E080818D7F808389E190E09093C50081
:100DD0008093C400E0ECF0E080818D7F808388E127
:100DE0008093C10086E08093C20085E291E09093F9
:100DF00003028093020290930502809304028CE028
:100E000092E09F938F930E94E1080F900F900895B6
:100E10001F920F920FB60F9211248F9381E080934F
:100E2000E6018F910F900FBE0F901F9018951F92A3
:100E30000F920FB60F9211241092E6010F900FBE81
:100E40000F901F9018951F920F920FB60F921124BA
:100E50008F938091E601882311F42A9801C02A9A81
:100E60008F910F900FBE0F901F9018951F920F92A9
:100E70000FB60F9211248F938091E601882311F40D
:100E80002B9801C02B9A8F910F900FBE0F901F903F
:100E900018958BE592E09F938F930E94E108E0E81C
:100EA000F0E080818F70808380818C7F8083E1E897
:100EB000F0E0808180628083808180618083808196
:100EC000877F80838081806880832FB7F8948FEF3D
:100ED0009FEF90938700809386002FBFE1E8F0E0BA
:100EE0008081897F8083808181608083EFE6F0E06C
:100EF0008081887D808384B18C6084B983E592E0B1
:100F00009F938F930E94E1080F900F900F900F9086
:100F1000089589E792E09F938F930E94E108809162
:100F200070008C7F809370008091B6008F7E8093DC
:100F3000B6008091B60088608093B6001092B2002F
:100F40008091B0008F778093B0008091B000877B54
:100F50008093B0008091B0008F7C8093B00080912E
:100F6000B00085608093B0008091B0008D7F809349
:100F7000B0000F900F908091B60082FDFCCF809161
:100F8000B60081FDFCCF8091B60080FDFCCF809142
:100F9000700081608093700081E792E09F938F934F
:100FA0000E94E1080F900F9008958DE392E09F93C7
:100FB0008F930E94E1080E9449070E94890787E2F7
:100FC00092E09F938F930E94E1080F900F900F90F3
:100FD0000F9008951F920F920FB60F9211242F9326
:100FE0003F934F935F936F937F938F939F93AF93B1
:100FF000BF93EF93FF938091E4019091E5010196F7
:101000009093E5018093E4019F938F9383E391E0B4
:101010009F938F930E94CC080F900F900F900F908A
:10102000FF91EF91BF91AF919F918F917F916F91C0
:101030005F914F913F912F910F900FBE0F901F9096
:101040001895F89420918800309189007894C9010E
:101050000895F89420918A0030918B007894C9010A
:101060000895F89490938900809388007894089567
:10107000F89490938B0080938A0078940895F89464
:1010800020918800309189007894F89440918A00EA
:1010900050918B007894280F391FF8943093890071
:1010A0002093880078940895F894209188003091D6
:1010B00089007894F89420918A0030918B0078947C
:1010C000280F391FF89430938B0020938A0078946E
:1010D0000895F8948FEF9FEF909389008093880094
:1010E0007894F8948FEF9FEF90938B0080938A0011
:1010F00078940895982F823019F45D985F9A0FC004
:10110000813019F45D9A5F980AC0833019F48BB16D
:101110008F7504C0843029F48BB1806A8BB99093A9
:10112000E7018091E70190E09F938F938DE391E039
:101130009F938F930E94CC080F900F900F900F9069
:101140008091E7010895982F823019F459985B9A9D
:101150000FC0813019F4599A5B980AC0833019F492
:101160008BB1857F04C0843029F48BB18A608BB940
:101170009093E8018091E80190E09F938F938FE432
:1011800091E09F938F930E94CC080F900F900F9047
:101190000F908091E8010895A0E0B0E0E2EDF8E062
:1011A0000C94E00EFE01359661917191AF01809132
:1011B0000402909105020E9423092096E2E00C941B
:1011C000FC0EA0E0B0E0E7EEF8E00C94E00EFE01CB
:1011D000359661917191A0910402B0910502139628
:1011E0008C911397886013968C93AF0180910402C1
:1011F000909105020E942309E0910402F0910502FA
:101200002381277F23832096E2E00C94FC0E6091DB
:101210000402709105020E94FA0D0895A0E0B0E06A
:10122000E4E1F9E00C94E00EFE01359661917191D4
:10123000AF0180910202909103020E94860C2096D9
:10124000E2E00C94FC0EABE0B0E0E9E2F9E00C94D3
:10125000D00E3C012B015A01FC01178216828381BA
:1012600081FD03C06FEF7FEFC8C19AE0892E1E0198
:101270000894211C311CF3012381F20123FD859187
:1012800023FF81912F01882309F4B4C1853239F4F9
:1012900023FD859123FF81912F01853229F4B3012C
:1012A00090E00E94FA0DE7CF982FDD24CC249924FA
:1012B000FFE1FD15D0F09B3269F09C3228F49032AA
:1012C00059F0933291F40EC09D3249F0903369F495
:1012D00041E024C052E0D52A84E0D82A28C098E012
:1012E000D92A25C0E0E1DE2A22C0D7FC29C0892FF7
:1012F00080538A3070F4D6FE05C0989C902C11243F
:10130000980E15C0C89CC02C1124C80EF0E2DF2A2C
:101310000EC09E3229F4D6FC6DC140E4D42A07C029
:101320009C3619F450E8D52A02C0983649F4F201E7
:1013300023FD959123FF91912F01992309F0B8CFB7
:10134000892F8554833018F08052833038F444E07C
:1013500050E0A40EB51E5FE359830FC0933631F001
:10136000933779F0933509F056C020C0F50180819C
:10137000898342E050E0A40EB51E710101E010E047
:1013800012C0F501E080F180D6FC03C06FEF7FEF63
:1013900002C0692D70E042E050E0A40EB51EC70106
:1013A0000E94AD0D8C015FE7D52214C0F501E080ED
:1013B000F180D6FC03C06FEF7FEF02C0692D70E0B3
:1013C00042E050E0A40EB51EC7010E94A20D8C01A0
:1013D00050E8D52AD3FE07C01AC0B30180E290E0DE
:1013E0000E94FA0DCA948C2D90E008171907A8F3F3
:1013F0000EC0F701D7FC8591D7FE81917F01B30123
:1014000090E00E94FA0DC110CA94015010400115DD
:10141000110579F7ECC0943611F0993671F5D7FEC5
:1014200008C0F501E080F1800281138144E050E0C2
:101430000AC0F501808191817C010027F7FC0095AD
:10144000102F42E050E0A40EB51E5FE6D52217FF34
:101450000AC010950095F094E094E11CF11C011D68
:10146000111D80E8D82A2AE030E0A101C801B701A7
:101470000E94400EF82EF21840C0953729F41D2D19
:101480001F7E2AE030E01DC01D2D197F9F3661F0C0
:10149000903720F4983509F0ADC00FC0903739F07F
:1014A000983709F0A7C004C028E030E00AC01061F6
:1014B00014FD146020E130E004C014FD166020E14A
:1014C00032E017FF08C0F50160817181828193814C
:1014D00044E050E008C0F50180819181BC0180E0CA
:1014E00090E042E050E0A40EB51EA1010E94400E23
:1014F000F82EF2188FE7D82ED122D6FE0BC05EEF61
:10150000D522F91438F4D4FE07C0D2FC05C08FEE02
:10151000D82202C01F2D01C0192DD4FE0DC0FE011E
:10152000EF0DF11D8081803319F499EED92208C0A6
:101530001F5FD2FE05C003C08D2D867809F01F5FA6
:101540000D2DD3FC14C0D0FE0FC01C1510F09F2C25
:101550000BC09F2C9C0C911A1C2D06C0B30180E27D
:1015600090E00E94FA0D1F5F1C15C0F304C01C150B
:1015700010F4C11A01C0CC2404FF10C0B30180E3F1
:1015800090E00E94FA0D02FF1EC001FD03C088E733
:1015900090E002C088E590E0B3010CC0802F86780F
:1015A00091F001FF02C08BE201C080E2D7FC8DE226
:1015B000B30190E00E94FA0D06C0B30180E390E011
:1015C0000E94FA0D9A94F914C0F3FA94F101EF0D08
:1015D000F11DB301808190E00E94FA0DFF20A9F770
:1015E00006C0B30180E290E00E94FA0DCA94CC20BC
:1015F000C1F741CEF30166817781CB012B96E2E101
:101600000C94EC0EFC0120FD08C023FD05C022FF58
:1016100002C073836283518340830895EF92FF92E7
:101620000F931F9344FF02C033E011C046FF02C076
:1016300034E00DC0DB01FC01AA0FBB1FEE1FFF1F32
:101640001094D1F76A0F7B1F8E1F9F1F31E0660F2A
:10165000771F881F991F3150D1F77B018C01E20E53
:10166000F11C011D111DA8019701B701CA011F91AD
:101670000F91FF90EF9008950F931F93CF93DF93F7
:101680008C01C8010E94B80DEC0197FD08C00E94B2
:10169000C50E892BB1F7B801CE010E94260ECE01EE
:1016A000DF91CF911F910F910895A0E0B0E0EBE59D
:1016B000FBE00C94D80EEC01C62E5A01122F0E94AA
:1016C000B80DAC018B3219F08D3251F41068CA9408
:1016D00009F46DC0CE010E94B80DAC0197FD67C042
:1016E0006DEFD62ED1228D2D807301F54033F1F4AC
:1016F000CA9409F447C0CE010E94B80DAC0197FD11
:1017000041C082E0D82A483711F0483559F480E4C6
:10171000D82ACA94B9F1CE010E94B80DAC01992320
:101720002CF430C0D6FC02C080E1D82AEE24FF247D
:101730008701242F2053283088F0D4FC09C02A3098
:1017400068F0D6FE05C02F7D822F8151863028F0AB
:10175000BE01CA010E94260E12C027504D2DC8019D
:10176000B7010E940E0B7B018C0182E0D82ACA943B
:1017700061F0CE010E94B80DAC0197FFDACFD1FC29
:1017800004C015C0EE24FF248701D7FE08C01095C1
:101790000095F094E094E11CF11C011D111D2D2D0C
:1017A000B801A701C5010E94020B81E001C080E0E1
:1017B000CDB7DEB7EAE00C94F40EA0E2B0E0E3EEC1
:1017C000FBE00C94D40E6C01A62E8A017901FE0177
:1017D000319680E2DF011D928A95E9F770E030E0F2
:1017E00060E040E050E04F01A1E0B0E0F60183810D
:1017F000F70183FD259183FF21917F01222309F4C5
:101800007EC02E3519F44115510569F1872F90E0FE
:101810008417950744F42D3551F12D3221F43323EB
:1018200029F431E021C0332309F4622F322F832FB2
:10183000869586958695F401E80FF11D832F8770B4
:101840003D0102C0660C771C8A95E2F720812629AB
:101850002083361711F430E007C0361710F43F5FCD
:10186000E6CF3150E4CF71E04F5F5F4FBFCF3323FE
:1018700019F08E8180628E83772359F0FE013196B4
:101880009E012F5D3F4F808180958193E217F30782
:10189000D1F7BB24B3944E010894811C911CC6015E
:1018A0000E94B80DAC0197FD22C08695869586955D
:1018B000F401E80FF11D808190E09A0127703070EB
:1018C00002C0959587952A95E2F780FD05C0B6017F
:1018D000CA010E94260E0BC00115110519F0D8018E
:1018E0004D938D01AA94BB24AA20C9F602C0BB2047
:1018F00031F40115110529F0F801108202C0EE241F
:10190000FF24C701A096EEE00C94F00EA0E0B0E03A
:10191000ECE8FCE00C94D40E5C016B013A01FC0194
:10192000178216828824EAC0812F90E00E94C50E9B
:10193000892B21F0C5010E943C0BE0C0153249F40F
:10194000F601F3FC6591F3FE61916F01653269F474
:1019500015E2C5010E94B80D97FDDCC0181709F407
:10196000CDC0B5010E94260EDAC06A3219F0162FDA
:1019700000E006C0F3FC1591F3FE11916F0101E048
:1019800099240FC00260692D70E080E090E040E291
:101990000E940E0B962EF601F3FC1591F3FE1191A9
:1019A0006F01212F20532A3068F301FD03C09924D1
:1019B0009A9403C0992009F4B2C0183621F01C365D
:1019C00099F4F6010BC0F601F3FC6591F3FE619109
:1019D000683619F06F01162F07C008600460F3FC29
:1019E0001591F3FE11916F01112309F498C0612F35
:1019F00070E08FE892E00E94970D892B09F48FC068
:101A0000802F00FF03C0EE24FF2407C0F301E08015
:101A1000F18022E030E0620E731E1E3651F4F501B3
:101A20004681578160E070E0202FC7010E94020BC1
:101A300065C0133691F481FD02C099249394C501C9
:101A40000E94B80D97FD66C0E114F10419F0F7018A
:101A500081937F019A9499F74FC01B3559F49601F1
:101A6000A701692DC5010E94DD0B6C01009709F0EB
:101A700043C03DC0C5010E943C0B97FD4BC01F36C3
:101A800059F1103728F4143629F1193639F527C0E1
:101A9000133719F0153711F51DC0C5010E94B80D97
:101AA000EC0197FD11C00E94C50E892B29F0B501EC
:101AB000CE010E94260E08C0E114F10419F0F701CE
:101AC000C1937F019A9449F7E114F104A9F0F70159
:101AD000108212C0006203C0006101C00064202FA8
:101AE000A701692DC5010E94550B882329F4F50132
:101AF0008381807379F413C000FF8394F501F38030
:101B0000F601F3FC1591F3FE11916F01112309F019
:101B10000BCF05C0882019F42FEF3FEF02C0282D0E
:101B200030E0C901CDB7DEB7EEE00C94F00EFC0159
:101B30000590061621F00020D9F7C00108953197CD
:101B4000CF010895FC010590615070400110D8F755
:101B5000809590958E0F9F1F0895FC0161507040F5
:101B600001900110D8F7809590958E0F9F1F0895D2
:101B7000CF93DF93EC014B8140FF1AC046FF0AC0B0
:101B80004F7B4B838E819F8101969F838E838A81B9
:101B9000282F2BC042FF13C0E881F9818081282FB4
:101BA000332727FD30952115310529F440624B83F9
:101BB0002FEF3FEF1BC03196F983E88311C0EA8510
:101BC000FB85CE0109959C0197FF0AC09B812F5F81
:101BD0003F4F11F080E201C080E1892B8B83E8CF79
:101BE0008E819F8101969F838E8330E0C901DF91B2
:101BF000CF9108950F931F93CF93DF938C01EB0147
:101C00008B8181FF1BC082FF0DC02E813F818C81A3
:101C10009D812817390764F4E881F9810193F983DC
:101C2000E88306C0E885F985802F0995892B31F472
:101C30008E819F8101969F838E8302C00FEF1FEFDD
:101C4000C801DF91CF911F910F9108959C01FB0175
:101C5000838180FF11C086FD0FC09FEF2F3F3907A2
:101C600059F0228380648F7D8383868197810197D9
:101C70009783868330E002C02FEF3FEFC9010895BC
:101C8000FA01AA27283051F1203181F1E8946F93AD
:101C90006E7F6E5F7F4F8F4F9F4FAF4FB1E03ED053
:101CA000B4E03CD0670F781F891F9A1FA11D680FF1
:101CB000791F8A1F911DA11D6A0F711D811D911D24
:101CC000A11D20D009F468943F912AE0269F112499
:101CD0003019305D3193DEF6CF010895462F4770FD
:101CE000405D4193B3E00FD0C9F7F6CF462F4F7058
:101CF000405D4A3318F0495D31FD4052419302D0B6
:101D0000A9F7EACFB4E0A69597958795779567955B
:101D1000BA95C9F700976105710508959B01AC015B
:101D20000A2E06945795479537952795BA95C9F782
:101D3000620F731F841F951FA01D089597FB092E26
:101D400007260AD077FD04D00CD006D000201AF464
:101D5000709561957F4F0895F6F7909581959F4F07
:101D60000895AA1BBB1B51E107C0AA1FBB1FA617E2
:101D7000B70710F0A61BB70B881F991F5A95A9F734
:101D800080959095BC01CD010895911106C08032D7
:101D900019F089508550D0F708959927882708951C
:101DA0002F923F924F925F926F927F928F929F926B
:101DB000AF92BF92CF92DF92EF92FF920F931F9359
:101DC000CF93DF93CDB7DEB7CA1BDB0B0FB6F8940A
:101DD000DEBF0FBECDBF09942A88398848885F844A
:101DE0006E847D848C849B84AA84B984C884DF80BB
:101DF000EE80FD800C811B81AA81B981CE0FD11D9F
:101E00000FB6F894DEBF0FBECDBFED010895F89474
:021E1000FFCF02
:101E12002563000A4D4C3A202558000A4D523A20BB
:101E2200255800205B202564203A202564205D206F
:101E32000004060507000000030000000004061568
:101E42000600000A09543A202564730A006D6F7473
:101E52006F722052206D6F64653A2025640A006D0E
:101E62006F746F72204C206D6F64653A2025640A8E
:021E720000006E
:00000001FF
