:100000000C94FB000C9418010C9418010C9418012A
:100010000C9418010C9418010C9418010C941801FC
:100020000C9418010C9418010C9418010C941801EC
:100030000C9418010C94810F0C94B40F0C94A20E24
:100040000C944E0F0C94E80E0C941B0F0C9418019A
:100050000C946F0E0C9418010C9418010C94160E4D
:100060000C9418010C94CD090C9418010C942109DE
:100070000C9418010C9418020C9418010C9418019B
:100080000C9418010C9418010C9418010C9418018C
:100090000C94F8090C9418010C944C090C94180158
:1000A0000C9418010C9418010C9418010C9418016C
:1000B0000C9418010C9418010C9418010C9418015C
:1000C0000C9418010C9418010C9418010C94230A38
:1000D0000C9418010C9477090C944E0A0C94180196
:1000E0000C94A20900000100080040000001000477
:1000F0000000010008002000400080000001000412
:10010000303132333435363738394142434445464D
:10011000004C5F53656E736F723D25642C204C5FFD
:10012000776865656C3D256425642C20525F5365B6
:100130006E736F723D25642C20525F776865656C25
:100140003D256425640D0A00203300203200203153
:100150000020300020330020320020310020300009
:10016000203300203200203000383A256420393A0C
:1001700025642031303A25642031313A256420311C
:10018000323A25642031333A25642031343A2564EB
:100190002031353A2564200D0A00303A256420319B
:1001A0003A256420323A256420333A256420343AD3
:1001B000256420353A256420363A256420373A25CF
:1001C00064200D0A00496E697469616C697A617412
:1001D000696F6E20436F6D706C657465200D0A0049
:1001E0002E000D0A53797374656D205761726D6925
:1001F0006E672055700011241FBECFEFD1E2DEBF25
:10020000CDBF12E0A0E0B2E0EAE7FBE302C0059058
:100210000D92A639B107D9F715E0A6E9B2E001C001
:100220001D92AF34B107E1F70E94B61C0C94BB1DC0
:100230000C940000DF93CF93CDB7DEB7AAE7B0E010
:10024000EAE7F0E0808180688C93AAE7B0E0EAE713
:10025000F0E080818F7D8C9386E00E945B0181E0DD
:100260000E946F01ACE7B0E0ECE7F0E080818F7DA9
:100270008C93AAE7B0E0EAE7F0E0808188608C9395
:100280001092F2047894CF91DF910895DF93CF9389
:10029000CDB7DEB7AAE7B0E0EAE7F0E08081877F7C
:1002A0008C93AAE7B0E0EAE7F0E080818F778C9347
:1002B000CF91DF910895DF93CF930F92CDB7DEB743
:1002C0008983AAE7B0E0EAE7F0E08081982F987F81
:1002D0008981892B8C930F90CF91DF910895DF93C3
:1002E000CF930F92CDB7DEB78983ACE7B0E0ECE7F0
:1002F000F0E08081282F2F738981882F90E00024DF
:10030000969587950794969587950794982F802DB5
:10031000822B8C930F90CF91DF910895DF93CF9331
:100320000F92CDB7DEB78983ACE7B0E0ECE7F0E041
:100330008081982F907E89818F71892B8C930F906B
:10034000CF91DF910895DF93CF93CDB7DEB7AAE7C2
:10035000B0E0EAE7F0E0808180618C93AAE7B0E04A
:10036000EAE7F0E0808180648C93CF91DF9108957B
:10037000DF93CF93CDB7DEB7EAE7F0E080818074FA
:10038000CF91DF910895DF93CF930F92CDB7DEB772
:1003900089831092F2048981883040F0ABE7B0E0A5
:1003A000EBE7F0E0808188608C9307C0ABE7B0E0BA
:1003B000EBE7F0E08081877F8C93ACE7B0E0ECE77F
:1003C000F0E08081982F987F89818770892B8C93AA
:1003D000AAE7B0E0EAE7F0E0808180618C93AAE7C9
:1003E000B0E0EAE7F0E0808180648C93EAE7F0E037
:1003F0008081882F90E0807490700097B9F7E8E7CB
:10040000F0E0808191810F90CF91DF910895DF938B
:10041000CF930F92CDB7DEB7898389810E94C30144
:1004200096958795969587950F90CF91DF91089532
:100430001F920F920FB60F9211248F93DF93CF93D9
:10044000CDB7DEB78FEF8093F204CF91DF918F911C
:100450000F900FBE0F901F901895DF93CF93CDB7DD
:10046000DEB727970FB6F894DEBF0FBECDBF9B83D4
:100470008A837D836C835F834E83EFE5F0E0808128
:100480008983F894EA81FB818C819D8191838083AB
:10049000EA81FB818E819F8193838283EA81FB8144
:1004A00017821682EA81FB8115821482EFE5F0E063
:1004B0008981808327960FB6F894DEBF0FBECDBF2B
:1004C000CF91DF910895DF93CF9300D000D0CDB7C7
:1004D000DEB79C838B831A82EFE5F0E0808189830D
:1004E000F894EB81FC81848195810097D1F1EB81B7
:1004F000FC8120813181EB81FC8186819781F9012A
:10050000E80FF91F80818A83EB81FC8186819781C6
:100510000196EB81FC8197838683EB81FC812681A8
:100520003781EB81FC81828193812817390780F024
:10053000EB81FC8126813781EB81FC818281938173
:10054000A901481B590BCA01EB81FC819783868363
:10055000EB81FC81848195810197EB81FC819583FE
:100560008483EFE5F0E0898180838A810F900F908A
:100570000F900F90CF91DF910895DF93CF9300D02C
:1005800000D00F92CDB7DEB79B838A837D836C83C7
:10059000EFE5F0E080818983F894EA81FB81248192
:1005A00035818C819D8182179307B0F5EA81FB81AB
:1005B000268137818C819D81820F931FEA81FB8187
:1005C00097838683EA81FB8126813781EA81FB81DB
:1005D000828193812817390780F0EA81FB81268187
:1005E0003781EA81FB8182819381A901481B590BE4
:1005F000CA01EA81FB8197838683EA81FB8124819A
:1006000035818C819D81A901481B590BCA01EA8162
:10061000FB819583848304C0EA81FB811582148267
:10062000EFE5F0E0898180830F900F900F900F909D
:100630000F90CF91DF9108950F931F93DF93CF9386
:1006400000D000D000D0CDB7DEB79C838B837E83F3
:100650006D83EFE5F0E080818A83F894EB81FC8183
:1006600000811181EB81FC81268137818D819E8102
:10067000820F931FEB81FC8122813381B9010E949B
:10068000571DF801E80FF91F80818983EFE5F0E03D
:100690008A818083898126960FB6F894DEBF0FBECB
:1006A000CDBFCF91DF911F910F9108950F931F93AD
:1006B000DF93CF9300D000D00F92CDB7DEB79B83EE
:1006C0008A836C83EFE5F0E080818983F894EA8186
:1006D000FB8124813581EA81FB8182819381281706
:1006E000390750F5EA81FB8100811181EA81FB81A4
:1006F00026813781EA81FB8184819581820F931F56
:10070000EA81FB8122813381B9010E94571DF801E2
:10071000E80FF91F8C818083EA81FB8184819581B8
:100720000196EA81FB8195838483EFE5F0E089817E
:1007300080838FEF8D8305C0EFE5F0E089818083B2
:100740001D828D810F900F900F900F900F90CF9181
:10075000DF911F910F910895DF93CF9300D000D0C8
:100760000F92CDB7DEB79D838C83EFE5F0E08081FB
:100770008B83F894EC81FD8122813381EC81FD81B2
:1007800084819581A901481B590BCA019A838983E9
:10079000EFE5F0E08B81808389819A810F900F9043
:1007A0000F900F900F90CF91DF910895DF93CF932B
:1007B00000D00F92CDB7DEB79B838A83EFE5F0E0E0
:1007C00080818983F894EA81FB8115821482EFE5A8
:1007D000F0E0898180830F900F900F90CF91DF918F
:1007E0000895DF93CF93CDB7DEB70E9400040E9437
:1007F00022040E9444040E946604CF91DF91089570
:10080000DF93CF93CDB7DEB70E9488041092D70450
:100810001092D604E1ECF0E088ED808340E855E2E8
:1008200060E070E080E00E9412058FEF8093F30497
:100830001092170510923C0510923B057894CF91C9
:10084000DF910895DF93CF93CDB7DEB70E94A30465
:100850001092D9041092D804E9ECF0E088ED80837E
:1008600040E855E260E070E081E00E9412058FEF01
:100870008093F4041092180510923E0510923D05E5
:100880007894CF91DF910895DF93CF93CDB7DEB702
:100890000E94BE041092DB041092DA04E1EDF0E055
:1008A00088ED808340E855E260E070E082E00E94DD
:1008B00012058FEF8093F5041092190510924005F0
:1008C00010923F057894CF91DF910895DF93CF93F5
:1008D000CDB7DEB70E94D9041092DD041092DC047B
:1008E000E1E3F1E088ED808340E855E260E070E00C
:1008F00083E00E9412058FEF8093F60410921A0590
:1009000010924205109241057894CF91DF9108959D
:10091000DF93CF93CDB7DEB786E992E027EF34E0DF
:1009200040E850E0BC01C9010E942D0286E193E03D
:100930002BE135E040E150E0BC01C9010E942D02ED
:10094000CF91DF910895DF93CF93CDB7DEB786E2E5
:1009500093E02FEF34E040E850E0BC01C9010E9471
:100960002D0286EA93E023E235E040E150E0BC014D
:10097000C9010E942D02CF91DF910895DF93CF939B
:10098000CDB7DEB786EB93E027E035E040E850E0F6
:10099000BC01C9010E942D0286E394E02BE235E000
:1009A00040E150E0BC01C9010E942D02CF91DF91CE
:1009B0000895DF93CF93CDB7DEB786E494E02FE0C0
:1009C00035E040E850E0BC01C9010E942D0286ECF0
:1009D00094E023E335E040E150E0BC01C9010E940E
:1009E0002D02CF91DF910895DF93CF9300D00F9226
:1009F000CDB7DEB789837B836A838981843060F4D5
:100A00008981882F90E0880F991FFC01EA52FB4FE3
:100A10008A819B81918380830F900F900F90CF915B
:100A2000DF910895EF92FF920F931F93DF93CF937F
:100A3000CDB7DEB727970FB6F894DEBF0FBECDBF98
:100A40008B834C835D836E837F838C819D81AE819C
:100A5000BF8180589B47A14EBF4F880F991FAA1F87
:100A6000BB1F880F991FAA1FBB1F880F991FAA1FA2
:100A7000BB1F7C018D018C819D81AE81BF81880F60
:100A8000991FAA1FBB1F880F991FAA1FBB1F880F82
:100A9000991FAA1FBB1F880F991FAA1FBB1F9C016C
:100AA000AD01C801B7010E947E1DDA01C90101979D
:100AB0009A8389838B81833061F4E4E3F1E0898157
:100AC0008083E5E3F1E089819A81892F99278083EA
:100AD00029C08B81823061F4E4EDF0E0898180836C
:100AE000E5EDF0E089819A81892F992780831AC0EA
:100AF0008B81813061F4ECECF0E089818083EDEC56
:100B0000F0E089819A81892F992780830BC0E4ECDA
:100B1000F0E089818083E5ECF0E089819A81892F7A
:100B20009927808327960FB6F894DEBF0FBECDBFFE
:100B3000CF91DF911F910F91FF90EF900895DF9378
:100B4000CF930F92CDB7DEB789838981882F90E04C
:100B5000880F991F880F991F880F991F89509B4FE5
:100B60000F90CF91DF910895DF93CF930F92CDB780
:100B7000DEB789838981882F90E0880F991F880FBD
:100B8000991F880F991F855E9A4F0F90CF91DF9123
:100B90000895DF93CF9300D0CDB7DEB789836A8302
:100BA0008981833071F4E0E3F1E08081882F90E067
:100BB000807290700097B9F3E6E3F1E08A81808358
:100BC0002FC08981823071F4E0EDF0E08081882FC0
:100BD00090E0807290700097B9F3E6EDF0E08A81C2
:100BE00080831EC08981813071F4E8ECF0E080815F
:100BF000882F90E0807290700097B9F3EEECF0E0EF
:100C00008A8180830DC0E0ECF0E08081882F90E045
:100C1000807290700097B9F3E6ECF0E08A818083EF
:100C20008981882F90E0FC01ED50FB4F10820F90DE
:100C30000F90CF91DF910895DF93CF930F92CDB7AF
:100C4000DEB78983698180E00E94C9050F90CF914A
:100C5000DF910895DF93CF930F92CDB7DEB78983ED
:100C6000698181E00E94C9050F90CF91DF910895BD
:100C7000DF93CF930F92CDB7DEB78983698182E08E
:100C80000E94C9050F90CF91DF910895DF93CF9314
:100C90000F92CDB7DEB78983698183E00E94C905D1
:100CA0000F90CF91DF910895DF93CF9300D00F92F3
:100CB000CDB7DEB7CE010196BC0180E00E94D4061C
:100CC000882331F08981282F30E03B832A8304C0B8
:100CD0008FEF9FEF9B838A838A819B810F900F9078
:100CE0000F90CF91DF910895DF93CF9300D00F92B3
:100CF000CDB7DEB7CE010196BC0181E00E94D406DB
:100D0000882331F08981282F30E03B832A8304C077
:100D10008FEF9FEF9B838A838A819B810F900F9037
:100D20000F90CF91DF910895DF93CF9300D00F9272
:100D3000CDB7DEB7CE010196BC0182E00E94D40699
:100D4000882331F08981282F30E03B832A8304C037
:100D50008FEF9FEF9B838A838A819B810F900F90F7
:100D60000F90CF91DF910895DF93CF9300D00F9232
:100D7000CDB7DEB7CE010196BC0183E00E94D40658
:100D8000882331F08981282F30E03B832A8304C0F7
:100D90008FEF9FEF9B838A838A819B810F900F90B7
:100DA0000F90CF91DF910895DF93CF9300D000D0C3
:100DB000CDB7DEB789837B836A838981882F90E0F2
:100DC000880F991F880F991F0196880F991FFC01A2
:100DD000E950FB4F80819181009731F18981882F03
:100DE00090E0880F991F0196880F991F880F991F0F
:100DF000FC01E950FB4F80819181009799F0898136
:100E0000882F90E0880F991F880F991F880F991FCE
:100E100089509B4F0E946302EA81FB8180838FEFA0
:100E20008C8303C01C8201C01C828C810F900F90A8
:100E30000F900F90CF91DF910895DF93CF930F9292
:100E4000CDB7DEB789838981882F90E0880F991FFD
:100E5000880F991F880F991F89509B4F0E94D603B6
:100E60000F90CF91DF910895DF93CF9300D0CDB74E
:100E7000DEB789838981882F90E0880F991F0196BA
:100E8000880F991F880F991FFC01E950FB4F808143
:100E900091811A82009711F481E08A838A810F90F0
:100EA0000F90CF91DF910895DF93CF9300D0CDB70E
:100EB000DEB789836A838981882F90E0880F991F24
:100EC000880F991F880F991F855E9A4F6A810E942B
:100ED00056030F900F90CF91DF910895DF93CF933A
:100EE0000F92CDB7DEB78983698180E00E945407F5
:100EF0000F90CF91DF910895DF93CF930F92CDB7ED
:100F0000DEB78983698181E00E9454070F90CF91F9
:100F1000DF910895DF93CF930F92CDB7DEB789832A
:100F2000698182E00E9454070F90CF91DF9108956C
:100F3000DF93CF930F92CDB7DEB78983698183E0CA
:100F40000E9454070F90CF91DF910895DF93CF93C4
:100F50000F92CDB7DEB789838981882F90E0FC019D
:100F6000E95EFA4F8FEF80838981882F90E0880FA8
:100F7000991F880F991F880F991F855E9A4F0E94AD
:100F80006302682F89810E94C9050F90CF91DF917C
:100F90000895DF93CF93CDB7DEB729970FB6F894B6
:100FA000DEBF0FBECDBF89837B836A835D834C83A5
:100FB0008981882F90E0880F991F0196880F991FCB
:100FC000880F991FFC01E55EFA4F208131818C81E9
:100FD0009D81280F391F8981882F90E0880F991FE4
:100FE000880F991F0196880F991FFC01E55EFA4F43
:100FF000808191812817390708F043C08C819D8139
:10100000009709F43EC0EA81FB81208128878A810C
:101010009B8101969B838A831F821E821BC0EA816B
:10102000FB8120818A819B8101969B838A838981B0
:10103000882F90E0880F991F880F991F880F991F9C
:10104000855E9A4F622F0E9456038E819F81019682
:101050009F838E838C819D8101972E813F812817EC
:101060003907E8F28981882F90E0FC01E95EFA4FA8
:101070008FEF8083688589810E94C9053FEF39879A
:1010800001C01986898529960FB6F894DEBF0FBE78
:10109000CDBFCF91DF9108950F931F93DF93CF932F
:1010A0000F92CDB7DEB789838981882F90E0FC014C
:1010B000E95EFA4F8081882309F44EC08981882F28
:1010C00090E0880F991F0196880F991F880F991F2C
:1010D000FC01E55EFA4F80819181009769F1898179
:1010E000833049F406E311E083E395E00E94630254
:1010F000F801808339C08981823049F406ED10E01F
:101100008BE295E00E946302F80180832DC0898103
:10111000813049F40EEC10E083E295E00E94630216
:10112000F801808321C006EC10E08BE195E00E947D
:101130006302F801808318C08981882F90E0FC0148
:10114000E95EFA4F10828981882F90E0FC01ED5012
:10115000FB4F8FEF808308C08981882F90E0FC01CE
:10116000ED50FB4F8FEF80830F90CF91DF911F9158
:101170000F910895DF93CF9300D0CDB7DEB78A8368
:101180008A81833029F4E6E3F1E08081898314C009
:101190008A81823029F4E6EDF0E0808189830CC0F9
:1011A0008A81813029F4EEECF0E08081898304C0EB
:1011B000E6ECF0E0808189838A81882F90E0880FB7
:1011C000991FFC01EA52FB4F80819181009771F0D9
:1011D0008A81882F90E0880F991FFC01EA52FB4F0B
:1011E0000190F081E02D8981099526C08A81882FA0
:1011F00090E0880F991F880F991F880F991F8950B9
:101200009B4F69810E9456038823B1F48A81282F5D
:1012100030E0C901880F991FFC01E55CFA4F80811D
:101220009181AC014F5F5F4FC901880F991FFC018D
:10123000E55CFA4F518340830F900F90CF91DF917F
:1012400008951F920F920FB60F9211242F933F9380
:101250004F935F936F937F938F939F93AF93BF93BE
:10126000EF93FF93DF93CF93CDB7DEB780E00E947B
:101270004C08CF91DF91FF91EF91BF91AF919F917A
:101280008F917F916F915F914F913F912F910F902F
:101290000FBE0F901F9018951F920F920FB60F92CE
:1012A00011242F933F934F935F936F937F938F936B
:1012B0009F93AF93BF93EF93FF93DF93CF93CDB7FC
:1012C000DEB781E00E944C08CF91DF91FF91EF9152
:1012D000BF91AF919F918F917F916F915F914F914E
:1012E0003F912F910F900FBE0F901F9018951F9256
:1012F0000F920FB60F9211242F933F934F935F934A
:101300006F937F938F939F93AF93BF93EF93FF93CD
:10131000DF93CF93CDB7DEB782E00E944C08CF9128
:10132000DF91FF91EF91BF91AF919F918F917F914D
:101330006F915F914F913F912F910F900FBE0F9042
:101340001F9018951F920F920FB60F9211242F9392
:101350003F934F935F936F937F938F939F93AF933D
:10136000BF93EF93FF93DF93CF93CDB7DEB783E0C7
:101370000E944C08CF91DF91FF91EF91BF91AF9107
:101380009F918F917F916F915F914F913F912F919D
:101390000F900FBE0F901F9018951F920F920FB6CF
:1013A0000F9211242F933F934F935F936F937F93EB
:1013B0008F939F93AF93BF93EF93FF93DF93CF935D
:1013C000CDB7DEB780E00E94BA08CF91DF91FF91E0
:1013D000EF91BF91AF919F918F917F916F915F91AD
:1013E0004F913F912F910F900FBE0F901F90189526
:1013F0001F920F920FB60F9211242F933F934F938A
:101400005F936F937F938F939F93AF93BF93EF936C
:10141000FF93DF93CF93CDB7DEB781E00E94BA0888
:10142000CF91DF91FF91EF91BF91AF919F918F91FC
:101430007F916F915F914F913F912F910F900FBED0
:101440000F901F9018951F920F920FB60F921124B4
:101450002F933F934F935F936F937F938F939F93BC
:10146000AF93BF93EF93FF93DF93CF93CDB7DEB7E7
:1014700082E00E94BA08CF91DF91FF91EF91BF9176
:10148000AF919F918F917F916F915F914F913F911C
:101490002F910F900FBE0F901F9018951F920F92D3
:1014A0000FB60F9211242F933F934F935F936F9337
:1014B0007F938F939F93AF93BF93EF93FF93DF93AC
:1014C000CF93CDB7DEB783E00E94BA08CF91DF910A
:1014D000FF91EF91BF91AF919F918F917F916F910C
:1014E0005F914F913F912F910F900FBE0F901F90E2
:1014F0001895DF93CF9300D000D000D0CDB7DEB7E2
:101500009C838B838B819C81039625E030E0B9011D
:101510000E94571DCB01CC01A0E0B0E0880F991FBD
:10152000AA1FBB1F880F991FAA1FBB1F880F991FD7
:10153000AA1FBB1F880F991FAA1FBB1F9A838983ED
:101540001E821D8206C02D813E812F5F3F4F3E834C
:101550002D8389819A812D813E812817390798F33F
:1015600026960FB6F894DEBF0FBECDBFCF91DF91A8
:101570000895DF93CF930F92CDB7DEB7198206C0DF
:1015800089810E94DE0B89818F5F89838981873001
:10159000B8F30E94D40A0E94EA0A0E94FF0A7894D3
:1015A0000F90CF91DF910895DF93CF93CDB7DEB742
:1015B00085E00E94150BE6E4F0E01082AEE6B0E0B4
:1015C000EEE6F0E0808181608C930E94CB0CCF919D
:1015D000DF910895DF93CF93CDB7DEB783E00E940C
:1015E000290BE4E8F0E011821082AFE6B0E0EFE60C
:1015F000F0E0808181608C93CF91DF910895DF933B
:10160000CF93CDB7DEB784E00E943D0BE2EBF0E074
:101610001082A0E7B0E0E0E7F0E0808181608C9389
:101620000E94EB0CCF91DF910895DF93CF930F923F
:10163000CDB7DEB78983A5E4B0E0E5E4F0E08081D2
:10164000982F987F8981892B8C930F90CF91DF9170
:101650000895DF93CF930F92CDB7DEB78983A1E8CA
:10166000B0E0E1E8F0E08081982F987F8981892BB4
:101670008C930F90CF91DF910895DF93CF930F92CA
:10168000CDB7DEB78983A1EBB0E0E1EBF0E080817C
:10169000982F987F8981892B8C930F90CF91DF9120
:1016A0000895DF93CF9300D000D0CDB7DEB7E5E447
:1016B000F0E08081882F90E087709070880F991FEC
:1016C0008C519F4F9C838B838B819C81FC018591E6
:1016D00094919A838983FC83EB8389819A810F900B
:1016E0000F900F900F90CF91DF910895DF93CF93DC
:1016F00000D000D0CDB7DEB7E1E8F0E08081882FE0
:1017000090E087709070880F991F8C519F4F9C8339
:101710008B838B819C81FC01859194919A83898331
:10172000FC83EB8389819A810F900F900F900F902B
:10173000CF91DF910895DF93CF9300D000D0CDB744
:10174000DEB7E1EBF0E08081882F90E08770907049
:10175000880F991F80519F4F9C838B838B819C8125
:10176000FC01859194919A838983FC83EB83898121
:101770009A810F900F900F900F90CF91DF91089565
:10178000DF93CF9300D00F92CDB7DEB789837B83F1
:101790006A838981873060F48981882F90E0880F7F
:1017A000991FFC01E252FB4F8A819B8191838083C8
:1017B0000F900F900F90CF91DF910895DF93CF930B
:1017C0000F92CDB7DEB789838981873050F4898144
:1017D000882F90E0880F991FFC01E252FB4F118285
:1017E00010820F90CF91DF910895EF92FF920F93A7
:1017F0001F93DF93CF93CDB7DEB72F970FB6F89433
:10180000DEBF0FBECDBF9B878A87E6E4F0E0808114
:101810008987109247051092480510924905109249
:101820004A050E94510B9C0140E050E080E094E2A8
:10183000A4EFB0E0BC01CD010E94A01DDA01C901F6
:101840008D839E83AF83B8878D819E81AF81B8855C
:10185000893B2DE8920726E0A20720E0B20720F599
:101860008A859B85A7E281319A07F0F48A859B855A
:10187000CC01A0E0B0E02D813E814F815885BC01B4
:10188000CD010E94381DDC01CB0128EE33E040E0A1
:1018900050E0BC01CD010E947E1DDA01C90189839F
:1018A0009A83AB83BC833EC08A859B857C0100E024
:1018B00010E08D819E81AF81B88528EE33E040E055
:1018C00050E0BC01CD010E947E1DDA01C9019C01DE
:1018D000AD01C801B7010E94381DDC01CB0189832D
:1018E0009A83AB83BC831EC08091470590914805C5
:1018F000A0914905B0914A05A3E5B0E0E3E5F0E029
:101900008081817F8C93A3E5B0E0E3E5F0E0808106
:1019100081608C938895A3E5B0E0E3E5F0E08081F9
:101920008E7F8C938091470590914805A091490541
:10193000B0914A052227382F492F5A2FE6E4F0E0CC
:101940008081882F90E0A0E0B0E079018A01E82A48
:10195000F92A0A2B1B2B8985282F30E040E050E024
:1019600089819A81AB81BC81820F931FA41FB51F0F
:10197000E816F9060A071B0708F4B6CF2F960FB62C
:10198000F894DEBF0FBECDBFCF91DF911F910F91B5
:10199000FF90EF900895DF93CF93CDB7DEB710920D
:1019A0004305109244051092450510924605CF91CB
:1019B000DF910895DF93CF93CDB7DEB780914305D4
:1019C00090914405A0914505B0914605BC01CD011B
:1019D000CF91DF910895DF93CF93CDB7DEB710920B
:1019E0004B0510924C0510924D0510924E05CF916B
:1019F000DF910895DF93CF93CDB7DEB780914B058C
:101A000090914C05A0914D05B0914E05BC01CD01C2
:101A1000CF91DF910895DF93CF930F92CDB7DEB7CB
:101A200089838981893079F4A0E8B0E0E0E8F0E0CA
:101A3000808182608C93A0E8B0E0E0E8F0E08081F3
:101A40008E7F8C9320C089818A3079F4A0E8B0E041
:101A5000E0E8F0E0808182608C93A0E8B0E0E0E80C
:101A6000F0E0808181608C930EC0A0E8B0E0E0E8F7
:101A7000F0E080818D7F8C93A0E8B0E0E0E8F0E0BA
:101A8000808181608C93E8E8F0E011821082EAE8BE
:101A9000F0E0118210820F90CF91DF910895DF93D3
:101AA000CF9300D0CDB7DEB79A838983A0E8B0E0AA
:101AB000E0E8F0E080818E7F8C93A0E8B0E0E0E881
:101AC000F0E0808182608C93A1E8B0E0E1E8F0E092
:101AD000808188608C93A1E8B0E0E1E8F0E080814B
:101AE00080618C93E6E8F0E089819A81918380831C
:101AF000E8E8F0E011821082EAE8F0E0118210825A
:101B00000F900F90CF91DF910895DF93CF93CDB7D2
:101B1000DEB7A0E8B0E0E0E8F0E080818D7F8C9354
:101B2000A0E8B0E0E0E8F0E080818E7F8C930E9436
:101B3000C80D0E94DD0DCF91DF910895DF93CF9303
:101B4000CDB7DEB7A0E8B0E0E0E8F0E080818068E3
:101B50008C93A0E8B0E0E0E8F0E080818F7B8C938C
:101B6000CF91DF910895DF93CF93CDB7DEB7A0E893
:101B7000B0E0E0E8F0E0808180628C93A0E8B0E023
:101B8000E0E8F0E080818F7E8C93CF91DF91089523
:101B9000DF93CF93CDB7DEB7A0E8B0E0E0E8F0E0A8
:101BA00080818F778C93A0E8B0E0E0E8F0E080815E
:101BB0008F7B8C93CF91DF910895DF93CF93CDB737
:101BC000DEB7A0E8B0E0E0E8F0E080818F7D8C93A4
:101BD000A0E8B0E0E0E8F0E080818F7E8C93CF91C8
:101BE000DF910895DF93CF9300D0CDB7DEB79A830E
:101BF0008983E8E8F0E089819A81918380830F905E
:101C00000F90CF91DF910895DF93CF9300D0CDB7A0
:101C1000DEB79A838983EAE8F0E089819A8191832B
:101C200080830F900F90CF91DF9108951F920F92B4
:101C30000FB60F9211242F933F934F935F936F939F
:101C40007F938F939F93AF93BF93EF93FF93DF9314
:101C5000CF93CDB7DEB78091430590914405A09115
:101C60004505B09146050196A11DB11D8093430520
:101C700090934405A0934505B09346058091470590
:101C800090914805A0914905B0914A050196A11D82
:101C9000B11D8093470590934805A0934905B093E3
:101CA0004A058091DE049091DF04009729F0E091CD
:101CB000DE04F091DF040995CF91DF91FF91EF9160
:101CC000BF91AF919F918F917F916F915F914F9154
:101CD0003F912F910F900FBE0F901F9018951F925C
:101CE0000F920FB60F9211242F933F934F935F9350
:101CF0006F937F938F939F93AF93BF93EF93FF93D4
:101D0000DF93CF93CDB7DEB78091E0049091E104EB
:101D1000009729F0E091E004F091E1040995CF915A
:101D2000DF91FF91EF91BF91AF919F918F917F9143
:101D30006F915F914F913F912F910F900FBE0F9038
:101D40001F9018951F920F920FB60F9211242F9388
:101D50003F934F935F936F937F938F939F93AF9333
:101D6000BF93EF93FF93DF93CF93CDB7DEB780910F
:101D70004B0590914C05A0914D05B0914E050196F3
:101D8000A11DB11D80934B0590934C05A0934D056B
:101D9000B0934E058091E8049091E904009729F0F2
:101DA000E091E804F091E9040995CF91DF91FF916A
:101DB000EF91BF91AF919F918F917F916F915F91C3
:101DC0004F913F912F910F900FBE0F901F9018953C
:101DD0001F920F920FB60F9211242F933F934F93A0
:101DE0005F936F937F938F939F93AF93BF93EF9383
:101DF000FF93DF93CF93CDB7DEB78091E20490914C
:101E0000E304009729F0E091E204F091E3040995DE
:101E1000CF91DF91FF91EF91BF91AF919F918F9102
:101E20007F916F915F914F913F912F910F900FBED6
:101E30000F901F9018951F920F920FB60F921124BA
:101E40002F933F934F935F936F937F938F939F93C2
:101E5000AF93BF93EF93FF93DF93CF93CDB7DEB7ED
:101E60008091E4049091E504009729F0E091E40466
:101E7000F091E5040995CF91DF91FF91EF91BF912A
:101E8000AF919F918F917F916F915F914F913F9112
:101E90002F910F900FBE0F901F9018951F920F92C9
:101EA0000FB60F9211242F933F934F935F936F932D
:101EB0007F938F939F93AF93BF93EF93FF93DF93A2
:101EC000CF93CDB7DEB78091E6049091E7040097F9
:101ED00029F0E091E604F091E7040995CF91DF91B4
:101EE000FF91EF91BF91AF919F918F917F916F91F2
:101EF0005F914F913F912F910F900FBE0F901F90C8
:101F000018951F920F920FB60F9211242F933F93A3
:101F10004F935F936F937F938F939F93AF93BF93F1
:101F2000EF93FF93DF93CF93CDB7DEB78091EA04B1
:101F30009091EB04009729F0E091EA04F091EB0412
:101F40000995CF91DF91FF91EF91BF91AF919F9153
:101F50008F917F916F915F914F913F912F910F9052
:101F60000FBE0F901F9018951F920F920FB60F92F1
:101F700011242F933F934F935F936F937F938F938E
:101F80009F93AF93BF93EF93FF93DF93CF93CDB71F
:101F9000DEB78091EA049091EB04009729F0E0917C
:101FA000EA04F091EB040995CF91DF91FF91EF9155
:101FB000BF91AF919F918F917F916F915F914F9161
:101FC0003F912F910F900FBE0F901F901895DF93A8
:101FD000CF9300D0CDB7DEB79A83898389819A8168
:101FE0009093ED048093EC040F900F90CF91DF91CC
:101FF0000895DF93CF930F92CDB7DEB789838981A0
:102000008A3031F4E091EC04F091ED048DE0099513
:10201000E091EC04F091ED04898109950F90CF9146
:10202000DF910895DF93CF9300D0CDB7DEB79A83C9
:10203000898389819A81009789F00BC0E981FA81AF
:10204000208189819A8101969A838983822F0E94B7
:10205000F90FE981FA818081882381F70F900F9031
:10206000CF91DF910895DF93CF93CDB7DEB72A9755
:102070000FB6F894DEBF0FBECDBF9A8389837C83F1
:102080006B835E834D8318861F8289819A810097B6
:1020900009F449C02F81388519868B819C812817C6
:1020A000390710F481E089878F8198850196988798
:1020B0008F8381E099858927882391F4E981FA81CA
:1020C00080818A878A85882311F091E09A878A85A2
:1020D00029813A812F5F3F4F3A8329838823D1F6A4
:1020E00018861F8219C0E981FA818081882361F0F6
:1020F000E981FA81208189819A8101969A83898375
:10210000822F0E94F90F03C080E20E94F90F8F8195
:102110009885019698878F832F8138858D819E8140
:102120002817390700F32A960FB6F894DEBF0FBEC2
:10213000CDBFCF91DF910895DF93CF9300D000D032
:1021400000D0CDB7DEB79D838C838C819D810097B5
:10215000B1F003C08E810E94F90F8C819D819B8319
:102160008A838C819D8101969D838C83EA81FB818A
:102170008491898389818E838E81882359F726965D
:102180000FB6F894DEBF0FBECDBFCF91DF9108959B
:10219000DF93CF93CDB7DEB78AE00E94F90FCF91DE
:1021A000DF910895DF93CF9300D000D0CDB7DEB795
:1021B0008C838C81882F90E08F70907080509F4F1F
:1021C0009B838A83EA81FB818491898389810E9430
:1021D000F90F0F900F900F900F90CF91DF9108950E
:1021E000DF93CF930F92CDB7DEB789838981829534
:1021F0008F700E94D21089810E94D2100F90CF91CF
:10220000DF910895DF93CF9300D0CDB7DEB79A83E7
:10221000898389819A81892F99270E94F010898169
:102220000E94F0100F900F90CF91DF910895DF93EF
:10223000CF9300D000D0CDB7DEB769837A838B838C
:102240009C8389819A81AB81BC81CD01AA27BB2760
:102250000E94021189819A810E9402110F900F90B1
:102260000F900F90CF91DF910895EF92FF920F930F
:102270001F93DF93CF93CDB7DEB7E8970FB6F894EF
:10228000DEBF0FBECDBF8EA76FA748AB29ABEAAAB2
:10229000FBAA0CAB1DAB88A98823B1F08AA99BA926
:1022A000ACA9BDA9BB2384F48AA99BA9ACA9BDA9EB
:1022B000B095A095909581959F4FAF4FBF4F888760
:1022C0009987AA87BB8708C08AA99BA9ACA9BDA981
:1022D00088879987AA87BB8788A98EAB8EA9882310
:1022E00011F081E08EAB9EA98FA5891B81508F8351
:1022F000CE010E9680969D878C878C859D85019753
:102300009D878C87EC85FD8510828C859D85019746
:102310009D878C878EA5282F30E040E050E088858F
:102320009985AA85BB85BC01CD010E947E1DDC017B
:10233000CB018F70907080509F4F9E838D83ED8175
:10234000FE8184918C838C81EC85FD8580838EA5B4
:10235000282F30E040E050E088859985AA85BB852C
:10236000BC01CD010E947E1DDA01C90188879987D1
:10237000AA87BB8747C088859985AA85BB850097B2
:10238000A105B105B1F18C859D8501979D878C874D
:102390008EA5282F30E040E050E088859985AA85F9
:1023A000BB85BC01CD010E947E1DDC01CB018F707D
:1023B000907080509F4F9B838A83EA81FB81849138
:1023C00089838981EC85FD8580838EA5282F30E067
:1023D00040E050E088859985AA85BB85BC01CD0188
:1023E0000E947E1DDA01C90188879987AA87BB8769
:1023F00009C08C859D8501979D878C87EC85FD851F
:1024000089A980838F818FAB8FA9882311F081E008
:102410008FAB8FA99F8191509F83882309F0ABCF09
:1024200088A9882361F18AA99BA9ACA9BDA9BB236E
:1024300054F48C859D8501979D878C87EC85FD855F
:102440008DE280831CC08AA99BA9ACA9BDA91816DE
:1024500019061A061B0654F48C859D8501979D87E5
:102460008C87EC85FD858BE2808309C08C859D85FA
:1024700001979D878C87EC85FD8580E280838FA501
:102480008F830BC0EC85FD8520818C859D85019611
:102490009D878C87822F0E94F90F8F8188AF88AD2E
:1024A000882311F081E088AF88AD9F8191509F8390
:1024B000882341F7E8960FB6F894DEBF0FBECDBF74
:1024C000CF91DF911F910F91FF90EF900895DF93CF
:1024D000CF93CDB7DEB763970FB6F894DEBF0FBECC
:1024E000CDBFCE014B969F878E8711C08D858823E7
:1024F00059F480E090E063960FB6F894DEBF0FBE0B
:10250000CDBFCF91DF9108958D850E94F90F888D01
:10251000882381F0898D9A8D9E838D83898D9A8DF4
:1025200001969A8F898FED81FE8184918C838C81B5
:102530008B8B09C0E98DFA8D20812B8B898D9A8D2B
:1025400001969A8F898F3B893D878D85853271F6FB
:10255000888D882381F0898D9A8D9B838A83898DCC
:102560009A8D01969A8F898FEA81FB818491898364
:1025700089818A8B09C0E98DFA8D80818A8B898D4A
:102580009A8D01969A8F898F9A899D878D85282F9C
:1025900030E0398B288B8889998984369105C1F080
:1025A0002889398928373105E1F088899989833666
:1025B000910551F42E853F85C90102969F878E872C
:1025C000F901808191818D878D850E94F90F9FCFC0
:1025D0008AE090E098878F8380E197E29A878987E5
:1025E00008C080E190E098878F8380E090E19A872F
:1025F00089872E853F85C90102969F878E87F901BD
:10260000808191819C878B878D85843629F58B8588
:102610009C859923ACF48B859C85909581959F4FE3
:102620009C878B878DE20E94F90F0AC089859A8565
:102630002AE030E0B9010E94571DCB019A878987B3
:1026400089859A858230910538F029853A858B8570
:102650009C858217930750F38B859C8529853A8545
:10266000B9010E94571DCB010E94D2108B859C8519
:1026700029853A85B9010E94571D9C878B878985DA
:102680009A852F813885B9010E94571DCB019A8701
:10269000898789859A850097F9F639CFDF93CF939B
:1026A000CDB7DEB7E0E3F0E01082E1E3F0E01082C6
:1026B000E7E0F1E01082E8E0F1E01082E1E2F0E032
:1026C0008FEF8083E4E2F0E080E48083E7E2F0E0F3
:1026D0008FEF8083EAE2F0E08BEF8083EDE2F0E0C1
:1026E0008EEF8083A4E3B0E0E4E3F0E080818062D9
:1026F0008C93A3E3B0E0E3E3F0E080818F7D8C93E3
:10270000E1E0F1E08EEF8083E4E0F1E08EEF8083A2
:10271000CF91DF910895DF93CF9300D000D0CDB754
:10272000DEB769837A838B839C830BC089819A810E
:10273000AB81BC810197A109B10989839A83AB83DD
:10274000BC8389819A81AB81BC810097A105B105C9
:1027500069F70F900F900F900F90CF91DF91089530
:10276000DF93CF93CDB7DEB7A5E2B0E0E5E2F0E0CE
:10277000808180648C93CF91DF910895DF93CF9314
:10278000CDB7DEB7A5E2B0E0E5E2F0E080818F7B77
:102790008C93CF91DF910895DF93CF93CDB7DEB7C0
:1027A000E6E4F0E010820E94CB0CCF91DF91089517
:1027B000DF93CF9300D0CDB7DEB7E2E3F0E08081C6
:1027C000882F90E0807290701A821982009721F40D
:1027D00081E090E09A83898389819A810F900F909C
:1027E000CF91DF910895DF93CF9300D000D000D038
:1027F000CDB7DEB769837A838B839C8389819A8185
:10280000AB81BC81BB23C4F089819A81AB81BC813F
:1028100025E030E040E050E0BC01CD010E94A01D69
:10282000DA01C901880F991FFC01E050FE4F208199
:1028300031813E832D832CC089819A81AB81BC81FB
:10284000B095A095909581959F4FAF4FBF4F25E0D4
:1028500030E040E050E0BC01CD010E94A01DDA0153
:10286000C9019C01AD0188E490E0A0E0B0E0821BCA
:10287000930BA40BB50B880F991FFC01E050FE4F82
:102880008081918122273327281B390B3E832D839A
:102890008D819E8126960FB6F894DEBF0FBECDBF08
:1028A000CF91DF910895DF93CF9300D000D000D077
:1028B000CDB7DEB769837A838B839C8389819A81C4
:1028C000AB81BC818A559040A040B04089839A83F7
:1028D000AB83BC8389819A81AB81BC81BB23C4F06B
:1028E00089819A81AB81BC8125E030E040E050E0F5
:1028F000BC01CD010E94A01DDA01C901880F991FFA
:10290000FC01E050FE4F208131813E832D832CC09D
:1029100089819A81AB81BC81B095A0959095819574
:102920009F4FAF4FBF4F25E030E040E050E0BC018B
:10293000CD010E94A01DDA01C9019C01AD0188E40E
:1029400090E0A0E0B0E0821B930BA40BB50B880FC6
:10295000991FFC01E050FE4F80819181222733278F
:10296000281B390B3E832D838D819E8126960FB6C1
:10297000F894DEBF0FBECDBFCF91DF9108950F93C6
:102980001F93DF93CF9300D000D000D0CDB7DEB738
:1029900069837A838B839C8389819A81AB81BC8193
:1029A0008A359105A105B10521F189819A81AB8113
:1029B000BC81863A2FEF92072FEFA2072FEFB207C5
:1029C000C1F089819A81AB81BC818E3041E094074E
:1029D00040E0A40740E0B40761F089819A81AB81AF
:1029E000BC81823F5EEF95075FEFA5075FEFB507FC
:1029F00019F41E821D8224C089819A81AB81BC8119
:102A0000BC01CD010E9453148C0189819A81AB8154
:102A1000BC81BC01CD010E94F3139C01C801B90126
:102A20000E946B1DCB019C01220F331FC901880F2F
:102A3000991F880F991FA901480F591F5E834D8365
:102A40008D819E8126960FB6F894DEBF0FBECDBF56
:102A5000CF91DF911F910F910895DF93CF93CDB761
:102A6000DEB72A970FB6F894DEBF0FBECDBF84EF56
:102A700091E0A0E0B0E08F839887A987BA8784EFC0
:102A800091E0A0E0B0E08B839C83AD83BE8388E0BF
:102A900090E09A8389830E943A16209192023091A5
:102AA000930280919402909195028217930788F483
:102AB000209192023091930280919402909195021C
:102AC000A901481B590BCA019093F1048093F004AB
:102AD00010C02091940230919502809192029091C1
:102AE0009302A901481B590BCA019093EF048093EC
:102AF000EE040E943A162091920230919302809146
:102B00009402909195028217930700F5209192020A
:102B1000309193028091940290919502281B390B79
:102B200089819A818217930788F486E292E0A0E077
:102B3000B0E08F839887A987BA8786E292E0A0E009
:102B4000B0E08B839C83AD83BE833BC02091940215
:102B5000309195028091920290919302821793078F
:102B600000F520919402309195028091920290910B
:102B70009302281B390B89819A818217930788F465
:102B800082E593E0A0E0B0E08F839887A987BA87B9
:102B900082E593E0A0E0B0E08B839C83AD83BE83AD
:102BA00010C088E592E0A0E0B0E08F839887A98705
:102BB000BA8780E293E0A0E0B0E08B839C83AD8392
:102BC000BE832091940230919502409192025091DF
:102BD000930261E171E08B819C81AD81BE81BF93E5
:102BE000AF939F938F933F932F938F819885A98560
:102BF000BA85BF93AF939F938F935F934F937F93C8
:102C00006F9381E08F930E9467128DB79EB70F96E6
:102C10000FB6F8949EBF0FBE8DBFAEE2B0E0EEE2FD
:102C2000F0E0808180648C938F819885A985BA8536
:102C3000BC01CD010E948B13AEE2B0E0EEE2F0E009
:102C400080818F7B8C93A8E2B0E0E8E2F0E08081A5
:102C500080688C938B819C81AD81BE81BC01CD014C
:102C60000E948B13A8E2B0E0E8E2F0E080818F7769
:102C70008C933FCFDF93CF93CDB7DEB782E00E9436
:102C80000702282F30E08091F0049091F104820F28
:102C9000931F90939502809394028EE00E94070206
:102CA000282F30E08091EE049091EF04820F931F63
:102CB0009093930280939202CF91DF910895DF93D6
:102CC000CF93CDB7DEB70E94BE130E94D8130097F2
:102CD00011F00E94B013E0E3F0E08FEF8083E7E0B3
:102CE000F1E08FEF8083A2E0B1E0E2E0F1E08081EB
:102CF00080648C93A2E0B1E0E2E0F1E08081806248
:102D00008C93A2E0B1E0E2E0F1E0808180618C93FD
:102D1000A2E0B1E0E2E0F1E0808188608C93A2E083
:102D2000B1E0E2E0F1E0808184608C93AEE2B0E05B
:102D3000EEE2F0E0808180688C93AEE2B0E0EEE2FB
:102D4000F0E0808180648C93AEE2B0E0EEE2F0E0EF
:102D5000808180628C93AEE2B0E0EEE2F0E08081B0
:102D600080618C93AEE2B0E0EEE2F0E080818860BA
:102D70008C93AEE2B0E0EEE2F0E0808184608C9370
:102D8000A8E2B0E0E8E2F0E0808181608C93A8E204
:102D9000B0E0E8E2F0E0808182608C93A8E2B0E0ED
:102DA000E8E2F0E0808184608C93A8E2B0E0E8E2A1
:102DB000F0E0808188608C93A8E2B0E0E8E2F0E087
:102DC000808180618C93A8E2B0E0E8E2F0E080814D
:102DD00080628C93A8E2B0E0E8E2F0E08081806459
:102DE0008C93A8E2B0E0E8E2F0E0808180688C9308
:102DF000A5E0B1E0E5E0F1E0808180648C93A2E29F
:102E0000B0E0E2E2F0E0808180688C93A2E2B0E082
:102E1000E2E2F0E0808180648C93A2E2B0E0E2E242
:102E2000F0E0808180628C93A2E2B0E0E2E2F0E028
:102E3000808180618C93A2E2B0E0E2E2F0E08081E8
:102E400088608C93A2E2B0E0E2E2F0E080818460EE
:102E50008C93A2E2B0E0E2E2F0E0808182608C93A9
:102E6000A2E2B0E0E2E2F0E0808181608C93A1E335
:102E7000B0E0E1E3F0E0808181608C93A1E3B0E019
:102E8000E1E3F0E0808182608C93A1E3B0E0E1E3D4
:102E9000F0E0808184608C93A1E3B0E0E1E3F0E0B6
:102EA000808188608C93A1E3B0E0E1E3F0E0808171
:102EB00080618C93A1E3B0E0E1E3F0E08081806287
:102EC0008C93A1E3B0E0E1E3F0E0808180648C9337
:102ED000A1E3B0E0E1E3F0E0808180688C93A8E0BA
:102EE000B1E0E8E0F1E0808181608C93A8E0B1E09E
:102EF000E8E0F1E0808182608C93A8E0B1E0E8E056
:102F0000F1E0808184608C93A8E0B1E0E8E0F1E03A
:102F1000808188608C93A8E0B1E0E8E0F1E08081F6
:102F200080618C93A8E0B1E0E8E0F1E0808180620C
:102F30008C93A8E0B1E0E8E0F1E0808180648C93BC
:102F4000A8E0B1E0E8E0F1E0808180688C9380E265
:102F500093E00E94F50B8CE196E00E94E70F8DE56F
:102F600091E09F938F9381E08F930E9467120F905F
:102F70000F900F908AE296E00E94E70F8AE591E0B9
:102F80009F938F9381E08F930E9467120F900F9011
:102F90000F9088E396E00E94E70F87E591E09F930A
:102FA0008F9381E08F930E9467120F900F900F9084
:102FB00086E496E00E94E70F84E591E09F938F936B
:102FC00081E08F930E9467120F900F900F90A2E004
:102FD000B1E0E2E0F1E080818F7B8C93A2E0B1E090
:102FE000E2E0F1E080818F7D8C93A2E0B1E0E2E04D
:102FF000F1E080818F7E8C93A2E0B1E0E2E0F1E02D
:103000008081877F8C93A2E0B1E0E2E0F1E08081F3
:103010008B7F8C93AEE2B0E0EEE2F0E080818F77C0
:103020008C93AEE2B0E0EEE2F0E080818F7B8C9397
:10303000AEE2B0E0EEE2F0E080818F7D8C93AEE214
:10304000B0E0EEE2F0E080818F7E8C93AEE2B0E003
:10305000EEE2F0E08081877F8C93AEE2B0E0EEE2BA
:10306000F0E080818B7F8C93A8E2B0E0E8E2F0E0B2
:1030700080818E7F8C93A8E2B0E0E8E2F0E080816E
:103080008D7F8C93A8E2B0E0E8E2F0E080818B7F56
:103090008C93A8E2B0E0E8E2F0E08081877F8C9337
:1030A000A8E2B0E0E8E2F0E080818F7E8C93A8E2B5
:1030B000B0E0E8E2F0E080818F7D8C93A8E2B0E0A0
:1030C000E8E2F0E080818F7B8C93A8E2B0E0E8E258
:1030D000F0E080818F778C93A5E0B1E0E5E0F1E04E
:1030E00080818F7B8C93A2E2B0E0E2E2F0E080810D
:1030F0008F778C93A2E2B0E0E2E2F0E080818F7BF8
:103100008C93A2E2B0E0E2E2F0E080818F7D8C93CC
:10311000A2E2B0E0E2E2F0E080818F7E8C93A2E256
:10312000B0E0E2E2F0E08081877F8C93A2E2B0E041
:10313000E2E2F0E080818B7F8C93A2E2B0E0E2E2F9
:10314000F0E080818D7F8C93A2E2B0E0E2E2F0E0DB
:1031500080818E7F8C93A1E3B0E0E1E3F0E0808199
:103160008E7F8C93A1E3B0E0E1E3F0E080818D7F7E
:103170008C93A1E3B0E0E1E3F0E080818B7F8C935E
:10318000A1E3B0E0E1E3F0E08081877F8C93A1E3ED
:10319000B0E0E1E3F0E080818F7E8C93A1E3B0E0CA
:1031A000E1E3F0E080818F7D8C93A1E3B0E0E1E387
:1031B000F0E080818F7B8C93A1E3B0E0E1E3F0E06D
:1031C00080818F778C93A8E0B1E0E8E0F1E0808126
:1031D0008E7F8C93A8E0B1E0E8E0F1E080818D7F04
:1031E0008C93A8E0B1E0E8E0F1E080818B7F8C93E4
:1031F000A8E0B1E0E8E0F1E08081877F8C93A8E06F
:10320000B1E0E8E0F1E080818F7E8C93A8E0B1E04E
:10321000E8E0F1E080818F7D8C93A8E0B1E0E8E008
:10322000F1E080818F7B8C93A8E0B1E0E8E0F1E0F1
:1032300080818F778C9380E293E00E94F50B8CE184
:1032400096E00E94E70F81E591E09F938F9381E0E4
:103250008F930E9467120F900F900F908AE296E072
:103260000E94E70F8EE491E09F938F9381E08F930C
:103270000E9467120F900F900F9088E396E00E94D3
:10328000E70F8BE491E09F938F9381E08F930E94EF
:1032900067120F900F900F9086E496E00E94E70F60
:1032A00088E491E09F938F9381E08F930E9467124F
:1032B0000F900F900F906CED7FEF80E090E00E94F8
:1032C0008B13CF91DF910895DF93CF93CDB7DEB706
:1032D000A0970FB6F894DEBF0FBECDBF0E94BE13FD
:1032E0000E94D813009711F00E94B013A8E2B0E03A
:1032F000E8E2F0E0808181608C9368E671E080E034
:1033000090E00E948B13A8E2B0E0E8E2F0E0808158
:103310008E7F8C93A8E2B0E0E8E2F0E080818260EA
:103320008C9368E671E080E090E00E948B13A8E245
:10333000B0E0E8E2F0E080818D7F8C93A8E2B0E01D
:10334000E8E2F0E0808184608C9368E671E080E0E0
:1033500090E00E948B13A8E2B0E0E8E2F0E0808108
:103360008B7F8C93A8E2B0E0E8E2F0E08081886097
:103370008C9368E671E080E090E00E948B13A8E2F5
:10338000B0E0E8E2F0E08081877F8C93A8E2B0E0D3
:10339000E8E2F0E0808180618C9368E671E080E093
:1033A00090E00E948B13A8E2B0E0E8E2F0E08081B8
:1033B0008F7E8C93A8E2B0E0E8E2F0E0808180624A
:1033C0008C9368E671E080E090E00E948B13A8E2A5
:1033D000B0E0E8E2F0E080818F7D8C93A8E2B0E07D
:1033E000E8E2F0E0808180648C9368E671E080E040
:1033F00090E00E948B13A8E2B0E0E8E2F0E0808168
:103400008F7B8C93A8E2B0E0E8E2F0E080818068F6
:103410008C9368E671E080E090E00E948B13A8E254
:10342000B0E0E8E2F0E080818F778C93A5E0B1E036
:10343000E5E0F1E0808180648C9368E671E080E0F3
:1034400090E00E948B13A5E0B1E0E5E0F1E080811F
:103450008F7B8C93A2E2B0E0E2E2F0E080818160B9
:103460008C9368E671E080E090E00E948B13A2E20A
:10347000B0E0E2E2F0E080818E7F8C93A2E2B0E0E7
:10348000E2E2F0E0808182608C9368E671E080E0A7
:1034900090E00E948B13A2E2B0E0E2E2F0E08081D3
:1034A0008D7F8C93A2E2B0E0E2E2F0E08081846064
:1034B0008C9368E671E080E090E00E948B13A2E2BA
:1034C000B0E0E2E2F0E080818B7F8C93A2E2B0E09A
:1034D000E2E2F0E0808188608C9368E671E080E051
:1034E00090E00E948B13A2E2B0E0E2E2F0E0808183
:1034F000877F8C93A2E2B0E0E2E2F0E0808180611D
:103500008C9368E671E080E090E00E948B13A2E269
:10351000B0E0E2E2F0E080818F7E8C93A2E2B0E046
:10352000E2E2F0E0808180628C9368E671E080E006
:1035300090E00E948B13A2E2B0E0E2E2F0E0808132
:103540008F7D8C93A2E2B0E0E2E2F0E080818064C3
:103550008C9368E671E080E090E00E948B13A2E219
:10356000B0E0E2E2F0E080818F7B8C93A2E2B0E0F9
:10357000E2E2F0E0808180688C9368E671E080E0B0
:1035800090E00E948B13A2E2B0E0E2E2F0E08081E2
:103590008F778C93AEE2B0E0EEE2F0E08081846061
:1035A0008C9368E671E080E090E00E948B13AEE2BD
:1035B000B0E0EEE2F0E080818B7F8C93AEE2B0E091
:1035C000EEE2F0E0808188608C9368E671E080E054
:1035D00090E00E948B13AEE2B0E0EEE2F0E080817A
:1035E000877F8C93AEE2B0E0EEE2F0E08081806114
:1035F0008C9368E671E080E090E00E948B13AEE26D
:10360000B0E0EEE2F0E080818F7E8C93AEE2B0E03D
:10361000EEE2F0E0808180628C9368E671E080E009
:1036200090E00E948B13AEE2B0E0EEE2F0E0808129
:103630008F7D8C93AEE2B0E0EEE2F0E080818064BA
:103640008C9368E671E080E090E00E948B13AEE21C
:10365000B0E0EEE2F0E080818F7B8C93AEE2B0E0F0
:10366000EEE2F0E0808180688C9368E671E080E0B3
:1036700090E00E948B13AEE2B0E0EEE2F0E08081D9
:103680008F778C93A2E0B1E0E2E0F1E0808184608A
:103690008C9368E671E080E090E00E948B13A2E0DA
:1036A000B1E0E2E0F1E080818B7F8C93A2E0B1E0B9
:1036B000E2E0F1E0808188608C9368E671E080E070
:1036C00090E00E948B13A2E0B1E0E2E0F1E08081A3
:1036D000877F8C93A2E0B1E0E2E0F1E0808180613D
:1036E0008C9368E671E080E090E00E948B13A2E08A
:1036F000B1E0E2E0F1E080818F7E8C93A2E0B1E066
:10370000E2E0F1E0808180628C9368E671E080E025
:1037100090E00E948B13A2E0B1E0E2E0F1E0808152
:103720008F7D8C93A2E0B1E0E2E0F1E080818064E3
:103730008C9368E671E080E090E00E948B13A2E039
:10374000B1E0E2E0F1E080818F7B8C9380E00E9429
:103750000702882F90E098A38F8F81E00E940702D4
:10376000882F90E09E8F8D8F82E00E940702882F25
:1037700090E09C8F8B8F83E00E940702882F90E05F
:103780009A8F898F84E00E940702882F90E0988F9B
:103790008F8B85E00E940702882F90E09E8B8D8B97
:1037A00086E00E940702882F90E09C8B8B8B87E03D
:1037B0000E940702882F90E09A8B898B88E00E94F4
:1037C0000702882F90E0988B8F8789E00E9407027C
:1037D000882F90E09E878D878AE00E940702882FBD
:1037E00090E09C878B878BE00E940702882F90E0F7
:1037F0009A8789878CE00E940702882F90E098873B
:103800008F838DE00E940702882F90E09E838D8336
:103810008EE00E940702882F90E09C838B838FE0CC
:103820000E940702882F90E09A8389838AE296E0BB
:103830000E94E70F2AE931E089899A899F938F9343
:103840008B899C899F938F938D899E899F938F935A
:103850008F89988D9F938F93898D9A8D9F938F9346
:103860008B8D9C8D9F938F938D8D9E8D9F938F932A
:103870008F8D98A19F938F933F932F9381E08F9388
:103880000E9467128DB79EB743960FB6F8949EBFFD
:103890000FBE8DBF29E631E089819A819F938F9376
:1038A0008B819C819F938F938D819E819F938F931A
:1038B0008F8198859F938F9389859A859F938F9306
:1038C0008B859C859F938F938D859E859F938F93EA
:1038D0008F8598899F938F933F932F9381E08F9348
:1038E0000E9467128DB79EB743960FB6F8949EBF9D
:1038F0000FBE8DBF8CE196E00E94E70F86E691E057
:103900009F938F9381E08F930E9467120F900F9087
:103910000F9088E396E00E94E70F83E691E09F9383
:103920008F9381E08F930E9467120F900F900F90FA
:1039300086E496E00E94E70F80E691E09F938F93E4
:1039400081E08F930E9467120F900F900F906CEDA3
:103950007FEF80E090E00E948B13A0960FB6F89462
:10396000DEBF0FBECDBFCF91DF910895DF93CF9320
:1039700000D000D0CDB7DEB71C821B821A8219821C
:103980000E94F10340E056E960E070E080E00E94B0
:10399000120540E052EC61E070E081E00E94120507
:1039A00040E056E960E070E082E00E94120540E0ED
:1039B00056E960E070E083E00E9412058AE296E03A
:1039C0000E94E70F0E94D40A0E944E130E941A011F
:1039D00085E00E945B0181E00E946F010E94BE139E
:1039E00082EE91E09F938F9381E08F930E94671204
:1039F0000F900F900F901C821B8216C068E873E135
:103A000080E090E00E948B1380EE91E09F938F9373
:103A100081E08F930E9467120F900F900F908B811F
:103A20009C8101969C838B838B819C818131910544
:103A30002CF360E777E180E090E00E948B131C821A
:103A40001B820CC08B810E940702882F90E09A8312
:103A500089838B819C8101969C838B838B819C8144
:103A6000803191057CF30E94B0130E946419FDCF50
:103A7000629FD001739FF001829FE00DF11D649F52
:103A8000E00DF11D929FF00D839FF00D749FF00DDE
:103A9000659FF00D9927729FB00DE11DF91F639F7F
:103AA000B00DE11DF91FBD01CF0111240895AA1B1E
:103AB000BB1B51E107C0AA1FBB1FA617B70710F019
:103AC000A61BB70B881F991F5A95A9F7809590954B
:103AD000BC01CD01089597FB092E07260AD077FD7A
:103AE00004D0E5DF06D000201AF4709561957F4F71
:103AF0000895F6F7909581959F4F0895A1E21A2EAB
:103B0000AA1BBB1BFD010DC0AA1FBB1FEE1FFF1F81
:103B1000A217B307E407F50720F0A21BB30BE40BD1
:103B2000F50B661F771F881F991F1A9469F7609518
:103B30007095809590959B01AC01BD01CF010895D2
:103B400097FB092E05260ED057FD04D0D7DF0AD0EB
:103B5000001C38F450954095309521953F4F4F4FBC
:103B60005F4F0895F6F790958095709561957F4F1A
:0A3B70008F4F9F4F0895F894FFCF88
:103B7A0064006400620061005E005B00570052004E
:103B8A004D0047004000390032002A0022001A0086
:103B9A00110009000000F7FFEFFFE6FFDEFFD6FF86
:103BAA00CEFFC7FFC0FFB9FFB3FFAEFFA9FFA5FF56
:103BBA00A2FF9FFF9EFF9CFF9CFF9CFF9EFF9FFF13
:103BCA00A2FFA5FFA9FFAEFFB3FFB9FFC0FFC7FF62
:103BDA00CEFFD6FFDEFFE6FFEFFFF7FF000009008A
:103BEA0011001A0022002A00320039004000470062
:103BFA004D00520057005B005E00610062006400E5
:063C0A0064008000800050
:00000001FF
